{
  "contracts/HYDNSeal.sol": {
    "HYDNSeal": {
      "abi": [
        {
          "inputs": [],
          "stateMutability": "nonpayable",
          "type": "constructor"
        },
        {
          "anonymous": false,
          "inputs": [
            {
              "indexed": false,
              "internalType": "address",
              "name": "previousAdmin",
              "type": "address"
            },
            {
              "indexed": false,
              "internalType": "address",
              "name": "newAdmin",
              "type": "address"
            }
          ],
          "name": "AdminChanged",
          "type": "event"
        },
        {
          "anonymous": false,
          "inputs": [
            {
              "indexed": true,
              "internalType": "address",
              "name": "account",
              "type": "address"
            },
            {
              "indexed": true,
              "internalType": "address",
              "name": "operator",
              "type": "address"
            },
            {
              "indexed": false,
              "internalType": "bool",
              "name": "approved",
              "type": "bool"
            }
          ],
          "name": "ApprovalForAll",
          "type": "event"
        },
        {
          "anonymous": false,
          "inputs": [
            {
              "indexed": true,
              "internalType": "address",
              "name": "beacon",
              "type": "address"
            }
          ],
          "name": "BeaconUpgraded",
          "type": "event"
        },
        {
          "anonymous": false,
          "inputs": [
            {
              "indexed": false,
              "internalType": "uint8",
              "name": "version",
              "type": "uint8"
            }
          ],
          "name": "Initialized",
          "type": "event"
        },
        {
          "anonymous": false,
          "inputs": [
            {
              "indexed": true,
              "internalType": "address",
              "name": "previousOwner",
              "type": "address"
            },
            {
              "indexed": true,
              "internalType": "address",
              "name": "newOwner",
              "type": "address"
            }
          ],
          "name": "OwnershipTransferred",
          "type": "event"
        },
        {
          "anonymous": false,
          "inputs": [
            {
              "indexed": true,
              "internalType": "address",
              "name": "operator",
              "type": "address"
            },
            {
              "indexed": true,
              "internalType": "address",
              "name": "from",
              "type": "address"
            },
            {
              "indexed": true,
              "internalType": "address",
              "name": "to",
              "type": "address"
            },
            {
              "indexed": false,
              "internalType": "uint256[]",
              "name": "ids",
              "type": "uint256[]"
            },
            {
              "indexed": false,
              "internalType": "uint256[]",
              "name": "values",
              "type": "uint256[]"
            }
          ],
          "name": "TransferBatch",
          "type": "event"
        },
        {
          "anonymous": false,
          "inputs": [
            {
              "indexed": true,
              "internalType": "address",
              "name": "operator",
              "type": "address"
            },
            {
              "indexed": true,
              "internalType": "address",
              "name": "from",
              "type": "address"
            },
            {
              "indexed": true,
              "internalType": "address",
              "name": "to",
              "type": "address"
            },
            {
              "indexed": false,
              "internalType": "uint256",
              "name": "id",
              "type": "uint256"
            },
            {
              "indexed": false,
              "internalType": "uint256",
              "name": "value",
              "type": "uint256"
            }
          ],
          "name": "TransferSingle",
          "type": "event"
        },
        {
          "anonymous": false,
          "inputs": [
            {
              "indexed": false,
              "internalType": "string",
              "name": "value",
              "type": "string"
            },
            {
              "indexed": true,
              "internalType": "uint256",
              "name": "id",
              "type": "uint256"
            }
          ],
          "name": "URI",
          "type": "event"
        },
        {
          "anonymous": false,
          "inputs": [
            {
              "indexed": true,
              "internalType": "address",
              "name": "implementation",
              "type": "address"
            }
          ],
          "name": "Upgraded",
          "type": "event"
        },
        {
          "inputs": [
            {
              "internalType": "address",
              "name": "account",
              "type": "address"
            },
            {
              "internalType": "uint256",
              "name": "id",
              "type": "uint256"
            }
          ],
          "name": "balanceOf",
          "outputs": [
            {
              "internalType": "uint256",
              "name": "",
              "type": "uint256"
            }
          ],
          "stateMutability": "view",
          "type": "function"
        },
        {
          "inputs": [
            {
              "internalType": "address[]",
              "name": "accounts",
              "type": "address[]"
            },
            {
              "internalType": "uint256[]",
              "name": "ids",
              "type": "uint256[]"
            }
          ],
          "name": "balanceOfBatch",
          "outputs": [
            {
              "internalType": "uint256[]",
              "name": "",
              "type": "uint256[]"
            }
          ],
          "stateMutability": "view",
          "type": "function"
        },
        {
          "inputs": [],
          "name": "initialize",
          "outputs": [],
          "stateMutability": "nonpayable",
          "type": "function"
        },
        {
          "inputs": [
            {
              "internalType": "address",
              "name": "account",
              "type": "address"
            },
            {
              "internalType": "address",
              "name": "operator",
              "type": "address"
            }
          ],
          "name": "isApprovedForAll",
          "outputs": [
            {
              "internalType": "bool",
              "name": "",
              "type": "bool"
            }
          ],
          "stateMutability": "view",
          "type": "function"
        },
        {
          "inputs": [],
          "name": "owner",
          "outputs": [
            {
              "internalType": "address",
              "name": "",
              "type": "address"
            }
          ],
          "stateMutability": "view",
          "type": "function"
        },
        {
          "inputs": [],
          "name": "proxiableUUID",
          "outputs": [
            {
              "internalType": "bytes32",
              "name": "",
              "type": "bytes32"
            }
          ],
          "stateMutability": "view",
          "type": "function"
        },
        {
          "inputs": [],
          "name": "renounceOwnership",
          "outputs": [],
          "stateMutability": "nonpayable",
          "type": "function"
        },
        {
          "inputs": [
            {
              "internalType": "address",
              "name": "from",
              "type": "address"
            },
            {
              "internalType": "address",
              "name": "to",
              "type": "address"
            },
            {
              "internalType": "uint256[]",
              "name": "ids",
              "type": "uint256[]"
            },
            {
              "internalType": "uint256[]",
              "name": "amounts",
              "type": "uint256[]"
            },
            {
              "internalType": "bytes",
              "name": "data",
              "type": "bytes"
            }
          ],
          "name": "safeBatchTransferFrom",
          "outputs": [],
          "stateMutability": "nonpayable",
          "type": "function"
        },
        {
          "inputs": [
            {
              "internalType": "address",
              "name": "from",
              "type": "address"
            },
            {
              "internalType": "address",
              "name": "to",
              "type": "address"
            },
            {
              "internalType": "uint256",
              "name": "id",
              "type": "uint256"
            },
            {
              "internalType": "uint256",
              "name": "amount",
              "type": "uint256"
            },
            {
              "internalType": "bytes",
              "name": "data",
              "type": "bytes"
            }
          ],
          "name": "safeTransferFrom",
          "outputs": [],
          "stateMutability": "nonpayable",
          "type": "function"
        },
        {
          "inputs": [
            {
              "internalType": "address",
              "name": "operator",
              "type": "address"
            },
            {
              "internalType": "bool",
              "name": "approved",
              "type": "bool"
            }
          ],
          "name": "setApprovalForAll",
          "outputs": [],
          "stateMutability": "nonpayable",
          "type": "function"
        },
        {
          "inputs": [
            {
              "internalType": "bytes4",
              "name": "interfaceId",
              "type": "bytes4"
            }
          ],
          "name": "supportsInterface",
          "outputs": [
            {
              "internalType": "bool",
              "name": "",
              "type": "bool"
            }
          ],
          "stateMutability": "view",
          "type": "function"
        },
        {
          "inputs": [],
          "name": "test",
          "outputs": [
            {
              "internalType": "uint256",
              "name": "",
              "type": "uint256"
            }
          ],
          "stateMutability": "view",
          "type": "function"
        },
        {
          "inputs": [
            {
              "internalType": "address",
              "name": "newOwner",
              "type": "address"
            }
          ],
          "name": "transferOwnership",
          "outputs": [],
          "stateMutability": "nonpayable",
          "type": "function"
        },
        {
          "inputs": [
            {
              "internalType": "address",
              "name": "newImplementation",
              "type": "address"
            }
          ],
          "name": "upgradeTo",
          "outputs": [],
          "stateMutability": "nonpayable",
          "type": "function"
        },
        {
          "inputs": [
            {
              "internalType": "address",
              "name": "newImplementation",
              "type": "address"
            },
            {
              "internalType": "bytes",
              "name": "data",
              "type": "bytes"
            }
          ],
          "name": "upgradeToAndCall",
          "outputs": [],
          "stateMutability": "payable",
          "type": "function"
        },
        {
          "inputs": [
            {
              "internalType": "uint256",
              "name": "tokenId",
              "type": "uint256"
            }
          ],
          "name": "uri",
          "outputs": [
            {
              "internalType": "string",
              "name": "",
              "type": "string"
            }
          ],
          "stateMutability": "view",
          "type": "function"
        }
      ],
      "devdoc": {
        "kind": "dev",
        "methods": {
          "balanceOf(address,uint256)": {
            "details": "See {IERC1155-balanceOf}. Requirements: - `account` cannot be the zero address."
          },
          "balanceOfBatch(address[],uint256[])": {
            "details": "See {IERC1155-balanceOfBatch}. Requirements: - `accounts` and `ids` must have the same length."
          },
          "constructor": {
            "custom:oz-upgrades-unsafe-allow": "constructor"
          },
          "isApprovedForAll(address,address)": {
            "details": "See {IERC1155-isApprovedForAll}."
          },
          "owner()": {
            "details": "Returns the address of the current owner."
          },
          "proxiableUUID()": {
            "details": "Implementation of the ERC1822 {proxiableUUID} function. This returns the storage slot used by the implementation. It is used to validate that the this implementation remains valid after an upgrade. IMPORTANT: A proxy pointing at a proxiable contract should not be considered proxiable itself, because this risks bricking a proxy that upgrades to it, by delegating to itself until out of gas. Thus it is critical that this function revert if invoked through a proxy. This is guaranteed by the `notDelegated` modifier."
          },
          "renounceOwnership()": {
            "details": "Leaves the contract without owner. It will not be possible to call `onlyOwner` functions anymore. Can only be called by the current owner. NOTE: Renouncing ownership will leave the contract without an owner, thereby removing any functionality that is only available to the owner."
          },
          "safeBatchTransferFrom(address,address,uint256[],uint256[],bytes)": {
            "details": "See {IERC1155-safeBatchTransferFrom}."
          },
          "safeTransferFrom(address,address,uint256,uint256,bytes)": {
            "details": "See {IERC1155-safeTransferFrom}."
          },
          "setApprovalForAll(address,bool)": {
            "details": "See {IERC1155-setApprovalForAll}."
          },
          "supportsInterface(bytes4)": {
            "details": "See {IERC165-supportsInterface}."
          },
          "transferOwnership(address)": {
            "details": "Transfers ownership of the contract to a new account (`newOwner`). Can only be called by the current owner."
          },
          "upgradeTo(address)": {
            "details": "Upgrade the implementation of the proxy to `newImplementation`. Calls {_authorizeUpgrade}. Emits an {Upgraded} event."
          },
          "upgradeToAndCall(address,bytes)": {
            "details": "Upgrade the implementation of the proxy to `newImplementation`, and subsequently execute the function call encoded in `data`. Calls {_authorizeUpgrade}. Emits an {Upgraded} event."
          },
          "uri(uint256)": {
            "details": "See {IERC1155MetadataURI-uri}. This implementation returns the concatenation of the `_baseURI` and the token-specific uri if the latter is set This enables the following behaviors: - if `_tokenURIs[tokenId]` is set, then the result is the concatenation   of `_baseURI` and `_tokenURIs[tokenId]` (keep in mind that `_baseURI`   is empty per default); - if `_tokenURIs[tokenId]` is NOT set then we fallback to `super.uri()`   which in most cases will contain `ERC1155._uri`; - if `_tokenURIs[tokenId]` is NOT set, and if the parents do not have a   uri value set, then the result is empty."
          }
        },
        "version": 1
      },
      "evm": {
        "bytecode": {
          "linkReferences": {},
          "object": "60a0604052346100db573060805260ff345460081c1661008657345460ff8082161061004c575b60405161253a90816100e18239608051818181610a6e01528181610baf0152610eef0152f35b60ff908119161734557f7f26b83ff96e1f2b6a682f133852f6798a09c465da95921460cefb3847402498602060405160ff8152a138610026565b60405162461bcd60e51b815260206004820152602760248201527f496e697469616c697a61626c653a20636f6e747261637420697320696e697469604482015266616c697a696e6760c81b6064820152608490fd5b600080fdfe6080604052600436101561001257600080fd5b60003560e01c8062fdd58e1461171557806301ffc9a7146116435780630e89341c146113565780632eb2c2d614610f735780633659cfe614610e9e5780634e1273f414610c265780634f1ef28614610b4257806352d1902d14610a46578063715018a614610a235780638129fc1c146107d95780638da5cb5b146107a5578063a22cb46514610667578063e985e9c5146105b8578063f242432a146101bd578063f2fde38b146100ef5763f8a8fd6d146100cb57600080fd5b346100ea5760006003193601126100ea57602061015f54604051908152f35b600080fd5b346100ea5760206003193601126100ea5760043573ffffffffffffffffffffffffffffffffffffffff81168082036100ea57610129611954565b1561013957610137906119d4565b005b60846040517f08c379a000000000000000000000000000000000000000000000000000000000815260206004820152602660248201527f4f776e61626c653a206e6577206f776e657220697320746865207a65726f206160448201527f64647265737300000000000000000000000000000000000000000000000000006064820152fd5b346100ea5760a06003193601126100ea5760043573ffffffffffffffffffffffffffffffffffffffff8116908181036100ea576024359173ffffffffffffffffffffffffffffffffffffffff83168084036100ea57604435916064359460843567ffffffffffffffff81116100ea5761023d61024f9136906004016118d9565b9533841490811561055f575b5061212a565b61025a8315156121b5565b610263846123e1565b5061026d866123e1565b508360005260fb60205260406000208260005260205260406000205461029587821015612240565b600085815260fb60209081526040808320868452909152808220928990039092558481522080546102c79088906122cb565b905582826040518681528860208201527fc3d58168c5ae7397731d063d5bbf3d657854427343f4c083240f7aacaa2d0f6260403392a43b61030457005b600061035d60209560405197889687957ff23a6e6100000000000000000000000000000000000000000000000000000000875233600488015260248701526044860152606485015260a0608485015260a484019061230f565b92825a940393f16000918161052f575b506104605750600161037d61234b565b6308c379a014610417575b61038e57005b6040517f08c379a000000000000000000000000000000000000000000000000000000000815260206004820152603460248201527f455243313135353a207472616e7366657220746f206e6f6e204552433131353560448201527f526563656976657220696d706c656d656e7465720000000000000000000000006064820152608490fd5b0390fd5b61041f612369565b8061042a5750610388565b610413906040519182917f08c379a000000000000000000000000000000000000000000000000000000000835260048301611792565b7fffffffff000000000000000000000000000000000000000000000000000000007ff23a6e610000000000000000000000000000000000000000000000000000000091160315610137576040517f08c379a000000000000000000000000000000000000000000000000000000000815260206004820152602860248201527f455243313135353a204552433131353552656365697665722072656a6563746560448201527f6420746f6b656e730000000000000000000000000000000000000000000000006064820152608490fd5b61055191925060203d8111610558575b61054981836117dc565b8101906122d7565b908261036d565b503d61053f565b6105b29150339073ffffffffffffffffffffffffffffffffffffffff1660005260fc60205273ffffffffffffffffffffffffffffffffffffffff6040600020911660005260205260ff6040600020541690565b88610249565b346100ea5760406003193601126100ea5760043573ffffffffffffffffffffffffffffffffffffffff811681036100ea576024359073ffffffffffffffffffffffffffffffffffffffff821682036100ea5760209161065d9173ffffffffffffffffffffffffffffffffffffffff1660005260fc60205273ffffffffffffffffffffffffffffffffffffffff6040600020911660005260205260ff6040600020541690565b6040519015158152f35b346100ea5760406003193601126100ea5760043573ffffffffffffffffffffffffffffffffffffffff81168091036100ea576024358015158091036100ea57813314610721573360005260fc602052604060002082600052602052604060002080547fffffffffffffffffffffffffffffffffffffffffffffffffffffffffffffff0060ff841691161790556040519081527f17307eab39ab6107e8899845ad3d59bd9653f200f220920489ca2b5937696c3160203392a3005b60846040517f08c379a000000000000000000000000000000000000000000000000000000000815260206004820152602960248201527f455243313135353a2073657474696e6720617070726f76616c2073746174757360448201527f20666f722073656c6600000000000000000000000000000000000000000000006064820152fd5b346100ea5760006003193601126100ea57602060975473ffffffffffffffffffffffffffffffffffffffff60405191168152f35b346100ea5760006003193601126100ea5760005460ff8160081c161590818092610a16575b80156109ff575b1561097b578160017fffffffffffffffffffffffffffffffffffffffffffffffffffffffffffffff0083161760005561094c575b5061086660ff60005460081c1661084f81612479565b61085881612479565b61086181612479565b612479565b61086f336119d4565b61088460ff60005460081c1661086181612479565b61089061012d5461240a565b601f8111610901575b50600061012d55600161015f556108ac57005b7fffffffffffffffffffffffffffffffffffffffffffffffffffffffffffff00ff600054166000557f7f26b83ff96e1f2b6a682f133852f6798a09c465da95921460cefb3847402498602060405160018152a1005b61012d600052601f0160051c7f193a3ae4da5049eb74cee39e4cf5827f7ce7b1d1d1775ef1c6311eb60558e6d5908101905b8181106109405750610899565b60008155600101610933565b7fffffffffffffffffffffffffffffffffffffffffffffffffffffffffffff0000166101011760005581610839565b60846040517f08c379a000000000000000000000000000000000000000000000000000000000815260206004820152602e60248201527f496e697469616c697a61626c653a20636f6e747261637420697320616c72656160448201527f647920696e697469616c697a65640000000000000000000000000000000000006064820152fd5b50303b1580156108055750600160ff821614610805565b50600160ff8216106107fe565b346100ea5760006003193601126100ea57610a3c611954565b61013760006119d4565b346100ea5760006003193601126100ea5773ffffffffffffffffffffffffffffffffffffffff7f0000000000000000000000000000000000000000000000000000000000000000163003610abe5760206040517f360894a13ba1a3210667c828492db98dca3e2076cc3735a920a3ca505d382bbc8152f35b60846040517f08c379a000000000000000000000000000000000000000000000000000000000815260206004820152603860248201527f555550535570677261646561626c653a206d757374206e6f742062652063616c60448201527f6c6564207468726f7567682064656c656761746563616c6c00000000000000006064820152fd5b60406003193601126100ea5760043573ffffffffffffffffffffffffffffffffffffffff811681036100ea5760243567ffffffffffffffff81116100ea5761013791610b9460019236906004016118d9565b90610c1973ffffffffffffffffffffffffffffffffffffffff7f000000000000000000000000000000000000000000000000000000000000000016610bdb81301415611a5d565b73ffffffffffffffffffffffffffffffffffffffff7f360894a13ba1a3210667c828492db98dca3e2076cc3735a920a3ca505d382bbc541614611ae8565b610c21611954565b611b73565b346100ea5760406003193601126100ea5760043567ffffffffffffffff81116100ea57366023820112156100ea5780600401359067ffffffffffffffff8211610e6f578160051b9060405192610c7f60208401856117dc565b835260246020840192820101903682116100ea57602401915b818310610e42578360243567ffffffffffffffff81116100ea57610cc0903690600401611835565b908051825103610dbe5780517fffffffffffffffffffffffffffffffffffffffffffffffffffffffffffffffe0610d0f610cf98361181d565b92610d0760405194856117dc565b80845261181d565b0136602083013760005b825181108015610da45715610d755780610d606020610d709360051b8601015173ffffffffffffffffffffffffffffffffffffffff610d588489612116565b519116611ffc565b610d6a8285612116565b526120ba565b610d19565b7f4e487b7100000000000000000000000000000000000000000000000000000000600052603260045260246000fd5b60405160208082528190610dba90820186611920565b0390f35b60846040517f08c379a000000000000000000000000000000000000000000000000000000000815260206004820152602960248201527f455243313135353a206163636f756e747320616e6420696473206c656e67746860448201527f206d69736d6174636800000000000000000000000000000000000000000000006064820152fd5b823573ffffffffffffffffffffffffffffffffffffffff811681036100ea57815260209283019201610c98565b7f4e487b7100000000000000000000000000000000000000000000000000000000600052604160045260246000fd5b346100ea5760206003193601126100ea5760043573ffffffffffffffffffffffffffffffffffffffff811681036100ea57600061013791610f1b73ffffffffffffffffffffffffffffffffffffffff7f000000000000000000000000000000000000000000000000000000000000000016610bdb81301415611a5d565b610f23611954565b610f2c8261189f565b90610f3a60405192836117dc565b8282527fffffffffffffffffffffffffffffffffffffffffffffffffffffffffffffffe0610f678461189f565b01366020840137611b73565b346100ea5760a06003193601126100ea5760043573ffffffffffffffffffffffffffffffffffffffff81168082036100ea576024359073ffffffffffffffffffffffffffffffffffffffff82168083036100ea5760443567ffffffffffffffff81116100ea57610fe7903690600401611835565b9360643567ffffffffffffffff81116100ea57611008903690600401611835565b9060843567ffffffffffffffff81116100ea5761102c61103d9136906004016118d9565b9133861490811561055f575061212a565b85518251036112d2576110518315156121b5565b60005b86518110156110ee578061106b6110e99289612116565b516110768286612116565b51908060005260fb60205260406000208860005260205260406000205461109f83821015612240565b8160005260fb6020526040600020896000526020528260406000209103905560005260fb6020526040600020866000526020526110e260406000209182546122cb565b90556120ba565b611054565b50949290938282604051604081527f4a39dc06d4c0dbc64b70af90fd698a233a518aa5d07e595d983b8c0526c8f7fb61113b61112d604084018a611920565b83810360208501528a611920565b918033930390a43b61114957005b60006111c361119f966111b1602097604051998a9889977fbc197c810000000000000000000000000000000000000000000000000000000089523360048a0152602489015260a0604489015260a4880190611920565b90600319878303016064880152611920565b9060031985830301608486015261230f565b92825a940393f1600091816112b2575b506111e35750600161037d61234b565b7fffffffff000000000000000000000000000000000000000000000000000000007fbc197c810000000000000000000000000000000000000000000000000000000091160315610137576040517f08c379a000000000000000000000000000000000000000000000000000000000815260206004820152602860248201527f455243313135353a204552433131353552656365697665722072656a6563746560448201527f6420746f6b656e730000000000000000000000000000000000000000000000006064820152608490fd5b6112cb91925060203d81116105585761054981836117dc565b90826111d3565b60846040517f08c379a000000000000000000000000000000000000000000000000000000000815260206004820152602860248201527f455243313135353a2069647320616e6420616d6f756e7473206c656e6774682060448201527f6d69736d617463680000000000000000000000000000000000000000000000006064820152fd5b346100ea5760206003193601126100ea5760043560005261012e60205260406000206040516000918181549361138b8561240a565b92838352602083019560018116908160001461160657506001146115bf575b506113b7925003826117dc565b8051600090156114d957506040519060009061012d546113d68161240a565b9060018116908115611497575060011461143c575b508161143092611403610dba9686945193849161175d565b01037fffffffffffffffffffffffffffffffffffffffffffffffffffffffffffffffe081018352826117dc565b60405191829182611792565b90915061012d6000527f193a3ae4da5049eb74cee39e4cf5827f7ce7b1d1d1775ef1c6311eb60558e6d56000905b828210611481575050820160200190610dba6113eb565b600181602092548385890101520191019061146a565b7fffffffffffffffffffffffffffffffffffffffffffffffffffffffffffffff001660208087019190915282151590920285019091019250610dba90506113eb565b915050604051908060fd54906114ee8261240a565b808552916001811690811561157a575060011461151d575b50509061151881610dba9303826117dc565b611430565b60fd81527f9346ac6dd7de6b96975fec380d4d994c4c12e6a8897544f22915316cc6cca280939250905b8082106115605750909150810160200161151882611506565b919260018160209254838588010152019101909291611547565b7fffffffffffffffffffffffffffffffffffffffffffffffffffffffffffffff001660208087019190915292151560051b850190920192506115189150839050611506565b90506000929192526020600020906000915b8183106115ea5750509060206113b792820101856113aa565b60209193508060019154838588010152019101909183926115d1565b7fffffffffffffffffffffffffffffffffffffffffffffffffffffffffffffff00168752506113b793151560051b830160200191508690506113aa565b346100ea5760206003193601126100ea576004357fffffffff0000000000000000000000000000000000000000000000000000000081168091036100ea57807fd9b67a2600000000000000000000000000000000000000000000000000000000602092149081156116eb575b81156116c1575b506040519015158152f35b7f01ffc9a700000000000000000000000000000000000000000000000000000000915014826116b6565b7f0e89341c00000000000000000000000000000000000000000000000000000000811491506116af565b346100ea5760406003193601126100ea5760043573ffffffffffffffffffffffffffffffffffffffff811681036100ea5761175560209160243590611ffc565b604051908152f35b918091926000905b82821061177d575011611776575050565b6000910152565b91508060209183015181860152018291611765565b7fffffffffffffffffffffffffffffffffffffffffffffffffffffffffffffffe0601f604093602084526117d5815180928160208801526020888801910161175d565b0116010190565b90601f7fffffffffffffffffffffffffffffffffffffffffffffffffffffffffffffffe0910116810190811067ffffffffffffffff821117610e6f57604052565b67ffffffffffffffff8111610e6f5760051b60200190565b9080601f8301121590816100ea5782359161184f8361181d565b9361185d60405195866117dc565b83855260208086019460051b8201019283116100ea57602001925b828410611886575050505090565b8161189b578335815260209384019301611878565b5080fd5b67ffffffffffffffff8111610e6f57601f017fffffffffffffffffffffffffffffffffffffffffffffffffffffffffffffffe01660200190565b81601f820112156100ea578035906118f08261189f565b926118fe60405194856117dc565b828452602083830101116100ea57816000926020809301838601378301015290565b906020808351928381520192019060005b81811061193e5750505090565b8251845260209384019390920191600101611931565b60975473ffffffffffffffffffffffffffffffffffffffff3391160361197657565b60646040517f08c379a000000000000000000000000000000000000000000000000000000000815260206004820152602060248201527f4f776e61626c653a2063616c6c6572206973206e6f7420746865206f776e65726044820152fd5b7fffffffffffffffffffffffff0000000000000000000000000000000000000000906097549073ffffffffffffffffffffffffffffffffffffffff609754911692839116176097557f8be0079c531659141344cd1fd0a4f28419497f9722a3daafe3b4186f6b6457e0600073ffffffffffffffffffffffffffffffffffffffff604051931692a3565b15611a6457565b60846040517f08c379a000000000000000000000000000000000000000000000000000000000815260206004820152602c60248201527f46756e6374696f6e206d7573742062652063616c6c6564207468726f7567682060448201527f64656c656761746563616c6c00000000000000000000000000000000000000006064820152fd5b15611aef57565b60846040517f08c379a000000000000000000000000000000000000000000000000000000000815260206004820152602c60248201527f46756e6374696f6e206d7573742062652063616c6c6564207468726f7567682060448201527f6163746976652070726f787900000000000000000000000000000000000000006064820152fd5b9060ff7f4910fdfa16fed3260ed0e7147f7cc6da11a60208b5b9406d12a635614ffd91435416600014611bad5750611bab9150611ef0565b565b604051927f52d1902d0000000000000000000000000000000000000000000000000000000084525a9360208160048173ffffffffffffffffffffffffffffffffffffffff88168099fa60009181611eba575b50611c885760846040517f08c379a000000000000000000000000000000000000000000000000000000000815260206004820152602e60248201527f45524331393637557067726164653a206e657720696d706c656d656e7461746960448201527f6f6e206973206e6f7420555550530000000000000000000000000000000000006064820152fd5b7f360894a13ba1a3210667c828492db98dca3e2076cc3735a920a3ca505d382bbc03611e3657611cb783611ef0565b604051937fbc7cd75a20ee27fd9adebab32041f755214dbc6bffa90cc0225b39da2e5c2d3b600086a281511590811591611e2e575b50611cf657505050565b600092823b15611dac57509180809284611da195519160205a920191f4903d15611da4573d611d248161189f565b90611d3260405192836117dc565b8152809160203d92013e5b60405191611d4c6060846117dc565b602783527f416464726573733a206c6f772d6c6576656c2064656c65676174652063616c6c60208401527f206661696c656400000000000000000000000000000000000000000000000000604084015261245d565b50565b506060611d3d565b807f08c379a0000000000000000000000000000000000000000000000000000000006084925260206004820152602660248201527f416464726573733a2064656c65676174652063616c6c20746f206e6f6e2d636f60448201527f6e747261637400000000000000000000000000000000000000000000000000006064820152fd5b905038611cec565b60846040517f08c379a000000000000000000000000000000000000000000000000000000000815260206004820152602960248201527f45524331393637557067726164653a20756e737570706f727465642070726f7860448201527f6961626c655555494400000000000000000000000000000000000000000000006064820152fd5b90916020823d8211611ee8575b81611ed4602093836117dc565b81010312611ee55750519038611bff565b80fd5b3d9150611ec7565b803b15611f78577fffffffffffffffffffffffff000000000000000000000000000000000000000073ffffffffffffffffffffffffffffffffffffffff7f360894a13ba1a3210667c828492db98dca3e2076cc3735a920a3ca505d382bbc5492169116177f360894a13ba1a3210667c828492db98dca3e2076cc3735a920a3ca505d382bbc55565b60846040517f08c379a000000000000000000000000000000000000000000000000000000000815260206004820152602d60248201527f455243313936373a206e657720696d706c656d656e746174696f6e206973206e60448201527f6f74206120636f6e7472616374000000000000000000000000000000000000006064820152fd5b73ffffffffffffffffffffffffffffffffffffffff169081156120365760005260fb60205260406000209060005260205260406000205490565b60846040517f08c379a000000000000000000000000000000000000000000000000000000000815260206004820152602a60248201527f455243313135353a2061646472657373207a65726f206973206e6f742061207660448201527f616c6964206f776e6572000000000000000000000000000000000000000000006064820152fd5b7fffffffffffffffffffffffffffffffffffffffffffffffffffffffffffffffff81146120e75760010190565b7f4e487b7100000000000000000000000000000000000000000000000000000000600052601160045260246000fd5b8051821015610d755760209160051b010190565b1561213157565b60846040517f08c379a000000000000000000000000000000000000000000000000000000000815260206004820152602f60248201527f455243313135353a2063616c6c6572206973206e6f7420746f6b656e206f776e60448201527f6572206e6f7220617070726f76656400000000000000000000000000000000006064820152fd5b156121bc57565b60846040517f08c379a000000000000000000000000000000000000000000000000000000000815260206004820152602560248201527f455243313135353a207472616e7366657220746f20746865207a65726f20616460448201527f64726573730000000000000000000000000000000000000000000000000000006064820152fd5b1561224757565b60846040517f08c379a000000000000000000000000000000000000000000000000000000000815260206004820152602a60248201527f455243313135353a20696e73756666696369656e742062616c616e636520666f60448201527f72207472616e73666572000000000000000000000000000000000000000000006064820152fd5b811981116120e7570190565b908160209103126100ea57517fffffffff00000000000000000000000000000000000000000000000000000000811681036100ea5790565b907fffffffffffffffffffffffffffffffffffffffffffffffffffffffffffffffe0601f6020936117d58151809281875287808801910161175d565b60009060033d1161235857565b905060046000803e60005160e01c90565b600060443d106123d0576040516003193d016004823e8051913d602484011167ffffffffffffffff8411176123db578282019283519167ffffffffffffffff83116123d3576003193d850101602084870101116123d357506123d0929101602001906117dc565b90565b949350505050565b92915050565b604051906123f06040836117dc565b6001825260203681840137612406600083612116565b5290565b90600182811c92168015612453575b602083101461242457565b7f4e487b7100000000000000000000000000000000000000000000000000000000600052602260045260246000fd5b91607f1691612419565b90919015612469575090565b81511561042a5750805190602001fd5b1561248057565b60846040517f08c379a000000000000000000000000000000000000000000000000000000000815260206004820152602b60248201527f496e697469616c697a61626c653a20636f6e7472616374206973206e6f74206960448201527f6e697469616c697a696e670000000000000000000000000000000000000000006064820152fdfea264697066735822122022eeedf6ca0df2aa240e37671f0e8e2ed88e80f6344fe79248d541fde05130be64736f6c634300080f0033",
          "opcodes": "PUSH1 0xA0 PUSH1 0x40 MSTORE CALLVALUE PUSH2 0xDB JUMPI ADDRESS PUSH1 0x80 MSTORE PUSH1 0xFF CALLVALUE SLOAD PUSH1 0x8 SHR AND PUSH2 0x86 JUMPI CALLVALUE SLOAD PUSH1 0xFF DUP1 DUP3 AND LT PUSH2 0x4C JUMPI JUMPDEST PUSH1 0x40 MLOAD PUSH2 0x253A SWAP1 DUP2 PUSH2 0xE1 DUP3 CODECOPY PUSH1 0x80 MLOAD DUP2 DUP2 DUP2 PUSH2 0xA6E ADD MSTORE DUP2 DUP2 PUSH2 0xBAF ADD MSTORE PUSH2 0xEEF ADD MSTORE RETURN JUMPDEST PUSH1 0xFF SWAP1 DUP2 NOT AND OR CALLVALUE SSTORE PUSH32 0x7F26B83FF96E1F2B6A682F133852F6798A09C465DA95921460CEFB3847402498 PUSH1 0x20 PUSH1 0x40 MLOAD PUSH1 0xFF DUP2 MSTORE LOG1 CODESIZE PUSH2 0x26 JUMP JUMPDEST PUSH1 0x40 MLOAD PUSH3 0x461BCD PUSH1 0xE5 SHL DUP2 MSTORE PUSH1 0x20 PUSH1 0x4 DUP3 ADD MSTORE PUSH1 0x27 PUSH1 0x24 DUP3 ADD MSTORE PUSH32 0x496E697469616C697A61626C653A20636F6E747261637420697320696E697469 PUSH1 0x44 DUP3 ADD MSTORE PUSH7 0x616C697A696E67 PUSH1 0xC8 SHL PUSH1 0x64 DUP3 ADD MSTORE PUSH1 0x84 SWAP1 REVERT JUMPDEST PUSH1 0x0 DUP1 REVERT INVALID PUSH1 0x80 PUSH1 0x40 MSTORE PUSH1 0x4 CALLDATASIZE LT ISZERO PUSH2 0x12 JUMPI PUSH1 0x0 DUP1 REVERT JUMPDEST PUSH1 0x0 CALLDATALOAD PUSH1 0xE0 SHR DUP1 PUSH3 0xFDD58E EQ PUSH2 0x1715 JUMPI DUP1 PUSH4 0x1FFC9A7 EQ PUSH2 0x1643 JUMPI DUP1 PUSH4 0xE89341C EQ PUSH2 0x1356 JUMPI DUP1 PUSH4 0x2EB2C2D6 EQ PUSH2 0xF73 JUMPI DUP1 PUSH4 0x3659CFE6 EQ PUSH2 0xE9E JUMPI DUP1 PUSH4 0x4E1273F4 EQ PUSH2 0xC26 JUMPI DUP1 PUSH4 0x4F1EF286 EQ PUSH2 0xB42 JUMPI DUP1 PUSH4 0x52D1902D EQ PUSH2 0xA46 JUMPI DUP1 PUSH4 0x715018A6 EQ PUSH2 0xA23 JUMPI DUP1 PUSH4 0x8129FC1C EQ PUSH2 0x7D9 JUMPI DUP1 PUSH4 0x8DA5CB5B EQ PUSH2 0x7A5 JUMPI DUP1 PUSH4 0xA22CB465 EQ PUSH2 0x667 JUMPI DUP1 PUSH4 0xE985E9C5 EQ PUSH2 0x5B8 JUMPI DUP1 PUSH4 0xF242432A EQ PUSH2 0x1BD JUMPI DUP1 PUSH4 0xF2FDE38B EQ PUSH2 0xEF JUMPI PUSH4 0xF8A8FD6D EQ PUSH2 0xCB JUMPI PUSH1 0x0 DUP1 REVERT JUMPDEST CALLVALUE PUSH2 0xEA JUMPI PUSH1 0x0 PUSH1 0x3 NOT CALLDATASIZE ADD SLT PUSH2 0xEA JUMPI PUSH1 0x20 PUSH2 0x15F SLOAD PUSH1 0x40 MLOAD SWAP1 DUP2 MSTORE RETURN JUMPDEST PUSH1 0x0 DUP1 REVERT JUMPDEST CALLVALUE PUSH2 0xEA JUMPI PUSH1 0x20 PUSH1 0x3 NOT CALLDATASIZE ADD SLT PUSH2 0xEA JUMPI PUSH1 0x4 CALLDATALOAD PUSH20 0xFFFFFFFFFFFFFFFFFFFFFFFFFFFFFFFFFFFFFFFF DUP2 AND DUP1 DUP3 SUB PUSH2 0xEA JUMPI PUSH2 0x129 PUSH2 0x1954 JUMP JUMPDEST ISZERO PUSH2 0x139 JUMPI PUSH2 0x137 SWAP1 PUSH2 0x19D4 JUMP JUMPDEST STOP JUMPDEST PUSH1 0x84 PUSH1 0x40 MLOAD PUSH32 0x8C379A000000000000000000000000000000000000000000000000000000000 DUP2 MSTORE PUSH1 0x20 PUSH1 0x4 DUP3 ADD MSTORE PUSH1 0x26 PUSH1 0x24 DUP3 ADD MSTORE PUSH32 0x4F776E61626C653A206E6577206F776E657220697320746865207A65726F2061 PUSH1 0x44 DUP3 ADD MSTORE PUSH32 0x6464726573730000000000000000000000000000000000000000000000000000 PUSH1 0x64 DUP3 ADD MSTORE REVERT JUMPDEST CALLVALUE PUSH2 0xEA JUMPI PUSH1 0xA0 PUSH1 0x3 NOT CALLDATASIZE ADD SLT PUSH2 0xEA JUMPI PUSH1 0x4 CALLDATALOAD PUSH20 0xFFFFFFFFFFFFFFFFFFFFFFFFFFFFFFFFFFFFFFFF DUP2 AND SWAP1 DUP2 DUP2 SUB PUSH2 0xEA JUMPI PUSH1 0x24 CALLDATALOAD SWAP2 PUSH20 0xFFFFFFFFFFFFFFFFFFFFFFFFFFFFFFFFFFFFFFFF DUP4 AND DUP1 DUP5 SUB PUSH2 0xEA JUMPI PUSH1 0x44 CALLDATALOAD SWAP2 PUSH1 0x64 CALLDATALOAD SWAP5 PUSH1 0x84 CALLDATALOAD PUSH8 0xFFFFFFFFFFFFFFFF DUP2 GT PUSH2 0xEA JUMPI PUSH2 0x23D PUSH2 0x24F SWAP2 CALLDATASIZE SWAP1 PUSH1 0x4 ADD PUSH2 0x18D9 JUMP JUMPDEST SWAP6 CALLER DUP5 EQ SWAP1 DUP2 ISZERO PUSH2 0x55F JUMPI JUMPDEST POP PUSH2 0x212A JUMP JUMPDEST PUSH2 0x25A DUP4 ISZERO ISZERO PUSH2 0x21B5 JUMP JUMPDEST PUSH2 0x263 DUP5 PUSH2 0x23E1 JUMP JUMPDEST POP PUSH2 0x26D DUP7 PUSH2 0x23E1 JUMP JUMPDEST POP DUP4 PUSH1 0x0 MSTORE PUSH1 0xFB PUSH1 0x20 MSTORE PUSH1 0x40 PUSH1 0x0 KECCAK256 DUP3 PUSH1 0x0 MSTORE PUSH1 0x20 MSTORE PUSH1 0x40 PUSH1 0x0 KECCAK256 SLOAD PUSH2 0x295 DUP8 DUP3 LT ISZERO PUSH2 0x2240 JUMP JUMPDEST PUSH1 0x0 DUP6 DUP2 MSTORE PUSH1 0xFB PUSH1 0x20 SWAP1 DUP2 MSTORE PUSH1 0x40 DUP1 DUP4 KECCAK256 DUP7 DUP5 MSTORE SWAP1 SWAP2 MSTORE DUP1 DUP3 KECCAK256 SWAP3 DUP10 SWAP1 SUB SWAP1 SWAP3 SSTORE DUP5 DUP2 MSTORE KECCAK256 DUP1 SLOAD PUSH2 0x2C7 SWAP1 DUP9 SWAP1 PUSH2 0x22CB JUMP JUMPDEST SWAP1 SSTORE DUP3 DUP3 PUSH1 0x40 MLOAD DUP7 DUP2 MSTORE DUP9 PUSH1 0x20 DUP3 ADD MSTORE PUSH32 0xC3D58168C5AE7397731D063D5BBF3D657854427343F4C083240F7AACAA2D0F62 PUSH1 0x40 CALLER SWAP3 LOG4 EXTCODESIZE PUSH2 0x304 JUMPI STOP JUMPDEST PUSH1 0x0 PUSH2 0x35D PUSH1 0x20 SWAP6 PUSH1 0x40 MLOAD SWAP8 DUP9 SWAP7 DUP8 SWAP6 PUSH32 0xF23A6E6100000000000000000000000000000000000000000000000000000000 DUP8 MSTORE CALLER PUSH1 0x4 DUP9 ADD MSTORE PUSH1 0x24 DUP8 ADD MSTORE PUSH1 0x44 DUP7 ADD MSTORE PUSH1 0x64 DUP6 ADD MSTORE PUSH1 0xA0 PUSH1 0x84 DUP6 ADD MSTORE PUSH1 0xA4 DUP5 ADD SWAP1 PUSH2 0x230F JUMP JUMPDEST SWAP3 DUP3 GAS SWAP5 SUB SWAP4 CALL PUSH1 0x0 SWAP2 DUP2 PUSH2 0x52F JUMPI JUMPDEST POP PUSH2 0x460 JUMPI POP PUSH1 0x1 PUSH2 0x37D PUSH2 0x234B JUMP JUMPDEST PUSH4 0x8C379A0 EQ PUSH2 0x417 JUMPI JUMPDEST PUSH2 0x38E JUMPI STOP JUMPDEST PUSH1 0x40 MLOAD PUSH32 0x8C379A000000000000000000000000000000000000000000000000000000000 DUP2 MSTORE PUSH1 0x20 PUSH1 0x4 DUP3 ADD MSTORE PUSH1 0x34 PUSH1 0x24 DUP3 ADD MSTORE PUSH32 0x455243313135353A207472616E7366657220746F206E6F6E2045524331313535 PUSH1 0x44 DUP3 ADD MSTORE PUSH32 0x526563656976657220696D706C656D656E746572000000000000000000000000 PUSH1 0x64 DUP3 ADD MSTORE PUSH1 0x84 SWAP1 REVERT JUMPDEST SUB SWAP1 REVERT JUMPDEST PUSH2 0x41F PUSH2 0x2369 JUMP JUMPDEST DUP1 PUSH2 0x42A JUMPI POP PUSH2 0x388 JUMP JUMPDEST PUSH2 0x413 SWAP1 PUSH1 0x40 MLOAD SWAP2 DUP3 SWAP2 PUSH32 0x8C379A000000000000000000000000000000000000000000000000000000000 DUP4 MSTORE PUSH1 0x4 DUP4 ADD PUSH2 0x1792 JUMP JUMPDEST PUSH32 0xFFFFFFFF00000000000000000000000000000000000000000000000000000000 PUSH32 0xF23A6E6100000000000000000000000000000000000000000000000000000000 SWAP2 AND SUB ISZERO PUSH2 0x137 JUMPI PUSH1 0x40 MLOAD PUSH32 0x8C379A000000000000000000000000000000000000000000000000000000000 DUP2 MSTORE PUSH1 0x20 PUSH1 0x4 DUP3 ADD MSTORE PUSH1 0x28 PUSH1 0x24 DUP3 ADD MSTORE PUSH32 0x455243313135353A204552433131353552656365697665722072656A65637465 PUSH1 0x44 DUP3 ADD MSTORE PUSH32 0x6420746F6B656E73000000000000000000000000000000000000000000000000 PUSH1 0x64 DUP3 ADD MSTORE PUSH1 0x84 SWAP1 REVERT JUMPDEST PUSH2 0x551 SWAP2 SWAP3 POP PUSH1 0x20 RETURNDATASIZE DUP2 GT PUSH2 0x558 JUMPI JUMPDEST PUSH2 0x549 DUP2 DUP4 PUSH2 0x17DC JUMP JUMPDEST DUP2 ADD SWAP1 PUSH2 0x22D7 JUMP JUMPDEST SWAP1 DUP3 PUSH2 0x36D JUMP JUMPDEST POP RETURNDATASIZE PUSH2 0x53F JUMP JUMPDEST PUSH2 0x5B2 SWAP2 POP CALLER SWAP1 PUSH20 0xFFFFFFFFFFFFFFFFFFFFFFFFFFFFFFFFFFFFFFFF AND PUSH1 0x0 MSTORE PUSH1 0xFC PUSH1 0x20 MSTORE PUSH20 0xFFFFFFFFFFFFFFFFFFFFFFFFFFFFFFFFFFFFFFFF PUSH1 0x40 PUSH1 0x0 KECCAK256 SWAP2 AND PUSH1 0x0 MSTORE PUSH1 0x20 MSTORE PUSH1 0xFF PUSH1 0x40 PUSH1 0x0 KECCAK256 SLOAD AND SWAP1 JUMP JUMPDEST DUP9 PUSH2 0x249 JUMP JUMPDEST CALLVALUE PUSH2 0xEA JUMPI PUSH1 0x40 PUSH1 0x3 NOT CALLDATASIZE ADD SLT PUSH2 0xEA JUMPI PUSH1 0x4 CALLDATALOAD PUSH20 0xFFFFFFFFFFFFFFFFFFFFFFFFFFFFFFFFFFFFFFFF DUP2 AND DUP2 SUB PUSH2 0xEA JUMPI PUSH1 0x24 CALLDATALOAD SWAP1 PUSH20 0xFFFFFFFFFFFFFFFFFFFFFFFFFFFFFFFFFFFFFFFF DUP3 AND DUP3 SUB PUSH2 0xEA JUMPI PUSH1 0x20 SWAP2 PUSH2 0x65D SWAP2 PUSH20 0xFFFFFFFFFFFFFFFFFFFFFFFFFFFFFFFFFFFFFFFF AND PUSH1 0x0 MSTORE PUSH1 0xFC PUSH1 0x20 MSTORE PUSH20 0xFFFFFFFFFFFFFFFFFFFFFFFFFFFFFFFFFFFFFFFF PUSH1 0x40 PUSH1 0x0 KECCAK256 SWAP2 AND PUSH1 0x0 MSTORE PUSH1 0x20 MSTORE PUSH1 0xFF PUSH1 0x40 PUSH1 0x0 KECCAK256 SLOAD AND SWAP1 JUMP JUMPDEST PUSH1 0x40 MLOAD SWAP1 ISZERO ISZERO DUP2 MSTORE RETURN JUMPDEST CALLVALUE PUSH2 0xEA JUMPI PUSH1 0x40 PUSH1 0x3 NOT CALLDATASIZE ADD SLT PUSH2 0xEA JUMPI PUSH1 0x4 CALLDATALOAD PUSH20 0xFFFFFFFFFFFFFFFFFFFFFFFFFFFFFFFFFFFFFFFF DUP2 AND DUP1 SWAP2 SUB PUSH2 0xEA JUMPI PUSH1 0x24 CALLDATALOAD DUP1 ISZERO ISZERO DUP1 SWAP2 SUB PUSH2 0xEA JUMPI DUP2 CALLER EQ PUSH2 0x721 JUMPI CALLER PUSH1 0x0 MSTORE PUSH1 0xFC PUSH1 0x20 MSTORE PUSH1 0x40 PUSH1 0x0 KECCAK256 DUP3 PUSH1 0x0 MSTORE PUSH1 0x20 MSTORE PUSH1 0x40 PUSH1 0x0 KECCAK256 DUP1 SLOAD PUSH32 0xFFFFFFFFFFFFFFFFFFFFFFFFFFFFFFFFFFFFFFFFFFFFFFFFFFFFFFFFFFFFFF00 PUSH1 0xFF DUP5 AND SWAP2 AND OR SWAP1 SSTORE PUSH1 0x40 MLOAD SWAP1 DUP2 MSTORE PUSH32 0x17307EAB39AB6107E8899845AD3D59BD9653F200F220920489CA2B5937696C31 PUSH1 0x20 CALLER SWAP3 LOG3 STOP JUMPDEST PUSH1 0x84 PUSH1 0x40 MLOAD PUSH32 0x8C379A000000000000000000000000000000000000000000000000000000000 DUP2 MSTORE PUSH1 0x20 PUSH1 0x4 DUP3 ADD MSTORE PUSH1 0x29 PUSH1 0x24 DUP3 ADD MSTORE PUSH32 0x455243313135353A2073657474696E6720617070726F76616C20737461747573 PUSH1 0x44 DUP3 ADD MSTORE PUSH32 0x20666F722073656C660000000000000000000000000000000000000000000000 PUSH1 0x64 DUP3 ADD MSTORE REVERT JUMPDEST CALLVALUE PUSH2 0xEA JUMPI PUSH1 0x0 PUSH1 0x3 NOT CALLDATASIZE ADD SLT PUSH2 0xEA JUMPI PUSH1 0x20 PUSH1 0x97 SLOAD PUSH20 0xFFFFFFFFFFFFFFFFFFFFFFFFFFFFFFFFFFFFFFFF PUSH1 0x40 MLOAD SWAP2 AND DUP2 MSTORE RETURN JUMPDEST CALLVALUE PUSH2 0xEA JUMPI PUSH1 0x0 PUSH1 0x3 NOT CALLDATASIZE ADD SLT PUSH2 0xEA JUMPI PUSH1 0x0 SLOAD PUSH1 0xFF DUP2 PUSH1 0x8 SHR AND ISZERO SWAP1 DUP2 DUP1 SWAP3 PUSH2 0xA16 JUMPI JUMPDEST DUP1 ISZERO PUSH2 0x9FF JUMPI JUMPDEST ISZERO PUSH2 0x97B JUMPI DUP2 PUSH1 0x1 PUSH32 0xFFFFFFFFFFFFFFFFFFFFFFFFFFFFFFFFFFFFFFFFFFFFFFFFFFFFFFFFFFFFFF00 DUP4 AND OR PUSH1 0x0 SSTORE PUSH2 0x94C JUMPI JUMPDEST POP PUSH2 0x866 PUSH1 0xFF PUSH1 0x0 SLOAD PUSH1 0x8 SHR AND PUSH2 0x84F DUP2 PUSH2 0x2479 JUMP JUMPDEST PUSH2 0x858 DUP2 PUSH2 0x2479 JUMP JUMPDEST PUSH2 0x861 DUP2 PUSH2 0x2479 JUMP JUMPDEST PUSH2 0x2479 JUMP JUMPDEST PUSH2 0x86F CALLER PUSH2 0x19D4 JUMP JUMPDEST PUSH2 0x884 PUSH1 0xFF PUSH1 0x0 SLOAD PUSH1 0x8 SHR AND PUSH2 0x861 DUP2 PUSH2 0x2479 JUMP JUMPDEST PUSH2 0x890 PUSH2 0x12D SLOAD PUSH2 0x240A JUMP JUMPDEST PUSH1 0x1F DUP2 GT PUSH2 0x901 JUMPI JUMPDEST POP PUSH1 0x0 PUSH2 0x12D SSTORE PUSH1 0x1 PUSH2 0x15F SSTORE PUSH2 0x8AC JUMPI STOP JUMPDEST PUSH32 0xFFFFFFFFFFFFFFFFFFFFFFFFFFFFFFFFFFFFFFFFFFFFFFFFFFFFFFFFFFFF00FF PUSH1 0x0 SLOAD AND PUSH1 0x0 SSTORE PUSH32 0x7F26B83FF96E1F2B6A682F133852F6798A09C465DA95921460CEFB3847402498 PUSH1 0x20 PUSH1 0x40 MLOAD PUSH1 0x1 DUP2 MSTORE LOG1 STOP JUMPDEST PUSH2 0x12D PUSH1 0x0 MSTORE PUSH1 0x1F ADD PUSH1 0x5 SHR PUSH32 0x193A3AE4DA5049EB74CEE39E4CF5827F7CE7B1D1D1775EF1C6311EB60558E6D5 SWAP1 DUP2 ADD SWAP1 JUMPDEST DUP2 DUP2 LT PUSH2 0x940 JUMPI POP PUSH2 0x899 JUMP JUMPDEST PUSH1 0x0 DUP2 SSTORE PUSH1 0x1 ADD PUSH2 0x933 JUMP JUMPDEST PUSH32 0xFFFFFFFFFFFFFFFFFFFFFFFFFFFFFFFFFFFFFFFFFFFFFFFFFFFFFFFFFFFF0000 AND PUSH2 0x101 OR PUSH1 0x0 SSTORE DUP2 PUSH2 0x839 JUMP JUMPDEST PUSH1 0x84 PUSH1 0x40 MLOAD PUSH32 0x8C379A000000000000000000000000000000000000000000000000000000000 DUP2 MSTORE PUSH1 0x20 PUSH1 0x4 DUP3 ADD MSTORE PUSH1 0x2E PUSH1 0x24 DUP3 ADD MSTORE PUSH32 0x496E697469616C697A61626C653A20636F6E747261637420697320616C726561 PUSH1 0x44 DUP3 ADD MSTORE PUSH32 0x647920696E697469616C697A6564000000000000000000000000000000000000 PUSH1 0x64 DUP3 ADD MSTORE REVERT JUMPDEST POP ADDRESS EXTCODESIZE ISZERO DUP1 ISZERO PUSH2 0x805 JUMPI POP PUSH1 0x1 PUSH1 0xFF DUP3 AND EQ PUSH2 0x805 JUMP JUMPDEST POP PUSH1 0x1 PUSH1 0xFF DUP3 AND LT PUSH2 0x7FE JUMP JUMPDEST CALLVALUE PUSH2 0xEA JUMPI PUSH1 0x0 PUSH1 0x3 NOT CALLDATASIZE ADD SLT PUSH2 0xEA JUMPI PUSH2 0xA3C PUSH2 0x1954 JUMP JUMPDEST PUSH2 0x137 PUSH1 0x0 PUSH2 0x19D4 JUMP JUMPDEST CALLVALUE PUSH2 0xEA JUMPI PUSH1 0x0 PUSH1 0x3 NOT CALLDATASIZE ADD SLT PUSH2 0xEA JUMPI PUSH20 0xFFFFFFFFFFFFFFFFFFFFFFFFFFFFFFFFFFFFFFFF PUSH32 0x0 AND ADDRESS SUB PUSH2 0xABE JUMPI PUSH1 0x20 PUSH1 0x40 MLOAD PUSH32 0x360894A13BA1A3210667C828492DB98DCA3E2076CC3735A920A3CA505D382BBC DUP2 MSTORE RETURN JUMPDEST PUSH1 0x84 PUSH1 0x40 MLOAD PUSH32 0x8C379A000000000000000000000000000000000000000000000000000000000 DUP2 MSTORE PUSH1 0x20 PUSH1 0x4 DUP3 ADD MSTORE PUSH1 0x38 PUSH1 0x24 DUP3 ADD MSTORE PUSH32 0x555550535570677261646561626C653A206D757374206E6F742062652063616C PUSH1 0x44 DUP3 ADD MSTORE PUSH32 0x6C6564207468726F7567682064656C656761746563616C6C0000000000000000 PUSH1 0x64 DUP3 ADD MSTORE REVERT JUMPDEST PUSH1 0x40 PUSH1 0x3 NOT CALLDATASIZE ADD SLT PUSH2 0xEA JUMPI PUSH1 0x4 CALLDATALOAD PUSH20 0xFFFFFFFFFFFFFFFFFFFFFFFFFFFFFFFFFFFFFFFF DUP2 AND DUP2 SUB PUSH2 0xEA JUMPI PUSH1 0x24 CALLDATALOAD PUSH8 0xFFFFFFFFFFFFFFFF DUP2 GT PUSH2 0xEA JUMPI PUSH2 0x137 SWAP2 PUSH2 0xB94 PUSH1 0x1 SWAP3 CALLDATASIZE SWAP1 PUSH1 0x4 ADD PUSH2 0x18D9 JUMP JUMPDEST SWAP1 PUSH2 0xC19 PUSH20 0xFFFFFFFFFFFFFFFFFFFFFFFFFFFFFFFFFFFFFFFF PUSH32 0x0 AND PUSH2 0xBDB DUP2 ADDRESS EQ ISZERO PUSH2 0x1A5D JUMP JUMPDEST PUSH20 0xFFFFFFFFFFFFFFFFFFFFFFFFFFFFFFFFFFFFFFFF PUSH32 0x360894A13BA1A3210667C828492DB98DCA3E2076CC3735A920A3CA505D382BBC SLOAD AND EQ PUSH2 0x1AE8 JUMP JUMPDEST PUSH2 0xC21 PUSH2 0x1954 JUMP JUMPDEST PUSH2 0x1B73 JUMP JUMPDEST CALLVALUE PUSH2 0xEA JUMPI PUSH1 0x40 PUSH1 0x3 NOT CALLDATASIZE ADD SLT PUSH2 0xEA JUMPI PUSH1 0x4 CALLDATALOAD PUSH8 0xFFFFFFFFFFFFFFFF DUP2 GT PUSH2 0xEA JUMPI CALLDATASIZE PUSH1 0x23 DUP3 ADD SLT ISZERO PUSH2 0xEA JUMPI DUP1 PUSH1 0x4 ADD CALLDATALOAD SWAP1 PUSH8 0xFFFFFFFFFFFFFFFF DUP3 GT PUSH2 0xE6F JUMPI DUP2 PUSH1 0x5 SHL SWAP1 PUSH1 0x40 MLOAD SWAP3 PUSH2 0xC7F PUSH1 0x20 DUP5 ADD DUP6 PUSH2 0x17DC JUMP JUMPDEST DUP4 MSTORE PUSH1 0x24 PUSH1 0x20 DUP5 ADD SWAP3 DUP3 ADD ADD SWAP1 CALLDATASIZE DUP3 GT PUSH2 0xEA JUMPI PUSH1 0x24 ADD SWAP2 JUMPDEST DUP2 DUP4 LT PUSH2 0xE42 JUMPI DUP4 PUSH1 0x24 CALLDATALOAD PUSH8 0xFFFFFFFFFFFFFFFF DUP2 GT PUSH2 0xEA JUMPI PUSH2 0xCC0 SWAP1 CALLDATASIZE SWAP1 PUSH1 0x4 ADD PUSH2 0x1835 JUMP JUMPDEST SWAP1 DUP1 MLOAD DUP3 MLOAD SUB PUSH2 0xDBE JUMPI DUP1 MLOAD PUSH32 0xFFFFFFFFFFFFFFFFFFFFFFFFFFFFFFFFFFFFFFFFFFFFFFFFFFFFFFFFFFFFFFE0 PUSH2 0xD0F PUSH2 0xCF9 DUP4 PUSH2 0x181D JUMP JUMPDEST SWAP3 PUSH2 0xD07 PUSH1 0x40 MLOAD SWAP5 DUP6 PUSH2 0x17DC JUMP JUMPDEST DUP1 DUP5 MSTORE PUSH2 0x181D JUMP JUMPDEST ADD CALLDATASIZE PUSH1 0x20 DUP4 ADD CALLDATACOPY PUSH1 0x0 JUMPDEST DUP3 MLOAD DUP2 LT DUP1 ISZERO PUSH2 0xDA4 JUMPI ISZERO PUSH2 0xD75 JUMPI DUP1 PUSH2 0xD60 PUSH1 0x20 PUSH2 0xD70 SWAP4 PUSH1 0x5 SHL DUP7 ADD ADD MLOAD PUSH20 0xFFFFFFFFFFFFFFFFFFFFFFFFFFFFFFFFFFFFFFFF PUSH2 0xD58 DUP5 DUP10 PUSH2 0x2116 JUMP JUMPDEST MLOAD SWAP2 AND PUSH2 0x1FFC JUMP JUMPDEST PUSH2 0xD6A DUP3 DUP6 PUSH2 0x2116 JUMP JUMPDEST MSTORE PUSH2 0x20BA JUMP JUMPDEST PUSH2 0xD19 JUMP JUMPDEST PUSH32 0x4E487B7100000000000000000000000000000000000000000000000000000000 PUSH1 0x0 MSTORE PUSH1 0x32 PUSH1 0x4 MSTORE PUSH1 0x24 PUSH1 0x0 REVERT JUMPDEST PUSH1 0x40 MLOAD PUSH1 0x20 DUP1 DUP3 MSTORE DUP2 SWAP1 PUSH2 0xDBA SWAP1 DUP3 ADD DUP7 PUSH2 0x1920 JUMP JUMPDEST SUB SWAP1 RETURN JUMPDEST PUSH1 0x84 PUSH1 0x40 MLOAD PUSH32 0x8C379A000000000000000000000000000000000000000000000000000000000 DUP2 MSTORE PUSH1 0x20 PUSH1 0x4 DUP3 ADD MSTORE PUSH1 0x29 PUSH1 0x24 DUP3 ADD MSTORE PUSH32 0x455243313135353A206163636F756E747320616E6420696473206C656E677468 PUSH1 0x44 DUP3 ADD MSTORE PUSH32 0x206D69736D617463680000000000000000000000000000000000000000000000 PUSH1 0x64 DUP3 ADD MSTORE REVERT JUMPDEST DUP3 CALLDATALOAD PUSH20 0xFFFFFFFFFFFFFFFFFFFFFFFFFFFFFFFFFFFFFFFF DUP2 AND DUP2 SUB PUSH2 0xEA JUMPI DUP2 MSTORE PUSH1 0x20 SWAP3 DUP4 ADD SWAP3 ADD PUSH2 0xC98 JUMP JUMPDEST PUSH32 0x4E487B7100000000000000000000000000000000000000000000000000000000 PUSH1 0x0 MSTORE PUSH1 0x41 PUSH1 0x4 MSTORE PUSH1 0x24 PUSH1 0x0 REVERT JUMPDEST CALLVALUE PUSH2 0xEA JUMPI PUSH1 0x20 PUSH1 0x3 NOT CALLDATASIZE ADD SLT PUSH2 0xEA JUMPI PUSH1 0x4 CALLDATALOAD PUSH20 0xFFFFFFFFFFFFFFFFFFFFFFFFFFFFFFFFFFFFFFFF DUP2 AND DUP2 SUB PUSH2 0xEA JUMPI PUSH1 0x0 PUSH2 0x137 SWAP2 PUSH2 0xF1B PUSH20 0xFFFFFFFFFFFFFFFFFFFFFFFFFFFFFFFFFFFFFFFF PUSH32 0x0 AND PUSH2 0xBDB DUP2 ADDRESS EQ ISZERO PUSH2 0x1A5D JUMP JUMPDEST PUSH2 0xF23 PUSH2 0x1954 JUMP JUMPDEST PUSH2 0xF2C DUP3 PUSH2 0x189F JUMP JUMPDEST SWAP1 PUSH2 0xF3A PUSH1 0x40 MLOAD SWAP3 DUP4 PUSH2 0x17DC JUMP JUMPDEST DUP3 DUP3 MSTORE PUSH32 0xFFFFFFFFFFFFFFFFFFFFFFFFFFFFFFFFFFFFFFFFFFFFFFFFFFFFFFFFFFFFFFE0 PUSH2 0xF67 DUP5 PUSH2 0x189F JUMP JUMPDEST ADD CALLDATASIZE PUSH1 0x20 DUP5 ADD CALLDATACOPY PUSH2 0x1B73 JUMP JUMPDEST CALLVALUE PUSH2 0xEA JUMPI PUSH1 0xA0 PUSH1 0x3 NOT CALLDATASIZE ADD SLT PUSH2 0xEA JUMPI PUSH1 0x4 CALLDATALOAD PUSH20 0xFFFFFFFFFFFFFFFFFFFFFFFFFFFFFFFFFFFFFFFF DUP2 AND DUP1 DUP3 SUB PUSH2 0xEA JUMPI PUSH1 0x24 CALLDATALOAD SWAP1 PUSH20 0xFFFFFFFFFFFFFFFFFFFFFFFFFFFFFFFFFFFFFFFF DUP3 AND DUP1 DUP4 SUB PUSH2 0xEA JUMPI PUSH1 0x44 CALLDATALOAD PUSH8 0xFFFFFFFFFFFFFFFF DUP2 GT PUSH2 0xEA JUMPI PUSH2 0xFE7 SWAP1 CALLDATASIZE SWAP1 PUSH1 0x4 ADD PUSH2 0x1835 JUMP JUMPDEST SWAP4 PUSH1 0x64 CALLDATALOAD PUSH8 0xFFFFFFFFFFFFFFFF DUP2 GT PUSH2 0xEA JUMPI PUSH2 0x1008 SWAP1 CALLDATASIZE SWAP1 PUSH1 0x4 ADD PUSH2 0x1835 JUMP JUMPDEST SWAP1 PUSH1 0x84 CALLDATALOAD PUSH8 0xFFFFFFFFFFFFFFFF DUP2 GT PUSH2 0xEA JUMPI PUSH2 0x102C PUSH2 0x103D SWAP2 CALLDATASIZE SWAP1 PUSH1 0x4 ADD PUSH2 0x18D9 JUMP JUMPDEST SWAP2 CALLER DUP7 EQ SWAP1 DUP2 ISZERO PUSH2 0x55F JUMPI POP PUSH2 0x212A JUMP JUMPDEST DUP6 MLOAD DUP3 MLOAD SUB PUSH2 0x12D2 JUMPI PUSH2 0x1051 DUP4 ISZERO ISZERO PUSH2 0x21B5 JUMP JUMPDEST PUSH1 0x0 JUMPDEST DUP7 MLOAD DUP2 LT ISZERO PUSH2 0x10EE JUMPI DUP1 PUSH2 0x106B PUSH2 0x10E9 SWAP3 DUP10 PUSH2 0x2116 JUMP JUMPDEST MLOAD PUSH2 0x1076 DUP3 DUP7 PUSH2 0x2116 JUMP JUMPDEST MLOAD SWAP1 DUP1 PUSH1 0x0 MSTORE PUSH1 0xFB PUSH1 0x20 MSTORE PUSH1 0x40 PUSH1 0x0 KECCAK256 DUP9 PUSH1 0x0 MSTORE PUSH1 0x20 MSTORE PUSH1 0x40 PUSH1 0x0 KECCAK256 SLOAD PUSH2 0x109F DUP4 DUP3 LT ISZERO PUSH2 0x2240 JUMP JUMPDEST DUP2 PUSH1 0x0 MSTORE PUSH1 0xFB PUSH1 0x20 MSTORE PUSH1 0x40 PUSH1 0x0 KECCAK256 DUP10 PUSH1 0x0 MSTORE PUSH1 0x20 MSTORE DUP3 PUSH1 0x40 PUSH1 0x0 KECCAK256 SWAP2 SUB SWAP1 SSTORE PUSH1 0x0 MSTORE PUSH1 0xFB PUSH1 0x20 MSTORE PUSH1 0x40 PUSH1 0x0 KECCAK256 DUP7 PUSH1 0x0 MSTORE PUSH1 0x20 MSTORE PUSH2 0x10E2 PUSH1 0x40 PUSH1 0x0 KECCAK256 SWAP2 DUP3 SLOAD PUSH2 0x22CB JUMP JUMPDEST SWAP1 SSTORE PUSH2 0x20BA JUMP JUMPDEST PUSH2 0x1054 JUMP JUMPDEST POP SWAP5 SWAP3 SWAP1 SWAP4 DUP3 DUP3 PUSH1 0x40 MLOAD PUSH1 0x40 DUP2 MSTORE PUSH32 0x4A39DC06D4C0DBC64B70AF90FD698A233A518AA5D07E595D983B8C0526C8F7FB PUSH2 0x113B PUSH2 0x112D PUSH1 0x40 DUP5 ADD DUP11 PUSH2 0x1920 JUMP JUMPDEST DUP4 DUP2 SUB PUSH1 0x20 DUP6 ADD MSTORE DUP11 PUSH2 0x1920 JUMP JUMPDEST SWAP2 DUP1 CALLER SWAP4 SUB SWAP1 LOG4 EXTCODESIZE PUSH2 0x1149 JUMPI STOP JUMPDEST PUSH1 0x0 PUSH2 0x11C3 PUSH2 0x119F SWAP7 PUSH2 0x11B1 PUSH1 0x20 SWAP8 PUSH1 0x40 MLOAD SWAP10 DUP11 SWAP9 DUP10 SWAP8 PUSH32 0xBC197C8100000000000000000000000000000000000000000000000000000000 DUP10 MSTORE CALLER PUSH1 0x4 DUP11 ADD MSTORE PUSH1 0x24 DUP10 ADD MSTORE PUSH1 0xA0 PUSH1 0x44 DUP10 ADD MSTORE PUSH1 0xA4 DUP9 ADD SWAP1 PUSH2 0x1920 JUMP JUMPDEST SWAP1 PUSH1 0x3 NOT DUP8 DUP4 SUB ADD PUSH1 0x64 DUP9 ADD MSTORE PUSH2 0x1920 JUMP JUMPDEST SWAP1 PUSH1 0x3 NOT DUP6 DUP4 SUB ADD PUSH1 0x84 DUP7 ADD MSTORE PUSH2 0x230F JUMP JUMPDEST SWAP3 DUP3 GAS SWAP5 SUB SWAP4 CALL PUSH1 0x0 SWAP2 DUP2 PUSH2 0x12B2 JUMPI JUMPDEST POP PUSH2 0x11E3 JUMPI POP PUSH1 0x1 PUSH2 0x37D PUSH2 0x234B JUMP JUMPDEST PUSH32 0xFFFFFFFF00000000000000000000000000000000000000000000000000000000 PUSH32 0xBC197C8100000000000000000000000000000000000000000000000000000000 SWAP2 AND SUB ISZERO PUSH2 0x137 JUMPI PUSH1 0x40 MLOAD PUSH32 0x8C379A000000000000000000000000000000000000000000000000000000000 DUP2 MSTORE PUSH1 0x20 PUSH1 0x4 DUP3 ADD MSTORE PUSH1 0x28 PUSH1 0x24 DUP3 ADD MSTORE PUSH32 0x455243313135353A204552433131353552656365697665722072656A65637465 PUSH1 0x44 DUP3 ADD MSTORE PUSH32 0x6420746F6B656E73000000000000000000000000000000000000000000000000 PUSH1 0x64 DUP3 ADD MSTORE PUSH1 0x84 SWAP1 REVERT JUMPDEST PUSH2 0x12CB SWAP2 SWAP3 POP PUSH1 0x20 RETURNDATASIZE DUP2 GT PUSH2 0x558 JUMPI PUSH2 0x549 DUP2 DUP4 PUSH2 0x17DC JUMP JUMPDEST SWAP1 DUP3 PUSH2 0x11D3 JUMP JUMPDEST PUSH1 0x84 PUSH1 0x40 MLOAD PUSH32 0x8C379A000000000000000000000000000000000000000000000000000000000 DUP2 MSTORE PUSH1 0x20 PUSH1 0x4 DUP3 ADD MSTORE PUSH1 0x28 PUSH1 0x24 DUP3 ADD MSTORE PUSH32 0x455243313135353A2069647320616E6420616D6F756E7473206C656E67746820 PUSH1 0x44 DUP3 ADD MSTORE PUSH32 0x6D69736D61746368000000000000000000000000000000000000000000000000 PUSH1 0x64 DUP3 ADD MSTORE REVERT JUMPDEST CALLVALUE PUSH2 0xEA JUMPI PUSH1 0x20 PUSH1 0x3 NOT CALLDATASIZE ADD SLT PUSH2 0xEA JUMPI PUSH1 0x4 CALLDATALOAD PUSH1 0x0 MSTORE PUSH2 0x12E PUSH1 0x20 MSTORE PUSH1 0x40 PUSH1 0x0 KECCAK256 PUSH1 0x40 MLOAD PUSH1 0x0 SWAP2 DUP2 DUP2 SLOAD SWAP4 PUSH2 0x138B DUP6 PUSH2 0x240A JUMP JUMPDEST SWAP3 DUP4 DUP4 MSTORE PUSH1 0x20 DUP4 ADD SWAP6 PUSH1 0x1 DUP2 AND SWAP1 DUP2 PUSH1 0x0 EQ PUSH2 0x1606 JUMPI POP PUSH1 0x1 EQ PUSH2 0x15BF JUMPI JUMPDEST POP PUSH2 0x13B7 SWAP3 POP SUB DUP3 PUSH2 0x17DC JUMP JUMPDEST DUP1 MLOAD PUSH1 0x0 SWAP1 ISZERO PUSH2 0x14D9 JUMPI POP PUSH1 0x40 MLOAD SWAP1 PUSH1 0x0 SWAP1 PUSH2 0x12D SLOAD PUSH2 0x13D6 DUP2 PUSH2 0x240A JUMP JUMPDEST SWAP1 PUSH1 0x1 DUP2 AND SWAP1 DUP2 ISZERO PUSH2 0x1497 JUMPI POP PUSH1 0x1 EQ PUSH2 0x143C JUMPI JUMPDEST POP DUP2 PUSH2 0x1430 SWAP3 PUSH2 0x1403 PUSH2 0xDBA SWAP7 DUP7 SWAP5 MLOAD SWAP4 DUP5 SWAP2 PUSH2 0x175D JUMP JUMPDEST ADD SUB PUSH32 0xFFFFFFFFFFFFFFFFFFFFFFFFFFFFFFFFFFFFFFFFFFFFFFFFFFFFFFFFFFFFFFE0 DUP2 ADD DUP4 MSTORE DUP3 PUSH2 0x17DC JUMP JUMPDEST PUSH1 0x40 MLOAD SWAP2 DUP3 SWAP2 DUP3 PUSH2 0x1792 JUMP JUMPDEST SWAP1 SWAP2 POP PUSH2 0x12D PUSH1 0x0 MSTORE PUSH32 0x193A3AE4DA5049EB74CEE39E4CF5827F7CE7B1D1D1775EF1C6311EB60558E6D5 PUSH1 0x0 SWAP1 JUMPDEST DUP3 DUP3 LT PUSH2 0x1481 JUMPI POP POP DUP3 ADD PUSH1 0x20 ADD SWAP1 PUSH2 0xDBA PUSH2 0x13EB JUMP JUMPDEST PUSH1 0x1 DUP2 PUSH1 0x20 SWAP3 SLOAD DUP4 DUP6 DUP10 ADD ADD MSTORE ADD SWAP2 ADD SWAP1 PUSH2 0x146A JUMP JUMPDEST PUSH32 0xFFFFFFFFFFFFFFFFFFFFFFFFFFFFFFFFFFFFFFFFFFFFFFFFFFFFFFFFFFFFFF00 AND PUSH1 0x20 DUP1 DUP8 ADD SWAP2 SWAP1 SWAP2 MSTORE DUP3 ISZERO ISZERO SWAP1 SWAP3 MUL DUP6 ADD SWAP1 SWAP2 ADD SWAP3 POP PUSH2 0xDBA SWAP1 POP PUSH2 0x13EB JUMP JUMPDEST SWAP2 POP POP PUSH1 0x40 MLOAD SWAP1 DUP1 PUSH1 0xFD SLOAD SWAP1 PUSH2 0x14EE DUP3 PUSH2 0x240A JUMP JUMPDEST DUP1 DUP6 MSTORE SWAP2 PUSH1 0x1 DUP2 AND SWAP1 DUP2 ISZERO PUSH2 0x157A JUMPI POP PUSH1 0x1 EQ PUSH2 0x151D JUMPI JUMPDEST POP POP SWAP1 PUSH2 0x1518 DUP2 PUSH2 0xDBA SWAP4 SUB DUP3 PUSH2 0x17DC JUMP JUMPDEST PUSH2 0x1430 JUMP JUMPDEST PUSH1 0xFD DUP2 MSTORE PUSH32 0x9346AC6DD7DE6B96975FEC380D4D994C4C12E6A8897544F22915316CC6CCA280 SWAP4 SWAP3 POP SWAP1 JUMPDEST DUP1 DUP3 LT PUSH2 0x1560 JUMPI POP SWAP1 SWAP2 POP DUP2 ADD PUSH1 0x20 ADD PUSH2 0x1518 DUP3 PUSH2 0x1506 JUMP JUMPDEST SWAP2 SWAP3 PUSH1 0x1 DUP2 PUSH1 0x20 SWAP3 SLOAD DUP4 DUP6 DUP9 ADD ADD MSTORE ADD SWAP2 ADD SWAP1 SWAP3 SWAP2 PUSH2 0x1547 JUMP JUMPDEST PUSH32 0xFFFFFFFFFFFFFFFFFFFFFFFFFFFFFFFFFFFFFFFFFFFFFFFFFFFFFFFFFFFFFF00 AND PUSH1 0x20 DUP1 DUP8 ADD SWAP2 SWAP1 SWAP2 MSTORE SWAP3 ISZERO ISZERO PUSH1 0x5 SHL DUP6 ADD SWAP1 SWAP3 ADD SWAP3 POP PUSH2 0x1518 SWAP2 POP DUP4 SWAP1 POP PUSH2 0x1506 JUMP JUMPDEST SWAP1 POP PUSH1 0x0 SWAP3 SWAP2 SWAP3 MSTORE PUSH1 0x20 PUSH1 0x0 KECCAK256 SWAP1 PUSH1 0x0 SWAP2 JUMPDEST DUP2 DUP4 LT PUSH2 0x15EA JUMPI POP POP SWAP1 PUSH1 0x20 PUSH2 0x13B7 SWAP3 DUP3 ADD ADD DUP6 PUSH2 0x13AA JUMP JUMPDEST PUSH1 0x20 SWAP2 SWAP4 POP DUP1 PUSH1 0x1 SWAP2 SLOAD DUP4 DUP6 DUP9 ADD ADD MSTORE ADD SWAP2 ADD SWAP1 SWAP2 DUP4 SWAP3 PUSH2 0x15D1 JUMP JUMPDEST PUSH32 0xFFFFFFFFFFFFFFFFFFFFFFFFFFFFFFFFFFFFFFFFFFFFFFFFFFFFFFFFFFFFFF00 AND DUP8 MSTORE POP PUSH2 0x13B7 SWAP4 ISZERO ISZERO PUSH1 0x5 SHL DUP4 ADD PUSH1 0x20 ADD SWAP2 POP DUP7 SWAP1 POP PUSH2 0x13AA JUMP JUMPDEST CALLVALUE PUSH2 0xEA JUMPI PUSH1 0x20 PUSH1 0x3 NOT CALLDATASIZE ADD SLT PUSH2 0xEA JUMPI PUSH1 0x4 CALLDATALOAD PUSH32 0xFFFFFFFF00000000000000000000000000000000000000000000000000000000 DUP2 AND DUP1 SWAP2 SUB PUSH2 0xEA JUMPI DUP1 PUSH32 0xD9B67A2600000000000000000000000000000000000000000000000000000000 PUSH1 0x20 SWAP3 EQ SWAP1 DUP2 ISZERO PUSH2 0x16EB JUMPI JUMPDEST DUP2 ISZERO PUSH2 0x16C1 JUMPI JUMPDEST POP PUSH1 0x40 MLOAD SWAP1 ISZERO ISZERO DUP2 MSTORE RETURN JUMPDEST PUSH32 0x1FFC9A700000000000000000000000000000000000000000000000000000000 SWAP2 POP EQ DUP3 PUSH2 0x16B6 JUMP JUMPDEST PUSH32 0xE89341C00000000000000000000000000000000000000000000000000000000 DUP2 EQ SWAP2 POP PUSH2 0x16AF JUMP JUMPDEST CALLVALUE PUSH2 0xEA JUMPI PUSH1 0x40 PUSH1 0x3 NOT CALLDATASIZE ADD SLT PUSH2 0xEA JUMPI PUSH1 0x4 CALLDATALOAD PUSH20 0xFFFFFFFFFFFFFFFFFFFFFFFFFFFFFFFFFFFFFFFF DUP2 AND DUP2 SUB PUSH2 0xEA JUMPI PUSH2 0x1755 PUSH1 0x20 SWAP2 PUSH1 0x24 CALLDATALOAD SWAP1 PUSH2 0x1FFC JUMP JUMPDEST PUSH1 0x40 MLOAD SWAP1 DUP2 MSTORE RETURN JUMPDEST SWAP2 DUP1 SWAP2 SWAP3 PUSH1 0x0 SWAP1 JUMPDEST DUP3 DUP3 LT PUSH2 0x177D JUMPI POP GT PUSH2 0x1776 JUMPI POP POP JUMP JUMPDEST PUSH1 0x0 SWAP2 ADD MSTORE JUMP JUMPDEST SWAP2 POP DUP1 PUSH1 0x20 SWAP2 DUP4 ADD MLOAD DUP2 DUP7 ADD MSTORE ADD DUP3 SWAP2 PUSH2 0x1765 JUMP JUMPDEST PUSH32 0xFFFFFFFFFFFFFFFFFFFFFFFFFFFFFFFFFFFFFFFFFFFFFFFFFFFFFFFFFFFFFFE0 PUSH1 0x1F PUSH1 0x40 SWAP4 PUSH1 0x20 DUP5 MSTORE PUSH2 0x17D5 DUP2 MLOAD DUP1 SWAP3 DUP2 PUSH1 0x20 DUP9 ADD MSTORE PUSH1 0x20 DUP9 DUP9 ADD SWAP2 ADD PUSH2 0x175D JUMP JUMPDEST ADD AND ADD ADD SWAP1 JUMP JUMPDEST SWAP1 PUSH1 0x1F PUSH32 0xFFFFFFFFFFFFFFFFFFFFFFFFFFFFFFFFFFFFFFFFFFFFFFFFFFFFFFFFFFFFFFE0 SWAP2 ADD AND DUP2 ADD SWAP1 DUP2 LT PUSH8 0xFFFFFFFFFFFFFFFF DUP3 GT OR PUSH2 0xE6F JUMPI PUSH1 0x40 MSTORE JUMP JUMPDEST PUSH8 0xFFFFFFFFFFFFFFFF DUP2 GT PUSH2 0xE6F JUMPI PUSH1 0x5 SHL PUSH1 0x20 ADD SWAP1 JUMP JUMPDEST SWAP1 DUP1 PUSH1 0x1F DUP4 ADD SLT ISZERO SWAP1 DUP2 PUSH2 0xEA JUMPI DUP3 CALLDATALOAD SWAP2 PUSH2 0x184F DUP4 PUSH2 0x181D JUMP JUMPDEST SWAP4 PUSH2 0x185D PUSH1 0x40 MLOAD SWAP6 DUP7 PUSH2 0x17DC JUMP JUMPDEST DUP4 DUP6 MSTORE PUSH1 0x20 DUP1 DUP7 ADD SWAP5 PUSH1 0x5 SHL DUP3 ADD ADD SWAP3 DUP4 GT PUSH2 0xEA JUMPI PUSH1 0x20 ADD SWAP3 JUMPDEST DUP3 DUP5 LT PUSH2 0x1886 JUMPI POP POP POP POP SWAP1 JUMP JUMPDEST DUP2 PUSH2 0x189B JUMPI DUP4 CALLDATALOAD DUP2 MSTORE PUSH1 0x20 SWAP4 DUP5 ADD SWAP4 ADD PUSH2 0x1878 JUMP JUMPDEST POP DUP1 REVERT JUMPDEST PUSH8 0xFFFFFFFFFFFFFFFF DUP2 GT PUSH2 0xE6F JUMPI PUSH1 0x1F ADD PUSH32 0xFFFFFFFFFFFFFFFFFFFFFFFFFFFFFFFFFFFFFFFFFFFFFFFFFFFFFFFFFFFFFFE0 AND PUSH1 0x20 ADD SWAP1 JUMP JUMPDEST DUP2 PUSH1 0x1F DUP3 ADD SLT ISZERO PUSH2 0xEA JUMPI DUP1 CALLDATALOAD SWAP1 PUSH2 0x18F0 DUP3 PUSH2 0x189F JUMP JUMPDEST SWAP3 PUSH2 0x18FE PUSH1 0x40 MLOAD SWAP5 DUP6 PUSH2 0x17DC JUMP JUMPDEST DUP3 DUP5 MSTORE PUSH1 0x20 DUP4 DUP4 ADD ADD GT PUSH2 0xEA JUMPI DUP2 PUSH1 0x0 SWAP3 PUSH1 0x20 DUP1 SWAP4 ADD DUP4 DUP7 ADD CALLDATACOPY DUP4 ADD ADD MSTORE SWAP1 JUMP JUMPDEST SWAP1 PUSH1 0x20 DUP1 DUP4 MLOAD SWAP3 DUP4 DUP2 MSTORE ADD SWAP3 ADD SWAP1 PUSH1 0x0 JUMPDEST DUP2 DUP2 LT PUSH2 0x193E JUMPI POP POP POP SWAP1 JUMP JUMPDEST DUP3 MLOAD DUP5 MSTORE PUSH1 0x20 SWAP4 DUP5 ADD SWAP4 SWAP1 SWAP3 ADD SWAP2 PUSH1 0x1 ADD PUSH2 0x1931 JUMP JUMPDEST PUSH1 0x97 SLOAD PUSH20 0xFFFFFFFFFFFFFFFFFFFFFFFFFFFFFFFFFFFFFFFF CALLER SWAP2 AND SUB PUSH2 0x1976 JUMPI JUMP JUMPDEST PUSH1 0x64 PUSH1 0x40 MLOAD PUSH32 0x8C379A000000000000000000000000000000000000000000000000000000000 DUP2 MSTORE PUSH1 0x20 PUSH1 0x4 DUP3 ADD MSTORE PUSH1 0x20 PUSH1 0x24 DUP3 ADD MSTORE PUSH32 0x4F776E61626C653A2063616C6C6572206973206E6F7420746865206F776E6572 PUSH1 0x44 DUP3 ADD MSTORE REVERT JUMPDEST PUSH32 0xFFFFFFFFFFFFFFFFFFFFFFFF0000000000000000000000000000000000000000 SWAP1 PUSH1 0x97 SLOAD SWAP1 PUSH20 0xFFFFFFFFFFFFFFFFFFFFFFFFFFFFFFFFFFFFFFFF PUSH1 0x97 SLOAD SWAP2 AND SWAP3 DUP4 SWAP2 AND OR PUSH1 0x97 SSTORE PUSH32 0x8BE0079C531659141344CD1FD0A4F28419497F9722A3DAAFE3B4186F6B6457E0 PUSH1 0x0 PUSH20 0xFFFFFFFFFFFFFFFFFFFFFFFFFFFFFFFFFFFFFFFF PUSH1 0x40 MLOAD SWAP4 AND SWAP3 LOG3 JUMP JUMPDEST ISZERO PUSH2 0x1A64 JUMPI JUMP JUMPDEST PUSH1 0x84 PUSH1 0x40 MLOAD PUSH32 0x8C379A000000000000000000000000000000000000000000000000000000000 DUP2 MSTORE PUSH1 0x20 PUSH1 0x4 DUP3 ADD MSTORE PUSH1 0x2C PUSH1 0x24 DUP3 ADD MSTORE PUSH32 0x46756E6374696F6E206D7573742062652063616C6C6564207468726F75676820 PUSH1 0x44 DUP3 ADD MSTORE PUSH32 0x64656C656761746563616C6C0000000000000000000000000000000000000000 PUSH1 0x64 DUP3 ADD MSTORE REVERT JUMPDEST ISZERO PUSH2 0x1AEF JUMPI JUMP JUMPDEST PUSH1 0x84 PUSH1 0x40 MLOAD PUSH32 0x8C379A000000000000000000000000000000000000000000000000000000000 DUP2 MSTORE PUSH1 0x20 PUSH1 0x4 DUP3 ADD MSTORE PUSH1 0x2C PUSH1 0x24 DUP3 ADD MSTORE PUSH32 0x46756E6374696F6E206D7573742062652063616C6C6564207468726F75676820 PUSH1 0x44 DUP3 ADD MSTORE PUSH32 0x6163746976652070726F78790000000000000000000000000000000000000000 PUSH1 0x64 DUP3 ADD MSTORE REVERT JUMPDEST SWAP1 PUSH1 0xFF PUSH32 0x4910FDFA16FED3260ED0E7147F7CC6DA11A60208B5B9406D12A635614FFD9143 SLOAD AND PUSH1 0x0 EQ PUSH2 0x1BAD JUMPI POP PUSH2 0x1BAB SWAP2 POP PUSH2 0x1EF0 JUMP JUMPDEST JUMP JUMPDEST PUSH1 0x40 MLOAD SWAP3 PUSH32 0x52D1902D00000000000000000000000000000000000000000000000000000000 DUP5 MSTORE GAS SWAP4 PUSH1 0x20 DUP2 PUSH1 0x4 DUP2 PUSH20 0xFFFFFFFFFFFFFFFFFFFFFFFFFFFFFFFFFFFFFFFF DUP9 AND DUP1 SWAP10 STATICCALL PUSH1 0x0 SWAP2 DUP2 PUSH2 0x1EBA JUMPI JUMPDEST POP PUSH2 0x1C88 JUMPI PUSH1 0x84 PUSH1 0x40 MLOAD PUSH32 0x8C379A000000000000000000000000000000000000000000000000000000000 DUP2 MSTORE PUSH1 0x20 PUSH1 0x4 DUP3 ADD MSTORE PUSH1 0x2E PUSH1 0x24 DUP3 ADD MSTORE PUSH32 0x45524331393637557067726164653A206E657720696D706C656D656E74617469 PUSH1 0x44 DUP3 ADD MSTORE PUSH32 0x6F6E206973206E6F742055555053000000000000000000000000000000000000 PUSH1 0x64 DUP3 ADD MSTORE REVERT JUMPDEST PUSH32 0x360894A13BA1A3210667C828492DB98DCA3E2076CC3735A920A3CA505D382BBC SUB PUSH2 0x1E36 JUMPI PUSH2 0x1CB7 DUP4 PUSH2 0x1EF0 JUMP JUMPDEST PUSH1 0x40 MLOAD SWAP4 PUSH32 0xBC7CD75A20EE27FD9ADEBAB32041F755214DBC6BFFA90CC0225B39DA2E5C2D3B PUSH1 0x0 DUP7 LOG2 DUP2 MLOAD ISZERO SWAP1 DUP2 ISZERO SWAP2 PUSH2 0x1E2E JUMPI JUMPDEST POP PUSH2 0x1CF6 JUMPI POP POP POP JUMP JUMPDEST PUSH1 0x0 SWAP3 DUP3 EXTCODESIZE ISZERO PUSH2 0x1DAC JUMPI POP SWAP2 DUP1 DUP1 SWAP3 DUP5 PUSH2 0x1DA1 SWAP6 MLOAD SWAP2 PUSH1 0x20 GAS SWAP3 ADD SWAP2 DELEGATECALL SWAP1 RETURNDATASIZE ISZERO PUSH2 0x1DA4 JUMPI RETURNDATASIZE PUSH2 0x1D24 DUP2 PUSH2 0x189F JUMP JUMPDEST SWAP1 PUSH2 0x1D32 PUSH1 0x40 MLOAD SWAP3 DUP4 PUSH2 0x17DC JUMP JUMPDEST DUP2 MSTORE DUP1 SWAP2 PUSH1 0x20 RETURNDATASIZE SWAP3 ADD RETURNDATACOPY JUMPDEST PUSH1 0x40 MLOAD SWAP2 PUSH2 0x1D4C PUSH1 0x60 DUP5 PUSH2 0x17DC JUMP JUMPDEST PUSH1 0x27 DUP4 MSTORE PUSH32 0x416464726573733A206C6F772D6C6576656C2064656C65676174652063616C6C PUSH1 0x20 DUP5 ADD MSTORE PUSH32 0x206661696C656400000000000000000000000000000000000000000000000000 PUSH1 0x40 DUP5 ADD MSTORE PUSH2 0x245D JUMP JUMPDEST POP JUMP JUMPDEST POP PUSH1 0x60 PUSH2 0x1D3D JUMP JUMPDEST DUP1 PUSH32 0x8C379A000000000000000000000000000000000000000000000000000000000 PUSH1 0x84 SWAP3 MSTORE PUSH1 0x20 PUSH1 0x4 DUP3 ADD MSTORE PUSH1 0x26 PUSH1 0x24 DUP3 ADD MSTORE PUSH32 0x416464726573733A2064656C65676174652063616C6C20746F206E6F6E2D636F PUSH1 0x44 DUP3 ADD MSTORE PUSH32 0x6E74726163740000000000000000000000000000000000000000000000000000 PUSH1 0x64 DUP3 ADD MSTORE REVERT JUMPDEST SWAP1 POP CODESIZE PUSH2 0x1CEC JUMP JUMPDEST PUSH1 0x84 PUSH1 0x40 MLOAD PUSH32 0x8C379A000000000000000000000000000000000000000000000000000000000 DUP2 MSTORE PUSH1 0x20 PUSH1 0x4 DUP3 ADD MSTORE PUSH1 0x29 PUSH1 0x24 DUP3 ADD MSTORE PUSH32 0x45524331393637557067726164653A20756E737570706F727465642070726F78 PUSH1 0x44 DUP3 ADD MSTORE PUSH32 0x6961626C65555549440000000000000000000000000000000000000000000000 PUSH1 0x64 DUP3 ADD MSTORE REVERT JUMPDEST SWAP1 SWAP2 PUSH1 0x20 DUP3 RETURNDATASIZE DUP3 GT PUSH2 0x1EE8 JUMPI JUMPDEST DUP2 PUSH2 0x1ED4 PUSH1 0x20 SWAP4 DUP4 PUSH2 0x17DC JUMP JUMPDEST DUP2 ADD SUB SLT PUSH2 0x1EE5 JUMPI POP MLOAD SWAP1 CODESIZE PUSH2 0x1BFF JUMP JUMPDEST DUP1 REVERT JUMPDEST RETURNDATASIZE SWAP2 POP PUSH2 0x1EC7 JUMP JUMPDEST DUP1 EXTCODESIZE ISZERO PUSH2 0x1F78 JUMPI PUSH32 0xFFFFFFFFFFFFFFFFFFFFFFFF0000000000000000000000000000000000000000 PUSH20 0xFFFFFFFFFFFFFFFFFFFFFFFFFFFFFFFFFFFFFFFF PUSH32 0x360894A13BA1A3210667C828492DB98DCA3E2076CC3735A920A3CA505D382BBC SLOAD SWAP3 AND SWAP2 AND OR PUSH32 0x360894A13BA1A3210667C828492DB98DCA3E2076CC3735A920A3CA505D382BBC SSTORE JUMP JUMPDEST PUSH1 0x84 PUSH1 0x40 MLOAD PUSH32 0x8C379A000000000000000000000000000000000000000000000000000000000 DUP2 MSTORE PUSH1 0x20 PUSH1 0x4 DUP3 ADD MSTORE PUSH1 0x2D PUSH1 0x24 DUP3 ADD MSTORE PUSH32 0x455243313936373A206E657720696D706C656D656E746174696F6E206973206E PUSH1 0x44 DUP3 ADD MSTORE PUSH32 0x6F74206120636F6E747261637400000000000000000000000000000000000000 PUSH1 0x64 DUP3 ADD MSTORE REVERT JUMPDEST PUSH20 0xFFFFFFFFFFFFFFFFFFFFFFFFFFFFFFFFFFFFFFFF AND SWAP1 DUP2 ISZERO PUSH2 0x2036 JUMPI PUSH1 0x0 MSTORE PUSH1 0xFB PUSH1 0x20 MSTORE PUSH1 0x40 PUSH1 0x0 KECCAK256 SWAP1 PUSH1 0x0 MSTORE PUSH1 0x20 MSTORE PUSH1 0x40 PUSH1 0x0 KECCAK256 SLOAD SWAP1 JUMP JUMPDEST PUSH1 0x84 PUSH1 0x40 MLOAD PUSH32 0x8C379A000000000000000000000000000000000000000000000000000000000 DUP2 MSTORE PUSH1 0x20 PUSH1 0x4 DUP3 ADD MSTORE PUSH1 0x2A PUSH1 0x24 DUP3 ADD MSTORE PUSH32 0x455243313135353A2061646472657373207A65726F206973206E6F7420612076 PUSH1 0x44 DUP3 ADD MSTORE PUSH32 0x616C6964206F776E657200000000000000000000000000000000000000000000 PUSH1 0x64 DUP3 ADD MSTORE REVERT JUMPDEST PUSH32 0xFFFFFFFFFFFFFFFFFFFFFFFFFFFFFFFFFFFFFFFFFFFFFFFFFFFFFFFFFFFFFFFF DUP2 EQ PUSH2 0x20E7 JUMPI PUSH1 0x1 ADD SWAP1 JUMP JUMPDEST PUSH32 0x4E487B7100000000000000000000000000000000000000000000000000000000 PUSH1 0x0 MSTORE PUSH1 0x11 PUSH1 0x4 MSTORE PUSH1 0x24 PUSH1 0x0 REVERT JUMPDEST DUP1 MLOAD DUP3 LT ISZERO PUSH2 0xD75 JUMPI PUSH1 0x20 SWAP2 PUSH1 0x5 SHL ADD ADD SWAP1 JUMP JUMPDEST ISZERO PUSH2 0x2131 JUMPI JUMP JUMPDEST PUSH1 0x84 PUSH1 0x40 MLOAD PUSH32 0x8C379A000000000000000000000000000000000000000000000000000000000 DUP2 MSTORE PUSH1 0x20 PUSH1 0x4 DUP3 ADD MSTORE PUSH1 0x2F PUSH1 0x24 DUP3 ADD MSTORE PUSH32 0x455243313135353A2063616C6C6572206973206E6F7420746F6B656E206F776E PUSH1 0x44 DUP3 ADD MSTORE PUSH32 0x6572206E6F7220617070726F7665640000000000000000000000000000000000 PUSH1 0x64 DUP3 ADD MSTORE REVERT JUMPDEST ISZERO PUSH2 0x21BC JUMPI JUMP JUMPDEST PUSH1 0x84 PUSH1 0x40 MLOAD PUSH32 0x8C379A000000000000000000000000000000000000000000000000000000000 DUP2 MSTORE PUSH1 0x20 PUSH1 0x4 DUP3 ADD MSTORE PUSH1 0x25 PUSH1 0x24 DUP3 ADD MSTORE PUSH32 0x455243313135353A207472616E7366657220746F20746865207A65726F206164 PUSH1 0x44 DUP3 ADD MSTORE PUSH32 0x6472657373000000000000000000000000000000000000000000000000000000 PUSH1 0x64 DUP3 ADD MSTORE REVERT JUMPDEST ISZERO PUSH2 0x2247 JUMPI JUMP JUMPDEST PUSH1 0x84 PUSH1 0x40 MLOAD PUSH32 0x8C379A000000000000000000000000000000000000000000000000000000000 DUP2 MSTORE PUSH1 0x20 PUSH1 0x4 DUP3 ADD MSTORE PUSH1 0x2A PUSH1 0x24 DUP3 ADD MSTORE PUSH32 0x455243313135353A20696E73756666696369656E742062616C616E636520666F PUSH1 0x44 DUP3 ADD MSTORE PUSH32 0x72207472616E7366657200000000000000000000000000000000000000000000 PUSH1 0x64 DUP3 ADD MSTORE REVERT JUMPDEST DUP2 NOT DUP2 GT PUSH2 0x20E7 JUMPI ADD SWAP1 JUMP JUMPDEST SWAP1 DUP2 PUSH1 0x20 SWAP2 SUB SLT PUSH2 0xEA JUMPI MLOAD PUSH32 0xFFFFFFFF00000000000000000000000000000000000000000000000000000000 DUP2 AND DUP2 SUB PUSH2 0xEA JUMPI SWAP1 JUMP JUMPDEST SWAP1 PUSH32 0xFFFFFFFFFFFFFFFFFFFFFFFFFFFFFFFFFFFFFFFFFFFFFFFFFFFFFFFFFFFFFFE0 PUSH1 0x1F PUSH1 0x20 SWAP4 PUSH2 0x17D5 DUP2 MLOAD DUP1 SWAP3 DUP2 DUP8 MSTORE DUP8 DUP1 DUP9 ADD SWAP2 ADD PUSH2 0x175D JUMP JUMPDEST PUSH1 0x0 SWAP1 PUSH1 0x3 RETURNDATASIZE GT PUSH2 0x2358 JUMPI JUMP JUMPDEST SWAP1 POP PUSH1 0x4 PUSH1 0x0 DUP1 RETURNDATACOPY PUSH1 0x0 MLOAD PUSH1 0xE0 SHR SWAP1 JUMP JUMPDEST PUSH1 0x0 PUSH1 0x44 RETURNDATASIZE LT PUSH2 0x23D0 JUMPI PUSH1 0x40 MLOAD PUSH1 0x3 NOT RETURNDATASIZE ADD PUSH1 0x4 DUP3 RETURNDATACOPY DUP1 MLOAD SWAP2 RETURNDATASIZE PUSH1 0x24 DUP5 ADD GT PUSH8 0xFFFFFFFFFFFFFFFF DUP5 GT OR PUSH2 0x23DB JUMPI DUP3 DUP3 ADD SWAP3 DUP4 MLOAD SWAP2 PUSH8 0xFFFFFFFFFFFFFFFF DUP4 GT PUSH2 0x23D3 JUMPI PUSH1 0x3 NOT RETURNDATASIZE DUP6 ADD ADD PUSH1 0x20 DUP5 DUP8 ADD ADD GT PUSH2 0x23D3 JUMPI POP PUSH2 0x23D0 SWAP3 SWAP2 ADD PUSH1 0x20 ADD SWAP1 PUSH2 0x17DC JUMP JUMPDEST SWAP1 JUMP JUMPDEST SWAP5 SWAP4 POP POP POP POP JUMP JUMPDEST SWAP3 SWAP2 POP POP JUMP JUMPDEST PUSH1 0x40 MLOAD SWAP1 PUSH2 0x23F0 PUSH1 0x40 DUP4 PUSH2 0x17DC JUMP JUMPDEST PUSH1 0x1 DUP3 MSTORE PUSH1 0x20 CALLDATASIZE DUP2 DUP5 ADD CALLDATACOPY PUSH2 0x2406 PUSH1 0x0 DUP4 PUSH2 0x2116 JUMP JUMPDEST MSTORE SWAP1 JUMP JUMPDEST SWAP1 PUSH1 0x1 DUP3 DUP2 SHR SWAP3 AND DUP1 ISZERO PUSH2 0x2453 JUMPI JUMPDEST PUSH1 0x20 DUP4 LT EQ PUSH2 0x2424 JUMPI JUMP JUMPDEST PUSH32 0x4E487B7100000000000000000000000000000000000000000000000000000000 PUSH1 0x0 MSTORE PUSH1 0x22 PUSH1 0x4 MSTORE PUSH1 0x24 PUSH1 0x0 REVERT JUMPDEST SWAP2 PUSH1 0x7F AND SWAP2 PUSH2 0x2419 JUMP JUMPDEST SWAP1 SWAP2 SWAP1 ISZERO PUSH2 0x2469 JUMPI POP SWAP1 JUMP JUMPDEST DUP2 MLOAD ISZERO PUSH2 0x42A JUMPI POP DUP1 MLOAD SWAP1 PUSH1 0x20 ADD REVERT JUMPDEST ISZERO PUSH2 0x2480 JUMPI JUMP JUMPDEST PUSH1 0x84 PUSH1 0x40 MLOAD PUSH32 0x8C379A000000000000000000000000000000000000000000000000000000000 DUP2 MSTORE PUSH1 0x20 PUSH1 0x4 DUP3 ADD MSTORE PUSH1 0x2B PUSH1 0x24 DUP3 ADD MSTORE PUSH32 0x496E697469616C697A61626C653A20636F6E7472616374206973206E6F742069 PUSH1 0x44 DUP3 ADD MSTORE PUSH32 0x6E697469616C697A696E67000000000000000000000000000000000000000000 PUSH1 0x64 DUP3 ADD MSTORE REVERT INVALID LOG2 PUSH5 0x6970667358 0x22 SLT KECCAK256 0x22 0xEE 0xED 0xF6 0xCA 0xD CALLCODE 0xAA 0x24 0xE CALLDATACOPY PUSH8 0x1F0E8E2ED88E80F6 CALLVALUE 0x4F 0xE7 SWAP3 BASEFEE 0xD5 COINBASE REVERT 0xE0 MLOAD ADDRESS 0xBE PUSH5 0x736F6C6343 STOP ADDMOD 0xF STOP CALLER "
        },
        "gasEstimates": {
          "creation": {
            "codeDepositCost": "1906000",
            "executionCost": "infinite",
            "totalCost": "infinite"
          },
          "external": {
            "balanceOf(address,uint256)": "2474",
            "balanceOfBatch(address[],uint256[])": "infinite",
            "initialize()": "infinite",
            "isApprovedForAll(address,address)": "2753",
            "owner()": "2476",
            "proxiableUUID()": "infinite",
            "renounceOwnership()": "30346",
            "safeBatchTransferFrom(address,address,uint256[],uint256[],bytes)": "infinite",
            "safeTransferFrom(address,address,uint256,uint256,bytes)": "infinite",
            "setApprovalForAll(address,bool)": "26603",
            "supportsInterface(bytes4)": "321",
            "test()": "2577",
            "transferOwnership(address)": "30531",
            "upgradeTo(address)": "infinite",
            "upgradeToAndCall(address,bytes)": "infinite",
            "uri(uint256)": "infinite"
          },
          "internal": {
            "_authorizeUpgrade(address)": "infinite"
          }
        },
        "methodIdentifiers": {
          "balanceOf(address,uint256)": "00fdd58e",
          "balanceOfBatch(address[],uint256[])": "4e1273f4",
          "initialize()": "8129fc1c",
          "isApprovedForAll(address,address)": "e985e9c5",
          "owner()": "8da5cb5b",
          "proxiableUUID()": "52d1902d",
          "renounceOwnership()": "715018a6",
          "safeBatchTransferFrom(address,address,uint256[],uint256[],bytes)": "2eb2c2d6",
          "safeTransferFrom(address,address,uint256,uint256,bytes)": "f242432a",
          "setApprovalForAll(address,bool)": "a22cb465",
          "supportsInterface(bytes4)": "01ffc9a7",
          "test()": "f8a8fd6d",
          "transferOwnership(address)": "f2fde38b",
          "upgradeTo(address)": "3659cfe6",
          "upgradeToAndCall(address,bytes)": "4f1ef286",
          "uri(uint256)": "0e89341c"
        }
      },
      "storageLayout": {
        "storage": [
          {
            "astId": 527,
            "contract": "contracts/HYDNSeal.sol:HYDNSeal",
            "label": "_initialized",
            "offset": 0,
            "slot": "0",
            "type": "t_uint8"
          },
          {
            "astId": 530,
            "contract": "contracts/HYDNSeal.sol:HYDNSeal",
            "label": "_initializing",
            "offset": 1,
            "slot": "0",
            "type": "t_bool"
          },
          {
            "astId": 509,
            "contract": "contracts/HYDNSeal.sol:HYDNSeal",
            "label": "__gap",
            "offset": 0,
            "slot": "1",
            "type": "t_array(t_uint256)50_storage"
          },
          {
            "astId": 2628,
            "contract": "contracts/HYDNSeal.sol:HYDNSeal",
            "label": "__gap",
            "offset": 0,
            "slot": "51",
            "type": "t_array(t_uint256)50_storage"
          },
          {
            "astId": 806,
            "contract": "contracts/HYDNSeal.sol:HYDNSeal",
            "label": "__gap",
            "offset": 0,
            "slot": "101",
            "type": "t_array(t_uint256)50_storage"
          },
          {
            "astId": 10,
            "contract": "contracts/HYDNSeal.sol:HYDNSeal",
            "label": "_owner",
            "offset": 0,
            "slot": "151",
            "type": "t_address"
          },
          {
            "astId": 130,
            "contract": "contracts/HYDNSeal.sol:HYDNSeal",
            "label": "__gap",
            "offset": 0,
            "slot": "152",
            "type": "t_array(t_uint256)49_storage"
          },
          {
            "astId": 2958,
            "contract": "contracts/HYDNSeal.sol:HYDNSeal",
            "label": "__gap",
            "offset": 0,
            "slot": "201",
            "type": "t_array(t_uint256)50_storage"
          },
          {
            "astId": 836,
            "contract": "contracts/HYDNSeal.sol:HYDNSeal",
            "label": "_balances",
            "offset": 0,
            "slot": "251",
            "type": "t_mapping(t_uint256,t_mapping(t_address,t_uint256))"
          },
          {
            "astId": 842,
            "contract": "contracts/HYDNSeal.sol:HYDNSeal",
            "label": "_operatorApprovals",
            "offset": 0,
            "slot": "252",
            "type": "t_mapping(t_address,t_mapping(t_address,t_bool))"
          },
          {
            "astId": 844,
            "contract": "contracts/HYDNSeal.sol:HYDNSeal",
            "label": "_uri",
            "offset": 0,
            "slot": "253",
            "type": "t_string_storage"
          },
          {
            "astId": 2051,
            "contract": "contracts/HYDNSeal.sol:HYDNSeal",
            "label": "__gap",
            "offset": 0,
            "slot": "254",
            "type": "t_array(t_uint256)47_storage"
          },
          {
            "astId": 2249,
            "contract": "contracts/HYDNSeal.sol:HYDNSeal",
            "label": "_baseURI",
            "offset": 0,
            "slot": "301",
            "type": "t_string_storage"
          },
          {
            "astId": 2253,
            "contract": "contracts/HYDNSeal.sol:HYDNSeal",
            "label": "_tokenURIs",
            "offset": 0,
            "slot": "302",
            "type": "t_mapping(t_uint256,t_string_storage)"
          },
          {
            "astId": 2328,
            "contract": "contracts/HYDNSeal.sol:HYDNSeal",
            "label": "__gap",
            "offset": 0,
            "slot": "303",
            "type": "t_array(t_uint256)48_storage"
          },
          {
            "astId": 3104,
            "contract": "contracts/HYDNSeal.sol:HYDNSeal",
            "label": "test1",
            "offset": 0,
            "slot": "351",
            "type": "t_uint256"
          }
        ],
        "types": {
          "t_address": {
            "encoding": "inplace",
            "label": "address",
            "numberOfBytes": "20"
          },
          "t_array(t_uint256)47_storage": {
            "base": "t_uint256",
            "encoding": "inplace",
            "label": "uint256[47]",
            "numberOfBytes": "1504"
          },
          "t_array(t_uint256)48_storage": {
            "base": "t_uint256",
            "encoding": "inplace",
            "label": "uint256[48]",
            "numberOfBytes": "1536"
          },
          "t_array(t_uint256)49_storage": {
            "base": "t_uint256",
            "encoding": "inplace",
            "label": "uint256[49]",
            "numberOfBytes": "1568"
          },
          "t_array(t_uint256)50_storage": {
            "base": "t_uint256",
            "encoding": "inplace",
            "label": "uint256[50]",
            "numberOfBytes": "1600"
          },
          "t_bool": {
            "encoding": "inplace",
            "label": "bool",
            "numberOfBytes": "1"
          },
          "t_mapping(t_address,t_bool)": {
            "encoding": "mapping",
            "key": "t_address",
            "label": "mapping(address => bool)",
            "numberOfBytes": "32",
            "value": "t_bool"
          },
          "t_mapping(t_address,t_mapping(t_address,t_bool))": {
            "encoding": "mapping",
            "key": "t_address",
            "label": "mapping(address => mapping(address => bool))",
            "numberOfBytes": "32",
            "value": "t_mapping(t_address,t_bool)"
          },
          "t_mapping(t_address,t_uint256)": {
            "encoding": "mapping",
            "key": "t_address",
            "label": "mapping(address => uint256)",
            "numberOfBytes": "32",
            "value": "t_uint256"
          },
          "t_mapping(t_uint256,t_mapping(t_address,t_uint256))": {
            "encoding": "mapping",
            "key": "t_uint256",
            "label": "mapping(uint256 => mapping(address => uint256))",
            "numberOfBytes": "32",
            "value": "t_mapping(t_address,t_uint256)"
          },
          "t_mapping(t_uint256,t_string_storage)": {
            "encoding": "mapping",
            "key": "t_uint256",
            "label": "mapping(uint256 => string)",
            "numberOfBytes": "32",
            "value": "t_string_storage"
          },
          "t_string_storage": {
            "encoding": "bytes",
            "label": "string",
            "numberOfBytes": "32"
          },
          "t_uint256": {
            "encoding": "inplace",
            "label": "uint256",
            "numberOfBytes": "32"
          },
          "t_uint8": {
            "encoding": "inplace",
            "label": "uint8",
            "numberOfBytes": "1"
          }
        }
      },
      "userdoc": {
        "kind": "user",
        "methods": {},
        "version": 1
      }
    }
  }
}