{
  "@openzeppelin/contracts-upgradeable/token/ERC1155/ERC1155Upgradeable.sol": {
    "ERC1155Upgradeable": {
      "abi": [
        {
          "anonymous": false,
          "inputs": [
            {
              "indexed": true,
              "internalType": "address",
              "name": "account",
              "type": "address"
            },
            {
              "indexed": true,
              "internalType": "address",
              "name": "operator",
              "type": "address"
            },
            {
              "indexed": false,
              "internalType": "bool",
              "name": "approved",
              "type": "bool"
            }
          ],
          "name": "ApprovalForAll",
          "type": "event"
        },
        {
          "anonymous": false,
          "inputs": [
            {
              "indexed": false,
              "internalType": "uint8",
              "name": "version",
              "type": "uint8"
            }
          ],
          "name": "Initialized",
          "type": "event"
        },
        {
          "anonymous": false,
          "inputs": [
            {
              "indexed": true,
              "internalType": "address",
              "name": "operator",
              "type": "address"
            },
            {
              "indexed": true,
              "internalType": "address",
              "name": "from",
              "type": "address"
            },
            {
              "indexed": true,
              "internalType": "address",
              "name": "to",
              "type": "address"
            },
            {
              "indexed": false,
              "internalType": "uint256[]",
              "name": "ids",
              "type": "uint256[]"
            },
            {
              "indexed": false,
              "internalType": "uint256[]",
              "name": "values",
              "type": "uint256[]"
            }
          ],
          "name": "TransferBatch",
          "type": "event"
        },
        {
          "anonymous": false,
          "inputs": [
            {
              "indexed": true,
              "internalType": "address",
              "name": "operator",
              "type": "address"
            },
            {
              "indexed": true,
              "internalType": "address",
              "name": "from",
              "type": "address"
            },
            {
              "indexed": true,
              "internalType": "address",
              "name": "to",
              "type": "address"
            },
            {
              "indexed": false,
              "internalType": "uint256",
              "name": "id",
              "type": "uint256"
            },
            {
              "indexed": false,
              "internalType": "uint256",
              "name": "value",
              "type": "uint256"
            }
          ],
          "name": "TransferSingle",
          "type": "event"
        },
        {
          "anonymous": false,
          "inputs": [
            {
              "indexed": false,
              "internalType": "string",
              "name": "value",
              "type": "string"
            },
            {
              "indexed": true,
              "internalType": "uint256",
              "name": "id",
              "type": "uint256"
            }
          ],
          "name": "URI",
          "type": "event"
        },
        {
          "inputs": [
            {
              "internalType": "address",
              "name": "account",
              "type": "address"
            },
            {
              "internalType": "uint256",
              "name": "id",
              "type": "uint256"
            }
          ],
          "name": "balanceOf",
          "outputs": [
            {
              "internalType": "uint256",
              "name": "",
              "type": "uint256"
            }
          ],
          "stateMutability": "view",
          "type": "function"
        },
        {
          "inputs": [
            {
              "internalType": "address[]",
              "name": "accounts",
              "type": "address[]"
            },
            {
              "internalType": "uint256[]",
              "name": "ids",
              "type": "uint256[]"
            }
          ],
          "name": "balanceOfBatch",
          "outputs": [
            {
              "internalType": "uint256[]",
              "name": "",
              "type": "uint256[]"
            }
          ],
          "stateMutability": "view",
          "type": "function"
        },
        {
          "inputs": [
            {
              "internalType": "address",
              "name": "account",
              "type": "address"
            },
            {
              "internalType": "address",
              "name": "operator",
              "type": "address"
            }
          ],
          "name": "isApprovedForAll",
          "outputs": [
            {
              "internalType": "bool",
              "name": "",
              "type": "bool"
            }
          ],
          "stateMutability": "view",
          "type": "function"
        },
        {
          "inputs": [
            {
              "internalType": "address",
              "name": "from",
              "type": "address"
            },
            {
              "internalType": "address",
              "name": "to",
              "type": "address"
            },
            {
              "internalType": "uint256[]",
              "name": "ids",
              "type": "uint256[]"
            },
            {
              "internalType": "uint256[]",
              "name": "amounts",
              "type": "uint256[]"
            },
            {
              "internalType": "bytes",
              "name": "data",
              "type": "bytes"
            }
          ],
          "name": "safeBatchTransferFrom",
          "outputs": [],
          "stateMutability": "nonpayable",
          "type": "function"
        },
        {
          "inputs": [
            {
              "internalType": "address",
              "name": "from",
              "type": "address"
            },
            {
              "internalType": "address",
              "name": "to",
              "type": "address"
            },
            {
              "internalType": "uint256",
              "name": "id",
              "type": "uint256"
            },
            {
              "internalType": "uint256",
              "name": "amount",
              "type": "uint256"
            },
            {
              "internalType": "bytes",
              "name": "data",
              "type": "bytes"
            }
          ],
          "name": "safeTransferFrom",
          "outputs": [],
          "stateMutability": "nonpayable",
          "type": "function"
        },
        {
          "inputs": [
            {
              "internalType": "address",
              "name": "operator",
              "type": "address"
            },
            {
              "internalType": "bool",
              "name": "approved",
              "type": "bool"
            }
          ],
          "name": "setApprovalForAll",
          "outputs": [],
          "stateMutability": "nonpayable",
          "type": "function"
        },
        {
          "inputs": [
            {
              "internalType": "bytes4",
              "name": "interfaceId",
              "type": "bytes4"
            }
          ],
          "name": "supportsInterface",
          "outputs": [
            {
              "internalType": "bool",
              "name": "",
              "type": "bool"
            }
          ],
          "stateMutability": "view",
          "type": "function"
        },
        {
          "inputs": [
            {
              "internalType": "uint256",
              "name": "",
              "type": "uint256"
            }
          ],
          "name": "uri",
          "outputs": [
            {
              "internalType": "string",
              "name": "",
              "type": "string"
            }
          ],
          "stateMutability": "view",
          "type": "function"
        }
      ],
      "devdoc": {
        "details": "Implementation of the basic standard multi-token. See https://eips.ethereum.org/EIPS/eip-1155 Originally based on code by Enjin: https://github.com/enjin/erc-1155 _Available since v3.1._",
        "kind": "dev",
        "methods": {
          "balanceOf(address,uint256)": {
            "details": "See {IERC1155-balanceOf}. Requirements: - `account` cannot be the zero address."
          },
          "balanceOfBatch(address[],uint256[])": {
            "details": "See {IERC1155-balanceOfBatch}. Requirements: - `accounts` and `ids` must have the same length."
          },
          "isApprovedForAll(address,address)": {
            "details": "See {IERC1155-isApprovedForAll}."
          },
          "safeBatchTransferFrom(address,address,uint256[],uint256[],bytes)": {
            "details": "See {IERC1155-safeBatchTransferFrom}."
          },
          "safeTransferFrom(address,address,uint256,uint256,bytes)": {
            "details": "See {IERC1155-safeTransferFrom}."
          },
          "setApprovalForAll(address,bool)": {
            "details": "See {IERC1155-setApprovalForAll}."
          },
          "supportsInterface(bytes4)": {
            "details": "See {IERC165-supportsInterface}."
          },
          "uri(uint256)": {
            "details": "See {IERC1155MetadataURI-uri}. This implementation returns the same URI for *all* token types. It relies on the token type ID substitution mechanism https://eips.ethereum.org/EIPS/eip-1155#metadata[defined in the EIP]. Clients calling this function must replace the `\\{id\\}` substring with the actual token type ID."
          }
        },
        "stateVariables": {
          "__gap": {
            "details": "This empty reserved space is put in place to allow future versions to add new variables without shifting down storage in the inheritance chain. See https://docs.openzeppelin.com/contracts/4.x/upgradeable#storage_gaps"
          }
        },
        "version": 1
      },
      "evm": {
        "bytecode": {
          "linkReferences": {},
          "object": "60806040523461001857604051611599908161001e8239f35b600080fdfe6080604052600436101561001257600080fd5b60003560e01c8062fdd58e14610f2257806301ffc9a714610e505780630e89341c14610d155780632eb2c2d6146108d95780634e1273f414610661578063a22cb46514610523578063e985e9c5146104745763f242432a1461007357600080fd5b3461046f5760a060031936011261046f5760043573ffffffffffffffffffffffffffffffffffffffff81169081810361046f576024359173ffffffffffffffffffffffffffffffffffffffff831680840361046f57604435916064359460843567ffffffffffffffff811161046f576100f36101059136906004016110ac565b95338414908115610416575b50611283565b61011083151561130e565b6101198461153a565b506101238661153a565b5083600052606560205260406000208260005260205260406000205461014b87821015611399565b60008581526065602090815260408083208684529091528082209289900390925584815220805461017d908890611424565b905582826040518681528860208201527fc3d58168c5ae7397731d063d5bbf3d657854427343f4c083240f7aacaa2d0f6260403392a43b6101ba57005b600061021360209560405197889687957ff23a6e6100000000000000000000000000000000000000000000000000000000875233600488015260248701526044860152606485015260a0608485015260a4840190611468565b92825a940393f1600091816103e6575b50610317575060016102336114a4565b6308c379a0146102ce575b610245575b005b6040517f08c379a000000000000000000000000000000000000000000000000000000000815260206004820152603460248201527f455243313135353a207472616e7366657220746f206e6f6e204552433131353560448201527f526563656976657220696d706c656d656e7465720000000000000000000000006064820152608490fd5b0390fd5b6102d66114c2565b806102e1575061023e565b6102ca906040519182917f08c379a000000000000000000000000000000000000000000000000000000000835260048301610f9f565b7fffffffff000000000000000000000000000000000000000000000000000000007ff23a6e610000000000000000000000000000000000000000000000000000000091160315610243576040517f08c379a000000000000000000000000000000000000000000000000000000000815260206004820152602860248201527f455243313135353a204552433131353552656365697665722072656a6563746560448201527f6420746f6b656e730000000000000000000000000000000000000000000000006064820152608490fd5b61040891925060203d811161040f575b6104008183610fe9565b810190611430565b9038610223565b503d6103f6565b6104699150339073ffffffffffffffffffffffffffffffffffffffff16600052606660205273ffffffffffffffffffffffffffffffffffffffff6040600020911660005260205260ff6040600020541690565b386100ff565b600080fd5b3461046f57604060031936011261046f5760043573ffffffffffffffffffffffffffffffffffffffff8116810361046f576024359073ffffffffffffffffffffffffffffffffffffffff8216820361046f576020916105199173ffffffffffffffffffffffffffffffffffffffff16600052606660205273ffffffffffffffffffffffffffffffffffffffff6040600020911660005260205260ff6040600020541690565b6040519015158152f35b3461046f57604060031936011261046f5760043573ffffffffffffffffffffffffffffffffffffffff811680910361046f5760243580151580910361046f578133146105dd57336000526066602052604060002082600052602052604060002080547fffffffffffffffffffffffffffffffffffffffffffffffffffffffffffffff0060ff841691161790556040519081527f17307eab39ab6107e8899845ad3d59bd9653f200f220920489ca2b5937696c3160203392a3005b60846040517f08c379a000000000000000000000000000000000000000000000000000000000815260206004820152602960248201527f455243313135353a2073657474696e6720617070726f76616c2073746174757360448201527f20666f722073656c6600000000000000000000000000000000000000000000006064820152fd5b3461046f57604060031936011261046f5760043567ffffffffffffffff811161046f573660238201121561046f5780600401359067ffffffffffffffff82116108aa578160051b90604051926106ba6020840185610fe9565b8352602460208401928201019036821161046f57602401915b81831061087d578360243567ffffffffffffffff811161046f576106fb903690600401611042565b9080518251036107f95780517fffffffffffffffffffffffffffffffffffffffffffffffffffffffffffffffe061074a6107348361102a565b926107426040519485610fe9565b80845261102a565b0136602083013760005b8251811080156107df57156107b0578061079b60206107ab9360051b8601015173ffffffffffffffffffffffffffffffffffffffff610793848961126f565b519116611155565b6107a5828561126f565b52611213565b610754565b7f4e487b7100000000000000000000000000000000000000000000000000000000600052603260045260246000fd5b604051602080825281906107f590820186611121565b0390f35b60846040517f08c379a000000000000000000000000000000000000000000000000000000000815260206004820152602960248201527f455243313135353a206163636f756e747320616e6420696473206c656e67746860448201527f206d69736d6174636800000000000000000000000000000000000000000000006064820152fd5b823573ffffffffffffffffffffffffffffffffffffffff8116810361046f578152602092830192016106d3565b7f4e487b7100000000000000000000000000000000000000000000000000000000600052604160045260246000fd5b3461046f5760a060031936011261046f5760043573ffffffffffffffffffffffffffffffffffffffff811680820361046f576024359073ffffffffffffffffffffffffffffffffffffffff821680830361046f5760443567ffffffffffffffff811161046f5761094d903690600401611042565b9360643567ffffffffffffffff811161046f5761096e903690600401611042565b9060843567ffffffffffffffff811161046f576109926109a39136906004016110ac565b91338614908115610cbc5750611283565b8551825103610c38576109b783151561130e565b60005b8651811015610a5457806109d1610a4f928961126f565b516109dc828661126f565b5190806000526065602052604060002088600052602052604060002054610a0583821015611399565b816000526065602052604060002089600052602052826040600020910390556000526065602052604060002086600052602052610a486040600020918254611424565b9055611213565b6109ba565b50949290938282604051604081527f4a39dc06d4c0dbc64b70af90fd698a233a518aa5d07e595d983b8c0526c8f7fb610aa1610a93604084018a611121565b83810360208501528a611121565b918033930390a43b610aaf57005b6000610b29610b0596610b17602097604051998a9889977fbc197c810000000000000000000000000000000000000000000000000000000089523360048a0152602489015260a0604489015260a4880190611121565b90600319878303016064880152611121565b90600319858303016084860152611468565b92825a940393f160009181610c18575b50610b49575060016102336114a4565b7fffffffff000000000000000000000000000000000000000000000000000000007fbc197c810000000000000000000000000000000000000000000000000000000091160315610243576040517f08c379a000000000000000000000000000000000000000000000000000000000815260206004820152602860248201527f455243313135353a204552433131353552656365697665722072656a6563746560448201527f6420746f6b656e730000000000000000000000000000000000000000000000006064820152608490fd5b610c3191925060203d811161040f576104008183610fe9565b9082610b39565b60846040517f08c379a000000000000000000000000000000000000000000000000000000000815260206004820152602860248201527f455243313135353a2069647320616e6420616d6f756e7473206c656e6774682060448201527f6d69736d617463680000000000000000000000000000000000000000000000006064820152fd5b610d0f9150339073ffffffffffffffffffffffffffffffffffffffff16600052606660205273ffffffffffffffffffffffffffffffffffffffff6040600020911660005260205260ff6040600020541690565b886100ff565b3461046f57602060031936011261046f5760405160006067548060011c90600181168015610e46575b602083108114610e1957828552908115610dd75750600114610d77575b6107f583610d6b81850382610fe9565b60405191829182610f9f565b91905060676000527f9787eeb91fe3101235e4a76063c7023ecb40f923f97916639c598592fa30d6ae916000905b808210610dbd57509091508101602001610d6b610d5b565b919260018160209254838588010152019101909291610da5565b7fffffffffffffffffffffffffffffffffffffffffffffffffffffffffffffff001660208086019190915291151560051b84019091019150610d6b9050610d5b565b6024847f4e487b710000000000000000000000000000000000000000000000000000000081526022600452fd5b91607f1691610d3e565b3461046f57602060031936011261046f576004357fffffffff00000000000000000000000000000000000000000000000000000000811680910361046f57807fd9b67a260000000000000000000000000000000000000000000000000000000060209214908115610ef8575b8115610ece575b506040519015158152f35b7f01ffc9a70000000000000000000000000000000000000000000000000000000091501482610ec3565b7f0e89341c0000000000000000000000000000000000000000000000000000000081149150610ebc565b3461046f57604060031936011261046f5760043573ffffffffffffffffffffffffffffffffffffffff8116810361046f57610f6260209160243590611155565b604051908152f35b918091926000905b828210610f8a575011610f83575050565b6000910152565b91508060209183015181860152018291610f72565b7fffffffffffffffffffffffffffffffffffffffffffffffffffffffffffffffe0601f60409360208452610fe28151809281602088015260208888019101610f6a565b0116010190565b90601f7fffffffffffffffffffffffffffffffffffffffffffffffffffffffffffffffe0910116810190811067ffffffffffffffff8211176108aa57604052565b67ffffffffffffffff81116108aa5760051b60200190565b9080601f83011215908161046f5782359161105c8361102a565b9361106a6040519586610fe9565b83855260208086019460051b82010192831161046f57602001925b828410611093575050505090565b816110a8578335815260209384019301611085565b5080fd5b81601f8201121561046f5780359067ffffffffffffffff82116108aa57604051926110ff60207fffffffffffffffffffffffffffffffffffffffffffffffffffffffffffffffe0601f8601160185610fe9565b8284526020838301011161046f57816000926020809301838601378301015290565b906020808351928381520192019060005b81811061113f5750505090565b8251845260209384019390920191600101611132565b73ffffffffffffffffffffffffffffffffffffffff1690811561118f57600052606560205260406000209060005260205260406000205490565b60846040517f08c379a000000000000000000000000000000000000000000000000000000000815260206004820152602a60248201527f455243313135353a2061646472657373207a65726f206973206e6f742061207660448201527f616c6964206f776e6572000000000000000000000000000000000000000000006064820152fd5b7fffffffffffffffffffffffffffffffffffffffffffffffffffffffffffffffff81146112405760010190565b7f4e487b7100000000000000000000000000000000000000000000000000000000600052601160045260246000fd5b80518210156107b05760209160051b010190565b1561128a57565b60846040517f08c379a000000000000000000000000000000000000000000000000000000000815260206004820152602f60248201527f455243313135353a2063616c6c6572206973206e6f7420746f6b656e206f776e60448201527f6572206e6f7220617070726f76656400000000000000000000000000000000006064820152fd5b1561131557565b60846040517f08c379a000000000000000000000000000000000000000000000000000000000815260206004820152602560248201527f455243313135353a207472616e7366657220746f20746865207a65726f20616460448201527f64726573730000000000000000000000000000000000000000000000000000006064820152fd5b156113a057565b60846040517f08c379a000000000000000000000000000000000000000000000000000000000815260206004820152602a60248201527f455243313135353a20696e73756666696369656e742062616c616e636520666f60448201527f72207472616e73666572000000000000000000000000000000000000000000006064820152fd5b81198111611240570190565b9081602091031261046f57517fffffffff000000000000000000000000000000000000000000000000000000008116810361046f5790565b907fffffffffffffffffffffffffffffffffffffffffffffffffffffffffffffffe0601f602093610fe281518092818752878088019101610f6a565b60009060033d116114b157565b905060046000803e60005160e01c90565b600060443d10611529576040516003193d016004823e8051913d602484011167ffffffffffffffff841117611534578282019283519167ffffffffffffffff831161152c576003193d8501016020848701011161152c575061152992910160200190610fe9565b90565b949350505050565b92915050565b60405190611549604083610fe9565b600182526020368184013761155f60008361126f565b529056fea26469706673582212207cbf05900278af200371e0f635b60095603deb29ab59fff16183c533528fbd9e64736f6c634300080f0033",
          "opcodes": "PUSH1 0x80 PUSH1 0x40 MSTORE CALLVALUE PUSH2 0x18 JUMPI PUSH1 0x40 MLOAD PUSH2 0x1599 SWAP1 DUP2 PUSH2 0x1E DUP3 CODECOPY RETURN JUMPDEST PUSH1 0x0 DUP1 REVERT INVALID PUSH1 0x80 PUSH1 0x40 MSTORE PUSH1 0x4 CALLDATASIZE LT ISZERO PUSH2 0x12 JUMPI PUSH1 0x0 DUP1 REVERT JUMPDEST PUSH1 0x0 CALLDATALOAD PUSH1 0xE0 SHR DUP1 PUSH3 0xFDD58E EQ PUSH2 0xF22 JUMPI DUP1 PUSH4 0x1FFC9A7 EQ PUSH2 0xE50 JUMPI DUP1 PUSH4 0xE89341C EQ PUSH2 0xD15 JUMPI DUP1 PUSH4 0x2EB2C2D6 EQ PUSH2 0x8D9 JUMPI DUP1 PUSH4 0x4E1273F4 EQ PUSH2 0x661 JUMPI DUP1 PUSH4 0xA22CB465 EQ PUSH2 0x523 JUMPI DUP1 PUSH4 0xE985E9C5 EQ PUSH2 0x474 JUMPI PUSH4 0xF242432A EQ PUSH2 0x73 JUMPI PUSH1 0x0 DUP1 REVERT JUMPDEST CALLVALUE PUSH2 0x46F JUMPI PUSH1 0xA0 PUSH1 0x3 NOT CALLDATASIZE ADD SLT PUSH2 0x46F JUMPI PUSH1 0x4 CALLDATALOAD PUSH20 0xFFFFFFFFFFFFFFFFFFFFFFFFFFFFFFFFFFFFFFFF DUP2 AND SWAP1 DUP2 DUP2 SUB PUSH2 0x46F JUMPI PUSH1 0x24 CALLDATALOAD SWAP2 PUSH20 0xFFFFFFFFFFFFFFFFFFFFFFFFFFFFFFFFFFFFFFFF DUP4 AND DUP1 DUP5 SUB PUSH2 0x46F JUMPI PUSH1 0x44 CALLDATALOAD SWAP2 PUSH1 0x64 CALLDATALOAD SWAP5 PUSH1 0x84 CALLDATALOAD PUSH8 0xFFFFFFFFFFFFFFFF DUP2 GT PUSH2 0x46F JUMPI PUSH2 0xF3 PUSH2 0x105 SWAP2 CALLDATASIZE SWAP1 PUSH1 0x4 ADD PUSH2 0x10AC JUMP JUMPDEST SWAP6 CALLER DUP5 EQ SWAP1 DUP2 ISZERO PUSH2 0x416 JUMPI JUMPDEST POP PUSH2 0x1283 JUMP JUMPDEST PUSH2 0x110 DUP4 ISZERO ISZERO PUSH2 0x130E JUMP JUMPDEST PUSH2 0x119 DUP5 PUSH2 0x153A JUMP JUMPDEST POP PUSH2 0x123 DUP7 PUSH2 0x153A JUMP JUMPDEST POP DUP4 PUSH1 0x0 MSTORE PUSH1 0x65 PUSH1 0x20 MSTORE PUSH1 0x40 PUSH1 0x0 KECCAK256 DUP3 PUSH1 0x0 MSTORE PUSH1 0x20 MSTORE PUSH1 0x40 PUSH1 0x0 KECCAK256 SLOAD PUSH2 0x14B DUP8 DUP3 LT ISZERO PUSH2 0x1399 JUMP JUMPDEST PUSH1 0x0 DUP6 DUP2 MSTORE PUSH1 0x65 PUSH1 0x20 SWAP1 DUP2 MSTORE PUSH1 0x40 DUP1 DUP4 KECCAK256 DUP7 DUP5 MSTORE SWAP1 SWAP2 MSTORE DUP1 DUP3 KECCAK256 SWAP3 DUP10 SWAP1 SUB SWAP1 SWAP3 SSTORE DUP5 DUP2 MSTORE KECCAK256 DUP1 SLOAD PUSH2 0x17D SWAP1 DUP9 SWAP1 PUSH2 0x1424 JUMP JUMPDEST SWAP1 SSTORE DUP3 DUP3 PUSH1 0x40 MLOAD DUP7 DUP2 MSTORE DUP9 PUSH1 0x20 DUP3 ADD MSTORE PUSH32 0xC3D58168C5AE7397731D063D5BBF3D657854427343F4C083240F7AACAA2D0F62 PUSH1 0x40 CALLER SWAP3 LOG4 EXTCODESIZE PUSH2 0x1BA JUMPI STOP JUMPDEST PUSH1 0x0 PUSH2 0x213 PUSH1 0x20 SWAP6 PUSH1 0x40 MLOAD SWAP8 DUP9 SWAP7 DUP8 SWAP6 PUSH32 0xF23A6E6100000000000000000000000000000000000000000000000000000000 DUP8 MSTORE CALLER PUSH1 0x4 DUP9 ADD MSTORE PUSH1 0x24 DUP8 ADD MSTORE PUSH1 0x44 DUP7 ADD MSTORE PUSH1 0x64 DUP6 ADD MSTORE PUSH1 0xA0 PUSH1 0x84 DUP6 ADD MSTORE PUSH1 0xA4 DUP5 ADD SWAP1 PUSH2 0x1468 JUMP JUMPDEST SWAP3 DUP3 GAS SWAP5 SUB SWAP4 CALL PUSH1 0x0 SWAP2 DUP2 PUSH2 0x3E6 JUMPI JUMPDEST POP PUSH2 0x317 JUMPI POP PUSH1 0x1 PUSH2 0x233 PUSH2 0x14A4 JUMP JUMPDEST PUSH4 0x8C379A0 EQ PUSH2 0x2CE JUMPI JUMPDEST PUSH2 0x245 JUMPI JUMPDEST STOP JUMPDEST PUSH1 0x40 MLOAD PUSH32 0x8C379A000000000000000000000000000000000000000000000000000000000 DUP2 MSTORE PUSH1 0x20 PUSH1 0x4 DUP3 ADD MSTORE PUSH1 0x34 PUSH1 0x24 DUP3 ADD MSTORE PUSH32 0x455243313135353A207472616E7366657220746F206E6F6E2045524331313535 PUSH1 0x44 DUP3 ADD MSTORE PUSH32 0x526563656976657220696D706C656D656E746572000000000000000000000000 PUSH1 0x64 DUP3 ADD MSTORE PUSH1 0x84 SWAP1 REVERT JUMPDEST SUB SWAP1 REVERT JUMPDEST PUSH2 0x2D6 PUSH2 0x14C2 JUMP JUMPDEST DUP1 PUSH2 0x2E1 JUMPI POP PUSH2 0x23E JUMP JUMPDEST PUSH2 0x2CA SWAP1 PUSH1 0x40 MLOAD SWAP2 DUP3 SWAP2 PUSH32 0x8C379A000000000000000000000000000000000000000000000000000000000 DUP4 MSTORE PUSH1 0x4 DUP4 ADD PUSH2 0xF9F JUMP JUMPDEST PUSH32 0xFFFFFFFF00000000000000000000000000000000000000000000000000000000 PUSH32 0xF23A6E6100000000000000000000000000000000000000000000000000000000 SWAP2 AND SUB ISZERO PUSH2 0x243 JUMPI PUSH1 0x40 MLOAD PUSH32 0x8C379A000000000000000000000000000000000000000000000000000000000 DUP2 MSTORE PUSH1 0x20 PUSH1 0x4 DUP3 ADD MSTORE PUSH1 0x28 PUSH1 0x24 DUP3 ADD MSTORE PUSH32 0x455243313135353A204552433131353552656365697665722072656A65637465 PUSH1 0x44 DUP3 ADD MSTORE PUSH32 0x6420746F6B656E73000000000000000000000000000000000000000000000000 PUSH1 0x64 DUP3 ADD MSTORE PUSH1 0x84 SWAP1 REVERT JUMPDEST PUSH2 0x408 SWAP2 SWAP3 POP PUSH1 0x20 RETURNDATASIZE DUP2 GT PUSH2 0x40F JUMPI JUMPDEST PUSH2 0x400 DUP2 DUP4 PUSH2 0xFE9 JUMP JUMPDEST DUP2 ADD SWAP1 PUSH2 0x1430 JUMP JUMPDEST SWAP1 CODESIZE PUSH2 0x223 JUMP JUMPDEST POP RETURNDATASIZE PUSH2 0x3F6 JUMP JUMPDEST PUSH2 0x469 SWAP2 POP CALLER SWAP1 PUSH20 0xFFFFFFFFFFFFFFFFFFFFFFFFFFFFFFFFFFFFFFFF AND PUSH1 0x0 MSTORE PUSH1 0x66 PUSH1 0x20 MSTORE PUSH20 0xFFFFFFFFFFFFFFFFFFFFFFFFFFFFFFFFFFFFFFFF PUSH1 0x40 PUSH1 0x0 KECCAK256 SWAP2 AND PUSH1 0x0 MSTORE PUSH1 0x20 MSTORE PUSH1 0xFF PUSH1 0x40 PUSH1 0x0 KECCAK256 SLOAD AND SWAP1 JUMP JUMPDEST CODESIZE PUSH2 0xFF JUMP JUMPDEST PUSH1 0x0 DUP1 REVERT JUMPDEST CALLVALUE PUSH2 0x46F JUMPI PUSH1 0x40 PUSH1 0x3 NOT CALLDATASIZE ADD SLT PUSH2 0x46F JUMPI PUSH1 0x4 CALLDATALOAD PUSH20 0xFFFFFFFFFFFFFFFFFFFFFFFFFFFFFFFFFFFFFFFF DUP2 AND DUP2 SUB PUSH2 0x46F JUMPI PUSH1 0x24 CALLDATALOAD SWAP1 PUSH20 0xFFFFFFFFFFFFFFFFFFFFFFFFFFFFFFFFFFFFFFFF DUP3 AND DUP3 SUB PUSH2 0x46F JUMPI PUSH1 0x20 SWAP2 PUSH2 0x519 SWAP2 PUSH20 0xFFFFFFFFFFFFFFFFFFFFFFFFFFFFFFFFFFFFFFFF AND PUSH1 0x0 MSTORE PUSH1 0x66 PUSH1 0x20 MSTORE PUSH20 0xFFFFFFFFFFFFFFFFFFFFFFFFFFFFFFFFFFFFFFFF PUSH1 0x40 PUSH1 0x0 KECCAK256 SWAP2 AND PUSH1 0x0 MSTORE PUSH1 0x20 MSTORE PUSH1 0xFF PUSH1 0x40 PUSH1 0x0 KECCAK256 SLOAD AND SWAP1 JUMP JUMPDEST PUSH1 0x40 MLOAD SWAP1 ISZERO ISZERO DUP2 MSTORE RETURN JUMPDEST CALLVALUE PUSH2 0x46F JUMPI PUSH1 0x40 PUSH1 0x3 NOT CALLDATASIZE ADD SLT PUSH2 0x46F JUMPI PUSH1 0x4 CALLDATALOAD PUSH20 0xFFFFFFFFFFFFFFFFFFFFFFFFFFFFFFFFFFFFFFFF DUP2 AND DUP1 SWAP2 SUB PUSH2 0x46F JUMPI PUSH1 0x24 CALLDATALOAD DUP1 ISZERO ISZERO DUP1 SWAP2 SUB PUSH2 0x46F JUMPI DUP2 CALLER EQ PUSH2 0x5DD JUMPI CALLER PUSH1 0x0 MSTORE PUSH1 0x66 PUSH1 0x20 MSTORE PUSH1 0x40 PUSH1 0x0 KECCAK256 DUP3 PUSH1 0x0 MSTORE PUSH1 0x20 MSTORE PUSH1 0x40 PUSH1 0x0 KECCAK256 DUP1 SLOAD PUSH32 0xFFFFFFFFFFFFFFFFFFFFFFFFFFFFFFFFFFFFFFFFFFFFFFFFFFFFFFFFFFFFFF00 PUSH1 0xFF DUP5 AND SWAP2 AND OR SWAP1 SSTORE PUSH1 0x40 MLOAD SWAP1 DUP2 MSTORE PUSH32 0x17307EAB39AB6107E8899845AD3D59BD9653F200F220920489CA2B5937696C31 PUSH1 0x20 CALLER SWAP3 LOG3 STOP JUMPDEST PUSH1 0x84 PUSH1 0x40 MLOAD PUSH32 0x8C379A000000000000000000000000000000000000000000000000000000000 DUP2 MSTORE PUSH1 0x20 PUSH1 0x4 DUP3 ADD MSTORE PUSH1 0x29 PUSH1 0x24 DUP3 ADD MSTORE PUSH32 0x455243313135353A2073657474696E6720617070726F76616C20737461747573 PUSH1 0x44 DUP3 ADD MSTORE PUSH32 0x20666F722073656C660000000000000000000000000000000000000000000000 PUSH1 0x64 DUP3 ADD MSTORE REVERT JUMPDEST CALLVALUE PUSH2 0x46F JUMPI PUSH1 0x40 PUSH1 0x3 NOT CALLDATASIZE ADD SLT PUSH2 0x46F JUMPI PUSH1 0x4 CALLDATALOAD PUSH8 0xFFFFFFFFFFFFFFFF DUP2 GT PUSH2 0x46F JUMPI CALLDATASIZE PUSH1 0x23 DUP3 ADD SLT ISZERO PUSH2 0x46F JUMPI DUP1 PUSH1 0x4 ADD CALLDATALOAD SWAP1 PUSH8 0xFFFFFFFFFFFFFFFF DUP3 GT PUSH2 0x8AA JUMPI DUP2 PUSH1 0x5 SHL SWAP1 PUSH1 0x40 MLOAD SWAP3 PUSH2 0x6BA PUSH1 0x20 DUP5 ADD DUP6 PUSH2 0xFE9 JUMP JUMPDEST DUP4 MSTORE PUSH1 0x24 PUSH1 0x20 DUP5 ADD SWAP3 DUP3 ADD ADD SWAP1 CALLDATASIZE DUP3 GT PUSH2 0x46F JUMPI PUSH1 0x24 ADD SWAP2 JUMPDEST DUP2 DUP4 LT PUSH2 0x87D JUMPI DUP4 PUSH1 0x24 CALLDATALOAD PUSH8 0xFFFFFFFFFFFFFFFF DUP2 GT PUSH2 0x46F JUMPI PUSH2 0x6FB SWAP1 CALLDATASIZE SWAP1 PUSH1 0x4 ADD PUSH2 0x1042 JUMP JUMPDEST SWAP1 DUP1 MLOAD DUP3 MLOAD SUB PUSH2 0x7F9 JUMPI DUP1 MLOAD PUSH32 0xFFFFFFFFFFFFFFFFFFFFFFFFFFFFFFFFFFFFFFFFFFFFFFFFFFFFFFFFFFFFFFE0 PUSH2 0x74A PUSH2 0x734 DUP4 PUSH2 0x102A JUMP JUMPDEST SWAP3 PUSH2 0x742 PUSH1 0x40 MLOAD SWAP5 DUP6 PUSH2 0xFE9 JUMP JUMPDEST DUP1 DUP5 MSTORE PUSH2 0x102A JUMP JUMPDEST ADD CALLDATASIZE PUSH1 0x20 DUP4 ADD CALLDATACOPY PUSH1 0x0 JUMPDEST DUP3 MLOAD DUP2 LT DUP1 ISZERO PUSH2 0x7DF JUMPI ISZERO PUSH2 0x7B0 JUMPI DUP1 PUSH2 0x79B PUSH1 0x20 PUSH2 0x7AB SWAP4 PUSH1 0x5 SHL DUP7 ADD ADD MLOAD PUSH20 0xFFFFFFFFFFFFFFFFFFFFFFFFFFFFFFFFFFFFFFFF PUSH2 0x793 DUP5 DUP10 PUSH2 0x126F JUMP JUMPDEST MLOAD SWAP2 AND PUSH2 0x1155 JUMP JUMPDEST PUSH2 0x7A5 DUP3 DUP6 PUSH2 0x126F JUMP JUMPDEST MSTORE PUSH2 0x1213 JUMP JUMPDEST PUSH2 0x754 JUMP JUMPDEST PUSH32 0x4E487B7100000000000000000000000000000000000000000000000000000000 PUSH1 0x0 MSTORE PUSH1 0x32 PUSH1 0x4 MSTORE PUSH1 0x24 PUSH1 0x0 REVERT JUMPDEST PUSH1 0x40 MLOAD PUSH1 0x20 DUP1 DUP3 MSTORE DUP2 SWAP1 PUSH2 0x7F5 SWAP1 DUP3 ADD DUP7 PUSH2 0x1121 JUMP JUMPDEST SUB SWAP1 RETURN JUMPDEST PUSH1 0x84 PUSH1 0x40 MLOAD PUSH32 0x8C379A000000000000000000000000000000000000000000000000000000000 DUP2 MSTORE PUSH1 0x20 PUSH1 0x4 DUP3 ADD MSTORE PUSH1 0x29 PUSH1 0x24 DUP3 ADD MSTORE PUSH32 0x455243313135353A206163636F756E747320616E6420696473206C656E677468 PUSH1 0x44 DUP3 ADD MSTORE PUSH32 0x206D69736D617463680000000000000000000000000000000000000000000000 PUSH1 0x64 DUP3 ADD MSTORE REVERT JUMPDEST DUP3 CALLDATALOAD PUSH20 0xFFFFFFFFFFFFFFFFFFFFFFFFFFFFFFFFFFFFFFFF DUP2 AND DUP2 SUB PUSH2 0x46F JUMPI DUP2 MSTORE PUSH1 0x20 SWAP3 DUP4 ADD SWAP3 ADD PUSH2 0x6D3 JUMP JUMPDEST PUSH32 0x4E487B7100000000000000000000000000000000000000000000000000000000 PUSH1 0x0 MSTORE PUSH1 0x41 PUSH1 0x4 MSTORE PUSH1 0x24 PUSH1 0x0 REVERT JUMPDEST CALLVALUE PUSH2 0x46F JUMPI PUSH1 0xA0 PUSH1 0x3 NOT CALLDATASIZE ADD SLT PUSH2 0x46F JUMPI PUSH1 0x4 CALLDATALOAD PUSH20 0xFFFFFFFFFFFFFFFFFFFFFFFFFFFFFFFFFFFFFFFF DUP2 AND DUP1 DUP3 SUB PUSH2 0x46F JUMPI PUSH1 0x24 CALLDATALOAD SWAP1 PUSH20 0xFFFFFFFFFFFFFFFFFFFFFFFFFFFFFFFFFFFFFFFF DUP3 AND DUP1 DUP4 SUB PUSH2 0x46F JUMPI PUSH1 0x44 CALLDATALOAD PUSH8 0xFFFFFFFFFFFFFFFF DUP2 GT PUSH2 0x46F JUMPI PUSH2 0x94D SWAP1 CALLDATASIZE SWAP1 PUSH1 0x4 ADD PUSH2 0x1042 JUMP JUMPDEST SWAP4 PUSH1 0x64 CALLDATALOAD PUSH8 0xFFFFFFFFFFFFFFFF DUP2 GT PUSH2 0x46F JUMPI PUSH2 0x96E SWAP1 CALLDATASIZE SWAP1 PUSH1 0x4 ADD PUSH2 0x1042 JUMP JUMPDEST SWAP1 PUSH1 0x84 CALLDATALOAD PUSH8 0xFFFFFFFFFFFFFFFF DUP2 GT PUSH2 0x46F JUMPI PUSH2 0x992 PUSH2 0x9A3 SWAP2 CALLDATASIZE SWAP1 PUSH1 0x4 ADD PUSH2 0x10AC JUMP JUMPDEST SWAP2 CALLER DUP7 EQ SWAP1 DUP2 ISZERO PUSH2 0xCBC JUMPI POP PUSH2 0x1283 JUMP JUMPDEST DUP6 MLOAD DUP3 MLOAD SUB PUSH2 0xC38 JUMPI PUSH2 0x9B7 DUP4 ISZERO ISZERO PUSH2 0x130E JUMP JUMPDEST PUSH1 0x0 JUMPDEST DUP7 MLOAD DUP2 LT ISZERO PUSH2 0xA54 JUMPI DUP1 PUSH2 0x9D1 PUSH2 0xA4F SWAP3 DUP10 PUSH2 0x126F JUMP JUMPDEST MLOAD PUSH2 0x9DC DUP3 DUP7 PUSH2 0x126F JUMP JUMPDEST MLOAD SWAP1 DUP1 PUSH1 0x0 MSTORE PUSH1 0x65 PUSH1 0x20 MSTORE PUSH1 0x40 PUSH1 0x0 KECCAK256 DUP9 PUSH1 0x0 MSTORE PUSH1 0x20 MSTORE PUSH1 0x40 PUSH1 0x0 KECCAK256 SLOAD PUSH2 0xA05 DUP4 DUP3 LT ISZERO PUSH2 0x1399 JUMP JUMPDEST DUP2 PUSH1 0x0 MSTORE PUSH1 0x65 PUSH1 0x20 MSTORE PUSH1 0x40 PUSH1 0x0 KECCAK256 DUP10 PUSH1 0x0 MSTORE PUSH1 0x20 MSTORE DUP3 PUSH1 0x40 PUSH1 0x0 KECCAK256 SWAP2 SUB SWAP1 SSTORE PUSH1 0x0 MSTORE PUSH1 0x65 PUSH1 0x20 MSTORE PUSH1 0x40 PUSH1 0x0 KECCAK256 DUP7 PUSH1 0x0 MSTORE PUSH1 0x20 MSTORE PUSH2 0xA48 PUSH1 0x40 PUSH1 0x0 KECCAK256 SWAP2 DUP3 SLOAD PUSH2 0x1424 JUMP JUMPDEST SWAP1 SSTORE PUSH2 0x1213 JUMP JUMPDEST PUSH2 0x9BA JUMP JUMPDEST POP SWAP5 SWAP3 SWAP1 SWAP4 DUP3 DUP3 PUSH1 0x40 MLOAD PUSH1 0x40 DUP2 MSTORE PUSH32 0x4A39DC06D4C0DBC64B70AF90FD698A233A518AA5D07E595D983B8C0526C8F7FB PUSH2 0xAA1 PUSH2 0xA93 PUSH1 0x40 DUP5 ADD DUP11 PUSH2 0x1121 JUMP JUMPDEST DUP4 DUP2 SUB PUSH1 0x20 DUP6 ADD MSTORE DUP11 PUSH2 0x1121 JUMP JUMPDEST SWAP2 DUP1 CALLER SWAP4 SUB SWAP1 LOG4 EXTCODESIZE PUSH2 0xAAF JUMPI STOP JUMPDEST PUSH1 0x0 PUSH2 0xB29 PUSH2 0xB05 SWAP7 PUSH2 0xB17 PUSH1 0x20 SWAP8 PUSH1 0x40 MLOAD SWAP10 DUP11 SWAP9 DUP10 SWAP8 PUSH32 0xBC197C8100000000000000000000000000000000000000000000000000000000 DUP10 MSTORE CALLER PUSH1 0x4 DUP11 ADD MSTORE PUSH1 0x24 DUP10 ADD MSTORE PUSH1 0xA0 PUSH1 0x44 DUP10 ADD MSTORE PUSH1 0xA4 DUP9 ADD SWAP1 PUSH2 0x1121 JUMP JUMPDEST SWAP1 PUSH1 0x3 NOT DUP8 DUP4 SUB ADD PUSH1 0x64 DUP9 ADD MSTORE PUSH2 0x1121 JUMP JUMPDEST SWAP1 PUSH1 0x3 NOT DUP6 DUP4 SUB ADD PUSH1 0x84 DUP7 ADD MSTORE PUSH2 0x1468 JUMP JUMPDEST SWAP3 DUP3 GAS SWAP5 SUB SWAP4 CALL PUSH1 0x0 SWAP2 DUP2 PUSH2 0xC18 JUMPI JUMPDEST POP PUSH2 0xB49 JUMPI POP PUSH1 0x1 PUSH2 0x233 PUSH2 0x14A4 JUMP JUMPDEST PUSH32 0xFFFFFFFF00000000000000000000000000000000000000000000000000000000 PUSH32 0xBC197C8100000000000000000000000000000000000000000000000000000000 SWAP2 AND SUB ISZERO PUSH2 0x243 JUMPI PUSH1 0x40 MLOAD PUSH32 0x8C379A000000000000000000000000000000000000000000000000000000000 DUP2 MSTORE PUSH1 0x20 PUSH1 0x4 DUP3 ADD MSTORE PUSH1 0x28 PUSH1 0x24 DUP3 ADD MSTORE PUSH32 0x455243313135353A204552433131353552656365697665722072656A65637465 PUSH1 0x44 DUP3 ADD MSTORE PUSH32 0x6420746F6B656E73000000000000000000000000000000000000000000000000 PUSH1 0x64 DUP3 ADD MSTORE PUSH1 0x84 SWAP1 REVERT JUMPDEST PUSH2 0xC31 SWAP2 SWAP3 POP PUSH1 0x20 RETURNDATASIZE DUP2 GT PUSH2 0x40F JUMPI PUSH2 0x400 DUP2 DUP4 PUSH2 0xFE9 JUMP JUMPDEST SWAP1 DUP3 PUSH2 0xB39 JUMP JUMPDEST PUSH1 0x84 PUSH1 0x40 MLOAD PUSH32 0x8C379A000000000000000000000000000000000000000000000000000000000 DUP2 MSTORE PUSH1 0x20 PUSH1 0x4 DUP3 ADD MSTORE PUSH1 0x28 PUSH1 0x24 DUP3 ADD MSTORE PUSH32 0x455243313135353A2069647320616E6420616D6F756E7473206C656E67746820 PUSH1 0x44 DUP3 ADD MSTORE PUSH32 0x6D69736D61746368000000000000000000000000000000000000000000000000 PUSH1 0x64 DUP3 ADD MSTORE REVERT JUMPDEST PUSH2 0xD0F SWAP2 POP CALLER SWAP1 PUSH20 0xFFFFFFFFFFFFFFFFFFFFFFFFFFFFFFFFFFFFFFFF AND PUSH1 0x0 MSTORE PUSH1 0x66 PUSH1 0x20 MSTORE PUSH20 0xFFFFFFFFFFFFFFFFFFFFFFFFFFFFFFFFFFFFFFFF PUSH1 0x40 PUSH1 0x0 KECCAK256 SWAP2 AND PUSH1 0x0 MSTORE PUSH1 0x20 MSTORE PUSH1 0xFF PUSH1 0x40 PUSH1 0x0 KECCAK256 SLOAD AND SWAP1 JUMP JUMPDEST DUP9 PUSH2 0xFF JUMP JUMPDEST CALLVALUE PUSH2 0x46F JUMPI PUSH1 0x20 PUSH1 0x3 NOT CALLDATASIZE ADD SLT PUSH2 0x46F JUMPI PUSH1 0x40 MLOAD PUSH1 0x0 PUSH1 0x67 SLOAD DUP1 PUSH1 0x1 SHR SWAP1 PUSH1 0x1 DUP2 AND DUP1 ISZERO PUSH2 0xE46 JUMPI JUMPDEST PUSH1 0x20 DUP4 LT DUP2 EQ PUSH2 0xE19 JUMPI DUP3 DUP6 MSTORE SWAP1 DUP2 ISZERO PUSH2 0xDD7 JUMPI POP PUSH1 0x1 EQ PUSH2 0xD77 JUMPI JUMPDEST PUSH2 0x7F5 DUP4 PUSH2 0xD6B DUP2 DUP6 SUB DUP3 PUSH2 0xFE9 JUMP JUMPDEST PUSH1 0x40 MLOAD SWAP2 DUP3 SWAP2 DUP3 PUSH2 0xF9F JUMP JUMPDEST SWAP2 SWAP1 POP PUSH1 0x67 PUSH1 0x0 MSTORE PUSH32 0x9787EEB91FE3101235E4A76063C7023ECB40F923F97916639C598592FA30D6AE SWAP2 PUSH1 0x0 SWAP1 JUMPDEST DUP1 DUP3 LT PUSH2 0xDBD JUMPI POP SWAP1 SWAP2 POP DUP2 ADD PUSH1 0x20 ADD PUSH2 0xD6B PUSH2 0xD5B JUMP JUMPDEST SWAP2 SWAP3 PUSH1 0x1 DUP2 PUSH1 0x20 SWAP3 SLOAD DUP4 DUP6 DUP9 ADD ADD MSTORE ADD SWAP2 ADD SWAP1 SWAP3 SWAP2 PUSH2 0xDA5 JUMP JUMPDEST PUSH32 0xFFFFFFFFFFFFFFFFFFFFFFFFFFFFFFFFFFFFFFFFFFFFFFFFFFFFFFFFFFFFFF00 AND PUSH1 0x20 DUP1 DUP7 ADD SWAP2 SWAP1 SWAP2 MSTORE SWAP2 ISZERO ISZERO PUSH1 0x5 SHL DUP5 ADD SWAP1 SWAP2 ADD SWAP2 POP PUSH2 0xD6B SWAP1 POP PUSH2 0xD5B JUMP JUMPDEST PUSH1 0x24 DUP5 PUSH32 0x4E487B7100000000000000000000000000000000000000000000000000000000 DUP2 MSTORE PUSH1 0x22 PUSH1 0x4 MSTORE REVERT JUMPDEST SWAP2 PUSH1 0x7F AND SWAP2 PUSH2 0xD3E JUMP JUMPDEST CALLVALUE PUSH2 0x46F JUMPI PUSH1 0x20 PUSH1 0x3 NOT CALLDATASIZE ADD SLT PUSH2 0x46F JUMPI PUSH1 0x4 CALLDATALOAD PUSH32 0xFFFFFFFF00000000000000000000000000000000000000000000000000000000 DUP2 AND DUP1 SWAP2 SUB PUSH2 0x46F JUMPI DUP1 PUSH32 0xD9B67A2600000000000000000000000000000000000000000000000000000000 PUSH1 0x20 SWAP3 EQ SWAP1 DUP2 ISZERO PUSH2 0xEF8 JUMPI JUMPDEST DUP2 ISZERO PUSH2 0xECE JUMPI JUMPDEST POP PUSH1 0x40 MLOAD SWAP1 ISZERO ISZERO DUP2 MSTORE RETURN JUMPDEST PUSH32 0x1FFC9A700000000000000000000000000000000000000000000000000000000 SWAP2 POP EQ DUP3 PUSH2 0xEC3 JUMP JUMPDEST PUSH32 0xE89341C00000000000000000000000000000000000000000000000000000000 DUP2 EQ SWAP2 POP PUSH2 0xEBC JUMP JUMPDEST CALLVALUE PUSH2 0x46F JUMPI PUSH1 0x40 PUSH1 0x3 NOT CALLDATASIZE ADD SLT PUSH2 0x46F JUMPI PUSH1 0x4 CALLDATALOAD PUSH20 0xFFFFFFFFFFFFFFFFFFFFFFFFFFFFFFFFFFFFFFFF DUP2 AND DUP2 SUB PUSH2 0x46F JUMPI PUSH2 0xF62 PUSH1 0x20 SWAP2 PUSH1 0x24 CALLDATALOAD SWAP1 PUSH2 0x1155 JUMP JUMPDEST PUSH1 0x40 MLOAD SWAP1 DUP2 MSTORE RETURN JUMPDEST SWAP2 DUP1 SWAP2 SWAP3 PUSH1 0x0 SWAP1 JUMPDEST DUP3 DUP3 LT PUSH2 0xF8A JUMPI POP GT PUSH2 0xF83 JUMPI POP POP JUMP JUMPDEST PUSH1 0x0 SWAP2 ADD MSTORE JUMP JUMPDEST SWAP2 POP DUP1 PUSH1 0x20 SWAP2 DUP4 ADD MLOAD DUP2 DUP7 ADD MSTORE ADD DUP3 SWAP2 PUSH2 0xF72 JUMP JUMPDEST PUSH32 0xFFFFFFFFFFFFFFFFFFFFFFFFFFFFFFFFFFFFFFFFFFFFFFFFFFFFFFFFFFFFFFE0 PUSH1 0x1F PUSH1 0x40 SWAP4 PUSH1 0x20 DUP5 MSTORE PUSH2 0xFE2 DUP2 MLOAD DUP1 SWAP3 DUP2 PUSH1 0x20 DUP9 ADD MSTORE PUSH1 0x20 DUP9 DUP9 ADD SWAP2 ADD PUSH2 0xF6A JUMP JUMPDEST ADD AND ADD ADD SWAP1 JUMP JUMPDEST SWAP1 PUSH1 0x1F PUSH32 0xFFFFFFFFFFFFFFFFFFFFFFFFFFFFFFFFFFFFFFFFFFFFFFFFFFFFFFFFFFFFFFE0 SWAP2 ADD AND DUP2 ADD SWAP1 DUP2 LT PUSH8 0xFFFFFFFFFFFFFFFF DUP3 GT OR PUSH2 0x8AA JUMPI PUSH1 0x40 MSTORE JUMP JUMPDEST PUSH8 0xFFFFFFFFFFFFFFFF DUP2 GT PUSH2 0x8AA JUMPI PUSH1 0x5 SHL PUSH1 0x20 ADD SWAP1 JUMP JUMPDEST SWAP1 DUP1 PUSH1 0x1F DUP4 ADD SLT ISZERO SWAP1 DUP2 PUSH2 0x46F JUMPI DUP3 CALLDATALOAD SWAP2 PUSH2 0x105C DUP4 PUSH2 0x102A JUMP JUMPDEST SWAP4 PUSH2 0x106A PUSH1 0x40 MLOAD SWAP6 DUP7 PUSH2 0xFE9 JUMP JUMPDEST DUP4 DUP6 MSTORE PUSH1 0x20 DUP1 DUP7 ADD SWAP5 PUSH1 0x5 SHL DUP3 ADD ADD SWAP3 DUP4 GT PUSH2 0x46F JUMPI PUSH1 0x20 ADD SWAP3 JUMPDEST DUP3 DUP5 LT PUSH2 0x1093 JUMPI POP POP POP POP SWAP1 JUMP JUMPDEST DUP2 PUSH2 0x10A8 JUMPI DUP4 CALLDATALOAD DUP2 MSTORE PUSH1 0x20 SWAP4 DUP5 ADD SWAP4 ADD PUSH2 0x1085 JUMP JUMPDEST POP DUP1 REVERT JUMPDEST DUP2 PUSH1 0x1F DUP3 ADD SLT ISZERO PUSH2 0x46F JUMPI DUP1 CALLDATALOAD SWAP1 PUSH8 0xFFFFFFFFFFFFFFFF DUP3 GT PUSH2 0x8AA JUMPI PUSH1 0x40 MLOAD SWAP3 PUSH2 0x10FF PUSH1 0x20 PUSH32 0xFFFFFFFFFFFFFFFFFFFFFFFFFFFFFFFFFFFFFFFFFFFFFFFFFFFFFFFFFFFFFFE0 PUSH1 0x1F DUP7 ADD AND ADD DUP6 PUSH2 0xFE9 JUMP JUMPDEST DUP3 DUP5 MSTORE PUSH1 0x20 DUP4 DUP4 ADD ADD GT PUSH2 0x46F JUMPI DUP2 PUSH1 0x0 SWAP3 PUSH1 0x20 DUP1 SWAP4 ADD DUP4 DUP7 ADD CALLDATACOPY DUP4 ADD ADD MSTORE SWAP1 JUMP JUMPDEST SWAP1 PUSH1 0x20 DUP1 DUP4 MLOAD SWAP3 DUP4 DUP2 MSTORE ADD SWAP3 ADD SWAP1 PUSH1 0x0 JUMPDEST DUP2 DUP2 LT PUSH2 0x113F JUMPI POP POP POP SWAP1 JUMP JUMPDEST DUP3 MLOAD DUP5 MSTORE PUSH1 0x20 SWAP4 DUP5 ADD SWAP4 SWAP1 SWAP3 ADD SWAP2 PUSH1 0x1 ADD PUSH2 0x1132 JUMP JUMPDEST PUSH20 0xFFFFFFFFFFFFFFFFFFFFFFFFFFFFFFFFFFFFFFFF AND SWAP1 DUP2 ISZERO PUSH2 0x118F JUMPI PUSH1 0x0 MSTORE PUSH1 0x65 PUSH1 0x20 MSTORE PUSH1 0x40 PUSH1 0x0 KECCAK256 SWAP1 PUSH1 0x0 MSTORE PUSH1 0x20 MSTORE PUSH1 0x40 PUSH1 0x0 KECCAK256 SLOAD SWAP1 JUMP JUMPDEST PUSH1 0x84 PUSH1 0x40 MLOAD PUSH32 0x8C379A000000000000000000000000000000000000000000000000000000000 DUP2 MSTORE PUSH1 0x20 PUSH1 0x4 DUP3 ADD MSTORE PUSH1 0x2A PUSH1 0x24 DUP3 ADD MSTORE PUSH32 0x455243313135353A2061646472657373207A65726F206973206E6F7420612076 PUSH1 0x44 DUP3 ADD MSTORE PUSH32 0x616C6964206F776E657200000000000000000000000000000000000000000000 PUSH1 0x64 DUP3 ADD MSTORE REVERT JUMPDEST PUSH32 0xFFFFFFFFFFFFFFFFFFFFFFFFFFFFFFFFFFFFFFFFFFFFFFFFFFFFFFFFFFFFFFFF DUP2 EQ PUSH2 0x1240 JUMPI PUSH1 0x1 ADD SWAP1 JUMP JUMPDEST PUSH32 0x4E487B7100000000000000000000000000000000000000000000000000000000 PUSH1 0x0 MSTORE PUSH1 0x11 PUSH1 0x4 MSTORE PUSH1 0x24 PUSH1 0x0 REVERT JUMPDEST DUP1 MLOAD DUP3 LT ISZERO PUSH2 0x7B0 JUMPI PUSH1 0x20 SWAP2 PUSH1 0x5 SHL ADD ADD SWAP1 JUMP JUMPDEST ISZERO PUSH2 0x128A JUMPI JUMP JUMPDEST PUSH1 0x84 PUSH1 0x40 MLOAD PUSH32 0x8C379A000000000000000000000000000000000000000000000000000000000 DUP2 MSTORE PUSH1 0x20 PUSH1 0x4 DUP3 ADD MSTORE PUSH1 0x2F PUSH1 0x24 DUP3 ADD MSTORE PUSH32 0x455243313135353A2063616C6C6572206973206E6F7420746F6B656E206F776E PUSH1 0x44 DUP3 ADD MSTORE PUSH32 0x6572206E6F7220617070726F7665640000000000000000000000000000000000 PUSH1 0x64 DUP3 ADD MSTORE REVERT JUMPDEST ISZERO PUSH2 0x1315 JUMPI JUMP JUMPDEST PUSH1 0x84 PUSH1 0x40 MLOAD PUSH32 0x8C379A000000000000000000000000000000000000000000000000000000000 DUP2 MSTORE PUSH1 0x20 PUSH1 0x4 DUP3 ADD MSTORE PUSH1 0x25 PUSH1 0x24 DUP3 ADD MSTORE PUSH32 0x455243313135353A207472616E7366657220746F20746865207A65726F206164 PUSH1 0x44 DUP3 ADD MSTORE PUSH32 0x6472657373000000000000000000000000000000000000000000000000000000 PUSH1 0x64 DUP3 ADD MSTORE REVERT JUMPDEST ISZERO PUSH2 0x13A0 JUMPI JUMP JUMPDEST PUSH1 0x84 PUSH1 0x40 MLOAD PUSH32 0x8C379A000000000000000000000000000000000000000000000000000000000 DUP2 MSTORE PUSH1 0x20 PUSH1 0x4 DUP3 ADD MSTORE PUSH1 0x2A PUSH1 0x24 DUP3 ADD MSTORE PUSH32 0x455243313135353A20696E73756666696369656E742062616C616E636520666F PUSH1 0x44 DUP3 ADD MSTORE PUSH32 0x72207472616E7366657200000000000000000000000000000000000000000000 PUSH1 0x64 DUP3 ADD MSTORE REVERT JUMPDEST DUP2 NOT DUP2 GT PUSH2 0x1240 JUMPI ADD SWAP1 JUMP JUMPDEST SWAP1 DUP2 PUSH1 0x20 SWAP2 SUB SLT PUSH2 0x46F JUMPI MLOAD PUSH32 0xFFFFFFFF00000000000000000000000000000000000000000000000000000000 DUP2 AND DUP2 SUB PUSH2 0x46F JUMPI SWAP1 JUMP JUMPDEST SWAP1 PUSH32 0xFFFFFFFFFFFFFFFFFFFFFFFFFFFFFFFFFFFFFFFFFFFFFFFFFFFFFFFFFFFFFFE0 PUSH1 0x1F PUSH1 0x20 SWAP4 PUSH2 0xFE2 DUP2 MLOAD DUP1 SWAP3 DUP2 DUP8 MSTORE DUP8 DUP1 DUP9 ADD SWAP2 ADD PUSH2 0xF6A JUMP JUMPDEST PUSH1 0x0 SWAP1 PUSH1 0x3 RETURNDATASIZE GT PUSH2 0x14B1 JUMPI JUMP JUMPDEST SWAP1 POP PUSH1 0x4 PUSH1 0x0 DUP1 RETURNDATACOPY PUSH1 0x0 MLOAD PUSH1 0xE0 SHR SWAP1 JUMP JUMPDEST PUSH1 0x0 PUSH1 0x44 RETURNDATASIZE LT PUSH2 0x1529 JUMPI PUSH1 0x40 MLOAD PUSH1 0x3 NOT RETURNDATASIZE ADD PUSH1 0x4 DUP3 RETURNDATACOPY DUP1 MLOAD SWAP2 RETURNDATASIZE PUSH1 0x24 DUP5 ADD GT PUSH8 0xFFFFFFFFFFFFFFFF DUP5 GT OR PUSH2 0x1534 JUMPI DUP3 DUP3 ADD SWAP3 DUP4 MLOAD SWAP2 PUSH8 0xFFFFFFFFFFFFFFFF DUP4 GT PUSH2 0x152C JUMPI PUSH1 0x3 NOT RETURNDATASIZE DUP6 ADD ADD PUSH1 0x20 DUP5 DUP8 ADD ADD GT PUSH2 0x152C JUMPI POP PUSH2 0x1529 SWAP3 SWAP2 ADD PUSH1 0x20 ADD SWAP1 PUSH2 0xFE9 JUMP JUMPDEST SWAP1 JUMP JUMPDEST SWAP5 SWAP4 POP POP POP POP JUMP JUMPDEST SWAP3 SWAP2 POP POP JUMP JUMPDEST PUSH1 0x40 MLOAD SWAP1 PUSH2 0x1549 PUSH1 0x40 DUP4 PUSH2 0xFE9 JUMP JUMPDEST PUSH1 0x1 DUP3 MSTORE PUSH1 0x20 CALLDATASIZE DUP2 DUP5 ADD CALLDATACOPY PUSH2 0x155F PUSH1 0x0 DUP4 PUSH2 0x126F JUMP JUMPDEST MSTORE SWAP1 JUMP INVALID LOG2 PUSH5 0x6970667358 0x22 SLT KECCAK256 PUSH29 0xBF05900278AF200371E0F635B60095603DEB29AB59FFF16183C533528F 0xBD SWAP15 PUSH5 0x736F6C6343 STOP ADDMOD 0xF STOP CALLER "
        },
        "gasEstimates": {
          "creation": {
            "codeDepositCost": "1105800",
            "executionCost": "1159",
            "totalCost": "1106959"
          },
          "external": {
            "balanceOf(address,uint256)": "2474",
            "balanceOfBatch(address[],uint256[])": "infinite",
            "isApprovedForAll(address,address)": "2621",
            "safeBatchTransferFrom(address,address,uint256[],uint256[],bytes)": "infinite",
            "safeTransferFrom(address,address,uint256,uint256,bytes)": "infinite",
            "setApprovalForAll(address,bool)": "26471",
            "supportsInterface(bytes4)": "321",
            "uri(uint256)": "infinite"
          },
          "internal": {
            "__ERC1155_init(string memory)": "infinite",
            "__ERC1155_init_unchained(string memory)": "infinite",
            "_afterTokenTransfer(address,address,address,uint256[] memory,uint256[] memory,bytes memory)": "infinite",
            "_asSingletonArray(uint256)": "infinite",
            "_beforeTokenTransfer(address,address,address,uint256[] memory,uint256[] memory,bytes memory)": "infinite",
            "_burn(address,uint256,uint256)": "infinite",
            "_burnBatch(address,uint256[] memory,uint256[] memory)": "infinite",
            "_doSafeBatchTransferAcceptanceCheck(address,address,address,uint256[] memory,uint256[] memory,bytes memory)": "infinite",
            "_doSafeTransferAcceptanceCheck(address,address,address,uint256,uint256,bytes memory)": "infinite",
            "_mint(address,uint256,uint256,bytes memory)": "infinite",
            "_mintBatch(address,uint256[] memory,uint256[] memory,bytes memory)": "infinite",
            "_safeBatchTransferFrom(address,address,uint256[] memory,uint256[] memory,bytes memory)": "infinite",
            "_safeTransferFrom(address,address,uint256,uint256,bytes memory)": "infinite",
            "_setApprovalForAll(address,address,bool)": "infinite",
            "_setURI(string memory)": "infinite"
          }
        },
        "methodIdentifiers": {
          "balanceOf(address,uint256)": "00fdd58e",
          "balanceOfBatch(address[],uint256[])": "4e1273f4",
          "isApprovedForAll(address,address)": "e985e9c5",
          "safeBatchTransferFrom(address,address,uint256[],uint256[],bytes)": "2eb2c2d6",
          "safeTransferFrom(address,address,uint256,uint256,bytes)": "f242432a",
          "setApprovalForAll(address,bool)": "a22cb465",
          "supportsInterface(bytes4)": "01ffc9a7",
          "uri(uint256)": "0e89341c"
        }
      },
      "storageLayout": {
        "storage": [
          {
            "astId": 527,
            "contract": "@openzeppelin/contracts-upgradeable/token/ERC1155/ERC1155Upgradeable.sol:ERC1155Upgradeable",
            "label": "_initialized",
            "offset": 0,
            "slot": "0",
            "type": "t_uint8"
          },
          {
            "astId": 530,
            "contract": "@openzeppelin/contracts-upgradeable/token/ERC1155/ERC1155Upgradeable.sol:ERC1155Upgradeable",
            "label": "_initializing",
            "offset": 1,
            "slot": "0",
            "type": "t_bool"
          },
          {
            "astId": 2628,
            "contract": "@openzeppelin/contracts-upgradeable/token/ERC1155/ERC1155Upgradeable.sol:ERC1155Upgradeable",
            "label": "__gap",
            "offset": 0,
            "slot": "1",
            "type": "t_array(t_uint256)50_storage"
          },
          {
            "astId": 2958,
            "contract": "@openzeppelin/contracts-upgradeable/token/ERC1155/ERC1155Upgradeable.sol:ERC1155Upgradeable",
            "label": "__gap",
            "offset": 0,
            "slot": "51",
            "type": "t_array(t_uint256)50_storage"
          },
          {
            "astId": 836,
            "contract": "@openzeppelin/contracts-upgradeable/token/ERC1155/ERC1155Upgradeable.sol:ERC1155Upgradeable",
            "label": "_balances",
            "offset": 0,
            "slot": "101",
            "type": "t_mapping(t_uint256,t_mapping(t_address,t_uint256))"
          },
          {
            "astId": 842,
            "contract": "@openzeppelin/contracts-upgradeable/token/ERC1155/ERC1155Upgradeable.sol:ERC1155Upgradeable",
            "label": "_operatorApprovals",
            "offset": 0,
            "slot": "102",
            "type": "t_mapping(t_address,t_mapping(t_address,t_bool))"
          },
          {
            "astId": 844,
            "contract": "@openzeppelin/contracts-upgradeable/token/ERC1155/ERC1155Upgradeable.sol:ERC1155Upgradeable",
            "label": "_uri",
            "offset": 0,
            "slot": "103",
            "type": "t_string_storage"
          },
          {
            "astId": 2051,
            "contract": "@openzeppelin/contracts-upgradeable/token/ERC1155/ERC1155Upgradeable.sol:ERC1155Upgradeable",
            "label": "__gap",
            "offset": 0,
            "slot": "104",
            "type": "t_array(t_uint256)47_storage"
          }
        ],
        "types": {
          "t_address": {
            "encoding": "inplace",
            "label": "address",
            "numberOfBytes": "20"
          },
          "t_array(t_uint256)47_storage": {
            "base": "t_uint256",
            "encoding": "inplace",
            "label": "uint256[47]",
            "numberOfBytes": "1504"
          },
          "t_array(t_uint256)50_storage": {
            "base": "t_uint256",
            "encoding": "inplace",
            "label": "uint256[50]",
            "numberOfBytes": "1600"
          },
          "t_bool": {
            "encoding": "inplace",
            "label": "bool",
            "numberOfBytes": "1"
          },
          "t_mapping(t_address,t_bool)": {
            "encoding": "mapping",
            "key": "t_address",
            "label": "mapping(address => bool)",
            "numberOfBytes": "32",
            "value": "t_bool"
          },
          "t_mapping(t_address,t_mapping(t_address,t_bool))": {
            "encoding": "mapping",
            "key": "t_address",
            "label": "mapping(address => mapping(address => bool))",
            "numberOfBytes": "32",
            "value": "t_mapping(t_address,t_bool)"
          },
          "t_mapping(t_address,t_uint256)": {
            "encoding": "mapping",
            "key": "t_address",
            "label": "mapping(address => uint256)",
            "numberOfBytes": "32",
            "value": "t_uint256"
          },
          "t_mapping(t_uint256,t_mapping(t_address,t_uint256))": {
            "encoding": "mapping",
            "key": "t_uint256",
            "label": "mapping(uint256 => mapping(address => uint256))",
            "numberOfBytes": "32",
            "value": "t_mapping(t_address,t_uint256)"
          },
          "t_string_storage": {
            "encoding": "bytes",
            "label": "string",
            "numberOfBytes": "32"
          },
          "t_uint256": {
            "encoding": "inplace",
            "label": "uint256",
            "numberOfBytes": "32"
          },
          "t_uint8": {
            "encoding": "inplace",
            "label": "uint8",
            "numberOfBytes": "1"
          }
        }
      },
      "userdoc": {
        "kind": "user",
        "methods": {},
        "version": 1
      }
    }
  }
}