{
  "contracts/HYDNSeal.sol": {
    "HYDNSeal": {
      "abi": [
        {
          "inputs": [],
          "stateMutability": "nonpayable",
          "type": "constructor"
        },
        {
          "anonymous": false,
          "inputs": [
            {
              "indexed": false,
              "internalType": "address",
              "name": "previousAdmin",
              "type": "address"
            },
            {
              "indexed": false,
              "internalType": "address",
              "name": "newAdmin",
              "type": "address"
            }
          ],
          "name": "AdminChanged",
          "type": "event"
        },
        {
          "anonymous": false,
          "inputs": [
            {
              "indexed": true,
              "internalType": "address",
              "name": "account",
              "type": "address"
            },
            {
              "indexed": true,
              "internalType": "address",
              "name": "operator",
              "type": "address"
            },
            {
              "indexed": false,
              "internalType": "bool",
              "name": "approved",
              "type": "bool"
            }
          ],
          "name": "ApprovalForAll",
          "type": "event"
        },
        {
          "anonymous": false,
          "inputs": [
            {
              "indexed": true,
              "internalType": "address",
              "name": "beacon",
              "type": "address"
            }
          ],
          "name": "BeaconUpgraded",
          "type": "event"
        },
        {
          "anonymous": false,
          "inputs": [
            {
              "indexed": false,
              "internalType": "uint8",
              "name": "version",
              "type": "uint8"
            }
          ],
          "name": "Initialized",
          "type": "event"
        },
        {
          "anonymous": false,
          "inputs": [
            {
              "indexed": true,
              "internalType": "address",
              "name": "previousOwner",
              "type": "address"
            },
            {
              "indexed": true,
              "internalType": "address",
              "name": "newOwner",
              "type": "address"
            }
          ],
          "name": "OwnershipTransferred",
          "type": "event"
        },
        {
          "anonymous": false,
          "inputs": [
            {
              "indexed": true,
              "internalType": "address",
              "name": "operator",
              "type": "address"
            },
            {
              "indexed": true,
              "internalType": "address",
              "name": "from",
              "type": "address"
            },
            {
              "indexed": true,
              "internalType": "address",
              "name": "to",
              "type": "address"
            },
            {
              "indexed": false,
              "internalType": "uint256[]",
              "name": "ids",
              "type": "uint256[]"
            },
            {
              "indexed": false,
              "internalType": "uint256[]",
              "name": "values",
              "type": "uint256[]"
            }
          ],
          "name": "TransferBatch",
          "type": "event"
        },
        {
          "anonymous": false,
          "inputs": [
            {
              "indexed": true,
              "internalType": "address",
              "name": "operator",
              "type": "address"
            },
            {
              "indexed": true,
              "internalType": "address",
              "name": "from",
              "type": "address"
            },
            {
              "indexed": true,
              "internalType": "address",
              "name": "to",
              "type": "address"
            },
            {
              "indexed": false,
              "internalType": "uint256",
              "name": "id",
              "type": "uint256"
            },
            {
              "indexed": false,
              "internalType": "uint256",
              "name": "value",
              "type": "uint256"
            }
          ],
          "name": "TransferSingle",
          "type": "event"
        },
        {
          "anonymous": false,
          "inputs": [
            {
              "indexed": false,
              "internalType": "string",
              "name": "value",
              "type": "string"
            },
            {
              "indexed": true,
              "internalType": "uint256",
              "name": "id",
              "type": "uint256"
            }
          ],
          "name": "URI",
          "type": "event"
        },
        {
          "anonymous": false,
          "inputs": [
            {
              "indexed": true,
              "internalType": "address",
              "name": "implementation",
              "type": "address"
            }
          ],
          "name": "Upgraded",
          "type": "event"
        },
        {
          "inputs": [
            {
              "internalType": "address",
              "name": "account",
              "type": "address"
            },
            {
              "internalType": "uint256",
              "name": "id",
              "type": "uint256"
            }
          ],
          "name": "balanceOf",
          "outputs": [
            {
              "internalType": "uint256",
              "name": "",
              "type": "uint256"
            }
          ],
          "stateMutability": "view",
          "type": "function"
        },
        {
          "inputs": [
            {
              "internalType": "address[]",
              "name": "accounts",
              "type": "address[]"
            },
            {
              "internalType": "uint256[]",
              "name": "ids",
              "type": "uint256[]"
            }
          ],
          "name": "balanceOfBatch",
          "outputs": [
            {
              "internalType": "uint256[]",
              "name": "",
              "type": "uint256[]"
            }
          ],
          "stateMutability": "view",
          "type": "function"
        },
        {
          "inputs": [],
          "name": "currentAuditId",
          "outputs": [
            {
              "internalType": "uint256",
              "name": "",
              "type": "uint256"
            }
          ],
          "stateMutability": "view",
          "type": "function"
        },
        {
          "inputs": [
            {
              "internalType": "uint256",
              "name": "id",
              "type": "uint256"
            }
          ],
          "name": "exists",
          "outputs": [
            {
              "internalType": "bool",
              "name": "",
              "type": "bool"
            }
          ],
          "stateMutability": "view",
          "type": "function"
        },
        {
          "inputs": [
            {
              "internalType": "string",
              "name": "_baseURI",
              "type": "string"
            }
          ],
          "name": "initialize",
          "outputs": [],
          "stateMutability": "nonpayable",
          "type": "function"
        },
        {
          "inputs": [
            {
              "internalType": "address",
              "name": "account",
              "type": "address"
            },
            {
              "internalType": "address",
              "name": "operator",
              "type": "address"
            }
          ],
          "name": "isApprovedForAll",
          "outputs": [
            {
              "internalType": "bool",
              "name": "",
              "type": "bool"
            }
          ],
          "stateMutability": "view",
          "type": "function"
        },
        {
          "inputs": [
            {
              "internalType": "address[]",
              "name": "_contracts",
              "type": "address[]"
            }
          ],
          "name": "mintSeal",
          "outputs": [
            {
              "internalType": "bool",
              "name": "success",
              "type": "bool"
            }
          ],
          "stateMutability": "nonpayable",
          "type": "function"
        },
        {
          "inputs": [],
          "name": "name",
          "outputs": [
            {
              "internalType": "string",
              "name": "",
              "type": "string"
            }
          ],
          "stateMutability": "view",
          "type": "function"
        },
        {
          "inputs": [],
          "name": "owner",
          "outputs": [
            {
              "internalType": "address",
              "name": "",
              "type": "address"
            }
          ],
          "stateMutability": "view",
          "type": "function"
        },
        {
          "inputs": [],
          "name": "proxiableUUID",
          "outputs": [
            {
              "internalType": "bytes32",
              "name": "",
              "type": "bytes32"
            }
          ],
          "stateMutability": "view",
          "type": "function"
        },
        {
          "inputs": [],
          "name": "renounceOwnership",
          "outputs": [],
          "stateMutability": "nonpayable",
          "type": "function"
        },
        {
          "inputs": [
            {
              "internalType": "address",
              "name": "",
              "type": "address"
            },
            {
              "internalType": "address",
              "name": "",
              "type": "address"
            },
            {
              "internalType": "uint256[]",
              "name": "",
              "type": "uint256[]"
            },
            {
              "internalType": "uint256[]",
              "name": "",
              "type": "uint256[]"
            },
            {
              "internalType": "bytes",
              "name": "",
              "type": "bytes"
            }
          ],
          "name": "safeBatchTransferFrom",
          "outputs": [],
          "stateMutability": "nonpayable",
          "type": "function"
        },
        {
          "inputs": [
            {
              "internalType": "address",
              "name": "",
              "type": "address"
            },
            {
              "internalType": "address",
              "name": "",
              "type": "address"
            },
            {
              "internalType": "uint256",
              "name": "",
              "type": "uint256"
            },
            {
              "internalType": "uint256",
              "name": "",
              "type": "uint256"
            },
            {
              "internalType": "bytes",
              "name": "",
              "type": "bytes"
            }
          ],
          "name": "safeTransferFrom",
          "outputs": [],
          "stateMutability": "nonpayable",
          "type": "function"
        },
        {
          "inputs": [
            {
              "internalType": "address",
              "name": "operator",
              "type": "address"
            },
            {
              "internalType": "bool",
              "name": "approved",
              "type": "bool"
            }
          ],
          "name": "setApprovalForAll",
          "outputs": [],
          "stateMutability": "nonpayable",
          "type": "function"
        },
        {
          "inputs": [
            {
              "internalType": "bytes4",
              "name": "interfaceId",
              "type": "bytes4"
            }
          ],
          "name": "supportsInterface",
          "outputs": [
            {
              "internalType": "bool",
              "name": "",
              "type": "bool"
            }
          ],
          "stateMutability": "view",
          "type": "function"
        },
        {
          "inputs": [],
          "name": "symbol",
          "outputs": [
            {
              "internalType": "string",
              "name": "",
              "type": "string"
            }
          ],
          "stateMutability": "view",
          "type": "function"
        },
        {
          "inputs": [],
          "name": "totalSupply",
          "outputs": [
            {
              "internalType": "uint256",
              "name": "",
              "type": "uint256"
            }
          ],
          "stateMutability": "view",
          "type": "function"
        },
        {
          "inputs": [
            {
              "internalType": "uint256",
              "name": "id",
              "type": "uint256"
            }
          ],
          "name": "totalSupply",
          "outputs": [
            {
              "internalType": "uint256",
              "name": "",
              "type": "uint256"
            }
          ],
          "stateMutability": "view",
          "type": "function"
        },
        {
          "inputs": [
            {
              "internalType": "address",
              "name": "newOwner",
              "type": "address"
            }
          ],
          "name": "transferOwnership",
          "outputs": [],
          "stateMutability": "nonpayable",
          "type": "function"
        },
        {
          "inputs": [
            {
              "internalType": "address",
              "name": "newImplementation",
              "type": "address"
            }
          ],
          "name": "upgradeTo",
          "outputs": [],
          "stateMutability": "nonpayable",
          "type": "function"
        },
        {
          "inputs": [
            {
              "internalType": "address",
              "name": "newImplementation",
              "type": "address"
            },
            {
              "internalType": "bytes",
              "name": "data",
              "type": "bytes"
            }
          ],
          "name": "upgradeToAndCall",
          "outputs": [],
          "stateMutability": "payable",
          "type": "function"
        },
        {
          "inputs": [
            {
              "internalType": "uint256",
              "name": "_tokenId",
              "type": "uint256"
            }
          ],
          "name": "uri",
          "outputs": [
            {
              "internalType": "string",
              "name": "",
              "type": "string"
            }
          ],
          "stateMutability": "view",
          "type": "function"
        }
      ],
      "devdoc": {
        "kind": "dev",
        "methods": {
          "balanceOf(address,uint256)": {
            "details": "See {IERC1155-balanceOf}. Requirements: - `account` cannot be the zero address."
          },
          "balanceOfBatch(address[],uint256[])": {
            "details": "See {IERC1155-balanceOfBatch}. Requirements: - `accounts` and `ids` must have the same length."
          },
          "constructor": {
            "custom:oz-upgrades-unsafe-allow": "constructor"
          },
          "exists(uint256)": {
            "details": "Indicates whether any token exist with a given id, or not."
          },
          "isApprovedForAll(address,address)": {
            "details": "See {IERC1155-isApprovedForAll}."
          },
          "owner()": {
            "details": "Returns the address of the current owner."
          },
          "proxiableUUID()": {
            "details": "Implementation of the ERC1822 {proxiableUUID} function. This returns the storage slot used by the implementation. It is used to validate that the this implementation remains valid after an upgrade. IMPORTANT: A proxy pointing at a proxiable contract should not be considered proxiable itself, because this risks bricking a proxy that upgrades to it, by delegating to itself until out of gas. Thus it is critical that this function revert if invoked through a proxy. This is guaranteed by the `notDelegated` modifier."
          },
          "renounceOwnership()": {
            "details": "Leaves the contract without owner. It will not be possible to call `onlyOwner` functions anymore. Can only be called by the current owner. NOTE: Renouncing ownership will leave the contract without an owner, thereby removing any functionality that is only available to the owner."
          },
          "setApprovalForAll(address,bool)": {
            "details": "See {IERC1155-setApprovalForAll}."
          },
          "supportsInterface(bytes4)": {
            "details": "See {IERC165-supportsInterface}."
          },
          "totalSupply(uint256)": {
            "details": "Total amount of tokens in with a given id."
          },
          "transferOwnership(address)": {
            "details": "Transfers ownership of the contract to a new account (`newOwner`). Can only be called by the current owner."
          },
          "upgradeTo(address)": {
            "details": "Upgrade the implementation of the proxy to `newImplementation`. Calls {_authorizeUpgrade}. Emits an {Upgraded} event."
          },
          "upgradeToAndCall(address,bytes)": {
            "details": "Upgrade the implementation of the proxy to `newImplementation`, and subsequently execute the function call encoded in `data`. Calls {_authorizeUpgrade}. Emits an {Upgraded} event."
          }
        },
        "version": 1
      },
      "evm": {
        "bytecode": {
          "linkReferences": {},
          "object": "60a0604052346100db573060805260ff345460081c1661008657345460ff8082161061004c575b6040516124a790816100e18239608051818181610e980152818161100801526113470152f35b60ff908119161734557f7f26b83ff96e1f2b6a682f133852f6798a09c465da95921460cefb3847402498602060405160ff8152a138610026565b60405162461bcd60e51b815260206004820152602760248201527f496e697469616c697a61626c653a20636f6e747261637420697320696e697469604482015266616c697a696e6760c81b6064820152608490fd5b600080fdfe6080604052600436101561001257600080fd5b60003560e01c8062fdd58e1461170557806301ffc9a71461163357806306fdde03146116145780630e89341c1461153857806318160ddd146115025780632eb2c2d6146113cb5780633659cfe6146112f65780634e1273f41461107f5780634f1ef28614610f9b5780634f558e7914610f6c57806352d1902d14610e70578063715018a614610e4d5780638da5cb5b14610e195780639458e71814610dfa57806395d89b4114610dcb578063a22cb46514610c8d578063bd85b03914610c60578063e985e9c514610be3578063f242432a14610b0c578063f2fde38b14610a40578063f62d1888146105595763f722c17d1461010d57600080fd5b346104d15760206003193601126104d15760043567ffffffffffffffff81116104d157366023820112156104d15780600401359067ffffffffffffffff82116104d1573660248360051b830101116104d15760249061016a611a0f565b016101615491600183018093116102ad57919081610161556000915b83831061019857602060405160018152f35b6101a383858461238f565b3573ffffffffffffffffffffffffffffffffffffffff811681036104d1573b156104d6576101d283858461238f565b359273ffffffffffffffffffffffffffffffffffffffff84168094036104d15760006101fd8161198e565b61020a60405191826117a0565b52831561044d57604051946102206040876117a0565b60018652602036818801378261023760008861245d565b52604051936102476040866117a0565b6001855260203681870137600161025f60008761245d565b5260005b87518110156102dc57610276818761245d565b5190610282818a61245d565b5160005261012d60205260406000209182549081018091116102ad576102a89255612221565b610263565b7f4e487b7100000000000000000000000000000000000000000000000000000000600052601160045260246000fd5b50949295939093831561035b575b50508460005260fb6020526040600020826000526020526040600020918254600181018091116102ad5761035393556000604051878152600160208201527fc3d58168c5ae7397731d063d5bbf3d657854427343f4c083240f7aacaa2d0f6260403392a4612221565b919092610186565b939095929460005b855181101561043f57610376818761245d565b5190610382818a61245d565b518260005261012d602052604060002054908082106103bb576103b69360005261012d602052604060002091039055612221565b610363565b60846040517f08c379a000000000000000000000000000000000000000000000000000000000815260206004820152602860248201527f455243313135353a206275726e20616d6f756e74206578636565647320746f7460448201527f616c537570706c790000000000000000000000000000000000000000000000006064820152fd5b5094929550925038806102ea565b60846040517f08c379a000000000000000000000000000000000000000000000000000000000815260206004820152602160248201527f455243313135353a206d696e7420746f20746865207a65726f2061646472657360448201527f73000000000000000000000000000000000000000000000000000000000000006064820152fd5b600080fd5b60846040517f08c379a0000000000000000000000000000000000000000000000000000000008152602060048201526024808201527f4859444e5365616c3a207265636569766572206973206e6f74206120636f6e7460448201527f72616374000000000000000000000000000000000000000000000000000000006064820152fd5b346104d15760206003193601126104d15760043567ffffffffffffffff81116104d157366023820112156104d15780600401356105958161198e565b916105a360405193846117a0565b81835236602483830101116104d15781600092602460209301838601378301015260005460ff8160081c161590818092610a33575b8015610a1c575b15610998578160017fffffffffffffffffffffffffffffffffffffffffffffffffffffffffffffff00831617600055610969575b5061064060ff60005460081c1661062981612196565b61063281612196565b61063b81612196565b612196565b61064933611a8f565b61065e60ff60005460081c1661063b81612196565b815167ffffffffffffffff811161093a5761067a60fd5461174d565b601f8111610897575b50602092601f82116001146107d957928192936000926107ce575b50507fffffffffffffffffffffffffffffffffffffffffffffffffffffffffffffffff8260011b9260031b1c19161760fd555b6106e260ff60005460081c16612196565b6106ef6298968046612111565b6101615561070c600961070461015f5461174d565b61015f612142565b60127f4859444e205365616c00000000000000000000000000000000000000000000000161015f5561074d60036107456101605461174d565b610160612142565b7fe29b91000000000000000000000000000000000000000000000000000000000661016055610779575b005b7fffffffffffffffffffffffffffffffffffffffffffffffffffffffffffff00ff600054166000557f7f26b83ff96e1f2b6a682f133852f6798a09c465da95921460cefb3847402498602060405160018152a1005b01519050838061069e565b7fffffffffffffffffffffffffffffffffffffffffffffffffffffffffffffffe082169360fd6000527f9346ac6dd7de6b96975fec380d4d994c4c12e6a8897544f22915316cc6cca2809160005b86811061087f5750836001959610610848575b505050811b0160fd556106d1565b01517fffffffffffffffffffffffffffffffffffffffffffffffffffffffffffffffff60f88460031b161c1916905583808061083a565b91926020600181928685015181550194019201610827565b60fd600052601f820160051c7f9346ac6dd7de6b96975fec380d4d994c4c12e6a8897544f22915316cc6cca2800160208310610913575b601f90910160051c7f9346ac6dd7de6b96975fec380d4d994c4c12e6a8897544f22915316cc6cca28001905b8181106109075750610683565b600081556001016108fa565b507f9346ac6dd7de6b96975fec380d4d994c4c12e6a8897544f22915316cc6cca2806108ce565b7f4e487b7100000000000000000000000000000000000000000000000000000000600052604160045260246000fd5b7fffffffffffffffffffffffffffffffffffffffffffffffffffffffffffff0000166101011760005582610613565b60846040517f08c379a000000000000000000000000000000000000000000000000000000000815260206004820152602e60248201527f496e697469616c697a61626c653a20636f6e747261637420697320616c72656160448201527f647920696e697469616c697a65640000000000000000000000000000000000006064820152fd5b50303b1580156105df5750600160ff8216146105df565b50600160ff8216106105d8565b346104d15760206003193601126104d15760043573ffffffffffffffffffffffffffffffffffffffff81168082036104d157610a7a611a0f565b15610a885761077790611a8f565b60846040517f08c379a000000000000000000000000000000000000000000000000000000000815260206004820152602660248201527f4f776e61626c653a206e6577206f776e657220697320746865207a65726f206160448201527f64647265737300000000000000000000000000000000000000000000000000006064820152fd5b346104d157600060a0600319360112610be05760043573ffffffffffffffffffffffffffffffffffffffff811603610be05760243573ffffffffffffffffffffffffffffffffffffffff811603610be05760843567ffffffffffffffff8111610bdc57610b7d9036906004016119c8565b5060646040517f08c379a000000000000000000000000000000000000000000000000000000000815260206004820152601e60248201527f4859444e5365616c3a207472616e73666572206e6f7420616c6c6f77656400006044820152fd5b5080fd5b80fd5b346104d15760406003193601126104d15760043573ffffffffffffffffffffffffffffffffffffffff81168091036104d1576024359073ffffffffffffffffffffffffffffffffffffffff82168092036104d15760005260fc602052604060002090600052602052602060406000205460ff604051911615158152f35b346104d15760206003193601126104d15760043560005261012d6020526020604060002054604051908152f35b346104d15760406003193601126104d15760043573ffffffffffffffffffffffffffffffffffffffff81168091036104d1576024358015158091036104d157813314610d47573360005260fc602052604060002082600052602052604060002080547fffffffffffffffffffffffffffffffffffffffffffffffffffffffffffffff0060ff841691161790556040519081527f17307eab39ab6107e8899845ad3d59bd9653f200f220920489ca2b5937696c3160203392a3005b60846040517f08c379a000000000000000000000000000000000000000000000000000000000815260206004820152602960248201527f455243313135353a2073657474696e6720617070726f76616c2073746174757360448201527f20666f722073656c6600000000000000000000000000000000000000000000006064820152fd5b346104d15760006003193601126104d157610df6610dea6101606117e1565b604051918291826118c6565b0390f35b346104d15760006003193601126104d157602061016154604051908152f35b346104d15760006003193601126104d157602060975473ffffffffffffffffffffffffffffffffffffffff60405191168152f35b346104d15760006003193601126104d157610e66611a0f565b6107776000611a8f565b346104d15760006003193601126104d15773ffffffffffffffffffffffffffffffffffffffff7f0000000000000000000000000000000000000000000000000000000000000000163003610ee85760206040517f360894a13ba1a3210667c828492db98dca3e2076cc3735a920a3ca505d382bbc8152f35b60846040517f08c379a000000000000000000000000000000000000000000000000000000000815260206004820152603860248201527f555550535570677261646561626c653a206d757374206e6f742062652063616c60448201527f6c6564207468726f7567682064656c656761746563616c6c00000000000000006064820152fd5b346104d15760206003193601126104d15760043560005261012d60205260206040600020546040519015158152f35b60406003193601126104d15760043573ffffffffffffffffffffffffffffffffffffffff811681036104d15760243567ffffffffffffffff81116104d15761077791610fed60019236906004016119c8565b9061107273ffffffffffffffffffffffffffffffffffffffff7f00000000000000000000000000000000000000000000000000000000000000001661103481301415611b18565b73ffffffffffffffffffffffffffffffffffffffff7f360894a13ba1a3210667c828492db98dca3e2076cc3735a920a3ca505d382bbc541614611ba3565b61107a611a0f565b611c2e565b346104d15760406003193601126104d15760043567ffffffffffffffff81116104d157366023820112156104d15780600401359067ffffffffffffffff821161093a578160051b90604051926110d860208401856117a0565b835260246020840192820101903682116104d157602401915b8183106112c9578360243567ffffffffffffffff81116104d157611119903690600401611928565b90805182510361124557805161114761113182611910565b9161113f60405193846117a0565b808352611910565b917fffffffffffffffffffffffffffffffffffffffffffffffffffffffffffffffe060208301930136843760005b81518110801561120057156111d157806111bc60206111cc9360051b8501015173ffffffffffffffffffffffffffffffffffffffff6111b4848a61245d565b51911661239f565b6111c6828661245d565b52612221565b611175565b7f4e487b7100000000000000000000000000000000000000000000000000000000600052603260045260246000fd5b84846040519182916020830190602084525180915260408301919060005b81811061122c575050500390f35b825184528594506020938401939092019160010161121e565b60846040517f08c379a000000000000000000000000000000000000000000000000000000000815260206004820152602960248201527f455243313135353a206163636f756e747320616e6420696473206c656e67746860448201527f206d69736d6174636800000000000000000000000000000000000000000000006064820152fd5b823573ffffffffffffffffffffffffffffffffffffffff811681036104d1578152602092830192016110f1565b346104d15760206003193601126104d15760043573ffffffffffffffffffffffffffffffffffffffff811681036104d15760006107779161137373ffffffffffffffffffffffffffffffffffffffff7f00000000000000000000000000000000000000000000000000000000000000001661103481301415611b18565b61137b611a0f565b6113848261198e565b9061139260405192836117a0565b8282527fffffffffffffffffffffffffffffffffffffffffffffffffffffffffffffffe06113bf8461198e565b01366020840137611c2e565b346104d157600060a0600319360112610be05760043573ffffffffffffffffffffffffffffffffffffffff811603610be05760243573ffffffffffffffffffffffffffffffffffffffff811603610be05760443567ffffffffffffffff8111610bdc5761143c903690600401611928565b5060643567ffffffffffffffff81116104d15761145d903690600401611928565b5060843567ffffffffffffffff81116104d15761147e9036906004016119c8565b5060846040517f08c379a0000000000000000000000000000000000000000000000000000000008152602060048201526024808201527f4859444e5365616c3a207472616e73666572206261746368206e6f7420616c6c60448201527f6f776564000000000000000000000000000000000000000000000000000000006064820152fd5b346104d15760006003193601126104d157610161546115246298968046612111565b81039081116102ad57602090604051908152f35b346104d15760206003193601126104d1576004358060005261012d602052604060002054156115b657610df690610dea602061157d61157760fd6117e1565b9361224e565b92604051938161159686935180928680870191016118a3565b82016115aa825180938680850191016118a3565b010380845201826117a0565b60646040517f08c379a000000000000000000000000000000000000000000000000000000000815260206004820152601c60248201527f4859444e5365616c3a20746f6b656e206e6f74206578697374696e67000000006044820152fd5b346104d15760006003193601126104d157610df6610dea61015f6117e1565b346104d15760206003193601126104d1576004357fffffffff0000000000000000000000000000000000000000000000000000000081168091036104d157807fd9b67a2600000000000000000000000000000000000000000000000000000000602092149081156116db575b81156116b1575b506040519015158152f35b7f01ffc9a700000000000000000000000000000000000000000000000000000000915014826116a6565b7f0e89341c000000000000000000000000000000000000000000000000000000008114915061169f565b346104d15760406003193601126104d15760043573ffffffffffffffffffffffffffffffffffffffff811681036104d1576117456020916024359061239f565b604051908152f35b90600182811c92168015611796575b602083101461176757565b7f4e487b7100000000000000000000000000000000000000000000000000000000600052602260045260246000fd5b91607f169161175c565b90601f7fffffffffffffffffffffffffffffffffffffffffffffffffffffffffffffffe0910116810190811067ffffffffffffffff82111761093a57604052565b90604051918260008254926117f58461174d565b8084529360018116908115611863575060011461181c575b5061181a925003836117a0565b565b90506000929192526020600020906000915b81831061184757505090602061181a928201013861180d565b602091935080600191548385890101520191019091849261182e565b6020935061181a9592507fffffffffffffffffffffffffffffffffffffffffffffffffffffffffffffff0091501682840152151560051b8201013861180d565b60005b8381106118b65750506000910152565b81810151838201526020016118a6565b7fffffffffffffffffffffffffffffffffffffffffffffffffffffffffffffffe0601f6040936020845261190981518092816020880152602088880191016118a3565b0116010190565b67ffffffffffffffff811161093a5760051b60200190565b9080601f8301121590816104d15782359161194283611910565b9361195060405195866117a0565b83855260208086019460051b8201019283116104d157602001925b828410611979575050505090565b81610bdc57833581526020938401930161196b565b67ffffffffffffffff811161093a57601f017fffffffffffffffffffffffffffffffffffffffffffffffffffffffffffffffe01660200190565b81601f820112156104d1578035906119df8261198e565b926119ed60405194856117a0565b828452602083830101116104d157816000926020809301838601378301015290565b60975473ffffffffffffffffffffffffffffffffffffffff33911603611a3157565b60646040517f08c379a000000000000000000000000000000000000000000000000000000000815260206004820152602060248201527f4f776e61626c653a2063616c6c6572206973206e6f7420746865206f776e65726044820152fd5b7fffffffffffffffffffffffff0000000000000000000000000000000000000000906097549073ffffffffffffffffffffffffffffffffffffffff609754911692839116176097557f8be0079c531659141344cd1fd0a4f28419497f9722a3daafe3b4186f6b6457e0600073ffffffffffffffffffffffffffffffffffffffff604051931692a3565b15611b1f57565b60846040517f08c379a000000000000000000000000000000000000000000000000000000000815260206004820152602c60248201527f46756e6374696f6e206d7573742062652063616c6c6564207468726f7567682060448201527f64656c656761746563616c6c00000000000000000000000000000000000000006064820152fd5b15611baa57565b60846040517f08c379a000000000000000000000000000000000000000000000000000000000815260206004820152602c60248201527f46756e6374696f6e206d7573742062652063616c6c6564207468726f7567682060448201527f6163746976652070726f787900000000000000000000000000000000000000006064820152fd5b9060ff7f4910fdfa16fed3260ed0e7147f7cc6da11a60208b5b9406d12a635614ffd91435416600014611c66575061181a9150611faf565b604051927f52d1902d0000000000000000000000000000000000000000000000000000000084525a9360208160048173ffffffffffffffffffffffffffffffffffffffff88168099fa60009181611f7c575b50611d415760846040517f08c379a000000000000000000000000000000000000000000000000000000000815260206004820152602e60248201527f45524331393637557067726164653a206e657720696d706c656d656e7461746960448201527f6f6e206973206e6f7420555550530000000000000000000000000000000000006064820152fd5b7f360894a13ba1a3210667c828492db98dca3e2076cc3735a920a3ca505d382bbc03611ef857611d7083611faf565b604051937fbc7cd75a20ee27fd9adebab32041f755214dbc6bffa90cc0225b39da2e5c2d3b600086a281511590811591611ef0575b50611daf57505050565b600092823b15611e6e57509180809284611e6395519160205a920191f4903d15611e66573d611ddd8161198e565b90611deb60405192836117a0565b8152809160203d92013e5b611e00602761198e565b91611e0e60405193846117a0565b602783527f416464726573733a206c6f772d6c6576656c2064656c65676174652063616c6c60208401527f206661696c65640000000000000000000000000000000000000000000000000060408401526120bb565b50565b506060611df6565b807f08c379a0000000000000000000000000000000000000000000000000000000006084925260206004820152602660248201527f416464726573733a2064656c65676174652063616c6c20746f206e6f6e2d636f60448201527f6e747261637400000000000000000000000000000000000000000000000000006064820152fd5b905038611da5565b60846040517f08c379a000000000000000000000000000000000000000000000000000000000815260206004820152602960248201527f45524331393637557067726164653a20756e737570706f727465642070726f7860448201527f6961626c655555494400000000000000000000000000000000000000000000006064820152fd5b90916020823d8211611fa7575b81611f96602093836117a0565b81010312610be05750519038611cb8565b3d9150611f89565b803b15612037577fffffffffffffffffffffffff000000000000000000000000000000000000000073ffffffffffffffffffffffffffffffffffffffff7f360894a13ba1a3210667c828492db98dca3e2076cc3735a920a3ca505d382bbc5492169116177f360894a13ba1a3210667c828492db98dca3e2076cc3735a920a3ca505d382bbc55565b60846040517f08c379a000000000000000000000000000000000000000000000000000000000815260206004820152602d60248201527f455243313936373a206e657720696d706c656d656e746174696f6e206973206e60448201527f6f74206120636f6e7472616374000000000000000000000000000000000000006064820152fd5b909190156120c7575090565b8151156120d75750805190602001fd5b61210d906040519182917f08c379a0000000000000000000000000000000000000000000000000000000008352600483016118c6565b0390fd5b807fffffffffffffffffffffffffffffffffffffffffffffffffffffffffffffffff048211811515166102ad570290565b919091601f831161215257505050565b6000526020600020906020601f820160051c8301911061218f575b601f90920160051c01905b818110612183575050565b60008155600101612178565b508061216d565b1561219d57565b60846040517f08c379a000000000000000000000000000000000000000000000000000000000815260206004820152602b60248201527f496e697469616c697a61626c653a20636f6e7472616374206973206e6f74206960448201527f6e697469616c697a696e670000000000000000000000000000000000000000006064820152fd5b7fffffffffffffffffffffffffffffffffffffffffffffffffffffffffffffffff81146102ad5760010190565b801561234a5780816000925b61233457506122688261198e565b9161227660405193846117a0565b808352817fffffffffffffffffffffffffffffffffffffffffffffffffffffffffffffffe06122a48361198e565b013660208601375b6122b557505090565b7fffffffffffffffffffffffffffffffffffffffffffffffffffffffffffffffff81019081116102ad578091600a810660300191826030116102ad5784518110156111d15760207fff00000000000000000000000000000000000000000000000000000000000000600a9460f81b1660001a91860101530490816122ac565b9091612341600a91612221565b9291048061225a565b50612355600161198e565b61236260405191826117a0565b600181527f3000000000000000000000000000000000000000000000000000000000000000602082015290565b91908110156111d15760051b0190565b73ffffffffffffffffffffffffffffffffffffffff169081156123d95760005260fb60205260406000209060005260205260406000205490565b60846040517f08c379a000000000000000000000000000000000000000000000000000000000815260206004820152602a60248201527f455243313135353a2061646472657373207a65726f206973206e6f742061207660448201527f616c6964206f776e6572000000000000000000000000000000000000000000006064820152fd5b80518210156111d15760209160051b01019056fea26469706673582212209b6b2e20d6e4b55a3423497e2b1a7d2cc1ed1387eae81966932b9d13f7071f0364736f6c63430008100033",
          "opcodes": "PUSH1 0xA0 PUSH1 0x40 MSTORE CALLVALUE PUSH2 0xDB JUMPI ADDRESS PUSH1 0x80 MSTORE PUSH1 0xFF CALLVALUE SLOAD PUSH1 0x8 SHR AND PUSH2 0x86 JUMPI CALLVALUE SLOAD PUSH1 0xFF DUP1 DUP3 AND LT PUSH2 0x4C JUMPI JUMPDEST PUSH1 0x40 MLOAD PUSH2 0x24A7 SWAP1 DUP2 PUSH2 0xE1 DUP3 CODECOPY PUSH1 0x80 MLOAD DUP2 DUP2 DUP2 PUSH2 0xE98 ADD MSTORE DUP2 DUP2 PUSH2 0x1008 ADD MSTORE PUSH2 0x1347 ADD MSTORE RETURN JUMPDEST PUSH1 0xFF SWAP1 DUP2 NOT AND OR CALLVALUE SSTORE PUSH32 0x7F26B83FF96E1F2B6A682F133852F6798A09C465DA95921460CEFB3847402498 PUSH1 0x20 PUSH1 0x40 MLOAD PUSH1 0xFF DUP2 MSTORE LOG1 CODESIZE PUSH2 0x26 JUMP JUMPDEST PUSH1 0x40 MLOAD PUSH3 0x461BCD PUSH1 0xE5 SHL DUP2 MSTORE PUSH1 0x20 PUSH1 0x4 DUP3 ADD MSTORE PUSH1 0x27 PUSH1 0x24 DUP3 ADD MSTORE PUSH32 0x496E697469616C697A61626C653A20636F6E747261637420697320696E697469 PUSH1 0x44 DUP3 ADD MSTORE PUSH7 0x616C697A696E67 PUSH1 0xC8 SHL PUSH1 0x64 DUP3 ADD MSTORE PUSH1 0x84 SWAP1 REVERT JUMPDEST PUSH1 0x0 DUP1 REVERT INVALID PUSH1 0x80 PUSH1 0x40 MSTORE PUSH1 0x4 CALLDATASIZE LT ISZERO PUSH2 0x12 JUMPI PUSH1 0x0 DUP1 REVERT JUMPDEST PUSH1 0x0 CALLDATALOAD PUSH1 0xE0 SHR DUP1 PUSH3 0xFDD58E EQ PUSH2 0x1705 JUMPI DUP1 PUSH4 0x1FFC9A7 EQ PUSH2 0x1633 JUMPI DUP1 PUSH4 0x6FDDE03 EQ PUSH2 0x1614 JUMPI DUP1 PUSH4 0xE89341C EQ PUSH2 0x1538 JUMPI DUP1 PUSH4 0x18160DDD EQ PUSH2 0x1502 JUMPI DUP1 PUSH4 0x2EB2C2D6 EQ PUSH2 0x13CB JUMPI DUP1 PUSH4 0x3659CFE6 EQ PUSH2 0x12F6 JUMPI DUP1 PUSH4 0x4E1273F4 EQ PUSH2 0x107F JUMPI DUP1 PUSH4 0x4F1EF286 EQ PUSH2 0xF9B JUMPI DUP1 PUSH4 0x4F558E79 EQ PUSH2 0xF6C JUMPI DUP1 PUSH4 0x52D1902D EQ PUSH2 0xE70 JUMPI DUP1 PUSH4 0x715018A6 EQ PUSH2 0xE4D JUMPI DUP1 PUSH4 0x8DA5CB5B EQ PUSH2 0xE19 JUMPI DUP1 PUSH4 0x9458E718 EQ PUSH2 0xDFA JUMPI DUP1 PUSH4 0x95D89B41 EQ PUSH2 0xDCB JUMPI DUP1 PUSH4 0xA22CB465 EQ PUSH2 0xC8D JUMPI DUP1 PUSH4 0xBD85B039 EQ PUSH2 0xC60 JUMPI DUP1 PUSH4 0xE985E9C5 EQ PUSH2 0xBE3 JUMPI DUP1 PUSH4 0xF242432A EQ PUSH2 0xB0C JUMPI DUP1 PUSH4 0xF2FDE38B EQ PUSH2 0xA40 JUMPI DUP1 PUSH4 0xF62D1888 EQ PUSH2 0x559 JUMPI PUSH4 0xF722C17D EQ PUSH2 0x10D JUMPI PUSH1 0x0 DUP1 REVERT JUMPDEST CALLVALUE PUSH2 0x4D1 JUMPI PUSH1 0x20 PUSH1 0x3 NOT CALLDATASIZE ADD SLT PUSH2 0x4D1 JUMPI PUSH1 0x4 CALLDATALOAD PUSH8 0xFFFFFFFFFFFFFFFF DUP2 GT PUSH2 0x4D1 JUMPI CALLDATASIZE PUSH1 0x23 DUP3 ADD SLT ISZERO PUSH2 0x4D1 JUMPI DUP1 PUSH1 0x4 ADD CALLDATALOAD SWAP1 PUSH8 0xFFFFFFFFFFFFFFFF DUP3 GT PUSH2 0x4D1 JUMPI CALLDATASIZE PUSH1 0x24 DUP4 PUSH1 0x5 SHL DUP4 ADD ADD GT PUSH2 0x4D1 JUMPI PUSH1 0x24 SWAP1 PUSH2 0x16A PUSH2 0x1A0F JUMP JUMPDEST ADD PUSH2 0x161 SLOAD SWAP2 PUSH1 0x1 DUP4 ADD DUP1 SWAP4 GT PUSH2 0x2AD JUMPI SWAP2 SWAP1 DUP2 PUSH2 0x161 SSTORE PUSH1 0x0 SWAP2 JUMPDEST DUP4 DUP4 LT PUSH2 0x198 JUMPI PUSH1 0x20 PUSH1 0x40 MLOAD PUSH1 0x1 DUP2 MSTORE RETURN JUMPDEST PUSH2 0x1A3 DUP4 DUP6 DUP5 PUSH2 0x238F JUMP JUMPDEST CALLDATALOAD PUSH20 0xFFFFFFFFFFFFFFFFFFFFFFFFFFFFFFFFFFFFFFFF DUP2 AND DUP2 SUB PUSH2 0x4D1 JUMPI EXTCODESIZE ISZERO PUSH2 0x4D6 JUMPI PUSH2 0x1D2 DUP4 DUP6 DUP5 PUSH2 0x238F JUMP JUMPDEST CALLDATALOAD SWAP3 PUSH20 0xFFFFFFFFFFFFFFFFFFFFFFFFFFFFFFFFFFFFFFFF DUP5 AND DUP1 SWAP5 SUB PUSH2 0x4D1 JUMPI PUSH1 0x0 PUSH2 0x1FD DUP2 PUSH2 0x198E JUMP JUMPDEST PUSH2 0x20A PUSH1 0x40 MLOAD SWAP2 DUP3 PUSH2 0x17A0 JUMP JUMPDEST MSTORE DUP4 ISZERO PUSH2 0x44D JUMPI PUSH1 0x40 MLOAD SWAP5 PUSH2 0x220 PUSH1 0x40 DUP8 PUSH2 0x17A0 JUMP JUMPDEST PUSH1 0x1 DUP7 MSTORE PUSH1 0x20 CALLDATASIZE DUP2 DUP9 ADD CALLDATACOPY DUP3 PUSH2 0x237 PUSH1 0x0 DUP9 PUSH2 0x245D JUMP JUMPDEST MSTORE PUSH1 0x40 MLOAD SWAP4 PUSH2 0x247 PUSH1 0x40 DUP7 PUSH2 0x17A0 JUMP JUMPDEST PUSH1 0x1 DUP6 MSTORE PUSH1 0x20 CALLDATASIZE DUP2 DUP8 ADD CALLDATACOPY PUSH1 0x1 PUSH2 0x25F PUSH1 0x0 DUP8 PUSH2 0x245D JUMP JUMPDEST MSTORE PUSH1 0x0 JUMPDEST DUP8 MLOAD DUP2 LT ISZERO PUSH2 0x2DC JUMPI PUSH2 0x276 DUP2 DUP8 PUSH2 0x245D JUMP JUMPDEST MLOAD SWAP1 PUSH2 0x282 DUP2 DUP11 PUSH2 0x245D JUMP JUMPDEST MLOAD PUSH1 0x0 MSTORE PUSH2 0x12D PUSH1 0x20 MSTORE PUSH1 0x40 PUSH1 0x0 KECCAK256 SWAP2 DUP3 SLOAD SWAP1 DUP2 ADD DUP1 SWAP2 GT PUSH2 0x2AD JUMPI PUSH2 0x2A8 SWAP3 SSTORE PUSH2 0x2221 JUMP JUMPDEST PUSH2 0x263 JUMP JUMPDEST PUSH32 0x4E487B7100000000000000000000000000000000000000000000000000000000 PUSH1 0x0 MSTORE PUSH1 0x11 PUSH1 0x4 MSTORE PUSH1 0x24 PUSH1 0x0 REVERT JUMPDEST POP SWAP5 SWAP3 SWAP6 SWAP4 SWAP1 SWAP4 DUP4 ISZERO PUSH2 0x35B JUMPI JUMPDEST POP POP DUP5 PUSH1 0x0 MSTORE PUSH1 0xFB PUSH1 0x20 MSTORE PUSH1 0x40 PUSH1 0x0 KECCAK256 DUP3 PUSH1 0x0 MSTORE PUSH1 0x20 MSTORE PUSH1 0x40 PUSH1 0x0 KECCAK256 SWAP2 DUP3 SLOAD PUSH1 0x1 DUP2 ADD DUP1 SWAP2 GT PUSH2 0x2AD JUMPI PUSH2 0x353 SWAP4 SSTORE PUSH1 0x0 PUSH1 0x40 MLOAD DUP8 DUP2 MSTORE PUSH1 0x1 PUSH1 0x20 DUP3 ADD MSTORE PUSH32 0xC3D58168C5AE7397731D063D5BBF3D657854427343F4C083240F7AACAA2D0F62 PUSH1 0x40 CALLER SWAP3 LOG4 PUSH2 0x2221 JUMP JUMPDEST SWAP2 SWAP1 SWAP3 PUSH2 0x186 JUMP JUMPDEST SWAP4 SWAP1 SWAP6 SWAP3 SWAP5 PUSH1 0x0 JUMPDEST DUP6 MLOAD DUP2 LT ISZERO PUSH2 0x43F JUMPI PUSH2 0x376 DUP2 DUP8 PUSH2 0x245D JUMP JUMPDEST MLOAD SWAP1 PUSH2 0x382 DUP2 DUP11 PUSH2 0x245D JUMP JUMPDEST MLOAD DUP3 PUSH1 0x0 MSTORE PUSH2 0x12D PUSH1 0x20 MSTORE PUSH1 0x40 PUSH1 0x0 KECCAK256 SLOAD SWAP1 DUP1 DUP3 LT PUSH2 0x3BB JUMPI PUSH2 0x3B6 SWAP4 PUSH1 0x0 MSTORE PUSH2 0x12D PUSH1 0x20 MSTORE PUSH1 0x40 PUSH1 0x0 KECCAK256 SWAP2 SUB SWAP1 SSTORE PUSH2 0x2221 JUMP JUMPDEST PUSH2 0x363 JUMP JUMPDEST PUSH1 0x84 PUSH1 0x40 MLOAD PUSH32 0x8C379A000000000000000000000000000000000000000000000000000000000 DUP2 MSTORE PUSH1 0x20 PUSH1 0x4 DUP3 ADD MSTORE PUSH1 0x28 PUSH1 0x24 DUP3 ADD MSTORE PUSH32 0x455243313135353A206275726E20616D6F756E74206578636565647320746F74 PUSH1 0x44 DUP3 ADD MSTORE PUSH32 0x616C537570706C79000000000000000000000000000000000000000000000000 PUSH1 0x64 DUP3 ADD MSTORE REVERT JUMPDEST POP SWAP5 SWAP3 SWAP6 POP SWAP3 POP CODESIZE DUP1 PUSH2 0x2EA JUMP JUMPDEST PUSH1 0x84 PUSH1 0x40 MLOAD PUSH32 0x8C379A000000000000000000000000000000000000000000000000000000000 DUP2 MSTORE PUSH1 0x20 PUSH1 0x4 DUP3 ADD MSTORE PUSH1 0x21 PUSH1 0x24 DUP3 ADD MSTORE PUSH32 0x455243313135353A206D696E7420746F20746865207A65726F20616464726573 PUSH1 0x44 DUP3 ADD MSTORE PUSH32 0x7300000000000000000000000000000000000000000000000000000000000000 PUSH1 0x64 DUP3 ADD MSTORE REVERT JUMPDEST PUSH1 0x0 DUP1 REVERT JUMPDEST PUSH1 0x84 PUSH1 0x40 MLOAD PUSH32 0x8C379A000000000000000000000000000000000000000000000000000000000 DUP2 MSTORE PUSH1 0x20 PUSH1 0x4 DUP3 ADD MSTORE PUSH1 0x24 DUP1 DUP3 ADD MSTORE PUSH32 0x4859444E5365616C3A207265636569766572206973206E6F74206120636F6E74 PUSH1 0x44 DUP3 ADD MSTORE PUSH32 0x7261637400000000000000000000000000000000000000000000000000000000 PUSH1 0x64 DUP3 ADD MSTORE REVERT JUMPDEST CALLVALUE PUSH2 0x4D1 JUMPI PUSH1 0x20 PUSH1 0x3 NOT CALLDATASIZE ADD SLT PUSH2 0x4D1 JUMPI PUSH1 0x4 CALLDATALOAD PUSH8 0xFFFFFFFFFFFFFFFF DUP2 GT PUSH2 0x4D1 JUMPI CALLDATASIZE PUSH1 0x23 DUP3 ADD SLT ISZERO PUSH2 0x4D1 JUMPI DUP1 PUSH1 0x4 ADD CALLDATALOAD PUSH2 0x595 DUP2 PUSH2 0x198E JUMP JUMPDEST SWAP2 PUSH2 0x5A3 PUSH1 0x40 MLOAD SWAP4 DUP5 PUSH2 0x17A0 JUMP JUMPDEST DUP2 DUP4 MSTORE CALLDATASIZE PUSH1 0x24 DUP4 DUP4 ADD ADD GT PUSH2 0x4D1 JUMPI DUP2 PUSH1 0x0 SWAP3 PUSH1 0x24 PUSH1 0x20 SWAP4 ADD DUP4 DUP7 ADD CALLDATACOPY DUP4 ADD ADD MSTORE PUSH1 0x0 SLOAD PUSH1 0xFF DUP2 PUSH1 0x8 SHR AND ISZERO SWAP1 DUP2 DUP1 SWAP3 PUSH2 0xA33 JUMPI JUMPDEST DUP1 ISZERO PUSH2 0xA1C JUMPI JUMPDEST ISZERO PUSH2 0x998 JUMPI DUP2 PUSH1 0x1 PUSH32 0xFFFFFFFFFFFFFFFFFFFFFFFFFFFFFFFFFFFFFFFFFFFFFFFFFFFFFFFFFFFFFF00 DUP4 AND OR PUSH1 0x0 SSTORE PUSH2 0x969 JUMPI JUMPDEST POP PUSH2 0x640 PUSH1 0xFF PUSH1 0x0 SLOAD PUSH1 0x8 SHR AND PUSH2 0x629 DUP2 PUSH2 0x2196 JUMP JUMPDEST PUSH2 0x632 DUP2 PUSH2 0x2196 JUMP JUMPDEST PUSH2 0x63B DUP2 PUSH2 0x2196 JUMP JUMPDEST PUSH2 0x2196 JUMP JUMPDEST PUSH2 0x649 CALLER PUSH2 0x1A8F JUMP JUMPDEST PUSH2 0x65E PUSH1 0xFF PUSH1 0x0 SLOAD PUSH1 0x8 SHR AND PUSH2 0x63B DUP2 PUSH2 0x2196 JUMP JUMPDEST DUP2 MLOAD PUSH8 0xFFFFFFFFFFFFFFFF DUP2 GT PUSH2 0x93A JUMPI PUSH2 0x67A PUSH1 0xFD SLOAD PUSH2 0x174D JUMP JUMPDEST PUSH1 0x1F DUP2 GT PUSH2 0x897 JUMPI JUMPDEST POP PUSH1 0x20 SWAP3 PUSH1 0x1F DUP3 GT PUSH1 0x1 EQ PUSH2 0x7D9 JUMPI SWAP3 DUP2 SWAP3 SWAP4 PUSH1 0x0 SWAP3 PUSH2 0x7CE JUMPI JUMPDEST POP POP PUSH32 0xFFFFFFFFFFFFFFFFFFFFFFFFFFFFFFFFFFFFFFFFFFFFFFFFFFFFFFFFFFFFFFFF DUP3 PUSH1 0x1 SHL SWAP3 PUSH1 0x3 SHL SHR NOT AND OR PUSH1 0xFD SSTORE JUMPDEST PUSH2 0x6E2 PUSH1 0xFF PUSH1 0x0 SLOAD PUSH1 0x8 SHR AND PUSH2 0x2196 JUMP JUMPDEST PUSH2 0x6EF PUSH3 0x989680 CHAINID PUSH2 0x2111 JUMP JUMPDEST PUSH2 0x161 SSTORE PUSH2 0x70C PUSH1 0x9 PUSH2 0x704 PUSH2 0x15F SLOAD PUSH2 0x174D JUMP JUMPDEST PUSH2 0x15F PUSH2 0x2142 JUMP JUMPDEST PUSH1 0x12 PUSH32 0x4859444E205365616C0000000000000000000000000000000000000000000000 ADD PUSH2 0x15F SSTORE PUSH2 0x74D PUSH1 0x3 PUSH2 0x745 PUSH2 0x160 SLOAD PUSH2 0x174D JUMP JUMPDEST PUSH2 0x160 PUSH2 0x2142 JUMP JUMPDEST PUSH32 0xE29B910000000000000000000000000000000000000000000000000000000006 PUSH2 0x160 SSTORE PUSH2 0x779 JUMPI JUMPDEST STOP JUMPDEST PUSH32 0xFFFFFFFFFFFFFFFFFFFFFFFFFFFFFFFFFFFFFFFFFFFFFFFFFFFFFFFFFFFF00FF PUSH1 0x0 SLOAD AND PUSH1 0x0 SSTORE PUSH32 0x7F26B83FF96E1F2B6A682F133852F6798A09C465DA95921460CEFB3847402498 PUSH1 0x20 PUSH1 0x40 MLOAD PUSH1 0x1 DUP2 MSTORE LOG1 STOP JUMPDEST ADD MLOAD SWAP1 POP DUP4 DUP1 PUSH2 0x69E JUMP JUMPDEST PUSH32 0xFFFFFFFFFFFFFFFFFFFFFFFFFFFFFFFFFFFFFFFFFFFFFFFFFFFFFFFFFFFFFFE0 DUP3 AND SWAP4 PUSH1 0xFD PUSH1 0x0 MSTORE PUSH32 0x9346AC6DD7DE6B96975FEC380D4D994C4C12E6A8897544F22915316CC6CCA280 SWAP2 PUSH1 0x0 JUMPDEST DUP7 DUP2 LT PUSH2 0x87F JUMPI POP DUP4 PUSH1 0x1 SWAP6 SWAP7 LT PUSH2 0x848 JUMPI JUMPDEST POP POP POP DUP2 SHL ADD PUSH1 0xFD SSTORE PUSH2 0x6D1 JUMP JUMPDEST ADD MLOAD PUSH32 0xFFFFFFFFFFFFFFFFFFFFFFFFFFFFFFFFFFFFFFFFFFFFFFFFFFFFFFFFFFFFFFFF PUSH1 0xF8 DUP5 PUSH1 0x3 SHL AND SHR NOT AND SWAP1 SSTORE DUP4 DUP1 DUP1 PUSH2 0x83A JUMP JUMPDEST SWAP2 SWAP3 PUSH1 0x20 PUSH1 0x1 DUP2 SWAP3 DUP7 DUP6 ADD MLOAD DUP2 SSTORE ADD SWAP5 ADD SWAP3 ADD PUSH2 0x827 JUMP JUMPDEST PUSH1 0xFD PUSH1 0x0 MSTORE PUSH1 0x1F DUP3 ADD PUSH1 0x5 SHR PUSH32 0x9346AC6DD7DE6B96975FEC380D4D994C4C12E6A8897544F22915316CC6CCA280 ADD PUSH1 0x20 DUP4 LT PUSH2 0x913 JUMPI JUMPDEST PUSH1 0x1F SWAP1 SWAP2 ADD PUSH1 0x5 SHR PUSH32 0x9346AC6DD7DE6B96975FEC380D4D994C4C12E6A8897544F22915316CC6CCA280 ADD SWAP1 JUMPDEST DUP2 DUP2 LT PUSH2 0x907 JUMPI POP PUSH2 0x683 JUMP JUMPDEST PUSH1 0x0 DUP2 SSTORE PUSH1 0x1 ADD PUSH2 0x8FA JUMP JUMPDEST POP PUSH32 0x9346AC6DD7DE6B96975FEC380D4D994C4C12E6A8897544F22915316CC6CCA280 PUSH2 0x8CE JUMP JUMPDEST PUSH32 0x4E487B7100000000000000000000000000000000000000000000000000000000 PUSH1 0x0 MSTORE PUSH1 0x41 PUSH1 0x4 MSTORE PUSH1 0x24 PUSH1 0x0 REVERT JUMPDEST PUSH32 0xFFFFFFFFFFFFFFFFFFFFFFFFFFFFFFFFFFFFFFFFFFFFFFFFFFFFFFFFFFFF0000 AND PUSH2 0x101 OR PUSH1 0x0 SSTORE DUP3 PUSH2 0x613 JUMP JUMPDEST PUSH1 0x84 PUSH1 0x40 MLOAD PUSH32 0x8C379A000000000000000000000000000000000000000000000000000000000 DUP2 MSTORE PUSH1 0x20 PUSH1 0x4 DUP3 ADD MSTORE PUSH1 0x2E PUSH1 0x24 DUP3 ADD MSTORE PUSH32 0x496E697469616C697A61626C653A20636F6E747261637420697320616C726561 PUSH1 0x44 DUP3 ADD MSTORE PUSH32 0x647920696E697469616C697A6564000000000000000000000000000000000000 PUSH1 0x64 DUP3 ADD MSTORE REVERT JUMPDEST POP ADDRESS EXTCODESIZE ISZERO DUP1 ISZERO PUSH2 0x5DF JUMPI POP PUSH1 0x1 PUSH1 0xFF DUP3 AND EQ PUSH2 0x5DF JUMP JUMPDEST POP PUSH1 0x1 PUSH1 0xFF DUP3 AND LT PUSH2 0x5D8 JUMP JUMPDEST CALLVALUE PUSH2 0x4D1 JUMPI PUSH1 0x20 PUSH1 0x3 NOT CALLDATASIZE ADD SLT PUSH2 0x4D1 JUMPI PUSH1 0x4 CALLDATALOAD PUSH20 0xFFFFFFFFFFFFFFFFFFFFFFFFFFFFFFFFFFFFFFFF DUP2 AND DUP1 DUP3 SUB PUSH2 0x4D1 JUMPI PUSH2 0xA7A PUSH2 0x1A0F JUMP JUMPDEST ISZERO PUSH2 0xA88 JUMPI PUSH2 0x777 SWAP1 PUSH2 0x1A8F JUMP JUMPDEST PUSH1 0x84 PUSH1 0x40 MLOAD PUSH32 0x8C379A000000000000000000000000000000000000000000000000000000000 DUP2 MSTORE PUSH1 0x20 PUSH1 0x4 DUP3 ADD MSTORE PUSH1 0x26 PUSH1 0x24 DUP3 ADD MSTORE PUSH32 0x4F776E61626C653A206E6577206F776E657220697320746865207A65726F2061 PUSH1 0x44 DUP3 ADD MSTORE PUSH32 0x6464726573730000000000000000000000000000000000000000000000000000 PUSH1 0x64 DUP3 ADD MSTORE REVERT JUMPDEST CALLVALUE PUSH2 0x4D1 JUMPI PUSH1 0x0 PUSH1 0xA0 PUSH1 0x3 NOT CALLDATASIZE ADD SLT PUSH2 0xBE0 JUMPI PUSH1 0x4 CALLDATALOAD PUSH20 0xFFFFFFFFFFFFFFFFFFFFFFFFFFFFFFFFFFFFFFFF DUP2 AND SUB PUSH2 0xBE0 JUMPI PUSH1 0x24 CALLDATALOAD PUSH20 0xFFFFFFFFFFFFFFFFFFFFFFFFFFFFFFFFFFFFFFFF DUP2 AND SUB PUSH2 0xBE0 JUMPI PUSH1 0x84 CALLDATALOAD PUSH8 0xFFFFFFFFFFFFFFFF DUP2 GT PUSH2 0xBDC JUMPI PUSH2 0xB7D SWAP1 CALLDATASIZE SWAP1 PUSH1 0x4 ADD PUSH2 0x19C8 JUMP JUMPDEST POP PUSH1 0x64 PUSH1 0x40 MLOAD PUSH32 0x8C379A000000000000000000000000000000000000000000000000000000000 DUP2 MSTORE PUSH1 0x20 PUSH1 0x4 DUP3 ADD MSTORE PUSH1 0x1E PUSH1 0x24 DUP3 ADD MSTORE PUSH32 0x4859444E5365616C3A207472616E73666572206E6F7420616C6C6F7765640000 PUSH1 0x44 DUP3 ADD MSTORE REVERT JUMPDEST POP DUP1 REVERT JUMPDEST DUP1 REVERT JUMPDEST CALLVALUE PUSH2 0x4D1 JUMPI PUSH1 0x40 PUSH1 0x3 NOT CALLDATASIZE ADD SLT PUSH2 0x4D1 JUMPI PUSH1 0x4 CALLDATALOAD PUSH20 0xFFFFFFFFFFFFFFFFFFFFFFFFFFFFFFFFFFFFFFFF DUP2 AND DUP1 SWAP2 SUB PUSH2 0x4D1 JUMPI PUSH1 0x24 CALLDATALOAD SWAP1 PUSH20 0xFFFFFFFFFFFFFFFFFFFFFFFFFFFFFFFFFFFFFFFF DUP3 AND DUP1 SWAP3 SUB PUSH2 0x4D1 JUMPI PUSH1 0x0 MSTORE PUSH1 0xFC PUSH1 0x20 MSTORE PUSH1 0x40 PUSH1 0x0 KECCAK256 SWAP1 PUSH1 0x0 MSTORE PUSH1 0x20 MSTORE PUSH1 0x20 PUSH1 0x40 PUSH1 0x0 KECCAK256 SLOAD PUSH1 0xFF PUSH1 0x40 MLOAD SWAP2 AND ISZERO ISZERO DUP2 MSTORE RETURN JUMPDEST CALLVALUE PUSH2 0x4D1 JUMPI PUSH1 0x20 PUSH1 0x3 NOT CALLDATASIZE ADD SLT PUSH2 0x4D1 JUMPI PUSH1 0x4 CALLDATALOAD PUSH1 0x0 MSTORE PUSH2 0x12D PUSH1 0x20 MSTORE PUSH1 0x20 PUSH1 0x40 PUSH1 0x0 KECCAK256 SLOAD PUSH1 0x40 MLOAD SWAP1 DUP2 MSTORE RETURN JUMPDEST CALLVALUE PUSH2 0x4D1 JUMPI PUSH1 0x40 PUSH1 0x3 NOT CALLDATASIZE ADD SLT PUSH2 0x4D1 JUMPI PUSH1 0x4 CALLDATALOAD PUSH20 0xFFFFFFFFFFFFFFFFFFFFFFFFFFFFFFFFFFFFFFFF DUP2 AND DUP1 SWAP2 SUB PUSH2 0x4D1 JUMPI PUSH1 0x24 CALLDATALOAD DUP1 ISZERO ISZERO DUP1 SWAP2 SUB PUSH2 0x4D1 JUMPI DUP2 CALLER EQ PUSH2 0xD47 JUMPI CALLER PUSH1 0x0 MSTORE PUSH1 0xFC PUSH1 0x20 MSTORE PUSH1 0x40 PUSH1 0x0 KECCAK256 DUP3 PUSH1 0x0 MSTORE PUSH1 0x20 MSTORE PUSH1 0x40 PUSH1 0x0 KECCAK256 DUP1 SLOAD PUSH32 0xFFFFFFFFFFFFFFFFFFFFFFFFFFFFFFFFFFFFFFFFFFFFFFFFFFFFFFFFFFFFFF00 PUSH1 0xFF DUP5 AND SWAP2 AND OR SWAP1 SSTORE PUSH1 0x40 MLOAD SWAP1 DUP2 MSTORE PUSH32 0x17307EAB39AB6107E8899845AD3D59BD9653F200F220920489CA2B5937696C31 PUSH1 0x20 CALLER SWAP3 LOG3 STOP JUMPDEST PUSH1 0x84 PUSH1 0x40 MLOAD PUSH32 0x8C379A000000000000000000000000000000000000000000000000000000000 DUP2 MSTORE PUSH1 0x20 PUSH1 0x4 DUP3 ADD MSTORE PUSH1 0x29 PUSH1 0x24 DUP3 ADD MSTORE PUSH32 0x455243313135353A2073657474696E6720617070726F76616C20737461747573 PUSH1 0x44 DUP3 ADD MSTORE PUSH32 0x20666F722073656C660000000000000000000000000000000000000000000000 PUSH1 0x64 DUP3 ADD MSTORE REVERT JUMPDEST CALLVALUE PUSH2 0x4D1 JUMPI PUSH1 0x0 PUSH1 0x3 NOT CALLDATASIZE ADD SLT PUSH2 0x4D1 JUMPI PUSH2 0xDF6 PUSH2 0xDEA PUSH2 0x160 PUSH2 0x17E1 JUMP JUMPDEST PUSH1 0x40 MLOAD SWAP2 DUP3 SWAP2 DUP3 PUSH2 0x18C6 JUMP JUMPDEST SUB SWAP1 RETURN JUMPDEST CALLVALUE PUSH2 0x4D1 JUMPI PUSH1 0x0 PUSH1 0x3 NOT CALLDATASIZE ADD SLT PUSH2 0x4D1 JUMPI PUSH1 0x20 PUSH2 0x161 SLOAD PUSH1 0x40 MLOAD SWAP1 DUP2 MSTORE RETURN JUMPDEST CALLVALUE PUSH2 0x4D1 JUMPI PUSH1 0x0 PUSH1 0x3 NOT CALLDATASIZE ADD SLT PUSH2 0x4D1 JUMPI PUSH1 0x20 PUSH1 0x97 SLOAD PUSH20 0xFFFFFFFFFFFFFFFFFFFFFFFFFFFFFFFFFFFFFFFF PUSH1 0x40 MLOAD SWAP2 AND DUP2 MSTORE RETURN JUMPDEST CALLVALUE PUSH2 0x4D1 JUMPI PUSH1 0x0 PUSH1 0x3 NOT CALLDATASIZE ADD SLT PUSH2 0x4D1 JUMPI PUSH2 0xE66 PUSH2 0x1A0F JUMP JUMPDEST PUSH2 0x777 PUSH1 0x0 PUSH2 0x1A8F JUMP JUMPDEST CALLVALUE PUSH2 0x4D1 JUMPI PUSH1 0x0 PUSH1 0x3 NOT CALLDATASIZE ADD SLT PUSH2 0x4D1 JUMPI PUSH20 0xFFFFFFFFFFFFFFFFFFFFFFFFFFFFFFFFFFFFFFFF PUSH32 0x0 AND ADDRESS SUB PUSH2 0xEE8 JUMPI PUSH1 0x20 PUSH1 0x40 MLOAD PUSH32 0x360894A13BA1A3210667C828492DB98DCA3E2076CC3735A920A3CA505D382BBC DUP2 MSTORE RETURN JUMPDEST PUSH1 0x84 PUSH1 0x40 MLOAD PUSH32 0x8C379A000000000000000000000000000000000000000000000000000000000 DUP2 MSTORE PUSH1 0x20 PUSH1 0x4 DUP3 ADD MSTORE PUSH1 0x38 PUSH1 0x24 DUP3 ADD MSTORE PUSH32 0x555550535570677261646561626C653A206D757374206E6F742062652063616C PUSH1 0x44 DUP3 ADD MSTORE PUSH32 0x6C6564207468726F7567682064656C656761746563616C6C0000000000000000 PUSH1 0x64 DUP3 ADD MSTORE REVERT JUMPDEST CALLVALUE PUSH2 0x4D1 JUMPI PUSH1 0x20 PUSH1 0x3 NOT CALLDATASIZE ADD SLT PUSH2 0x4D1 JUMPI PUSH1 0x4 CALLDATALOAD PUSH1 0x0 MSTORE PUSH2 0x12D PUSH1 0x20 MSTORE PUSH1 0x20 PUSH1 0x40 PUSH1 0x0 KECCAK256 SLOAD PUSH1 0x40 MLOAD SWAP1 ISZERO ISZERO DUP2 MSTORE RETURN JUMPDEST PUSH1 0x40 PUSH1 0x3 NOT CALLDATASIZE ADD SLT PUSH2 0x4D1 JUMPI PUSH1 0x4 CALLDATALOAD PUSH20 0xFFFFFFFFFFFFFFFFFFFFFFFFFFFFFFFFFFFFFFFF DUP2 AND DUP2 SUB PUSH2 0x4D1 JUMPI PUSH1 0x24 CALLDATALOAD PUSH8 0xFFFFFFFFFFFFFFFF DUP2 GT PUSH2 0x4D1 JUMPI PUSH2 0x777 SWAP2 PUSH2 0xFED PUSH1 0x1 SWAP3 CALLDATASIZE SWAP1 PUSH1 0x4 ADD PUSH2 0x19C8 JUMP JUMPDEST SWAP1 PUSH2 0x1072 PUSH20 0xFFFFFFFFFFFFFFFFFFFFFFFFFFFFFFFFFFFFFFFF PUSH32 0x0 AND PUSH2 0x1034 DUP2 ADDRESS EQ ISZERO PUSH2 0x1B18 JUMP JUMPDEST PUSH20 0xFFFFFFFFFFFFFFFFFFFFFFFFFFFFFFFFFFFFFFFF PUSH32 0x360894A13BA1A3210667C828492DB98DCA3E2076CC3735A920A3CA505D382BBC SLOAD AND EQ PUSH2 0x1BA3 JUMP JUMPDEST PUSH2 0x107A PUSH2 0x1A0F JUMP JUMPDEST PUSH2 0x1C2E JUMP JUMPDEST CALLVALUE PUSH2 0x4D1 JUMPI PUSH1 0x40 PUSH1 0x3 NOT CALLDATASIZE ADD SLT PUSH2 0x4D1 JUMPI PUSH1 0x4 CALLDATALOAD PUSH8 0xFFFFFFFFFFFFFFFF DUP2 GT PUSH2 0x4D1 JUMPI CALLDATASIZE PUSH1 0x23 DUP3 ADD SLT ISZERO PUSH2 0x4D1 JUMPI DUP1 PUSH1 0x4 ADD CALLDATALOAD SWAP1 PUSH8 0xFFFFFFFFFFFFFFFF DUP3 GT PUSH2 0x93A JUMPI DUP2 PUSH1 0x5 SHL SWAP1 PUSH1 0x40 MLOAD SWAP3 PUSH2 0x10D8 PUSH1 0x20 DUP5 ADD DUP6 PUSH2 0x17A0 JUMP JUMPDEST DUP4 MSTORE PUSH1 0x24 PUSH1 0x20 DUP5 ADD SWAP3 DUP3 ADD ADD SWAP1 CALLDATASIZE DUP3 GT PUSH2 0x4D1 JUMPI PUSH1 0x24 ADD SWAP2 JUMPDEST DUP2 DUP4 LT PUSH2 0x12C9 JUMPI DUP4 PUSH1 0x24 CALLDATALOAD PUSH8 0xFFFFFFFFFFFFFFFF DUP2 GT PUSH2 0x4D1 JUMPI PUSH2 0x1119 SWAP1 CALLDATASIZE SWAP1 PUSH1 0x4 ADD PUSH2 0x1928 JUMP JUMPDEST SWAP1 DUP1 MLOAD DUP3 MLOAD SUB PUSH2 0x1245 JUMPI DUP1 MLOAD PUSH2 0x1147 PUSH2 0x1131 DUP3 PUSH2 0x1910 JUMP JUMPDEST SWAP2 PUSH2 0x113F PUSH1 0x40 MLOAD SWAP4 DUP5 PUSH2 0x17A0 JUMP JUMPDEST DUP1 DUP4 MSTORE PUSH2 0x1910 JUMP JUMPDEST SWAP2 PUSH32 0xFFFFFFFFFFFFFFFFFFFFFFFFFFFFFFFFFFFFFFFFFFFFFFFFFFFFFFFFFFFFFFE0 PUSH1 0x20 DUP4 ADD SWAP4 ADD CALLDATASIZE DUP5 CALLDATACOPY PUSH1 0x0 JUMPDEST DUP2 MLOAD DUP2 LT DUP1 ISZERO PUSH2 0x1200 JUMPI ISZERO PUSH2 0x11D1 JUMPI DUP1 PUSH2 0x11BC PUSH1 0x20 PUSH2 0x11CC SWAP4 PUSH1 0x5 SHL DUP6 ADD ADD MLOAD PUSH20 0xFFFFFFFFFFFFFFFFFFFFFFFFFFFFFFFFFFFFFFFF PUSH2 0x11B4 DUP5 DUP11 PUSH2 0x245D JUMP JUMPDEST MLOAD SWAP2 AND PUSH2 0x239F JUMP JUMPDEST PUSH2 0x11C6 DUP3 DUP7 PUSH2 0x245D JUMP JUMPDEST MSTORE PUSH2 0x2221 JUMP JUMPDEST PUSH2 0x1175 JUMP JUMPDEST PUSH32 0x4E487B7100000000000000000000000000000000000000000000000000000000 PUSH1 0x0 MSTORE PUSH1 0x32 PUSH1 0x4 MSTORE PUSH1 0x24 PUSH1 0x0 REVERT JUMPDEST DUP5 DUP5 PUSH1 0x40 MLOAD SWAP2 DUP3 SWAP2 PUSH1 0x20 DUP4 ADD SWAP1 PUSH1 0x20 DUP5 MSTORE MLOAD DUP1 SWAP2 MSTORE PUSH1 0x40 DUP4 ADD SWAP2 SWAP1 PUSH1 0x0 JUMPDEST DUP2 DUP2 LT PUSH2 0x122C JUMPI POP POP POP SUB SWAP1 RETURN JUMPDEST DUP3 MLOAD DUP5 MSTORE DUP6 SWAP5 POP PUSH1 0x20 SWAP4 DUP5 ADD SWAP4 SWAP1 SWAP3 ADD SWAP2 PUSH1 0x1 ADD PUSH2 0x121E JUMP JUMPDEST PUSH1 0x84 PUSH1 0x40 MLOAD PUSH32 0x8C379A000000000000000000000000000000000000000000000000000000000 DUP2 MSTORE PUSH1 0x20 PUSH1 0x4 DUP3 ADD MSTORE PUSH1 0x29 PUSH1 0x24 DUP3 ADD MSTORE PUSH32 0x455243313135353A206163636F756E747320616E6420696473206C656E677468 PUSH1 0x44 DUP3 ADD MSTORE PUSH32 0x206D69736D617463680000000000000000000000000000000000000000000000 PUSH1 0x64 DUP3 ADD MSTORE REVERT JUMPDEST DUP3 CALLDATALOAD PUSH20 0xFFFFFFFFFFFFFFFFFFFFFFFFFFFFFFFFFFFFFFFF DUP2 AND DUP2 SUB PUSH2 0x4D1 JUMPI DUP2 MSTORE PUSH1 0x20 SWAP3 DUP4 ADD SWAP3 ADD PUSH2 0x10F1 JUMP JUMPDEST CALLVALUE PUSH2 0x4D1 JUMPI PUSH1 0x20 PUSH1 0x3 NOT CALLDATASIZE ADD SLT PUSH2 0x4D1 JUMPI PUSH1 0x4 CALLDATALOAD PUSH20 0xFFFFFFFFFFFFFFFFFFFFFFFFFFFFFFFFFFFFFFFF DUP2 AND DUP2 SUB PUSH2 0x4D1 JUMPI PUSH1 0x0 PUSH2 0x777 SWAP2 PUSH2 0x1373 PUSH20 0xFFFFFFFFFFFFFFFFFFFFFFFFFFFFFFFFFFFFFFFF PUSH32 0x0 AND PUSH2 0x1034 DUP2 ADDRESS EQ ISZERO PUSH2 0x1B18 JUMP JUMPDEST PUSH2 0x137B PUSH2 0x1A0F JUMP JUMPDEST PUSH2 0x1384 DUP3 PUSH2 0x198E JUMP JUMPDEST SWAP1 PUSH2 0x1392 PUSH1 0x40 MLOAD SWAP3 DUP4 PUSH2 0x17A0 JUMP JUMPDEST DUP3 DUP3 MSTORE PUSH32 0xFFFFFFFFFFFFFFFFFFFFFFFFFFFFFFFFFFFFFFFFFFFFFFFFFFFFFFFFFFFFFFE0 PUSH2 0x13BF DUP5 PUSH2 0x198E JUMP JUMPDEST ADD CALLDATASIZE PUSH1 0x20 DUP5 ADD CALLDATACOPY PUSH2 0x1C2E JUMP JUMPDEST CALLVALUE PUSH2 0x4D1 JUMPI PUSH1 0x0 PUSH1 0xA0 PUSH1 0x3 NOT CALLDATASIZE ADD SLT PUSH2 0xBE0 JUMPI PUSH1 0x4 CALLDATALOAD PUSH20 0xFFFFFFFFFFFFFFFFFFFFFFFFFFFFFFFFFFFFFFFF DUP2 AND SUB PUSH2 0xBE0 JUMPI PUSH1 0x24 CALLDATALOAD PUSH20 0xFFFFFFFFFFFFFFFFFFFFFFFFFFFFFFFFFFFFFFFF DUP2 AND SUB PUSH2 0xBE0 JUMPI PUSH1 0x44 CALLDATALOAD PUSH8 0xFFFFFFFFFFFFFFFF DUP2 GT PUSH2 0xBDC JUMPI PUSH2 0x143C SWAP1 CALLDATASIZE SWAP1 PUSH1 0x4 ADD PUSH2 0x1928 JUMP JUMPDEST POP PUSH1 0x64 CALLDATALOAD PUSH8 0xFFFFFFFFFFFFFFFF DUP2 GT PUSH2 0x4D1 JUMPI PUSH2 0x145D SWAP1 CALLDATASIZE SWAP1 PUSH1 0x4 ADD PUSH2 0x1928 JUMP JUMPDEST POP PUSH1 0x84 CALLDATALOAD PUSH8 0xFFFFFFFFFFFFFFFF DUP2 GT PUSH2 0x4D1 JUMPI PUSH2 0x147E SWAP1 CALLDATASIZE SWAP1 PUSH1 0x4 ADD PUSH2 0x19C8 JUMP JUMPDEST POP PUSH1 0x84 PUSH1 0x40 MLOAD PUSH32 0x8C379A000000000000000000000000000000000000000000000000000000000 DUP2 MSTORE PUSH1 0x20 PUSH1 0x4 DUP3 ADD MSTORE PUSH1 0x24 DUP1 DUP3 ADD MSTORE PUSH32 0x4859444E5365616C3A207472616E73666572206261746368206E6F7420616C6C PUSH1 0x44 DUP3 ADD MSTORE PUSH32 0x6F77656400000000000000000000000000000000000000000000000000000000 PUSH1 0x64 DUP3 ADD MSTORE REVERT JUMPDEST CALLVALUE PUSH2 0x4D1 JUMPI PUSH1 0x0 PUSH1 0x3 NOT CALLDATASIZE ADD SLT PUSH2 0x4D1 JUMPI PUSH2 0x161 SLOAD PUSH2 0x1524 PUSH3 0x989680 CHAINID PUSH2 0x2111 JUMP JUMPDEST DUP2 SUB SWAP1 DUP2 GT PUSH2 0x2AD JUMPI PUSH1 0x20 SWAP1 PUSH1 0x40 MLOAD SWAP1 DUP2 MSTORE RETURN JUMPDEST CALLVALUE PUSH2 0x4D1 JUMPI PUSH1 0x20 PUSH1 0x3 NOT CALLDATASIZE ADD SLT PUSH2 0x4D1 JUMPI PUSH1 0x4 CALLDATALOAD DUP1 PUSH1 0x0 MSTORE PUSH2 0x12D PUSH1 0x20 MSTORE PUSH1 0x40 PUSH1 0x0 KECCAK256 SLOAD ISZERO PUSH2 0x15B6 JUMPI PUSH2 0xDF6 SWAP1 PUSH2 0xDEA PUSH1 0x20 PUSH2 0x157D PUSH2 0x1577 PUSH1 0xFD PUSH2 0x17E1 JUMP JUMPDEST SWAP4 PUSH2 0x224E JUMP JUMPDEST SWAP3 PUSH1 0x40 MLOAD SWAP4 DUP2 PUSH2 0x1596 DUP7 SWAP4 MLOAD DUP1 SWAP3 DUP7 DUP1 DUP8 ADD SWAP2 ADD PUSH2 0x18A3 JUMP JUMPDEST DUP3 ADD PUSH2 0x15AA DUP3 MLOAD DUP1 SWAP4 DUP7 DUP1 DUP6 ADD SWAP2 ADD PUSH2 0x18A3 JUMP JUMPDEST ADD SUB DUP1 DUP5 MSTORE ADD DUP3 PUSH2 0x17A0 JUMP JUMPDEST PUSH1 0x64 PUSH1 0x40 MLOAD PUSH32 0x8C379A000000000000000000000000000000000000000000000000000000000 DUP2 MSTORE PUSH1 0x20 PUSH1 0x4 DUP3 ADD MSTORE PUSH1 0x1C PUSH1 0x24 DUP3 ADD MSTORE PUSH32 0x4859444E5365616C3A20746F6B656E206E6F74206578697374696E6700000000 PUSH1 0x44 DUP3 ADD MSTORE REVERT JUMPDEST CALLVALUE PUSH2 0x4D1 JUMPI PUSH1 0x0 PUSH1 0x3 NOT CALLDATASIZE ADD SLT PUSH2 0x4D1 JUMPI PUSH2 0xDF6 PUSH2 0xDEA PUSH2 0x15F PUSH2 0x17E1 JUMP JUMPDEST CALLVALUE PUSH2 0x4D1 JUMPI PUSH1 0x20 PUSH1 0x3 NOT CALLDATASIZE ADD SLT PUSH2 0x4D1 JUMPI PUSH1 0x4 CALLDATALOAD PUSH32 0xFFFFFFFF00000000000000000000000000000000000000000000000000000000 DUP2 AND DUP1 SWAP2 SUB PUSH2 0x4D1 JUMPI DUP1 PUSH32 0xD9B67A2600000000000000000000000000000000000000000000000000000000 PUSH1 0x20 SWAP3 EQ SWAP1 DUP2 ISZERO PUSH2 0x16DB JUMPI JUMPDEST DUP2 ISZERO PUSH2 0x16B1 JUMPI JUMPDEST POP PUSH1 0x40 MLOAD SWAP1 ISZERO ISZERO DUP2 MSTORE RETURN JUMPDEST PUSH32 0x1FFC9A700000000000000000000000000000000000000000000000000000000 SWAP2 POP EQ DUP3 PUSH2 0x16A6 JUMP JUMPDEST PUSH32 0xE89341C00000000000000000000000000000000000000000000000000000000 DUP2 EQ SWAP2 POP PUSH2 0x169F JUMP JUMPDEST CALLVALUE PUSH2 0x4D1 JUMPI PUSH1 0x40 PUSH1 0x3 NOT CALLDATASIZE ADD SLT PUSH2 0x4D1 JUMPI PUSH1 0x4 CALLDATALOAD PUSH20 0xFFFFFFFFFFFFFFFFFFFFFFFFFFFFFFFFFFFFFFFF DUP2 AND DUP2 SUB PUSH2 0x4D1 JUMPI PUSH2 0x1745 PUSH1 0x20 SWAP2 PUSH1 0x24 CALLDATALOAD SWAP1 PUSH2 0x239F JUMP JUMPDEST PUSH1 0x40 MLOAD SWAP1 DUP2 MSTORE RETURN JUMPDEST SWAP1 PUSH1 0x1 DUP3 DUP2 SHR SWAP3 AND DUP1 ISZERO PUSH2 0x1796 JUMPI JUMPDEST PUSH1 0x20 DUP4 LT EQ PUSH2 0x1767 JUMPI JUMP JUMPDEST PUSH32 0x4E487B7100000000000000000000000000000000000000000000000000000000 PUSH1 0x0 MSTORE PUSH1 0x22 PUSH1 0x4 MSTORE PUSH1 0x24 PUSH1 0x0 REVERT JUMPDEST SWAP2 PUSH1 0x7F AND SWAP2 PUSH2 0x175C JUMP JUMPDEST SWAP1 PUSH1 0x1F PUSH32 0xFFFFFFFFFFFFFFFFFFFFFFFFFFFFFFFFFFFFFFFFFFFFFFFFFFFFFFFFFFFFFFE0 SWAP2 ADD AND DUP2 ADD SWAP1 DUP2 LT PUSH8 0xFFFFFFFFFFFFFFFF DUP3 GT OR PUSH2 0x93A JUMPI PUSH1 0x40 MSTORE JUMP JUMPDEST SWAP1 PUSH1 0x40 MLOAD SWAP2 DUP3 PUSH1 0x0 DUP3 SLOAD SWAP3 PUSH2 0x17F5 DUP5 PUSH2 0x174D JUMP JUMPDEST DUP1 DUP5 MSTORE SWAP4 PUSH1 0x1 DUP2 AND SWAP1 DUP2 ISZERO PUSH2 0x1863 JUMPI POP PUSH1 0x1 EQ PUSH2 0x181C JUMPI JUMPDEST POP PUSH2 0x181A SWAP3 POP SUB DUP4 PUSH2 0x17A0 JUMP JUMPDEST JUMP JUMPDEST SWAP1 POP PUSH1 0x0 SWAP3 SWAP2 SWAP3 MSTORE PUSH1 0x20 PUSH1 0x0 KECCAK256 SWAP1 PUSH1 0x0 SWAP2 JUMPDEST DUP2 DUP4 LT PUSH2 0x1847 JUMPI POP POP SWAP1 PUSH1 0x20 PUSH2 0x181A SWAP3 DUP3 ADD ADD CODESIZE PUSH2 0x180D JUMP JUMPDEST PUSH1 0x20 SWAP2 SWAP4 POP DUP1 PUSH1 0x1 SWAP2 SLOAD DUP4 DUP6 DUP10 ADD ADD MSTORE ADD SWAP2 ADD SWAP1 SWAP2 DUP5 SWAP3 PUSH2 0x182E JUMP JUMPDEST PUSH1 0x20 SWAP4 POP PUSH2 0x181A SWAP6 SWAP3 POP PUSH32 0xFFFFFFFFFFFFFFFFFFFFFFFFFFFFFFFFFFFFFFFFFFFFFFFFFFFFFFFFFFFFFF00 SWAP2 POP AND DUP3 DUP5 ADD MSTORE ISZERO ISZERO PUSH1 0x5 SHL DUP3 ADD ADD CODESIZE PUSH2 0x180D JUMP JUMPDEST PUSH1 0x0 JUMPDEST DUP4 DUP2 LT PUSH2 0x18B6 JUMPI POP POP PUSH1 0x0 SWAP2 ADD MSTORE JUMP JUMPDEST DUP2 DUP2 ADD MLOAD DUP4 DUP3 ADD MSTORE PUSH1 0x20 ADD PUSH2 0x18A6 JUMP JUMPDEST PUSH32 0xFFFFFFFFFFFFFFFFFFFFFFFFFFFFFFFFFFFFFFFFFFFFFFFFFFFFFFFFFFFFFFE0 PUSH1 0x1F PUSH1 0x40 SWAP4 PUSH1 0x20 DUP5 MSTORE PUSH2 0x1909 DUP2 MLOAD DUP1 SWAP3 DUP2 PUSH1 0x20 DUP9 ADD MSTORE PUSH1 0x20 DUP9 DUP9 ADD SWAP2 ADD PUSH2 0x18A3 JUMP JUMPDEST ADD AND ADD ADD SWAP1 JUMP JUMPDEST PUSH8 0xFFFFFFFFFFFFFFFF DUP2 GT PUSH2 0x93A JUMPI PUSH1 0x5 SHL PUSH1 0x20 ADD SWAP1 JUMP JUMPDEST SWAP1 DUP1 PUSH1 0x1F DUP4 ADD SLT ISZERO SWAP1 DUP2 PUSH2 0x4D1 JUMPI DUP3 CALLDATALOAD SWAP2 PUSH2 0x1942 DUP4 PUSH2 0x1910 JUMP JUMPDEST SWAP4 PUSH2 0x1950 PUSH1 0x40 MLOAD SWAP6 DUP7 PUSH2 0x17A0 JUMP JUMPDEST DUP4 DUP6 MSTORE PUSH1 0x20 DUP1 DUP7 ADD SWAP5 PUSH1 0x5 SHL DUP3 ADD ADD SWAP3 DUP4 GT PUSH2 0x4D1 JUMPI PUSH1 0x20 ADD SWAP3 JUMPDEST DUP3 DUP5 LT PUSH2 0x1979 JUMPI POP POP POP POP SWAP1 JUMP JUMPDEST DUP2 PUSH2 0xBDC JUMPI DUP4 CALLDATALOAD DUP2 MSTORE PUSH1 0x20 SWAP4 DUP5 ADD SWAP4 ADD PUSH2 0x196B JUMP JUMPDEST PUSH8 0xFFFFFFFFFFFFFFFF DUP2 GT PUSH2 0x93A JUMPI PUSH1 0x1F ADD PUSH32 0xFFFFFFFFFFFFFFFFFFFFFFFFFFFFFFFFFFFFFFFFFFFFFFFFFFFFFFFFFFFFFFE0 AND PUSH1 0x20 ADD SWAP1 JUMP JUMPDEST DUP2 PUSH1 0x1F DUP3 ADD SLT ISZERO PUSH2 0x4D1 JUMPI DUP1 CALLDATALOAD SWAP1 PUSH2 0x19DF DUP3 PUSH2 0x198E JUMP JUMPDEST SWAP3 PUSH2 0x19ED PUSH1 0x40 MLOAD SWAP5 DUP6 PUSH2 0x17A0 JUMP JUMPDEST DUP3 DUP5 MSTORE PUSH1 0x20 DUP4 DUP4 ADD ADD GT PUSH2 0x4D1 JUMPI DUP2 PUSH1 0x0 SWAP3 PUSH1 0x20 DUP1 SWAP4 ADD DUP4 DUP7 ADD CALLDATACOPY DUP4 ADD ADD MSTORE SWAP1 JUMP JUMPDEST PUSH1 0x97 SLOAD PUSH20 0xFFFFFFFFFFFFFFFFFFFFFFFFFFFFFFFFFFFFFFFF CALLER SWAP2 AND SUB PUSH2 0x1A31 JUMPI JUMP JUMPDEST PUSH1 0x64 PUSH1 0x40 MLOAD PUSH32 0x8C379A000000000000000000000000000000000000000000000000000000000 DUP2 MSTORE PUSH1 0x20 PUSH1 0x4 DUP3 ADD MSTORE PUSH1 0x20 PUSH1 0x24 DUP3 ADD MSTORE PUSH32 0x4F776E61626C653A2063616C6C6572206973206E6F7420746865206F776E6572 PUSH1 0x44 DUP3 ADD MSTORE REVERT JUMPDEST PUSH32 0xFFFFFFFFFFFFFFFFFFFFFFFF0000000000000000000000000000000000000000 SWAP1 PUSH1 0x97 SLOAD SWAP1 PUSH20 0xFFFFFFFFFFFFFFFFFFFFFFFFFFFFFFFFFFFFFFFF PUSH1 0x97 SLOAD SWAP2 AND SWAP3 DUP4 SWAP2 AND OR PUSH1 0x97 SSTORE PUSH32 0x8BE0079C531659141344CD1FD0A4F28419497F9722A3DAAFE3B4186F6B6457E0 PUSH1 0x0 PUSH20 0xFFFFFFFFFFFFFFFFFFFFFFFFFFFFFFFFFFFFFFFF PUSH1 0x40 MLOAD SWAP4 AND SWAP3 LOG3 JUMP JUMPDEST ISZERO PUSH2 0x1B1F JUMPI JUMP JUMPDEST PUSH1 0x84 PUSH1 0x40 MLOAD PUSH32 0x8C379A000000000000000000000000000000000000000000000000000000000 DUP2 MSTORE PUSH1 0x20 PUSH1 0x4 DUP3 ADD MSTORE PUSH1 0x2C PUSH1 0x24 DUP3 ADD MSTORE PUSH32 0x46756E6374696F6E206D7573742062652063616C6C6564207468726F75676820 PUSH1 0x44 DUP3 ADD MSTORE PUSH32 0x64656C656761746563616C6C0000000000000000000000000000000000000000 PUSH1 0x64 DUP3 ADD MSTORE REVERT JUMPDEST ISZERO PUSH2 0x1BAA JUMPI JUMP JUMPDEST PUSH1 0x84 PUSH1 0x40 MLOAD PUSH32 0x8C379A000000000000000000000000000000000000000000000000000000000 DUP2 MSTORE PUSH1 0x20 PUSH1 0x4 DUP3 ADD MSTORE PUSH1 0x2C PUSH1 0x24 DUP3 ADD MSTORE PUSH32 0x46756E6374696F6E206D7573742062652063616C6C6564207468726F75676820 PUSH1 0x44 DUP3 ADD MSTORE PUSH32 0x6163746976652070726F78790000000000000000000000000000000000000000 PUSH1 0x64 DUP3 ADD MSTORE REVERT JUMPDEST SWAP1 PUSH1 0xFF PUSH32 0x4910FDFA16FED3260ED0E7147F7CC6DA11A60208B5B9406D12A635614FFD9143 SLOAD AND PUSH1 0x0 EQ PUSH2 0x1C66 JUMPI POP PUSH2 0x181A SWAP2 POP PUSH2 0x1FAF JUMP JUMPDEST PUSH1 0x40 MLOAD SWAP3 PUSH32 0x52D1902D00000000000000000000000000000000000000000000000000000000 DUP5 MSTORE GAS SWAP4 PUSH1 0x20 DUP2 PUSH1 0x4 DUP2 PUSH20 0xFFFFFFFFFFFFFFFFFFFFFFFFFFFFFFFFFFFFFFFF DUP9 AND DUP1 SWAP10 STATICCALL PUSH1 0x0 SWAP2 DUP2 PUSH2 0x1F7C JUMPI JUMPDEST POP PUSH2 0x1D41 JUMPI PUSH1 0x84 PUSH1 0x40 MLOAD PUSH32 0x8C379A000000000000000000000000000000000000000000000000000000000 DUP2 MSTORE PUSH1 0x20 PUSH1 0x4 DUP3 ADD MSTORE PUSH1 0x2E PUSH1 0x24 DUP3 ADD MSTORE PUSH32 0x45524331393637557067726164653A206E657720696D706C656D656E74617469 PUSH1 0x44 DUP3 ADD MSTORE PUSH32 0x6F6E206973206E6F742055555053000000000000000000000000000000000000 PUSH1 0x64 DUP3 ADD MSTORE REVERT JUMPDEST PUSH32 0x360894A13BA1A3210667C828492DB98DCA3E2076CC3735A920A3CA505D382BBC SUB PUSH2 0x1EF8 JUMPI PUSH2 0x1D70 DUP4 PUSH2 0x1FAF JUMP JUMPDEST PUSH1 0x40 MLOAD SWAP4 PUSH32 0xBC7CD75A20EE27FD9ADEBAB32041F755214DBC6BFFA90CC0225B39DA2E5C2D3B PUSH1 0x0 DUP7 LOG2 DUP2 MLOAD ISZERO SWAP1 DUP2 ISZERO SWAP2 PUSH2 0x1EF0 JUMPI JUMPDEST POP PUSH2 0x1DAF JUMPI POP POP POP JUMP JUMPDEST PUSH1 0x0 SWAP3 DUP3 EXTCODESIZE ISZERO PUSH2 0x1E6E JUMPI POP SWAP2 DUP1 DUP1 SWAP3 DUP5 PUSH2 0x1E63 SWAP6 MLOAD SWAP2 PUSH1 0x20 GAS SWAP3 ADD SWAP2 DELEGATECALL SWAP1 RETURNDATASIZE ISZERO PUSH2 0x1E66 JUMPI RETURNDATASIZE PUSH2 0x1DDD DUP2 PUSH2 0x198E JUMP JUMPDEST SWAP1 PUSH2 0x1DEB PUSH1 0x40 MLOAD SWAP3 DUP4 PUSH2 0x17A0 JUMP JUMPDEST DUP2 MSTORE DUP1 SWAP2 PUSH1 0x20 RETURNDATASIZE SWAP3 ADD RETURNDATACOPY JUMPDEST PUSH2 0x1E00 PUSH1 0x27 PUSH2 0x198E JUMP JUMPDEST SWAP2 PUSH2 0x1E0E PUSH1 0x40 MLOAD SWAP4 DUP5 PUSH2 0x17A0 JUMP JUMPDEST PUSH1 0x27 DUP4 MSTORE PUSH32 0x416464726573733A206C6F772D6C6576656C2064656C65676174652063616C6C PUSH1 0x20 DUP5 ADD MSTORE PUSH32 0x206661696C656400000000000000000000000000000000000000000000000000 PUSH1 0x40 DUP5 ADD MSTORE PUSH2 0x20BB JUMP JUMPDEST POP JUMP JUMPDEST POP PUSH1 0x60 PUSH2 0x1DF6 JUMP JUMPDEST DUP1 PUSH32 0x8C379A000000000000000000000000000000000000000000000000000000000 PUSH1 0x84 SWAP3 MSTORE PUSH1 0x20 PUSH1 0x4 DUP3 ADD MSTORE PUSH1 0x26 PUSH1 0x24 DUP3 ADD MSTORE PUSH32 0x416464726573733A2064656C65676174652063616C6C20746F206E6F6E2D636F PUSH1 0x44 DUP3 ADD MSTORE PUSH32 0x6E74726163740000000000000000000000000000000000000000000000000000 PUSH1 0x64 DUP3 ADD MSTORE REVERT JUMPDEST SWAP1 POP CODESIZE PUSH2 0x1DA5 JUMP JUMPDEST PUSH1 0x84 PUSH1 0x40 MLOAD PUSH32 0x8C379A000000000000000000000000000000000000000000000000000000000 DUP2 MSTORE PUSH1 0x20 PUSH1 0x4 DUP3 ADD MSTORE PUSH1 0x29 PUSH1 0x24 DUP3 ADD MSTORE PUSH32 0x45524331393637557067726164653A20756E737570706F727465642070726F78 PUSH1 0x44 DUP3 ADD MSTORE PUSH32 0x6961626C65555549440000000000000000000000000000000000000000000000 PUSH1 0x64 DUP3 ADD MSTORE REVERT JUMPDEST SWAP1 SWAP2 PUSH1 0x20 DUP3 RETURNDATASIZE DUP3 GT PUSH2 0x1FA7 JUMPI JUMPDEST DUP2 PUSH2 0x1F96 PUSH1 0x20 SWAP4 DUP4 PUSH2 0x17A0 JUMP JUMPDEST DUP2 ADD SUB SLT PUSH2 0xBE0 JUMPI POP MLOAD SWAP1 CODESIZE PUSH2 0x1CB8 JUMP JUMPDEST RETURNDATASIZE SWAP2 POP PUSH2 0x1F89 JUMP JUMPDEST DUP1 EXTCODESIZE ISZERO PUSH2 0x2037 JUMPI PUSH32 0xFFFFFFFFFFFFFFFFFFFFFFFF0000000000000000000000000000000000000000 PUSH20 0xFFFFFFFFFFFFFFFFFFFFFFFFFFFFFFFFFFFFFFFF PUSH32 0x360894A13BA1A3210667C828492DB98DCA3E2076CC3735A920A3CA505D382BBC SLOAD SWAP3 AND SWAP2 AND OR PUSH32 0x360894A13BA1A3210667C828492DB98DCA3E2076CC3735A920A3CA505D382BBC SSTORE JUMP JUMPDEST PUSH1 0x84 PUSH1 0x40 MLOAD PUSH32 0x8C379A000000000000000000000000000000000000000000000000000000000 DUP2 MSTORE PUSH1 0x20 PUSH1 0x4 DUP3 ADD MSTORE PUSH1 0x2D PUSH1 0x24 DUP3 ADD MSTORE PUSH32 0x455243313936373A206E657720696D706C656D656E746174696F6E206973206E PUSH1 0x44 DUP3 ADD MSTORE PUSH32 0x6F74206120636F6E747261637400000000000000000000000000000000000000 PUSH1 0x64 DUP3 ADD MSTORE REVERT JUMPDEST SWAP1 SWAP2 SWAP1 ISZERO PUSH2 0x20C7 JUMPI POP SWAP1 JUMP JUMPDEST DUP2 MLOAD ISZERO PUSH2 0x20D7 JUMPI POP DUP1 MLOAD SWAP1 PUSH1 0x20 ADD REVERT JUMPDEST PUSH2 0x210D SWAP1 PUSH1 0x40 MLOAD SWAP2 DUP3 SWAP2 PUSH32 0x8C379A000000000000000000000000000000000000000000000000000000000 DUP4 MSTORE PUSH1 0x4 DUP4 ADD PUSH2 0x18C6 JUMP JUMPDEST SUB SWAP1 REVERT JUMPDEST DUP1 PUSH32 0xFFFFFFFFFFFFFFFFFFFFFFFFFFFFFFFFFFFFFFFFFFFFFFFFFFFFFFFFFFFFFFFF DIV DUP3 GT DUP2 ISZERO ISZERO AND PUSH2 0x2AD JUMPI MUL SWAP1 JUMP JUMPDEST SWAP2 SWAP1 SWAP2 PUSH1 0x1F DUP4 GT PUSH2 0x2152 JUMPI POP POP POP JUMP JUMPDEST PUSH1 0x0 MSTORE PUSH1 0x20 PUSH1 0x0 KECCAK256 SWAP1 PUSH1 0x20 PUSH1 0x1F DUP3 ADD PUSH1 0x5 SHR DUP4 ADD SWAP2 LT PUSH2 0x218F JUMPI JUMPDEST PUSH1 0x1F SWAP1 SWAP3 ADD PUSH1 0x5 SHR ADD SWAP1 JUMPDEST DUP2 DUP2 LT PUSH2 0x2183 JUMPI POP POP JUMP JUMPDEST PUSH1 0x0 DUP2 SSTORE PUSH1 0x1 ADD PUSH2 0x2178 JUMP JUMPDEST POP DUP1 PUSH2 0x216D JUMP JUMPDEST ISZERO PUSH2 0x219D JUMPI JUMP JUMPDEST PUSH1 0x84 PUSH1 0x40 MLOAD PUSH32 0x8C379A000000000000000000000000000000000000000000000000000000000 DUP2 MSTORE PUSH1 0x20 PUSH1 0x4 DUP3 ADD MSTORE PUSH1 0x2B PUSH1 0x24 DUP3 ADD MSTORE PUSH32 0x496E697469616C697A61626C653A20636F6E7472616374206973206E6F742069 PUSH1 0x44 DUP3 ADD MSTORE PUSH32 0x6E697469616C697A696E67000000000000000000000000000000000000000000 PUSH1 0x64 DUP3 ADD MSTORE REVERT JUMPDEST PUSH32 0xFFFFFFFFFFFFFFFFFFFFFFFFFFFFFFFFFFFFFFFFFFFFFFFFFFFFFFFFFFFFFFFF DUP2 EQ PUSH2 0x2AD JUMPI PUSH1 0x1 ADD SWAP1 JUMP JUMPDEST DUP1 ISZERO PUSH2 0x234A JUMPI DUP1 DUP2 PUSH1 0x0 SWAP3 JUMPDEST PUSH2 0x2334 JUMPI POP PUSH2 0x2268 DUP3 PUSH2 0x198E JUMP JUMPDEST SWAP2 PUSH2 0x2276 PUSH1 0x40 MLOAD SWAP4 DUP5 PUSH2 0x17A0 JUMP JUMPDEST DUP1 DUP4 MSTORE DUP2 PUSH32 0xFFFFFFFFFFFFFFFFFFFFFFFFFFFFFFFFFFFFFFFFFFFFFFFFFFFFFFFFFFFFFFE0 PUSH2 0x22A4 DUP4 PUSH2 0x198E JUMP JUMPDEST ADD CALLDATASIZE PUSH1 0x20 DUP7 ADD CALLDATACOPY JUMPDEST PUSH2 0x22B5 JUMPI POP POP SWAP1 JUMP JUMPDEST PUSH32 0xFFFFFFFFFFFFFFFFFFFFFFFFFFFFFFFFFFFFFFFFFFFFFFFFFFFFFFFFFFFFFFFF DUP2 ADD SWAP1 DUP2 GT PUSH2 0x2AD JUMPI DUP1 SWAP2 PUSH1 0xA DUP2 MOD PUSH1 0x30 ADD SWAP2 DUP3 PUSH1 0x30 GT PUSH2 0x2AD JUMPI DUP5 MLOAD DUP2 LT ISZERO PUSH2 0x11D1 JUMPI PUSH1 0x20 PUSH32 0xFF00000000000000000000000000000000000000000000000000000000000000 PUSH1 0xA SWAP5 PUSH1 0xF8 SHL AND PUSH1 0x0 BYTE SWAP2 DUP7 ADD ADD MSTORE8 DIV SWAP1 DUP2 PUSH2 0x22AC JUMP JUMPDEST SWAP1 SWAP2 PUSH2 0x2341 PUSH1 0xA SWAP2 PUSH2 0x2221 JUMP JUMPDEST SWAP3 SWAP2 DIV DUP1 PUSH2 0x225A JUMP JUMPDEST POP PUSH2 0x2355 PUSH1 0x1 PUSH2 0x198E JUMP JUMPDEST PUSH2 0x2362 PUSH1 0x40 MLOAD SWAP2 DUP3 PUSH2 0x17A0 JUMP JUMPDEST PUSH1 0x1 DUP2 MSTORE PUSH32 0x3000000000000000000000000000000000000000000000000000000000000000 PUSH1 0x20 DUP3 ADD MSTORE SWAP1 JUMP JUMPDEST SWAP2 SWAP1 DUP2 LT ISZERO PUSH2 0x11D1 JUMPI PUSH1 0x5 SHL ADD SWAP1 JUMP JUMPDEST PUSH20 0xFFFFFFFFFFFFFFFFFFFFFFFFFFFFFFFFFFFFFFFF AND SWAP1 DUP2 ISZERO PUSH2 0x23D9 JUMPI PUSH1 0x0 MSTORE PUSH1 0xFB PUSH1 0x20 MSTORE PUSH1 0x40 PUSH1 0x0 KECCAK256 SWAP1 PUSH1 0x0 MSTORE PUSH1 0x20 MSTORE PUSH1 0x40 PUSH1 0x0 KECCAK256 SLOAD SWAP1 JUMP JUMPDEST PUSH1 0x84 PUSH1 0x40 MLOAD PUSH32 0x8C379A000000000000000000000000000000000000000000000000000000000 DUP2 MSTORE PUSH1 0x20 PUSH1 0x4 DUP3 ADD MSTORE PUSH1 0x2A PUSH1 0x24 DUP3 ADD MSTORE PUSH32 0x455243313135353A2061646472657373207A65726F206973206E6F7420612076 PUSH1 0x44 DUP3 ADD MSTORE PUSH32 0x616C6964206F776E657200000000000000000000000000000000000000000000 PUSH1 0x64 DUP3 ADD MSTORE REVERT JUMPDEST DUP1 MLOAD DUP3 LT ISZERO PUSH2 0x11D1 JUMPI PUSH1 0x20 SWAP2 PUSH1 0x5 SHL ADD ADD SWAP1 JUMP INVALID LOG2 PUSH5 0x6970667358 0x22 SLT KECCAK256 SWAP12 PUSH12 0x2E20D6E4B55A3423497E2B1A PUSH30 0x2CC1ED1387EAE81966932B9D13F7071F0364736F6C634300081000330000 "
        },
        "gasEstimates": {
          "creation": {
            "codeDepositCost": "1876600",
            "executionCost": "infinite",
            "totalCost": "infinite"
          },
          "external": {
            "balanceOf(address,uint256)": "2474",
            "balanceOfBatch(address[],uint256[])": "infinite",
            "currentAuditId()": "2536",
            "exists(uint256)": "2520",
            "initialize(string)": "infinite",
            "isApprovedForAll(address,address)": "2836",
            "mintSeal(address[])": "infinite",
            "name()": "infinite",
            "owner()": "2520",
            "proxiableUUID()": "infinite",
            "renounceOwnership()": "30412",
            "safeBatchTransferFrom(address,address,uint256[],uint256[],bytes)": "infinite",
            "safeTransferFrom(address,address,uint256,uint256,bytes)": "infinite",
            "setApprovalForAll(address,bool)": "26691",
            "supportsInterface(bytes4)": "321",
            "symbol()": "infinite",
            "totalSupply()": "2448",
            "totalSupply(uint256)": "2668",
            "transferOwnership(address)": "30641",
            "upgradeTo(address)": "infinite",
            "upgradeToAndCall(address,bytes)": "infinite",
            "uri(uint256)": "infinite"
          },
          "internal": {
            "_authorizeUpgrade(address)": "infinite",
            "_beforeTokenTransfer(address,address,address,uint256[] memory,uint256[] memory,bytes memory)": "infinite"
          }
        },
        "methodIdentifiers": {
          "balanceOf(address,uint256)": "00fdd58e",
          "balanceOfBatch(address[],uint256[])": "4e1273f4",
          "currentAuditId()": "9458e718",
          "exists(uint256)": "4f558e79",
          "initialize(string)": "f62d1888",
          "isApprovedForAll(address,address)": "e985e9c5",
          "mintSeal(address[])": "f722c17d",
          "name()": "06fdde03",
          "owner()": "8da5cb5b",
          "proxiableUUID()": "52d1902d",
          "renounceOwnership()": "715018a6",
          "safeBatchTransferFrom(address,address,uint256[],uint256[],bytes)": "2eb2c2d6",
          "safeTransferFrom(address,address,uint256,uint256,bytes)": "f242432a",
          "setApprovalForAll(address,bool)": "a22cb465",
          "supportsInterface(bytes4)": "01ffc9a7",
          "symbol()": "95d89b41",
          "totalSupply()": "18160ddd",
          "totalSupply(uint256)": "bd85b039",
          "transferOwnership(address)": "f2fde38b",
          "upgradeTo(address)": "3659cfe6",
          "upgradeToAndCall(address,bytes)": "4f1ef286",
          "uri(uint256)": "0e89341c"
        }
      },
      "storageLayout": {
        "storage": [
          {
            "astId": 527,
            "contract": "contracts/HYDNSeal.sol:HYDNSeal",
            "label": "_initialized",
            "offset": 0,
            "slot": "0",
            "type": "t_uint8"
          },
          {
            "astId": 530,
            "contract": "contracts/HYDNSeal.sol:HYDNSeal",
            "label": "_initializing",
            "offset": 1,
            "slot": "0",
            "type": "t_bool"
          },
          {
            "astId": 509,
            "contract": "contracts/HYDNSeal.sol:HYDNSeal",
            "label": "__gap",
            "offset": 0,
            "slot": "1",
            "type": "t_array(t_uint256)50_storage"
          },
          {
            "astId": 2691,
            "contract": "contracts/HYDNSeal.sol:HYDNSeal",
            "label": "__gap",
            "offset": 0,
            "slot": "51",
            "type": "t_array(t_uint256)50_storage"
          },
          {
            "astId": 806,
            "contract": "contracts/HYDNSeal.sol:HYDNSeal",
            "label": "__gap",
            "offset": 0,
            "slot": "101",
            "type": "t_array(t_uint256)50_storage"
          },
          {
            "astId": 10,
            "contract": "contracts/HYDNSeal.sol:HYDNSeal",
            "label": "_owner",
            "offset": 0,
            "slot": "151",
            "type": "t_address"
          },
          {
            "astId": 130,
            "contract": "contracts/HYDNSeal.sol:HYDNSeal",
            "label": "__gap",
            "offset": 0,
            "slot": "152",
            "type": "t_array(t_uint256)49_storage"
          },
          {
            "astId": 3021,
            "contract": "contracts/HYDNSeal.sol:HYDNSeal",
            "label": "__gap",
            "offset": 0,
            "slot": "201",
            "type": "t_array(t_uint256)50_storage"
          },
          {
            "astId": 3503,
            "contract": "contracts/HYDNSeal.sol:HYDNSeal",
            "label": "_balances",
            "offset": 0,
            "slot": "251",
            "type": "t_mapping(t_uint256,t_mapping(t_address,t_uint256))"
          },
          {
            "astId": 3509,
            "contract": "contracts/HYDNSeal.sol:HYDNSeal",
            "label": "_operatorApprovals",
            "offset": 0,
            "slot": "252",
            "type": "t_mapping(t_address,t_mapping(t_address,t_bool))"
          },
          {
            "astId": 3511,
            "contract": "contracts/HYDNSeal.sol:HYDNSeal",
            "label": "_uri",
            "offset": 0,
            "slot": "253",
            "type": "t_string_storage"
          },
          {
            "astId": 4706,
            "contract": "contracts/HYDNSeal.sol:HYDNSeal",
            "label": "__gap",
            "offset": 0,
            "slot": "254",
            "type": "t_array(t_uint256)47_storage"
          },
          {
            "astId": 3321,
            "contract": "contracts/HYDNSeal.sol:HYDNSeal",
            "label": "_totalSupply",
            "offset": 0,
            "slot": "301",
            "type": "t_mapping(t_uint256,t_uint256)"
          },
          {
            "astId": 3472,
            "contract": "contracts/HYDNSeal.sol:HYDNSeal",
            "label": "__gap",
            "offset": 0,
            "slot": "302",
            "type": "t_array(t_uint256)49_storage"
          },
          {
            "astId": 3290,
            "contract": "contracts/HYDNSeal.sol:HYDNSeal",
            "label": "name",
            "offset": 0,
            "slot": "351",
            "type": "t_string_storage"
          },
          {
            "astId": 3292,
            "contract": "contracts/HYDNSeal.sol:HYDNSeal",
            "label": "symbol",
            "offset": 0,
            "slot": "352",
            "type": "t_string_storage"
          },
          {
            "astId": 3294,
            "contract": "contracts/HYDNSeal.sol:HYDNSeal",
            "label": "currentAuditId",
            "offset": 0,
            "slot": "353",
            "type": "t_uint256"
          }
        ],
        "types": {
          "t_address": {
            "encoding": "inplace",
            "label": "address",
            "numberOfBytes": "20"
          },
          "t_array(t_uint256)47_storage": {
            "base": "t_uint256",
            "encoding": "inplace",
            "label": "uint256[47]",
            "numberOfBytes": "1504"
          },
          "t_array(t_uint256)49_storage": {
            "base": "t_uint256",
            "encoding": "inplace",
            "label": "uint256[49]",
            "numberOfBytes": "1568"
          },
          "t_array(t_uint256)50_storage": {
            "base": "t_uint256",
            "encoding": "inplace",
            "label": "uint256[50]",
            "numberOfBytes": "1600"
          },
          "t_bool": {
            "encoding": "inplace",
            "label": "bool",
            "numberOfBytes": "1"
          },
          "t_mapping(t_address,t_bool)": {
            "encoding": "mapping",
            "key": "t_address",
            "label": "mapping(address => bool)",
            "numberOfBytes": "32",
            "value": "t_bool"
          },
          "t_mapping(t_address,t_mapping(t_address,t_bool))": {
            "encoding": "mapping",
            "key": "t_address",
            "label": "mapping(address => mapping(address => bool))",
            "numberOfBytes": "32",
            "value": "t_mapping(t_address,t_bool)"
          },
          "t_mapping(t_address,t_uint256)": {
            "encoding": "mapping",
            "key": "t_address",
            "label": "mapping(address => uint256)",
            "numberOfBytes": "32",
            "value": "t_uint256"
          },
          "t_mapping(t_uint256,t_mapping(t_address,t_uint256))": {
            "encoding": "mapping",
            "key": "t_uint256",
            "label": "mapping(uint256 => mapping(address => uint256))",
            "numberOfBytes": "32",
            "value": "t_mapping(t_address,t_uint256)"
          },
          "t_mapping(t_uint256,t_uint256)": {
            "encoding": "mapping",
            "key": "t_uint256",
            "label": "mapping(uint256 => uint256)",
            "numberOfBytes": "32",
            "value": "t_uint256"
          },
          "t_string_storage": {
            "encoding": "bytes",
            "label": "string",
            "numberOfBytes": "32"
          },
          "t_uint256": {
            "encoding": "inplace",
            "label": "uint256",
            "numberOfBytes": "32"
          },
          "t_uint8": {
            "encoding": "inplace",
            "label": "uint8",
            "numberOfBytes": "1"
          }
        }
      },
      "userdoc": {
        "kind": "user",
        "methods": {},
        "version": 1
      }
    }
  }
}