{
  "_format": "hh-sol-artifact-1",
  "contractName": "HYDNSeal",
  "sourceName": "contracts/HYDNSeal.sol",
  "abi": [
    {
      "inputs": [],
      "stateMutability": "nonpayable",
      "type": "constructor"
    },
    {
      "anonymous": false,
      "inputs": [
        {
          "indexed": false,
          "internalType": "address",
          "name": "previousAdmin",
          "type": "address"
        },
        {
          "indexed": false,
          "internalType": "address",
          "name": "newAdmin",
          "type": "address"
        }
      ],
      "name": "AdminChanged",
      "type": "event"
    },
    {
      "anonymous": false,
      "inputs": [
        {
          "indexed": true,
          "internalType": "address",
          "name": "account",
          "type": "address"
        },
        {
          "indexed": true,
          "internalType": "address",
          "name": "operator",
          "type": "address"
        },
        {
          "indexed": false,
          "internalType": "bool",
          "name": "approved",
          "type": "bool"
        }
      ],
      "name": "ApprovalForAll",
      "type": "event"
    },
    {
      "anonymous": false,
      "inputs": [
        {
          "indexed": true,
          "internalType": "address",
          "name": "beacon",
          "type": "address"
        }
      ],
      "name": "BeaconUpgraded",
      "type": "event"
    },
    {
      "anonymous": false,
      "inputs": [
        {
          "indexed": false,
          "internalType": "uint8",
          "name": "version",
          "type": "uint8"
        }
      ],
      "name": "Initialized",
      "type": "event"
    },
    {
      "anonymous": false,
      "inputs": [
        {
          "indexed": true,
          "internalType": "address",
          "name": "previousOwner",
          "type": "address"
        },
        {
          "indexed": true,
          "internalType": "address",
          "name": "newOwner",
          "type": "address"
        }
      ],
      "name": "OwnershipTransferred",
      "type": "event"
    },
    {
      "anonymous": false,
      "inputs": [
        {
          "indexed": true,
          "internalType": "address",
          "name": "operator",
          "type": "address"
        },
        {
          "indexed": true,
          "internalType": "address",
          "name": "from",
          "type": "address"
        },
        {
          "indexed": true,
          "internalType": "address",
          "name": "to",
          "type": "address"
        },
        {
          "indexed": false,
          "internalType": "uint256[]",
          "name": "ids",
          "type": "uint256[]"
        },
        {
          "indexed": false,
          "internalType": "uint256[]",
          "name": "values",
          "type": "uint256[]"
        }
      ],
      "name": "TransferBatch",
      "type": "event"
    },
    {
      "anonymous": false,
      "inputs": [
        {
          "indexed": true,
          "internalType": "address",
          "name": "operator",
          "type": "address"
        },
        {
          "indexed": true,
          "internalType": "address",
          "name": "from",
          "type": "address"
        },
        {
          "indexed": true,
          "internalType": "address",
          "name": "to",
          "type": "address"
        },
        {
          "indexed": false,
          "internalType": "uint256",
          "name": "id",
          "type": "uint256"
        },
        {
          "indexed": false,
          "internalType": "uint256",
          "name": "value",
          "type": "uint256"
        }
      ],
      "name": "TransferSingle",
      "type": "event"
    },
    {
      "anonymous": false,
      "inputs": [
        {
          "indexed": false,
          "internalType": "string",
          "name": "value",
          "type": "string"
        },
        {
          "indexed": true,
          "internalType": "uint256",
          "name": "id",
          "type": "uint256"
        }
      ],
      "name": "URI",
      "type": "event"
    },
    {
      "anonymous": false,
      "inputs": [
        {
          "indexed": true,
          "internalType": "address",
          "name": "implementation",
          "type": "address"
        }
      ],
      "name": "Upgraded",
      "type": "event"
    },
    {
      "inputs": [
        {
          "internalType": "address",
          "name": "account",
          "type": "address"
        },
        {
          "internalType": "uint256",
          "name": "id",
          "type": "uint256"
        }
      ],
      "name": "balanceOf",
      "outputs": [
        {
          "internalType": "uint256",
          "name": "",
          "type": "uint256"
        }
      ],
      "stateMutability": "view",
      "type": "function"
    },
    {
      "inputs": [
        {
          "internalType": "address[]",
          "name": "accounts",
          "type": "address[]"
        },
        {
          "internalType": "uint256[]",
          "name": "ids",
          "type": "uint256[]"
        }
      ],
      "name": "balanceOfBatch",
      "outputs": [
        {
          "internalType": "uint256[]",
          "name": "",
          "type": "uint256[]"
        }
      ],
      "stateMutability": "view",
      "type": "function"
    },
    {
      "inputs": [
        {
          "internalType": "uint256",
          "name": "id",
          "type": "uint256"
        }
      ],
      "name": "exists",
      "outputs": [
        {
          "internalType": "bool",
          "name": "",
          "type": "bool"
        }
      ],
      "stateMutability": "view",
      "type": "function"
    },
    {
      "inputs": [
        {
          "internalType": "string",
          "name": "_baseURI",
          "type": "string"
        }
      ],
      "name": "initialize",
      "outputs": [],
      "stateMutability": "nonpayable",
      "type": "function"
    },
    {
      "inputs": [
        {
          "internalType": "address",
          "name": "account",
          "type": "address"
        },
        {
          "internalType": "address",
          "name": "operator",
          "type": "address"
        }
      ],
      "name": "isApprovedForAll",
      "outputs": [
        {
          "internalType": "bool",
          "name": "",
          "type": "bool"
        }
      ],
      "stateMutability": "view",
      "type": "function"
    },
    {
      "inputs": [
        {
          "internalType": "address[]",
          "name": "_contracts",
          "type": "address[]"
        }
      ],
      "name": "mintSeal",
      "outputs": [
        {
          "internalType": "bool",
          "name": "success",
          "type": "bool"
        }
      ],
      "stateMutability": "nonpayable",
      "type": "function"
    },
    {
      "inputs": [],
      "name": "name",
      "outputs": [
        {
          "internalType": "string",
          "name": "",
          "type": "string"
        }
      ],
      "stateMutability": "view",
      "type": "function"
    },
    {
      "inputs": [],
      "name": "owner",
      "outputs": [
        {
          "internalType": "address",
          "name": "",
          "type": "address"
        }
      ],
      "stateMutability": "view",
      "type": "function"
    },
    {
      "inputs": [],
      "name": "proxiableUUID",
      "outputs": [
        {
          "internalType": "bytes32",
          "name": "",
          "type": "bytes32"
        }
      ],
      "stateMutability": "view",
      "type": "function"
    },
    {
      "inputs": [],
      "name": "renounceOwnership",
      "outputs": [],
      "stateMutability": "nonpayable",
      "type": "function"
    },
    {
      "inputs": [
        {
          "internalType": "address",
          "name": "",
          "type": "address"
        },
        {
          "internalType": "address",
          "name": "",
          "type": "address"
        },
        {
          "internalType": "uint256[]",
          "name": "",
          "type": "uint256[]"
        },
        {
          "internalType": "uint256[]",
          "name": "",
          "type": "uint256[]"
        },
        {
          "internalType": "bytes",
          "name": "",
          "type": "bytes"
        }
      ],
      "name": "safeBatchTransferFrom",
      "outputs": [],
      "stateMutability": "nonpayable",
      "type": "function"
    },
    {
      "inputs": [
        {
          "internalType": "address",
          "name": "",
          "type": "address"
        },
        {
          "internalType": "address",
          "name": "",
          "type": "address"
        },
        {
          "internalType": "uint256",
          "name": "",
          "type": "uint256"
        },
        {
          "internalType": "uint256",
          "name": "",
          "type": "uint256"
        },
        {
          "internalType": "bytes",
          "name": "",
          "type": "bytes"
        }
      ],
      "name": "safeTransferFrom",
      "outputs": [],
      "stateMutability": "nonpayable",
      "type": "function"
    },
    {
      "inputs": [
        {
          "internalType": "address",
          "name": "operator",
          "type": "address"
        },
        {
          "internalType": "bool",
          "name": "approved",
          "type": "bool"
        }
      ],
      "name": "setApprovalForAll",
      "outputs": [],
      "stateMutability": "nonpayable",
      "type": "function"
    },
    {
      "inputs": [
        {
          "internalType": "bytes4",
          "name": "interfaceId",
          "type": "bytes4"
        }
      ],
      "name": "supportsInterface",
      "outputs": [
        {
          "internalType": "bool",
          "name": "",
          "type": "bool"
        }
      ],
      "stateMutability": "view",
      "type": "function"
    },
    {
      "inputs": [],
      "name": "symbol",
      "outputs": [
        {
          "internalType": "string",
          "name": "",
          "type": "string"
        }
      ],
      "stateMutability": "view",
      "type": "function"
    },
    {
      "inputs": [],
      "name": "totalAudits",
      "outputs": [
        {
          "internalType": "uint256",
          "name": "",
          "type": "uint256"
        }
      ],
      "stateMutability": "view",
      "type": "function"
    },
    {
      "inputs": [
        {
          "internalType": "uint256",
          "name": "id",
          "type": "uint256"
        }
      ],
      "name": "totalSupply",
      "outputs": [
        {
          "internalType": "uint256",
          "name": "",
          "type": "uint256"
        }
      ],
      "stateMutability": "view",
      "type": "function"
    },
    {
      "inputs": [
        {
          "internalType": "address",
          "name": "newOwner",
          "type": "address"
        }
      ],
      "name": "transferOwnership",
      "outputs": [],
      "stateMutability": "nonpayable",
      "type": "function"
    },
    {
      "inputs": [
        {
          "internalType": "address",
          "name": "newImplementation",
          "type": "address"
        }
      ],
      "name": "upgradeTo",
      "outputs": [],
      "stateMutability": "nonpayable",
      "type": "function"
    },
    {
      "inputs": [
        {
          "internalType": "address",
          "name": "newImplementation",
          "type": "address"
        },
        {
          "internalType": "bytes",
          "name": "data",
          "type": "bytes"
        }
      ],
      "name": "upgradeToAndCall",
      "outputs": [],
      "stateMutability": "payable",
      "type": "function"
    },
    {
      "inputs": [
        {
          "internalType": "uint256",
          "name": "_tokenId",
          "type": "uint256"
        }
      ],
      "name": "uri",
      "outputs": [
        {
          "internalType": "string",
          "name": "",
          "type": "string"
        }
      ],
      "stateMutability": "view",
      "type": "function"
    }
  ],
  "bytecode": "0x60a06040523073ffffffffffffffffffffffffffffffffffffffff1660809073ffffffffffffffffffffffffffffffffffffffff168152503480156200004457600080fd5b50620000797f74b20cb5cedae16adeb3b775d202ad54f1c82132344199729d3e6b72d8424a8060001b620000f760201b60201c565b620000ad7f43fff38ab22ebbf09126516b956c07d9fa4e51d649cc6707b5d2027fff871a7960001b620000f760201b60201c565b620000e17f8784697e96497a535ef08dc394864a1511bf66a912c77f638caca641a2a5c4e560001b620000f760201b60201c565b620000f1620000fa60201b60201c565b62000239565b50565b600060019054906101000a900460ff16156200014d576040517f08c379a00000000000000000000000000000000000000000000000000000000081526004016200014490620001c1565b60405180910390fd5b60ff801660008054906101000a900460ff1660ff161015620001bf5760ff6000806101000a81548160ff021916908360ff1602179055507f7f26b83ff96e1f2b6a682f133852f6798a09c465da95921460cefb384740249860ff604051620001b6919062000225565b60405180910390a15b565b60208152602760208201527f496e697469616c697a61626c653a20636f6e747261637420697320696e69746960408201527f616c697a696e670000000000000000000000000000000000000000000000000060608201526000608082019050919050565b600060208201905060ff8316825292915050565b6080516140f66200027160003960008181610a0801528181610a9601528181610cb001528181610d3e0152610e0201526140f66000f3fe6080604052600436106101695760003560e01c806352d1902d116100cb578063bd85b0391161007f578063f2fde38b11610059578063f2fde38b146104c7578063f62d1888146104f0578063f722c17d1461051957610169565b8063bd85b03914610424578063e985e9c514610461578063f242432a1461049e57610169565b80638da5cb5b116100b05780638da5cb5b146103a557806395d89b41146103d0578063a22cb465146103fb57610169565b806352d1902d14610363578063715018a61461038e57610169565b80633659cfe6116101225780634e1273f4116101075780634e1273f4146102cd5780634f1ef2861461030a5780634f558e791461032657610169565b80633659cfe6146102795780634a07147f146102a257610169565b806306fdde031161015357806306fdde03146101e85780630e89341c146102135780632eb2c2d61461025057610169565b8062fdd58e1461016e57806301ffc9a7146101ab575b600080fd5b34801561017a57600080fd5b5061019560048036038101906101909190612c1c565b610556565b6040516101a29190612c48565b60405180910390f35b3480156101b757600080fd5b506101d260048036038101906101cd9190612c8a565b61061f565b6040516101df9190612cb1565b60405180910390f35b3480156101f457600080fd5b506101fd610701565b60405161020a9190612d43565b60405180910390f35b34801561021f57600080fd5b5061023a60048036038101906102359190612d5e565b610790565b6040516102479190612d43565b60405180910390f35b34801561025c57600080fd5b5061027760048036038101906102729190612f3f565b610947565b005b34801561028557600080fd5b506102a0600480360381019061029b9190612fe9565b610a06565b005b3480156102ae57600080fd5b506102b7610b8e565b6040516102c49190612c48565b60405180910390f35b3480156102d957600080fd5b506102f460048036038101906102ef919061300c565b610b95565b60405161030191906130e0565b60405180910390f35b610324600480360381019061031f919061312d565b610cae565b005b34801561033257600080fd5b5061034d60048036038101906103489190612d5e565b610dea565b60405161035a9190612cb1565b60405180910390f35b34801561036f57600080fd5b50610378610dfe565b604051610385919061317b565b60405180910390f35b34801561039a57600080fd5b506103a3610eb7565b005b3480156103b157600080fd5b506103ba610ecb565b6040516103c7919061318c565b60405180910390f35b3480156103dc57600080fd5b506103e5610ef5565b6040516103f29190612d43565b60405180910390f35b34801561040757600080fd5b50610422600480360381019061041d91906131b3565b610f84565b005b34801561043057600080fd5b5061044b60048036038101906104469190612d5e565b610f9a565b6040516104589190612c48565b60405180910390f35b34801561046d57600080fd5b50610488600480360381019061048391906131ef565b610fb8565b6040516104959190612cb1565b60405180910390f35b3480156104aa57600080fd5b506104c560048036038101906104c09190613222565b61104c565b005b3480156104d357600080fd5b506104ee60048036038101906104e99190612fe9565b61110b565b005b3480156104fc57600080fd5b5061051760048036038101906105129190613294565b61118e565b005b34801561052557600080fd5b50610540600480360381019061053b91906132e9565b61167c565b60405161054d9190612cb1565b60405180910390f35b60008073ffffffffffffffffffffffffffffffffffffffff168373ffffffffffffffffffffffffffffffffffffffff16036105c6576040517f08c379a00000000000000000000000000000000000000000000000000000000081526004016105bd9061335f565b60405180910390fd5b60fb600083815260200190815260200160002060008473ffffffffffffffffffffffffffffffffffffffff1673ffffffffffffffffffffffffffffffffffffffff16815260200190815260200160002054905092915050565b60007fd9b67a26000000000000000000000000000000000000000000000000000000007bffffffffffffffffffffffffffffffffffffffffffffffffffffffff1916827bffffffffffffffffffffffffffffffffffffffffffffffffffffffff191614806106ea57507f0e89341c000000000000000000000000000000000000000000000000000000007bffffffffffffffffffffffffffffffffffffffffffffffffffffffff1916827bffffffffffffffffffffffffffffffffffffffffffffffffffffffff1916145b806106fa57506106f982611903565b5b9050919050565b61015f805461070f906133c3565b80601f016020809104026020016040519081016040528092919081815260200182805461073b906133c3565b80156107885780601f1061075d57610100808354040283529160200191610788565b820191906000526020600020905b81548152906001019060200180831161076b57829003601f168201915b505050505081565b60606107be7fe95439ba0d247fd3eaacb2802fe50ef11a255d195463e1a8299745b23b8f57bb60001b61196d565b6107ea7fcbf8add58f7e5f48a506d5a61834b06f4dccfb617d3a02e387b327100d67101e60001b61196d565b6108167f56fd6b9fe3b6ec9c94a8173566acfb0b81bdabe92b60ce819be062e9246fd4c760001b61196d565b6108427fea19cbe3394beb4c44722bb412b2a00dd5e11b5cdafd20e56b9b1392f39b8ca860001b61196d565b61084b82610dea565b61088a576040517f08c379a00000000000000000000000000000000000000000000000000000000081526004016108819061341a565b60405180910390fd5b6108b67fe03c35c425cb91b8323fec883995b55156601d59f51b59c6e2a6eaf522446c2060001b61196d565b6108e27fef4c17fdf78fce808d6b033c6e2ac314b6e5322b8ce33c836f5294c05b44c66460001b61196d565b61090e7f4512429a8d715e0c125efaba238757c61dec29b4d15b2682b61f2378bf75db2e60001b61196d565b61091782611970565b61092083611a04565b604051602001610931929190613458565b6040516020818303038152906040529050919050565b6109737f9442180203adca91a1a312c5d071239e24ff88df4ca667af07a2f709ed3e335160001b61196d565b61099f7ff80253aed01698f5e86d1d4965845f4a6bb934068d5e991a14a1d225a2842da360001b61196d565b6109cb7f5e64e934d16182bbe72457b561b75184e2e89496282af1834cf0790a87962d6b60001b61196d565b6040517f08c379a00000000000000000000000000000000000000000000000000000000081526004016109fd9061348d565b60405180910390fd5b7f000000000000000000000000000000000000000000000000000000000000000073ffffffffffffffffffffffffffffffffffffffff163073ffffffffffffffffffffffffffffffffffffffff1603610a94576040517f08c379a0000000000000000000000000000000000000000000000000000000008152600401610a8b906134f1565b60405180910390fd5b7f000000000000000000000000000000000000000000000000000000000000000073ffffffffffffffffffffffffffffffffffffffff16610ad3611b64565b73ffffffffffffffffffffffffffffffffffffffff1614610b29576040517f08c379a0000000000000000000000000000000000000000000000000000000008152600401610b2090613555565b60405180910390fd5b610b3281611bbb565b610b8b81600067ffffffffffffffff811115610b5157610b50612d7a565b5b6040519080825280601f01601f191660200182016040528015610b835781602001600182028036833780820191505090505b506000611c1e565b50565b6101615481565b60608151835114610bdb576040517f08c379a0000000000000000000000000000000000000000000000000000000008152600401610bd2906135b9565b60405180910390fd5b6000835167ffffffffffffffff811115610bf857610bf7612d7a565b5b604051908082528060200260200182016040528015610c265781602001602082028036833780820191505090505b50905060005b8451811015610ca357610c73858281518110610c4b57610c4a61361d565b5b6020026020010151858381518110610c6657610c6561361d565b5b6020026020010151610556565b828281518110610c8657610c8561361d565b5b60200260200101818152505080610c9c9061367b565b9050610c2c565b508091505092915050565b7f000000000000000000000000000000000000000000000000000000000000000073ffffffffffffffffffffffffffffffffffffffff163073ffffffffffffffffffffffffffffffffffffffff1603610d3c576040517f08c379a0000000000000000000000000000000000000000000000000000000008152600401610d33906134f1565b60405180910390fd5b7f000000000000000000000000000000000000000000000000000000000000000073ffffffffffffffffffffffffffffffffffffffff16610d7b611b64565b73ffffffffffffffffffffffffffffffffffffffff1614610dd1576040517f08c379a0000000000000000000000000000000000000000000000000000000008152600401610dc890613555565b60405180910390fd5b610dda82611bbb565b610de682826001611c1e565b5050565b600080610df683610f9a565b119050919050565b60007f000000000000000000000000000000000000000000000000000000000000000073ffffffffffffffffffffffffffffffffffffffff163073ffffffffffffffffffffffffffffffffffffffff1614610e8e576040517f08c379a0000000000000000000000000000000000000000000000000000000008152600401610e85906136b8565b60405180910390fd5b7f360894a13ba1a3210667c828492db98dca3e2076cc3735a920a3ca505d382bbc60001b905090565b610ebf611d8c565b610ec96000611e0a565b565b6000609760009054906101000a900473ffffffffffffffffffffffffffffffffffffffff16905090565b6101608054610f03906133c3565b80601f0160208091040260200160405190810160405280929190818152602001828054610f2f906133c3565b8015610f7c5780601f10610f5157610100808354040283529160200191610f7c565b820191906000526020600020905b815481529060010190602001808311610f5f57829003601f168201915b505050505081565b610f96610f8f611ed0565b8383611ed8565b5050565b600061012d6000838152602001908152602001600020549050919050565b600060fc60008473ffffffffffffffffffffffffffffffffffffffff1673ffffffffffffffffffffffffffffffffffffffff16815260200190815260200160002060008373ffffffffffffffffffffffffffffffffffffffff1673ffffffffffffffffffffffffffffffffffffffff16815260200190815260200160002060009054906101000a900460ff16905092915050565b6110787f6776c16e04b2b913f8600501a73015ede311ef6b0b28448230351ae4c38378d160001b61196d565b6110a47f8805a1d6fbe455920bb90d29c37b6d3aea587288990ef8ba6598f22636aea7fa60001b61196d565b6110d07fe4695aa37437efc5329219564dc6f668e30f470dfed326f4cce8ce0e152a59ee60001b61196d565b6040517f08c379a00000000000000000000000000000000000000000000000000000000081526004016111029061371c565b60405180910390fd5b611113611d8c565b600073ffffffffffffffffffffffffffffffffffffffff168173ffffffffffffffffffffffffffffffffffffffff1603611182576040517f08c379a00000000000000000000000000000000000000000000000000000000081526004016111799061375a565b60405180910390fd5b61118b81611e0a565b50565b60008060019054906101000a900460ff161590508080156111bf5750600160008054906101000a900460ff1660ff16105b806111ec57506111ce30612044565b1580156111eb5750600160008054906101000a900460ff1660ff16145b5b61122b576040517f08c379a0000000000000000000000000000000000000000000000000000000008152600401611222906137be565b60405180910390fd5b60016000806101000a81548160ff021916908360ff1602179055508015611268576001600060016101000a81548160ff0219169083151502179055505b6112947fa8c5fcdba7fc463c4114f837bd0d059e224664c6a2fb1e65fa8f232ca8b4d6eb60001b61196d565b6112c07f074ab6b03bcfab174ae14ba957ab0c8f7d2858dd218998854c90d17db5d58a9560001b61196d565b6112ec7f971d67818416170a7b3fe89eb8db862f5c484812e0aa825a8792896db6dd060a60001b61196d565b6112f4612067565b6113207f810e804a35d2d92f6e329f81b60ae0e7573343f7ca0397b22f1ffd4c7e6eb2b260001b61196d565b61134c7fa288361c635e8c951ddcd30c2c47a28d2440da3a611a5dca757e152b5da770f360001b61196d565b6113546120b8565b6113807f72fb7df82156e503674e40a701c37f5d875662e5a327306aa7f58add82984bfe60001b61196d565b6113ac7f31207c4f51474359a8916f81a64dadf3bcf1282a8f8715941393328adb6e8bf660001b61196d565b6113b4612109565b6113e07fe7d96f078165286d7eed32068e490ef540e2532ff6287c59403823009d9ff6ec60001b61196d565b61140c7fad79dc51ac339ccfecd14b6330437f1bb18f2ea96c2d77822c59cb6177e9006e60001b61196d565b61141582612162565b6114417f9d694511298826286969f1c055458218f584b0b02355d7ebb65d803ae0f7f4ca60001b61196d565b61146d7fbc44b72886ad990b85c03913d24a43ba45f490d92f5ee097230725bec562a1da60001b61196d565b6114756121bd565b6114a17f902b62fef7f998c065dcf72f8a05c5afc04d504297a6e6a0640a06f6f201a18260001b61196d565b6114cd7f9c26e9c19d94bb3620607664ca006df9e0598ae4cdbd78107ec8b955c5d70cf460001b61196d565b6040518060400160405280600981526020017f4859444e205365616c000000000000000000000000000000000000000000000081525061015f908161151291906138be565b5061153f7f828b3a7979aa8d097d4fdab3426663f50bf96347a7932bb61b30e033c663466b60001b61196d565b61156b7f8f7e4ded51a3678b623bb95fe6e1af58e2f3155c0aa829316948759adec9e5cb60001b61196d565b6040518060400160405280600881526020017f4859444e5345414c00000000000000000000000000000000000000000000000081525061016090816115b091906138be565b506115dd7f4c7f584bfbbbdfc9694969be102f1a259d55ec372e67336925c7262e1225770560001b61196d565b6116097fc676c464e2d2a061326559a9c7a6da456b577b5fd1be97d5b820650626424d7260001b61196d565b629896804661161891906139c4565b6101618190555080156116785760008060016101000a81548160ff0219169083151502179055507f7f26b83ff96e1f2b6a682f133852f6798a09c465da95921460cefb3847402498600160405161166f9190613a08565b60405180910390a15b5050565b6000611686611d8c565b6116b27f721a9a7cc0a00a486e11621d231763d89ff6525c0069fc8a6d608839bdad860260001b61196d565b6116de7fb55e67f979044362ed33a42c5ee723d4c9007e038ec0b9c67c564a48aadb8d0660001b61196d565b61170a7f8280ba879675e8f2b839a4e28d9597a53d7c41460b85c342e8d96ef0d5a0b09f60001b61196d565b6001610161600082825461171e9190613a1c565b925050819055506117517f649fe4fbfbb22dab1ad0dc65f732103cb2e4c531e14e63fd0397d2dd0249fd7860001b61196d565b61177d7f3d731172536157f1517ae27728c5aef81b9cb353dd5159428d02819eb05136ed60001b61196d565b60006101615490506117b17f60f083b2eb7f37484259092d163c7d940b6f150b9525b748e72b35e35e687e4160001b61196d565b6117dd7f81d6378538aa6673c88102c89a0e4a6dd59d67a226b468ca3a74458cebedb21960001b61196d565b60005b848490508160ff16101561189f5761181a7fd5ff18c47fc4154a12fdbc515e6c4ebd3c9bd31795d005073dc4684eb9bde2d660001b61196d565b6118467fe3e62944538d16c527166e848a74b353fdc1a723c10f12414dad8fe5cfdc191e60001b61196d565b61188c85858360ff1681811061185f5761185e61361d565b5b90506020020160208101906118749190612fe9565b8360016040518060200160405280600081525061220e565b808061189790613a3b565b9150506117e0565b506118cc7f7494f3d0c4f291be4a9f1342545b3e78bea7540aee00e070e01aa4cb292b51d260001b61196d565b6118f87fb9be9b4c06222d4888306bb2955e73bc906ba7d9ec4042a45d20839d29fbc5e860001b61196d565b600191505092915050565b60007f01ffc9a7000000000000000000000000000000000000000000000000000000007bffffffffffffffffffffffffffffffffffffffffffffffffffffffff1916827bffffffffffffffffffffffffffffffffffffffffffffffffffffffff1916149050919050565b50565b606060fd805461197f906133c3565b80601f01602080910402602001604051908101604052809291908181526020018280546119ab906133c3565b80156119f85780601f106119cd576101008083540402835291602001916119f8565b820191906000526020600020905b8154815290600101906020018083116119db57829003601f168201915b50505050509050919050565b606060008203611a4b576040518060400160405280600181526020017f30000000000000000000000000000000000000000000000000000000000000008152509050611b5f565b600082905060005b60008214611a7d578080611a669061367b565b915050600a82611a769190613a8d565b9150611a53565b60008167ffffffffffffffff811115611a9957611a98612d7a565b5b6040519080825280601f01601f191660200182016040528015611acb5781602001600182028036833780820191505090505b5090505b60008514611b5857600182611ae49190613aa8565b9150600a85611af39190613ac6565b6030611aff9190613a1c565b60f81b818381518110611b1557611b1461361d565b5b60200101907effffffffffffffffffffffffffffffffffffffffffffffffffffffffffffff1916908160001a905350600a85611b519190613a8d565b9450611acf565b8093505050505b919050565b6000611b927f360894a13ba1a3210667c828492db98dca3e2076cc3735a920a3ca505d382bbc60001b6123bf565b60000160009054906101000a900473ffffffffffffffffffffffffffffffffffffffff16905090565b611bc3611d8c565b611bef7f75ff2842745025384e5fd674fb41d66ea0e9a21d99e143a066f61a9fc440826160001b61196d565b611c1b7f0c8c5ebdbe1f2f27ceff8f9171574384a53272f915339fd15ad7d8df0ebd538760001b61196d565b50565b611c4a7f4910fdfa16fed3260ed0e7147f7cc6da11a60208b5b9406d12a635614ffd914360001b6123c9565b60000160009054906101000a900460ff1615611c6e57611c69836123d3565b611d87565b8273ffffffffffffffffffffffffffffffffffffffff166352d1902d6040518163ffffffff1660e01b8152600401602060405180830381865afa925050508015611cd657506040513d601f19601f82011682018060405250810190611cd39190613ae1565b60015b611d15576040517f08c379a0000000000000000000000000000000000000000000000000000000008152600401611d0c90613afd565b60405180910390fd5b7f360894a13ba1a3210667c828492db98dca3e2076cc3735a920a3ca505d382bbc60001b8114611d7a576040517f08c379a0000000000000000000000000000000000000000000000000000000008152600401611d7190613b61565b60405180910390fd5b50611d8683838361248c565b5b505050565b611d94611ed0565b73ffffffffffffffffffffffffffffffffffffffff16611db2610ecb565b73ffffffffffffffffffffffffffffffffffffffff1614611e08576040517f08c379a0000000000000000000000000000000000000000000000000000000008152600401611dff90613bc5565b60405180910390fd5b565b6000609760009054906101000a900473ffffffffffffffffffffffffffffffffffffffff16905081609760006101000a81548173ffffffffffffffffffffffffffffffffffffffff021916908373ffffffffffffffffffffffffffffffffffffffff1602179055508173ffffffffffffffffffffffffffffffffffffffff168173ffffffffffffffffffffffffffffffffffffffff167f8be0079c531659141344cd1fd0a4f28419497f9722a3daafe3b4186f6b6457e060405160405180910390a35050565b600033905090565b8173ffffffffffffffffffffffffffffffffffffffff168373ffffffffffffffffffffffffffffffffffffffff1603611f46576040517f08c379a0000000000000000000000000000000000000000000000000000000008152600401611f3d90613c02565b60405180910390fd5b8060fc60008573ffffffffffffffffffffffffffffffffffffffff1673ffffffffffffffffffffffffffffffffffffffff16815260200190815260200160002060008473ffffffffffffffffffffffffffffffffffffffff1673ffffffffffffffffffffffffffffffffffffffff16815260200190815260200160002060006101000a81548160ff0219169083151502179055508173ffffffffffffffffffffffffffffffffffffffff168373ffffffffffffffffffffffffffffffffffffffff167f17307eab39ab6107e8899845ad3d59bd9653f200f220920489ca2b5937696c31836040516120379190612cb1565b60405180910390a3505050565b6000808273ffffffffffffffffffffffffffffffffffffffff163b119050919050565b600060019054906101000a900460ff166120b6576040517f08c379a00000000000000000000000000000000000000000000000000000000081526004016120ad90613c66565b60405180910390fd5b565b600060019054906101000a900460ff16612107576040517f08c379a00000000000000000000000000000000000000000000000000000000081526004016120fe90613c66565b60405180910390fd5b565b600060019054906101000a900460ff16612158576040517f08c379a000000000000000000000000000000000000000000000000000000000815260040161214f90613c66565b60405180910390fd5b6121606124b8565b565b600060019054906101000a900460ff166121b1576040517f08c379a00000000000000000000000000000000000000000000000000000000081526004016121a890613c66565b60405180910390fd5b6121ba81612519565b50565b600060019054906101000a900460ff1661220c576040517f08c379a000000000000000000000000000000000000000000000000000000000815260040161220390613c66565b60405180910390fd5b565b600073ffffffffffffffffffffffffffffffffffffffff168473ffffffffffffffffffffffffffffffffffffffff160361227d576040517f08c379a000000000000000000000000000000000000000000000000000000000815260040161227490613cca565b60405180910390fd5b6000612287611ed0565b9050600061229485612574565b905060006122a185612574565b90506122b2836000898585896125ee565b8460fb600088815260200190815260200160002060008973ffffffffffffffffffffffffffffffffffffffff1673ffffffffffffffffffffffffffffffffffffffff16815260200190815260200160002060008282546123129190613a1c565b925050819055508673ffffffffffffffffffffffffffffffffffffffff16600073ffffffffffffffffffffffffffffffffffffffff168473ffffffffffffffffffffffffffffffffffffffff167fc3d58168c5ae7397731d063d5bbf3d657854427343f4c083240f7aacaa2d0f628989604051612390929190613d2e565b60405180910390a46123a783600089858589612688565b6123b683600089898989612690565b50505050505050565b6000819050919050565b6000819050919050565b6123dc81612044565b61241b576040517f08c379a000000000000000000000000000000000000000000000000000000000815260040161241290613d46565b60405180910390fd5b806124487f360894a13ba1a3210667c828492db98dca3e2076cc3735a920a3ca505d382bbc60001b6123bf565b60000160006101000a81548173ffffffffffffffffffffffffffffffffffffffff021916908373ffffffffffffffffffffffffffffffffffffffff16021790555050565b61249583612867565b6000825111806124a25750805b156124b3576124b183836128b6565b505b505050565b600060019054906101000a900460ff16612507576040517f08c379a00000000000000000000000000000000000000000000000000000000081526004016124fe90613c66565b60405180910390fd5b612517612512611ed0565b611e0a565b565b600060019054906101000a900460ff16612568576040517f08c379a000000000000000000000000000000000000000000000000000000000815260040161255f90613c66565b60405180910390fd5b6125718161299a565b50565b60606000600167ffffffffffffffff81111561259357612592612d7a565b5b6040519080825280602002602001820160405280156125c15781602001602082028036833780820191505090505b50905082816000815181106125d9576125d861361d565b5b60200260200101818152505080915050919050565b61261a7f2ad4f593998531399b3aaddb0522ab4e53563c61f2bd3946085bb7d6bdde862760001b61196d565b6126467fb33e7c601cd044d1fdc1f78ec9f2672f88d51e1e81d1414d5bf3afd65c35277360001b61196d565b6126727f24cbdcd95e94fc5bd9d6fe057ffcf6ab32bb1abbf6067456ae552142450ba29160001b61196d565b6126808686868686866129ad565b505050505050565b505050505050565b6126af8473ffffffffffffffffffffffffffffffffffffffff16612044565b1561285f578373ffffffffffffffffffffffffffffffffffffffff1663f23a6e6187878686866040518663ffffffff1660e01b81526004016126f5959493929190613daa565b6020604051808303816000875af192505050801561273157506040513d601f19601f8201168201806040525081019061272e9190613dfb565b60015b6127d65761273d613e22565b806308c379a0036127995750612751613e3f565b8061275c575061279b565b806040517f08c379a00000000000000000000000000000000000000000000000000000000081526004016127909190612d43565b60405180910390fd5b505b6040517f08c379a00000000000000000000000000000000000000000000000000000000081526004016127cd90613eeb565b60405180910390fd5b63f23a6e6160e01b7bffffffffffffffffffffffffffffffffffffffffffffffffffffffff1916817bffffffffffffffffffffffffffffffffffffffffffffffffffffffff19161461285d576040517f08c379a000000000000000000000000000000000000000000000000000000000815260040161285490613f4f565b60405180910390fd5b505b505050505050565b612870816123d3565b8073ffffffffffffffffffffffffffffffffffffffff167fbc7cd75a20ee27fd9adebab32041f755214dbc6bffa90cc0225b39da2e5c2d3b60405160405180910390a250565b60606128c183612044565b612900576040517f08c379a00000000000000000000000000000000000000000000000000000000081526004016128f790613fb3565b60405180910390fd5b6000808473ffffffffffffffffffffffffffffffffffffffff16846040516129289190614017565b600060405180830381855af49150503d8060008114612963576040519150601f19603f3d011682016040523d82523d6000602084013e612968565b606091505b5091509150612990828260405180606001604052806027815260200161409a60279139612b80565b9250505092915050565b8060fd90816129a991906138be565b5050565b6129bb868686868686612be7565b600073ffffffffffffffffffffffffffffffffffffffff168573ffffffffffffffffffffffffffffffffffffffff1603612a6d5760005b8351811015612a6b57828181518110612a0e57612a0d61361d565b5b602002602001015161012d6000868481518110612a2e57612a2d61361d565b5b602002602001015181526020019081526020016000206000828254612a539190613a1c565b9250508190555080612a649061367b565b90506129f2565b505b600073ffffffffffffffffffffffffffffffffffffffff168473ffffffffffffffffffffffffffffffffffffffff1603612b785760005b8351811015612b76576000848281518110612ac257612ac161361d565b5b602002602001015190506000848381518110612ae157612ae061361d565b5b60200260200101519050600061012d600084815260200190815260200160002054905081811015612b47576040517f08c379a0000000000000000000000000000000000000000000000000000000008152600401612b3e90614035565b60405180910390fd5b81810361012d60008581526020019081526020016000208190555050505080612b6f9061367b565b9050612aa4565b505b505050505050565b60608315612b9057829050612be0565b600083511115612ba35782518084602001fd5b816040517f08c379a0000000000000000000000000000000000000000000000000000000008152600401612bd79190612d43565b60405180910390fd5b9392505050565b505050505050565b60008135905073ffffffffffffffffffffffffffffffffffffffff81168114612c1757600080fd5b919050565b60008060408385031215612c2f57600080fd5b612c3883612bef565b9150602083013590509250929050565b600060208201905082825292915050565b7fffffffff0000000000000000000000000000000000000000000000000000000081168114612c8757600080fd5b50565b600060208284031215612c9c57600080fd5b8135612ca781612c59565b8091505092915050565b6000602082019050821515825292915050565b60005b83811015612ce2578082015181840152602081019050612cc7565b83811115612cf1576000848401525b50505050565b60008151808452612d0f816020860160208601612cc4565b60207fffffffffffffffffffffffffffffffffffffffffffffffffffffffffffffffe0601f83011685010191505092915050565b602081526000612d566020830184612cf7565b905092915050565b600060208284031215612d7057600080fd5b8135905092915050565b7f4e487b7100000000000000000000000000000000000000000000000000000000600052604160045260246000fd5b7fffffffffffffffffffffffffffffffffffffffffffffffffffffffffffffffe0601f830116810181811067ffffffffffffffff82111715612dee57612ded612d7a565b5b80604052505050565b600067ffffffffffffffff821115612e1257612e11612d7a565b5b60208260051b019050919050565b600082601f830112612e3157600080fd5b81356020612e3e82612df7565b604051612e4b8282612da9565b8091508381528281019150828460051b870101935086841115612e6d57600080fd5b8286015b84811015612e8c578035835283830192508381019050612e71565b508094505050505092915050565b600067ffffffffffffffff831115612eb557612eb4612d7a565b5b604051612eea60207fffffffffffffffffffffffffffffffffffffffffffffffffffffffffffffffe0601f8701160182612da9565b809150838152848484011115612eff57600080fd5b83836020830137600060208583010152509392505050565b600082601f830112612f2857600080fd5b612f3783833560208501612e9a565b905092915050565b600080600080600060a08688031215612f5757600080fd5b612f6086612bef565b9450612f6e60208701612bef565b9350604086013567ffffffffffffffff80821115612f8b57600080fd5b612f9789838a01612e20565b94506060880135915080821115612fad57600080fd5b612fb989838a01612e20565b93506080880135915080821115612fcf57600080fd5b50612fdc88828901612f17565b9150509295509295909350565b600060208284031215612ffb57600080fd5b61300482612bef565b905092915050565b6000806040838503121561301f57600080fd5b823567ffffffffffffffff8082111561303757600080fd5b818501915085601f83011261304b57600080fd5b8135602061305882612df7565b6040516130658282612da9565b8091508381528281019150828460051b87010193508984111561308757600080fd5b82860195505b838610156130af5761309e86612bef565b82528282019150828601955061308d565b80975050508087013593505050808211156130c957600080fd5b506130d685828601612e20565b9150509250929050565b60006020808301818452808551808352604086019150838701925060005b8181101561311f5783518352848301925084840193506001810190506130fe565b505080935050505092915050565b6000806040838503121561314057600080fd5b61314983612bef565b9150602083013567ffffffffffffffff81111561316557600080fd5b61317185828601612f17565b9150509250929050565b600060208201905082825292915050565b600060208201905073ffffffffffffffffffffffffffffffffffffffff8316825292915050565b600080604083850312156131c657600080fd5b6131cf83612bef565b9150602083013580151581146131e457600080fd5b809150509250929050565b6000806040838503121561320257600080fd5b61320b83612bef565b915061321960208401612bef565b90509250929050565b600080600080600060a0868803121561323a57600080fd5b61324386612bef565b945061325160208701612bef565b93506040860135925060608601359150608086013567ffffffffffffffff81111561327b57600080fd5b61328788828901612f17565b9150509295509295909350565b6000602082840312156132a657600080fd5b813567ffffffffffffffff8111156132bd57600080fd5b808301905083601f8201126132d157600080fd5b6132e084823560208401612e9a565b91505092915050565b600080602083850312156132fc57600080fd5b823567ffffffffffffffff8082111561331457600080fd5b818501915085601f83011261332857600080fd5b81358181111561333757600080fd5b8660208260051b850101111561334c57600080fd5b6020830194508093505050509250929050565b60208152602a60208201527f455243313135353a2061646472657373207a65726f206973206e6f742061207660408201527f616c6964206f776e65720000000000000000000000000000000000000000000060608201526000608082019050919050565b60008160011c905060018216806133db57607f821691505b602082108103613414577f4e487b7100000000000000000000000000000000000000000000000000000000600052602260045260246000fd5b50919050565b60208152601c60208201527f4859444e5365616c3a20746f6b656e206e6f74206578697374696e670000000060408201526000606082019050919050565b6000835161346a818460208801612cc4565b8083019050835161347f818360208801612cc4565b808201925050509392505050565b60208152602460208201527f4859444e5365616c3a207472616e73666572206261746368206e6f7420616c6c60408201527f6f7765640000000000000000000000000000000000000000000000000000000060608201526000608082019050919050565b60208152602c60208201527f46756e6374696f6e206d7573742062652063616c6c6564207468726f7567682060408201527f64656c656761746563616c6c000000000000000000000000000000000000000060608201526000608082019050919050565b60208152602c60208201527f46756e6374696f6e206d7573742062652063616c6c6564207468726f7567682060408201527f6163746976652070726f7879000000000000000000000000000000000000000060608201526000608082019050919050565b60208152602960208201527f455243313135353a206163636f756e747320616e6420696473206c656e67746860408201527f206d69736d61746368000000000000000000000000000000000000000000000060608201526000608082019050919050565b7f4e487b7100000000000000000000000000000000000000000000000000000000600052603260045260246000fd5b7f4e487b7100000000000000000000000000000000000000000000000000000000600052601160045260246000fd5b60007fffffffffffffffffffffffffffffffffffffffffffffffffffffffffffffffff82036136ad576136ac61364c565b5b600182019050919050565b60208152603860208201527f555550535570677261646561626c653a206d757374206e6f742062652063616c60408201527f6c6564207468726f7567682064656c656761746563616c6c000000000000000060608201526000608082019050919050565b60208152601e60208201527f4859444e5365616c3a207472616e73666572206e6f7420616c6c6f776564000060408201526000606082019050919050565b60208152602660208201527f4f776e61626c653a206e6577206f776e657220697320746865207a65726f206160408201527f646472657373000000000000000000000000000000000000000000000000000060608201526000608082019050919050565b60208152602e60208201527f496e697469616c697a61626c653a20636f6e747261637420697320616c72656160408201527f647920696e697469616c697a656400000000000000000000000000000000000060608201526000608082019050919050565b806000525060006020600020905090565b601f82111561388157600081815260208120601f850160051c8101602086101561385b578190505b601f850160051c820191505b8181101561387d57828155600181019050613867565b5050505b505050565b60008260011b7fffffffffffffffffffffffffffffffffffffffffffffffffffffffffffffffff8460031b1c19831617905092915050565b815167ffffffffffffffff8111156138d9576138d8612d7a565b5b6138ed816138e784546133c3565b84613833565b60006020809150601f831160018114613921576000841561390f578387015190505b6139198582613886565b8655506139bc565b7fffffffffffffffffffffffffffffffffffffffffffffffffffffffffffffffe0841661394d86613822565b60005b828110156139735785890151825560018201915084860195508481019050613950565b50858210156139b057848801517fffffffffffffffffffffffffffffffffffffffffffffffffffffffffffffffff60f88860031b161c1981168255505b505060018460011b0185555b505050505050565b6000817fffffffffffffffffffffffffffffffffffffffffffffffffffffffffffffffff04831182151516156139fd576139fc61364c565b5b828202905092915050565b600060208201905060ff8316825292915050565b60008219821115613a3057613a2f61364c565b5b828201905092915050565b600060ff821660ff8103613a5257613a5161364c565b5b60018101915050919050565b7f4e487b7100000000000000000000000000000000000000000000000000000000600052601260045260246000fd5b600082613a9d57613a9c613a5e565b5b828204905092915050565b600082821015613abb57613aba61364c565b5b828203905092915050565b600082613ad657613ad5613a5e565b5b828206905092915050565b600060208284031215613af357600080fd5b8151905092915050565b60208152602e60208201527f45524331393637557067726164653a206e657720696d706c656d656e7461746960408201527f6f6e206973206e6f74205555505300000000000000000000000000000000000060608201526000608082019050919050565b60208152602960208201527f45524331393637557067726164653a20756e737570706f727465642070726f7860408201527f6961626c6555554944000000000000000000000000000000000000000000000060608201526000608082019050919050565b602081526020808201527f4f776e61626c653a2063616c6c6572206973206e6f7420746865206f776e657260408201526000606082019050919050565b60208152602960208201527f455243313135353a2073657474696e6720617070726f76616c2073746174757360408201527f20666f722073656c66000000000000000000000000000000000000000000000060608201526000608082019050919050565b60208152602b60208201527f496e697469616c697a61626c653a20636f6e7472616374206973206e6f74206960408201527f6e697469616c697a696e6700000000000000000000000000000000000000000060608201526000608082019050919050565b60208152602160208201527f455243313135353a206d696e7420746f20746865207a65726f2061646472657360408201527f730000000000000000000000000000000000000000000000000000000000000060608201526000608082019050919050565b60006040820190508382528260208301529392505050565b60208152602d60208201527f455243313936373a206e657720696d706c656d656e746174696f6e206973206e60408201527f6f74206120636f6e74726163740000000000000000000000000000000000000060608201526000608082019050919050565b600073ffffffffffffffffffffffffffffffffffffffff808816835280871660208401525084604083015283606083015260a06080830152613def60a0830184612cf7565b90509695505050505050565b600060208284031215613e0d57600080fd5b8151613e1881612c59565b8091505092915050565b600060033d1115613e3c5760046000803e60005160e01c90505b90565b600060443d10613ee8576040517ffffffffffffffffffffffffffffffffffffffffffffffffffffffffffffffffc803d016004833e81513d67ffffffffffffffff8160248401118184111715613e99575050505050613ee8565b8285019150815181811115613eb357505050505050613ee8565b843d8701016020828501011115613ecf57505050505050613ee8565b613ede60208286010187612da9565b5050809450505050505b90565b60208152603460208201527f455243313135353a207472616e7366657220746f206e6f6e204552433131353560408201527f526563656976657220696d706c656d656e74657200000000000000000000000060608201526000608082019050919050565b60208152602860208201527f455243313135353a204552433131353552656365697665722072656a6563746560408201527f6420746f6b656e7300000000000000000000000000000000000000000000000060608201526000608082019050919050565b60208152602660208201527f416464726573733a2064656c65676174652063616c6c20746f206e6f6e2d636f60408201527f6e7472616374000000000000000000000000000000000000000000000000000060608201526000608082019050919050565b60008251614029818460208701612cc4565b80830191505092915050565b60208152602860208201527f455243313135353a206275726e20616d6f756e74206578636565647320746f7460408201527f616c537570706c790000000000000000000000000000000000000000000000006060820152600060808201905091905056fe416464726573733a206c6f772d6c6576656c2064656c65676174652063616c6c206661696c6564a2646970667358221220b917d47bc4bd3f04d4c149aa69b1d36b286171a3a571a17876a8b0231c7bd0de64736f6c634300080f0033",
  "linkReferences": {},
  "deployedLinkReferences": {}
}