{
  "address": "0x5AFE007958D169abE98299bf645b4C5890901dCB",
  "abi": [
    {
      "inputs": [],
      "stateMutability": "nonpayable",
      "type": "constructor"
    },
    {
      "anonymous": false,
      "inputs": [
        {
          "indexed": false,
          "internalType": "address",
          "name": "previousAdmin",
          "type": "address"
        },
        {
          "indexed": false,
          "internalType": "address",
          "name": "newAdmin",
          "type": "address"
        }
      ],
      "name": "AdminChanged",
      "type": "event"
    },
    {
      "anonymous": false,
      "inputs": [
        {
          "indexed": true,
          "internalType": "address",
          "name": "account",
          "type": "address"
        },
        {
          "indexed": true,
          "internalType": "address",
          "name": "operator",
          "type": "address"
        },
        {
          "indexed": false,
          "internalType": "bool",
          "name": "approved",
          "type": "bool"
        }
      ],
      "name": "ApprovalForAll",
      "type": "event"
    },
    {
      "anonymous": false,
      "inputs": [
        {
          "indexed": true,
          "internalType": "address",
          "name": "beacon",
          "type": "address"
        }
      ],
      "name": "BeaconUpgraded",
      "type": "event"
    },
    {
      "anonymous": false,
      "inputs": [
        {
          "indexed": false,
          "internalType": "uint8",
          "name": "version",
          "type": "uint8"
        }
      ],
      "name": "Initialized",
      "type": "event"
    },
    {
      "anonymous": false,
      "inputs": [
        {
          "indexed": true,
          "internalType": "address",
          "name": "previousOwner",
          "type": "address"
        },
        {
          "indexed": true,
          "internalType": "address",
          "name": "newOwner",
          "type": "address"
        }
      ],
      "name": "OwnershipTransferred",
      "type": "event"
    },
    {
      "anonymous": false,
      "inputs": [
        {
          "indexed": true,
          "internalType": "address",
          "name": "operator",
          "type": "address"
        },
        {
          "indexed": true,
          "internalType": "address",
          "name": "from",
          "type": "address"
        },
        {
          "indexed": true,
          "internalType": "address",
          "name": "to",
          "type": "address"
        },
        {
          "indexed": false,
          "internalType": "uint256[]",
          "name": "ids",
          "type": "uint256[]"
        },
        {
          "indexed": false,
          "internalType": "uint256[]",
          "name": "values",
          "type": "uint256[]"
        }
      ],
      "name": "TransferBatch",
      "type": "event"
    },
    {
      "anonymous": false,
      "inputs": [
        {
          "indexed": true,
          "internalType": "address",
          "name": "operator",
          "type": "address"
        },
        {
          "indexed": true,
          "internalType": "address",
          "name": "from",
          "type": "address"
        },
        {
          "indexed": true,
          "internalType": "address",
          "name": "to",
          "type": "address"
        },
        {
          "indexed": false,
          "internalType": "uint256",
          "name": "id",
          "type": "uint256"
        },
        {
          "indexed": false,
          "internalType": "uint256",
          "name": "value",
          "type": "uint256"
        }
      ],
      "name": "TransferSingle",
      "type": "event"
    },
    {
      "anonymous": false,
      "inputs": [
        {
          "indexed": false,
          "internalType": "string",
          "name": "value",
          "type": "string"
        },
        {
          "indexed": true,
          "internalType": "uint256",
          "name": "id",
          "type": "uint256"
        }
      ],
      "name": "URI",
      "type": "event"
    },
    {
      "anonymous": false,
      "inputs": [
        {
          "indexed": true,
          "internalType": "address",
          "name": "implementation",
          "type": "address"
        }
      ],
      "name": "Upgraded",
      "type": "event"
    },
    {
      "inputs": [
        {
          "internalType": "address",
          "name": "account",
          "type": "address"
        },
        {
          "internalType": "uint256",
          "name": "id",
          "type": "uint256"
        }
      ],
      "name": "balanceOf",
      "outputs": [
        {
          "internalType": "uint256",
          "name": "",
          "type": "uint256"
        }
      ],
      "stateMutability": "view",
      "type": "function"
    },
    {
      "inputs": [
        {
          "internalType": "address[]",
          "name": "accounts",
          "type": "address[]"
        },
        {
          "internalType": "uint256[]",
          "name": "ids",
          "type": "uint256[]"
        }
      ],
      "name": "balanceOfBatch",
      "outputs": [
        {
          "internalType": "uint256[]",
          "name": "",
          "type": "uint256[]"
        }
      ],
      "stateMutability": "view",
      "type": "function"
    },
    {
      "inputs": [],
      "name": "currentAuditId",
      "outputs": [
        {
          "internalType": "uint256",
          "name": "",
          "type": "uint256"
        }
      ],
      "stateMutability": "view",
      "type": "function"
    },
    {
      "inputs": [
        {
          "internalType": "uint256",
          "name": "id",
          "type": "uint256"
        }
      ],
      "name": "exists",
      "outputs": [
        {
          "internalType": "bool",
          "name": "",
          "type": "bool"
        }
      ],
      "stateMutability": "view",
      "type": "function"
    },
    {
      "inputs": [
        {
          "internalType": "string",
          "name": "_baseURI",
          "type": "string"
        }
      ],
      "name": "initialize",
      "outputs": [],
      "stateMutability": "nonpayable",
      "type": "function"
    },
    {
      "inputs": [
        {
          "internalType": "address",
          "name": "account",
          "type": "address"
        },
        {
          "internalType": "address",
          "name": "operator",
          "type": "address"
        }
      ],
      "name": "isApprovedForAll",
      "outputs": [
        {
          "internalType": "bool",
          "name": "",
          "type": "bool"
        }
      ],
      "stateMutability": "view",
      "type": "function"
    },
    {
      "inputs": [
        {
          "internalType": "address[]",
          "name": "_contracts",
          "type": "address[]"
        }
      ],
      "name": "mintSeal",
      "outputs": [
        {
          "internalType": "bool",
          "name": "success",
          "type": "bool"
        }
      ],
      "stateMutability": "nonpayable",
      "type": "function"
    },
    {
      "inputs": [],
      "name": "name",
      "outputs": [
        {
          "internalType": "string",
          "name": "",
          "type": "string"
        }
      ],
      "stateMutability": "view",
      "type": "function"
    },
    {
      "inputs": [],
      "name": "owner",
      "outputs": [
        {
          "internalType": "address",
          "name": "",
          "type": "address"
        }
      ],
      "stateMutability": "view",
      "type": "function"
    },
    {
      "inputs": [],
      "name": "proxiableUUID",
      "outputs": [
        {
          "internalType": "bytes32",
          "name": "",
          "type": "bytes32"
        }
      ],
      "stateMutability": "view",
      "type": "function"
    },
    {
      "inputs": [
        {
          "internalType": "string",
          "name": "_baseURI",
          "type": "string"
        }
      ],
      "name": "reinitialize",
      "outputs": [],
      "stateMutability": "nonpayable",
      "type": "function"
    },
    {
      "inputs": [],
      "name": "renounceOwnership",
      "outputs": [],
      "stateMutability": "nonpayable",
      "type": "function"
    },
    {
      "inputs": [
        {
          "internalType": "address",
          "name": "",
          "type": "address"
        },
        {
          "internalType": "address",
          "name": "",
          "type": "address"
        },
        {
          "internalType": "uint256[]",
          "name": "",
          "type": "uint256[]"
        },
        {
          "internalType": "uint256[]",
          "name": "",
          "type": "uint256[]"
        },
        {
          "internalType": "bytes",
          "name": "",
          "type": "bytes"
        }
      ],
      "name": "safeBatchTransferFrom",
      "outputs": [],
      "stateMutability": "nonpayable",
      "type": "function"
    },
    {
      "inputs": [
        {
          "internalType": "address",
          "name": "",
          "type": "address"
        },
        {
          "internalType": "address",
          "name": "",
          "type": "address"
        },
        {
          "internalType": "uint256",
          "name": "",
          "type": "uint256"
        },
        {
          "internalType": "uint256",
          "name": "",
          "type": "uint256"
        },
        {
          "internalType": "bytes",
          "name": "",
          "type": "bytes"
        }
      ],
      "name": "safeTransferFrom",
      "outputs": [],
      "stateMutability": "nonpayable",
      "type": "function"
    },
    {
      "inputs": [
        {
          "internalType": "address",
          "name": "operator",
          "type": "address"
        },
        {
          "internalType": "bool",
          "name": "approved",
          "type": "bool"
        }
      ],
      "name": "setApprovalForAll",
      "outputs": [],
      "stateMutability": "nonpayable",
      "type": "function"
    },
    {
      "inputs": [
        {
          "internalType": "bytes4",
          "name": "interfaceId",
          "type": "bytes4"
        }
      ],
      "name": "supportsInterface",
      "outputs": [
        {
          "internalType": "bool",
          "name": "",
          "type": "bool"
        }
      ],
      "stateMutability": "view",
      "type": "function"
    },
    {
      "inputs": [],
      "name": "symbol",
      "outputs": [
        {
          "internalType": "string",
          "name": "",
          "type": "string"
        }
      ],
      "stateMutability": "view",
      "type": "function"
    },
    {
      "inputs": [],
      "name": "totalSupply",
      "outputs": [
        {
          "internalType": "uint256",
          "name": "",
          "type": "uint256"
        }
      ],
      "stateMutability": "view",
      "type": "function"
    },
    {
      "inputs": [
        {
          "internalType": "uint256",
          "name": "id",
          "type": "uint256"
        }
      ],
      "name": "totalSupply",
      "outputs": [
        {
          "internalType": "uint256",
          "name": "",
          "type": "uint256"
        }
      ],
      "stateMutability": "view",
      "type": "function"
    },
    {
      "inputs": [
        {
          "internalType": "address",
          "name": "newOwner",
          "type": "address"
        }
      ],
      "name": "transferOwnership",
      "outputs": [],
      "stateMutability": "nonpayable",
      "type": "function"
    },
    {
      "inputs": [
        {
          "internalType": "address",
          "name": "newImplementation",
          "type": "address"
        }
      ],
      "name": "upgradeTo",
      "outputs": [],
      "stateMutability": "nonpayable",
      "type": "function"
    },
    {
      "inputs": [
        {
          "internalType": "address",
          "name": "newImplementation",
          "type": "address"
        },
        {
          "internalType": "bytes",
          "name": "data",
          "type": "bytes"
        }
      ],
      "name": "upgradeToAndCall",
      "outputs": [],
      "stateMutability": "payable",
      "type": "function"
    },
    {
      "inputs": [
        {
          "internalType": "uint256",
          "name": "_tokenId",
          "type": "uint256"
        }
      ],
      "name": "uri",
      "outputs": [
        {
          "internalType": "string",
          "name": "",
          "type": "string"
        }
      ],
      "stateMutability": "view",
      "type": "function"
    }
  ],
  "numDeployments": 2,
  "solcInputHash": "784241993e1aabf5c3ed6aaf4f5c2bd8",
  "bytecode": "0x60a0604052306080523480156200001557600080fd5b506200002062000026565b620000e8565b600054610100900460ff1615620000935760405162461bcd60e51b815260206004820152602760248201527f496e697469616c697a61626c653a20636f6e747261637420697320696e697469604482015266616c697a696e6760c81b606482015260840160405180910390fd5b60005460ff9081161015620000e6576000805460ff191660ff9081179091556040519081527f7f26b83ff96e1f2b6a682f133852f6798a09c465da95921460cefb38474024989060200160405180910390a15b565b608051612cee6200012060003960008181610837015281816108cd01528181610b4601528181610bdc0152610d0b0152612cee6000f3fe60806040526004361061017f5760003560e01c8063715018a6116100d6578063bd85b0391161007f578063f2fde38b11610059578063f2fde38b1461045f578063f62d18881461047f578063f722c17d1461049f57600080fd5b8063bd85b039146103bb578063e985e9c5146103e9578063f242432a1461043f57600080fd5b806395d89b41116100b057806395d89b4114610366578063a22cb4651461037b578063a99b396e1461039b57600080fd5b8063715018a6146103055780638da5cb5b1461031a5780639458e7181461034f57600080fd5b80632eb2c2d6116101385780634f1ef286116101125780634f1ef286146102ad5780634f558e79146102c057806352d1902d146102f057600080fd5b80632eb2c2d61461023e5780633659cfe6146102605780634e1273f41461028057600080fd5b806306fdde031161016957806306fdde03146101e75780630e89341c1461020957806318160ddd1461022957600080fd5b8062fdd58e1461018457806301ffc9a7146101b7575b600080fd5b34801561019057600080fd5b506101a461019f366004612228565b6104bf565b6040519081526020015b60405180910390f35b3480156101c357600080fd5b506101d76101d2366004612253565b610587565b60405190151581526020016101ae565b3480156101f357600080fd5b506101fc61066a565b6040516101ae91906122bb565b34801561021557600080fd5b506101fc61022436600461230c565b6106f9565b34801561023557600080fd5b506101a4610791565b34801561024a57600080fd5b5061025e6102593660046124ea565b6107b3565b005b34801561026c57600080fd5b5061025e61027b3660046125a4565b610820565b34801561028c57600080fd5b506102a061029b3660046125c0565b6109f1565b6040516101ae9190612691565b61025e6102bb3660046126d4565b610b2f565b3480156102cc57600080fd5b506101d76102db36600461230c565b600090815261012d6020526040902054151590565b3480156102fc57600080fd5b506101a4610cf1565b34801561031157600080fd5b5061025e610dc3565b34801561032657600080fd5b5060975460405173ffffffffffffffffffffffffffffffffffffffff90911681526020016101ae565b34801561035b57600080fd5b506101a46101615481565b34801561037257600080fd5b506101fc610dd7565b34801561038757600080fd5b5061025e61039636600461271b565b610de5565b3480156103a757600080fd5b5061025e6103b636600461275a565b610df0565b3480156103c757600080fd5b506101a46103d636600461230c565b600090815261012d602052604090205490565b3480156103f557600080fd5b506101d7610404366004612814565b73ffffffffffffffffffffffffffffffffffffffff918216600090815260fc6020908152604080832093909416825291909152205460ff1690565b34801561044b57600080fd5b5061025e61045a366004612849565b610f21565b34801561046b57600080fd5b5061025e61047a3660046125a4565b610f69565b34801561048b57600080fd5b5061025e61049a36600461275a565b611003565b3480156104ab57600080fd5b506101d76104ba3660046128a6565b61122c565b600073ffffffffffffffffffffffffffffffffffffffff831661054f5760405162461bcd60e51b815260206004820152602a60248201527f455243313135353a2061646472657373207a65726f206973206e6f742061207660448201527f616c6964206f776e65720000000000000000000000000000000000000000000060648201526084015b60405180910390fd5b50600081815260fb6020908152604080832073ffffffffffffffffffffffffffffffffffffffff861684529091529020545b92915050565b60007fffffffff0000000000000000000000000000000000000000000000000000000082167fd9b67a2600000000000000000000000000000000000000000000000000000000148061061a57507fffffffff0000000000000000000000000000000000000000000000000000000082167f0e89341c00000000000000000000000000000000000000000000000000000000145b8061058157507f01ffc9a7000000000000000000000000000000000000000000000000000000007fffffffff00000000000000000000000000000000000000000000000000000000831614610581565b61015f80546106789061291f565b80601f01602080910402602001604051908101604052809291908181526020018280546106a49061291f565b80156106f15780601f106106c6576101008083540402835291602001916106f1565b820191906000526020600020905b8154815290600101906020018083116106d457829003601f168201915b505050505081565b600081815261012d60205260409020546060906107585760405162461bcd60e51b815260206004820152601c60248201527f4859444e5365616c3a20746f6b656e206e6f74206578697374696e67000000006044820152606401610546565b61076182611374565b61076a83611408565b60405160200161077b929190612972565b6040516020818303038152906040529050919050565b60006107a062989680466129d0565b610161546107ae9190612a0d565b905090565b60405162461bcd60e51b8152602060048201526024808201527f4859444e5365616c3a207472616e73666572206261746368206e6f7420616c6c60448201527f6f776564000000000000000000000000000000000000000000000000000000006064820152608401610546565b73ffffffffffffffffffffffffffffffffffffffff7f00000000000000000000000000000000000000000000000000000000000000001630036108cb5760405162461bcd60e51b815260206004820152602c60248201527f46756e6374696f6e206d7573742062652063616c6c6564207468726f7567682060448201527f64656c656761746563616c6c00000000000000000000000000000000000000006064820152608401610546565b7f000000000000000000000000000000000000000000000000000000000000000073ffffffffffffffffffffffffffffffffffffffff166109407f360894a13ba1a3210667c828492db98dca3e2076cc3735a920a3ca505d382bbc5473ffffffffffffffffffffffffffffffffffffffff1690565b73ffffffffffffffffffffffffffffffffffffffff16146109c95760405162461bcd60e51b815260206004820152602c60248201527f46756e6374696f6e206d7573742062652063616c6c6564207468726f7567682060448201527f6163746976652070726f787900000000000000000000000000000000000000006064820152608401610546565b6109d281611542565b604080516000808252602082019092526109ee9183919061154a565b50565b60608151835114610a6a5760405162461bcd60e51b815260206004820152602960248201527f455243313135353a206163636f756e747320616e6420696473206c656e67746860448201527f206d69736d6174636800000000000000000000000000000000000000000000006064820152608401610546565b6000835167ffffffffffffffff811115610a8657610a86612325565b604051908082528060200260200182016040528015610aaf578160200160208202803683370190505b50905060005b8451811015610b2757610afa858281518110610ad357610ad3612a20565b6020026020010151858381518110610aed57610aed612a20565b60200260200101516104bf565b828281518110610b0c57610b0c612a20565b6020908102919091010152610b2081612a4f565b9050610ab5565b509392505050565b73ffffffffffffffffffffffffffffffffffffffff7f0000000000000000000000000000000000000000000000000000000000000000163003610bda5760405162461bcd60e51b815260206004820152602c60248201527f46756e6374696f6e206d7573742062652063616c6c6564207468726f7567682060448201527f64656c656761746563616c6c00000000000000000000000000000000000000006064820152608401610546565b7f000000000000000000000000000000000000000000000000000000000000000073ffffffffffffffffffffffffffffffffffffffff16610c4f7f360894a13ba1a3210667c828492db98dca3e2076cc3735a920a3ca505d382bbc5473ffffffffffffffffffffffffffffffffffffffff1690565b73ffffffffffffffffffffffffffffffffffffffff1614610cd85760405162461bcd60e51b815260206004820152602c60248201527f46756e6374696f6e206d7573742062652063616c6c6564207468726f7567682060448201527f6163746976652070726f787900000000000000000000000000000000000000006064820152608401610546565b610ce182611542565b610ced8282600161154a565b5050565b60003073ffffffffffffffffffffffffffffffffffffffff7f00000000000000000000000000000000000000000000000000000000000000001614610d9e5760405162461bcd60e51b815260206004820152603860248201527f555550535570677261646561626c653a206d757374206e6f742062652063616c60448201527f6c6564207468726f7567682064656c656761746563616c6c00000000000000006064820152608401610546565b507f360894a13ba1a3210667c828492db98dca3e2076cc3735a920a3ca505d382bbc90565b610dcb61171a565b610dd56000611781565b565b61016080546106789061291f565b610ced3383836117f8565b600054600290610100900460ff16158015610e12575060005460ff8083169116105b610e845760405162461bcd60e51b815260206004820152602e60248201527f496e697469616c697a61626c653a20636f6e747261637420697320616c72656160448201527f647920696e697469616c697a65640000000000000000000000000000000000006064820152608401610546565b600080547fffffffffffffffffffffffffffffffffffffffffffffffffffffffffffff00001660ff831617610100179055610ebe82611931565b600080547fffffffffffffffffffffffffffffffffffffffffffffffffffffffffffff00ff16905560405160ff821681527f7f26b83ff96e1f2b6a682f133852f6798a09c465da95921460cefb3847402498906020015b60405180910390a15050565b60405162461bcd60e51b815260206004820152601e60248201527f4859444e5365616c3a207472616e73666572206e6f7420616c6c6f77656400006044820152606401610546565b610f7161171a565b73ffffffffffffffffffffffffffffffffffffffff8116610ffa5760405162461bcd60e51b815260206004820152602660248201527f4f776e61626c653a206e6577206f776e657220697320746865207a65726f206160448201527f64647265737300000000000000000000000000000000000000000000000000006064820152608401610546565b6109ee81611781565b600054610100900460ff16158080156110235750600054600160ff909116105b8061103d5750303b15801561103d575060005460ff166001145b6110af5760405162461bcd60e51b815260206004820152602e60248201527f496e697469616c697a61626c653a20636f6e747261637420697320616c72656160448201527f647920696e697469616c697a65640000000000000000000000000000000000006064820152608401610546565b600080547fffffffffffffffffffffffffffffffffffffffffffffffffffffffffffffff00166001179055801561110d57600080547fffffffffffffffffffffffffffffffffffffffffffffffffffffffffffff00ff166101001790555b61111561193d565b61111d61193d565b6111256119ba565b61112e82611a3f565b61113661193d565b61114362989680466129d0565b6101615560408051808201909152600981527f4859444e205365616c0000000000000000000000000000000000000000000000602082015261015f906111899082612ad5565b5060408051808201909152600381527fe29b9100000000000000000000000000000000000000000000000000000000006020820152610160906111cc9082612ad5565b508015610ced57600080547fffffffffffffffffffffffffffffffffffffffffffffffffffffffffffff00ff169055604051600181527f7f26b83ff96e1f2b6a682f133852f6798a09c465da95921460cefb384740249890602001610f15565b600061123661171a565b6001610161600082825461124a9190612bf2565b90915550506101615460005b83811015611369576112a485858381811061127357611273612a20565b905060200201602081019061128891906125a4565b73ffffffffffffffffffffffffffffffffffffffff163b151590565b6113155760405162461bcd60e51b8152602060048201526024808201527f4859444e5365616c3a207265636569766572206973206e6f74206120636f6e7460448201527f72616374000000000000000000000000000000000000000000000000000000006064820152608401610546565b61135785858381811061132a5761132a612a20565b905060200201602081019061133f91906125a4565b83600160405180602001604052806000815250611ac5565b8061136181612a4f565b915050611256565b506001949350505050565b606060fd80546113839061291f565b80601f01602080910402602001604051908101604052809291908181526020018280546113af9061291f565b80156113fc5780601f106113d1576101008083540402835291602001916113fc565b820191906000526020600020905b8154815290600101906020018083116113df57829003601f168201915b50505050509050919050565b60608161144857505060408051808201909152600181527f3000000000000000000000000000000000000000000000000000000000000000602082015290565b8160005b8115611472578061145c81612a4f565b915061146b9050600a83612c34565b915061144c565b60008167ffffffffffffffff81111561148d5761148d612325565b6040519080825280601f01601f1916602001820160405280156114b7576020820181803683370190505b5090505b841561153a576114cc600183612a0d565b91506114d9600a86612c48565b6114e4906030612bf2565b60f81b8183815181106114f9576114f9612a20565b60200101907effffffffffffffffffffffffffffffffffffffffffffffffffffffffffffff1916908160001a905350611533600a86612c34565b94506114bb565b949350505050565b6109ee61171a565b7f4910fdfa16fed3260ed0e7147f7cc6da11a60208b5b9406d12a635614ffd91435460ff16156115825761157d83611c1f565b505050565b8273ffffffffffffffffffffffffffffffffffffffff166352d1902d6040518163ffffffff1660e01b8152600401602060405180830381865afa925050508015611607575060408051601f3d9081017fffffffffffffffffffffffffffffffffffffffffffffffffffffffffffffffe016820190925261160491810190612c5c565b60015b6116795760405162461bcd60e51b815260206004820152602e60248201527f45524331393637557067726164653a206e657720696d706c656d656e7461746960448201527f6f6e206973206e6f7420555550530000000000000000000000000000000000006064820152608401610546565b7f360894a13ba1a3210667c828492db98dca3e2076cc3735a920a3ca505d382bbc811461170e5760405162461bcd60e51b815260206004820152602960248201527f45524331393637557067726164653a20756e737570706f727465642070726f7860448201527f6961626c655555494400000000000000000000000000000000000000000000006064820152608401610546565b5061157d838383611d0f565b60975473ffffffffffffffffffffffffffffffffffffffff163314610dd55760405162461bcd60e51b815260206004820181905260248201527f4f776e61626c653a2063616c6c6572206973206e6f7420746865206f776e65726044820152606401610546565b6097805473ffffffffffffffffffffffffffffffffffffffff8381167fffffffffffffffffffffffff0000000000000000000000000000000000000000831681179093556040519116919082907f8be0079c531659141344cd1fd0a4f28419497f9722a3daafe3b4186f6b6457e090600090a35050565b8173ffffffffffffffffffffffffffffffffffffffff168373ffffffffffffffffffffffffffffffffffffffff16036118995760405162461bcd60e51b815260206004820152602960248201527f455243313135353a2073657474696e6720617070726f76616c2073746174757360448201527f20666f722073656c6600000000000000000000000000000000000000000000006064820152608401610546565b73ffffffffffffffffffffffffffffffffffffffff838116600081815260fc602090815260408083209487168084529482529182902080547fffffffffffffffffffffffffffffffffffffffffffffffffffffffffffffff001686151590811790915591519182527f17307eab39ab6107e8899845ad3d59bd9653f200f220920489ca2b5937696c31910160405180910390a3505050565b60fd610ced8282612ad5565b600054610100900460ff16610dd55760405162461bcd60e51b815260206004820152602b60248201527f496e697469616c697a61626c653a20636f6e7472616374206973206e6f74206960448201527f6e697469616c697a696e670000000000000000000000000000000000000000006064820152608401610546565b600054610100900460ff16611a375760405162461bcd60e51b815260206004820152602b60248201527f496e697469616c697a61626c653a20636f6e7472616374206973206e6f74206960448201527f6e697469616c697a696e670000000000000000000000000000000000000000006064820152608401610546565b610dd5611d3a565b600054610100900460ff16611abc5760405162461bcd60e51b815260206004820152602b60248201527f496e697469616c697a61626c653a20636f6e7472616374206973206e6f74206960448201527f6e697469616c697a696e670000000000000000000000000000000000000000006064820152608401610546565b6109ee81611dc0565b73ffffffffffffffffffffffffffffffffffffffff8416611b4e5760405162461bcd60e51b815260206004820152602160248201527f455243313135353a206d696e7420746f20746865207a65726f2061646472657360448201527f73000000000000000000000000000000000000000000000000000000000000006064820152608401610546565b336000611b5a85611e46565b90506000611b6785611e46565b9050611b7883600089858589611e91565b600086815260fb6020908152604080832073ffffffffffffffffffffffffffffffffffffffff8b16845290915281208054879290611bb7908490612bf2565b9091555050604080518781526020810187905273ffffffffffffffffffffffffffffffffffffffff808a1692600092918716917fc3d58168c5ae7397731d063d5bbf3d657854427343f4c083240f7aacaa2d0f62910160405180910390a45b50505050505050565b73ffffffffffffffffffffffffffffffffffffffff81163b611ca95760405162461bcd60e51b815260206004820152602d60248201527f455243313936373a206e657720696d706c656d656e746174696f6e206973206e60448201527f6f74206120636f6e7472616374000000000000000000000000000000000000006064820152608401610546565b7f360894a13ba1a3210667c828492db98dca3e2076cc3735a920a3ca505d382bbc80547fffffffffffffffffffffffff00000000000000000000000000000000000000001673ffffffffffffffffffffffffffffffffffffffff92909216919091179055565b611d1883611ea7565b600082511180611d255750805b1561157d57611d348383611ef4565b50505050565b600054610100900460ff16611db75760405162461bcd60e51b815260206004820152602b60248201527f496e697469616c697a61626c653a20636f6e7472616374206973206e6f74206960448201527f6e697469616c697a696e670000000000000000000000000000000000000000006064820152608401610546565b610dd533611781565b600054610100900460ff16611e3d5760405162461bcd60e51b815260206004820152602b60248201527f496e697469616c697a61626c653a20636f6e7472616374206973206e6f74206960448201527f6e697469616c697a696e670000000000000000000000000000000000000000006064820152608401610546565b6109ee81611931565b60408051600180825281830190925260609160009190602080830190803683370190505090508281600081518110611e8057611e80612a20565b602090810291909101015292915050565b611e9f868686868686612019565b505050505050565b611eb081611c1f565b60405173ffffffffffffffffffffffffffffffffffffffff8216907fbc7cd75a20ee27fd9adebab32041f755214dbc6bffa90cc0225b39da2e5c2d3b90600090a250565b606073ffffffffffffffffffffffffffffffffffffffff83163b611f805760405162461bcd60e51b815260206004820152602660248201527f416464726573733a2064656c65676174652063616c6c20746f206e6f6e2d636f60448201527f6e747261637400000000000000000000000000000000000000000000000000006064820152608401610546565b6000808473ffffffffffffffffffffffffffffffffffffffff1684604051611fa89190612c75565b600060405180830381855af49150503d8060008114611fe3576040519150601f19603f3d011682016040523d82523d6000602084013e611fe8565b606091505b50915091506120108282604051806060016040528060278152602001612c92602791396121c4565b95945050505050565b73ffffffffffffffffffffffffffffffffffffffff85166120ae5760005b83518110156120ac5782818151811061205257612052612a20565b602002602001015161012d600086848151811061207157612071612a20565b6020026020010151815260200190815260200160002060008282546120969190612bf2565b909155506120a5905081612a4f565b9050612037565b505b73ffffffffffffffffffffffffffffffffffffffff8416611e9f5760005b8351811015611c165760008482815181106120e9576120e9612a20565b60200260200101519050600084838151811061210757612107612a20565b60200260200101519050600061012d6000848152602001908152602001600020549050818110156121a05760405162461bcd60e51b815260206004820152602860248201527f455243313135353a206275726e20616d6f756e74206578636565647320746f7460448201527f616c537570706c790000000000000000000000000000000000000000000000006064820152608401610546565b600092835261012d6020526040909220910390556121bd81612a4f565b90506120cc565b606083156121d35750816121fd565b8251156121e35782518084602001fd5b8160405162461bcd60e51b815260040161054691906122bb565b9392505050565b803573ffffffffffffffffffffffffffffffffffffffff8116811461058157600080fd5b6000806040838503121561223b57600080fd5b6122458484612204565b946020939093013593505050565b6000602082840312801561226657600080fd5b5081357fffffffff00000000000000000000000000000000000000000000000000000000811681146121fd57600080fd5b60005b838110156122b257818101518382015260200161229a565b50506000910152565b60208152600082518060208401526122da816040850160208701612297565b601f017fffffffffffffffffffffffffffffffffffffffffffffffffffffffffffffffe0169190910160400192915050565b60006020828403121561231e57600080fd5b5035919050565b7f4e487b7100000000000000000000000000000000000000000000000000000000600052604160045260246000fd5b604051601f82017fffffffffffffffffffffffffffffffffffffffffffffffffffffffffffffffe016810167ffffffffffffffff8111828210171561239b5761239b612325565b604052919050565b600067ffffffffffffffff8211156123bd576123bd612325565b5060051b60200190565b600082601f8301121580156123db57600080fd5b823567ffffffffffffffff8111156123f5576123f5612325565b8060051b61240560208201612354565b9182526020818601810192908101908784111561242157600080fd5b6020870192505b8383101561244d57841561243a578485fd5b8235825260209283019290910190612428565b979650505050505050565b600082601f83011215801561246c57600080fd5b50813567ffffffffffffffff81111561248757612487612325565b6124b860207fffffffffffffffffffffffffffffffffffffffffffffffffffffffffffffffe0601f84011601612354565b8181528460208386010111156124cd57600080fd5b816020850160208301376000918101602001919091529392505050565b600080600080600060a086880312801561250357600080fd5b5061250e8787612204565b945061251d8760208801612204565b9350604086013567ffffffffffffffff81111561253957600080fd5b612545888289016123c7565b935050606086013567ffffffffffffffff81111561256257600080fd5b61256e888289016123c7565b925050608086013567ffffffffffffffff81111561258b57600080fd5b61259788828901612458565b9150509295509295909350565b6000602082840312156125b657600080fd5b6121fd8383612204565b60008060408385031280156125d457600080fd5b50823567ffffffffffffffff8111156125ec57600080fd5b8301601f810185136125fd57600080fd5b803561261061260b826123a3565b612354565b8082825260208201915060208360051b85010192508783111561263257600080fd5b6020840193505b8284101561265c5761264b8885612204565b825260209384019390910190612639565b9450505050602083013567ffffffffffffffff81111561267b57600080fd5b612687858286016123c7565b9150509250929050565b602080825282518282018190526000918401906040840190835b818110156126c95783518352602093840193909201916001016126ab565b509095945050505050565b60008060408385031280156126e857600080fd5b506126f38484612204565b9150602083013567ffffffffffffffff81111561270f57600080fd5b61268785828601612458565b600080604083850312801561272f57600080fd5b5061273a8484612204565b91506020830135801515811461274f57600080fd5b809150509250929050565b6000602082840312801561276d57600080fd5b50813567ffffffffffffffff81111561278557600080fd5b8201601f8101841361279657600080fd5b803567ffffffffffffffff8111156127b0576127b0612325565b6127e160207fffffffffffffffffffffffffffffffffffffffffffffffffffffffffffffffe0601f84011601612354565b8181528560208385010111156127f657600080fd5b81602084016020830137600091810160200191909152949350505050565b6000806040838503121561282757600080fd5b6128318484612204565b91506128408460208501612204565b90509250929050565b600080600080600060a086880312801561286257600080fd5b5061286d8787612204565b945061287c8760208801612204565b93506040860135925060608601359150608086013567ffffffffffffffff81111561258b57600080fd5b60008060208385031280156128ba57600080fd5b50823567ffffffffffffffff8111156128d257600080fd5b8301601f810185136128e357600080fd5b803567ffffffffffffffff8111156128fa57600080fd5b8560208260051b840101111561290f57600080fd5b6020919091019590945092505050565b600181811c9082168061293357607f821691505b60208210810361296c577f4e487b7100000000000000000000000000000000000000000000000000000000600052602260045260246000fd5b50919050565b60008351612984818460208801612297565b835190830190612998818360208801612297565b01949350505050565b7f4e487b7100000000000000000000000000000000000000000000000000000000600052601160045260246000fd5b6000817fffffffffffffffffffffffffffffffffffffffffffffffffffffffffffffffff0483118215151615612a0857612a086129a1565b500290565b81810381811115610581576105816129a1565b7f4e487b7100000000000000000000000000000000000000000000000000000000600052603260045260246000fd5b60007fffffffffffffffffffffffffffffffffffffffffffffffffffffffffffffffff8203612a8057612a806129a1565b5060010190565b601f82111561157d57806000526020600020601f840160051c81016020851015612aae5750805b601f840160051c820191505b81811015612ace5760008155600101612aba565b5050505050565b815167ffffffffffffffff81118015612af057612af0612325565b50612b0581612aff845461291f565b84612a87565b6020601f82118060018114612b585760008415612b225750858301515b8460011b7fffffffffffffffffffffffffffffffffffffffffffffffffffffffffffffffff8660031b1c19821617865550611e9f565b6000858152602081207fffffffffffffffffffffffffffffffffffffffffffffffffffffffffffffffe08616915b82811015612ba65788860151825560209586019560019092019101612b86565b5085821015612be257878501517fffffffffffffffffffffffffffffffffffffffffffffffffffffffffffffffff600388901b60f8161c191681555b5050505050600190811b01905550565b80820180821115610581576105816129a1565b7f4e487b7100000000000000000000000000000000000000000000000000000000600052601260045260246000fd5b600082612c4357612c43612c05565b500490565b600082612c5757612c57612c05565b500690565b600060208284031215612c6e57600080fd5b5051919050565b60008251612c87818460208701612297565b919091019291505056fe416464726573733a206c6f772d6c6576656c2064656c65676174652063616c6c206661696c6564a26469706673582212202d5fb37a6d95a21b476ee3685c04e413b1680413584b5d09e28985495c0d0ddc64736f6c63430008100033",
  "devdoc": {
    "kind": "dev",
    "methods": {
      "balanceOf(address,uint256)": {
        "details": "See {IERC1155-balanceOf}. Requirements: - `account` cannot be the zero address."
      },
      "balanceOfBatch(address[],uint256[])": {
        "details": "See {IERC1155-balanceOfBatch}. Requirements: - `accounts` and `ids` must have the same length."
      },
      "constructor": {
        "custom:oz-upgrades-unsafe-allow": "constructor"
      },
      "exists(uint256)": {
        "details": "Indicates whether any token exist with a given id, or not."
      },
      "isApprovedForAll(address,address)": {
        "details": "See {IERC1155-isApprovedForAll}."
      },
      "owner()": {
        "details": "Returns the address of the current owner."
      },
      "proxiableUUID()": {
        "details": "Implementation of the ERC1822 {proxiableUUID} function. This returns the storage slot used by the implementation. It is used to validate that the this implementation remains valid after an upgrade. IMPORTANT: A proxy pointing at a proxiable contract should not be considered proxiable itself, because this risks bricking a proxy that upgrades to it, by delegating to itself until out of gas. Thus it is critical that this function revert if invoked through a proxy. This is guaranteed by the `notDelegated` modifier."
      },
      "renounceOwnership()": {
        "details": "Leaves the contract without owner. It will not be possible to call `onlyOwner` functions anymore. Can only be called by the current owner. NOTE: Renouncing ownership will leave the contract without an owner, thereby removing any functionality that is only available to the owner."
      },
      "setApprovalForAll(address,bool)": {
        "details": "See {IERC1155-setApprovalForAll}."
      },
      "supportsInterface(bytes4)": {
        "details": "See {IERC165-supportsInterface}."
      },
      "totalSupply(uint256)": {
        "details": "Total amount of tokens in with a given id."
      },
      "transferOwnership(address)": {
        "details": "Transfers ownership of the contract to a new account (`newOwner`). Can only be called by the current owner."
      },
      "upgradeTo(address)": {
        "details": "Upgrade the implementation of the proxy to `newImplementation`. Calls {_authorizeUpgrade}. Emits an {Upgraded} event."
      },
      "upgradeToAndCall(address,bytes)": {
        "details": "Upgrade the implementation of the proxy to `newImplementation`, and subsequently execute the function call encoded in `data`. Calls {_authorizeUpgrade}. Emits an {Upgraded} event."
      }
    },
    "version": 1
  },
  "userdoc": {
    "kind": "user",
    "methods": {},
    "version": 1
  },
  "storageLayout": {
    "storage": [
      {
        "astId": 527,
        "contract": "contracts/HYDNSeal.sol:HYDNSeal",
        "label": "_initialized",
        "offset": 0,
        "slot": "0",
        "type": "t_uint8"
      },
      {
        "astId": 530,
        "contract": "contracts/HYDNSeal.sol:HYDNSeal",
        "label": "_initializing",
        "offset": 1,
        "slot": "0",
        "type": "t_bool"
      },
      {
        "astId": 509,
        "contract": "contracts/HYDNSeal.sol:HYDNSeal",
        "label": "__gap",
        "offset": 0,
        "slot": "1",
        "type": "t_array(t_uint256)50_storage"
      },
      {
        "astId": 2691,
        "contract": "contracts/HYDNSeal.sol:HYDNSeal",
        "label": "__gap",
        "offset": 0,
        "slot": "51",
        "type": "t_array(t_uint256)50_storage"
      },
      {
        "astId": 806,
        "contract": "contracts/HYDNSeal.sol:HYDNSeal",
        "label": "__gap",
        "offset": 0,
        "slot": "101",
        "type": "t_array(t_uint256)50_storage"
      },
      {
        "astId": 10,
        "contract": "contracts/HYDNSeal.sol:HYDNSeal",
        "label": "_owner",
        "offset": 0,
        "slot": "151",
        "type": "t_address"
      },
      {
        "astId": 130,
        "contract": "contracts/HYDNSeal.sol:HYDNSeal",
        "label": "__gap",
        "offset": 0,
        "slot": "152",
        "type": "t_array(t_uint256)49_storage"
      },
      {
        "astId": 3021,
        "contract": "contracts/HYDNSeal.sol:HYDNSeal",
        "label": "__gap",
        "offset": 0,
        "slot": "201",
        "type": "t_array(t_uint256)50_storage"
      },
      {
        "astId": 3516,
        "contract": "contracts/HYDNSeal.sol:HYDNSeal",
        "label": "_balances",
        "offset": 0,
        "slot": "251",
        "type": "t_mapping(t_uint256,t_mapping(t_address,t_uint256))"
      },
      {
        "astId": 3522,
        "contract": "contracts/HYDNSeal.sol:HYDNSeal",
        "label": "_operatorApprovals",
        "offset": 0,
        "slot": "252",
        "type": "t_mapping(t_address,t_mapping(t_address,t_bool))"
      },
      {
        "astId": 3524,
        "contract": "contracts/HYDNSeal.sol:HYDNSeal",
        "label": "_uri",
        "offset": 0,
        "slot": "253",
        "type": "t_string_storage"
      },
      {
        "astId": 4719,
        "contract": "contracts/HYDNSeal.sol:HYDNSeal",
        "label": "__gap",
        "offset": 0,
        "slot": "254",
        "type": "t_array(t_uint256)47_storage"
      },
      {
        "astId": 3334,
        "contract": "contracts/HYDNSeal.sol:HYDNSeal",
        "label": "_totalSupply",
        "offset": 0,
        "slot": "301",
        "type": "t_mapping(t_uint256,t_uint256)"
      },
      {
        "astId": 3485,
        "contract": "contracts/HYDNSeal.sol:HYDNSeal",
        "label": "__gap",
        "offset": 0,
        "slot": "302",
        "type": "t_array(t_uint256)49_storage"
      },
      {
        "astId": 3303,
        "contract": "contracts/HYDNSeal.sol:HYDNSeal",
        "label": "name",
        "offset": 0,
        "slot": "351",
        "type": "t_string_storage"
      },
      {
        "astId": 3305,
        "contract": "contracts/HYDNSeal.sol:HYDNSeal",
        "label": "symbol",
        "offset": 0,
        "slot": "352",
        "type": "t_string_storage"
      },
      {
        "astId": 3307,
        "contract": "contracts/HYDNSeal.sol:HYDNSeal",
        "label": "currentAuditId",
        "offset": 0,
        "slot": "353",
        "type": "t_uint256"
      }
    ],
    "types": {
      "t_address": {
        "encoding": "inplace",
        "label": "address",
        "numberOfBytes": "20"
      },
      "t_array(t_uint256)47_storage": {
        "base": "t_uint256",
        "encoding": "inplace",
        "label": "uint256[47]",
        "numberOfBytes": "1504"
      },
      "t_array(t_uint256)49_storage": {
        "base": "t_uint256",
        "encoding": "inplace",
        "label": "uint256[49]",
        "numberOfBytes": "1568"
      },
      "t_array(t_uint256)50_storage": {
        "base": "t_uint256",
        "encoding": "inplace",
        "label": "uint256[50]",
        "numberOfBytes": "1600"
      },
      "t_bool": {
        "encoding": "inplace",
        "label": "bool",
        "numberOfBytes": "1"
      },
      "t_mapping(t_address,t_bool)": {
        "encoding": "mapping",
        "key": "t_address",
        "label": "mapping(address => bool)",
        "numberOfBytes": "32",
        "value": "t_bool"
      },
      "t_mapping(t_address,t_mapping(t_address,t_bool))": {
        "encoding": "mapping",
        "key": "t_address",
        "label": "mapping(address => mapping(address => bool))",
        "numberOfBytes": "32",
        "value": "t_mapping(t_address,t_bool)"
      },
      "t_mapping(t_address,t_uint256)": {
        "encoding": "mapping",
        "key": "t_address",
        "label": "mapping(address => uint256)",
        "numberOfBytes": "32",
        "value": "t_uint256"
      },
      "t_mapping(t_uint256,t_mapping(t_address,t_uint256))": {
        "encoding": "mapping",
        "key": "t_uint256",
        "label": "mapping(uint256 => mapping(address => uint256))",
        "numberOfBytes": "32",
        "value": "t_mapping(t_address,t_uint256)"
      },
      "t_mapping(t_uint256,t_uint256)": {
        "encoding": "mapping",
        "key": "t_uint256",
        "label": "mapping(uint256 => uint256)",
        "numberOfBytes": "32",
        "value": "t_uint256"
      },
      "t_string_storage": {
        "encoding": "bytes",
        "label": "string",
        "numberOfBytes": "32"
      },
      "t_uint256": {
        "encoding": "inplace",
        "label": "uint256",
        "numberOfBytes": "32"
      },
      "t_uint8": {
        "encoding": "inplace",
        "label": "uint8",
        "numberOfBytes": "1"
      }
    }
  }
}