{
  "_format": "hh-sol-artifact-1",
  "contractName": "ERC1155Upgradeable",
  "sourceName": "@openzeppelin/contracts-upgradeable/token/ERC1155/ERC1155Upgradeable.sol",
  "abi": [
    {
      "anonymous": false,
      "inputs": [
        {
          "indexed": true,
          "internalType": "address",
          "name": "account",
          "type": "address"
        },
        {
          "indexed": true,
          "internalType": "address",
          "name": "operator",
          "type": "address"
        },
        {
          "indexed": false,
          "internalType": "bool",
          "name": "approved",
          "type": "bool"
        }
      ],
      "name": "ApprovalForAll",
      "type": "event"
    },
    {
      "anonymous": false,
      "inputs": [
        {
          "indexed": false,
          "internalType": "uint8",
          "name": "version",
          "type": "uint8"
        }
      ],
      "name": "Initialized",
      "type": "event"
    },
    {
      "anonymous": false,
      "inputs": [
        {
          "indexed": true,
          "internalType": "address",
          "name": "operator",
          "type": "address"
        },
        {
          "indexed": true,
          "internalType": "address",
          "name": "from",
          "type": "address"
        },
        {
          "indexed": true,
          "internalType": "address",
          "name": "to",
          "type": "address"
        },
        {
          "indexed": false,
          "internalType": "uint256[]",
          "name": "ids",
          "type": "uint256[]"
        },
        {
          "indexed": false,
          "internalType": "uint256[]",
          "name": "values",
          "type": "uint256[]"
        }
      ],
      "name": "TransferBatch",
      "type": "event"
    },
    {
      "anonymous": false,
      "inputs": [
        {
          "indexed": true,
          "internalType": "address",
          "name": "operator",
          "type": "address"
        },
        {
          "indexed": true,
          "internalType": "address",
          "name": "from",
          "type": "address"
        },
        {
          "indexed": true,
          "internalType": "address",
          "name": "to",
          "type": "address"
        },
        {
          "indexed": false,
          "internalType": "uint256",
          "name": "id",
          "type": "uint256"
        },
        {
          "indexed": false,
          "internalType": "uint256",
          "name": "value",
          "type": "uint256"
        }
      ],
      "name": "TransferSingle",
      "type": "event"
    },
    {
      "anonymous": false,
      "inputs": [
        {
          "indexed": false,
          "internalType": "string",
          "name": "value",
          "type": "string"
        },
        {
          "indexed": true,
          "internalType": "uint256",
          "name": "id",
          "type": "uint256"
        }
      ],
      "name": "URI",
      "type": "event"
    },
    {
      "inputs": [
        {
          "internalType": "address",
          "name": "account",
          "type": "address"
        },
        {
          "internalType": "uint256",
          "name": "id",
          "type": "uint256"
        }
      ],
      "name": "balanceOf",
      "outputs": [
        {
          "internalType": "uint256",
          "name": "",
          "type": "uint256"
        }
      ],
      "stateMutability": "view",
      "type": "function"
    },
    {
      "inputs": [
        {
          "internalType": "address[]",
          "name": "accounts",
          "type": "address[]"
        },
        {
          "internalType": "uint256[]",
          "name": "ids",
          "type": "uint256[]"
        }
      ],
      "name": "balanceOfBatch",
      "outputs": [
        {
          "internalType": "uint256[]",
          "name": "",
          "type": "uint256[]"
        }
      ],
      "stateMutability": "view",
      "type": "function"
    },
    {
      "inputs": [
        {
          "internalType": "address",
          "name": "account",
          "type": "address"
        },
        {
          "internalType": "address",
          "name": "operator",
          "type": "address"
        }
      ],
      "name": "isApprovedForAll",
      "outputs": [
        {
          "internalType": "bool",
          "name": "",
          "type": "bool"
        }
      ],
      "stateMutability": "view",
      "type": "function"
    },
    {
      "inputs": [
        {
          "internalType": "address",
          "name": "from",
          "type": "address"
        },
        {
          "internalType": "address",
          "name": "to",
          "type": "address"
        },
        {
          "internalType": "uint256[]",
          "name": "ids",
          "type": "uint256[]"
        },
        {
          "internalType": "uint256[]",
          "name": "amounts",
          "type": "uint256[]"
        },
        {
          "internalType": "bytes",
          "name": "data",
          "type": "bytes"
        }
      ],
      "name": "safeBatchTransferFrom",
      "outputs": [],
      "stateMutability": "nonpayable",
      "type": "function"
    },
    {
      "inputs": [
        {
          "internalType": "address",
          "name": "from",
          "type": "address"
        },
        {
          "internalType": "address",
          "name": "to",
          "type": "address"
        },
        {
          "internalType": "uint256",
          "name": "id",
          "type": "uint256"
        },
        {
          "internalType": "uint256",
          "name": "amount",
          "type": "uint256"
        },
        {
          "internalType": "bytes",
          "name": "data",
          "type": "bytes"
        }
      ],
      "name": "safeTransferFrom",
      "outputs": [],
      "stateMutability": "nonpayable",
      "type": "function"
    },
    {
      "inputs": [
        {
          "internalType": "address",
          "name": "operator",
          "type": "address"
        },
        {
          "internalType": "bool",
          "name": "approved",
          "type": "bool"
        }
      ],
      "name": "setApprovalForAll",
      "outputs": [],
      "stateMutability": "nonpayable",
      "type": "function"
    },
    {
      "inputs": [
        {
          "internalType": "bytes4",
          "name": "interfaceId",
          "type": "bytes4"
        }
      ],
      "name": "supportsInterface",
      "outputs": [
        {
          "internalType": "bool",
          "name": "",
          "type": "bool"
        }
      ],
      "stateMutability": "view",
      "type": "function"
    },
    {
      "inputs": [
        {
          "internalType": "uint256",
          "name": "",
          "type": "uint256"
        }
      ],
      "name": "uri",
      "outputs": [
        {
          "internalType": "string",
          "name": "",
          "type": "string"
        }
      ],
      "stateMutability": "view",
      "type": "function"
    }
  ],
  "bytecode": "0x608060405234801561001057600080fd5b50611fbd806100206000396000f3fe608060405234801561001057600080fd5b50600436106100875760003560e01c80634e1273f41161005b5780634e1273f414610138578063a22cb46514610168578063e985e9c514610184578063f242432a146101b457610087565b8062fdd58e1461008c57806301ffc9a7146100bc5780630e89341c146100ec5780632eb2c2d61461011c575b600080fd5b6100a660048036038101906100a1919061133c565b6101d0565b6040516100b39190611368565b60405180910390f35b6100d660048036038101906100d191906113aa565b610299565b6040516100e391906113d1565b60405180910390f35b610106600480360381019061010191906113e4565b61037b565b6040516101139190611473565b60405180910390f35b61013660048036038101906101319190611642565b61040f565b005b610152600480360381019061014d91906116ec565b6104b0565b60405161015f9190611802565b60405180910390f35b610182600480360381019061017d919061181d565b6105c9565b005b61019e60048036038101906101999190611859565b6105df565b6040516101ab91906113d1565b60405180910390f35b6101ce60048036038101906101c9919061188c565b610673565b005b60008073ffffffffffffffffffffffffffffffffffffffff168373ffffffffffffffffffffffffffffffffffffffff1603610240576040517f08c379a0000000000000000000000000000000000000000000000000000000008152600401610237906118fe565b60405180910390fd5b6065600083815260200190815260200160002060008473ffffffffffffffffffffffffffffffffffffffff1673ffffffffffffffffffffffffffffffffffffffff16815260200190815260200160002054905092915050565b60007fd9b67a26000000000000000000000000000000000000000000000000000000007bffffffffffffffffffffffffffffffffffffffffffffffffffffffff1916827bffffffffffffffffffffffffffffffffffffffffffffffffffffffff1916148061036457507f0e89341c000000000000000000000000000000000000000000000000000000007bffffffffffffffffffffffffffffffffffffffffffffffffffffffff1916827bffffffffffffffffffffffffffffffffffffffffffffffffffffffff1916145b80610374575061037382610714565b5b9050919050565b60606067805461038a90611962565b80601f01602080910402602001604051908101604052809291908181526020018280546103b690611962565b80156104035780601f106103d857610100808354040283529160200191610403565b820191906000526020600020905b8154815290600101906020018083116103e657829003601f168201915b50505050509050919050565b61041761077e565b73ffffffffffffffffffffffffffffffffffffffff168573ffffffffffffffffffffffffffffffffffffffff16148061045d575061045c8561045761077e565b6105df565b5b61049c576040517f08c379a0000000000000000000000000000000000000000000000000000000008152600401610493906119b9565b60405180910390fd5b6104a98585858585610786565b5050505050565b606081518351146104f6576040517f08c379a00000000000000000000000000000000000000000000000000000000081526004016104ed90611a1d565b60405180910390fd5b6000835167ffffffffffffffff8111156105135761051261148e565b5b6040519080825280602002602001820160405280156105415781602001602082028036833780820191505090505b50905060005b84518110156105be5761058e85828151811061056657610565611a81565b5b602002602001015185838151811061058157610580611a81565b5b60200260200101516101d0565b8282815181106105a1576105a0611a81565b5b602002602001018181525050806105b790611adf565b9050610547565b508091505092915050565b6105db6105d461077e565b8383610aaa565b5050565b6000606660008473ffffffffffffffffffffffffffffffffffffffff1673ffffffffffffffffffffffffffffffffffffffff16815260200190815260200160002060008373ffffffffffffffffffffffffffffffffffffffff1673ffffffffffffffffffffffffffffffffffffffff16815260200190815260200160002060009054906101000a900460ff16905092915050565b61067b61077e565b73ffffffffffffffffffffffffffffffffffffffff168573ffffffffffffffffffffffffffffffffffffffff1614806106c157506106c0856106bb61077e565b6105df565b5b610700576040517f08c379a00000000000000000000000000000000000000000000000000000000081526004016106f7906119b9565b60405180910390fd5b61070d8585858585610c16565b5050505050565b60007f01ffc9a7000000000000000000000000000000000000000000000000000000007bffffffffffffffffffffffffffffffffffffffffffffffffffffffff1916827bffffffffffffffffffffffffffffffffffffffffffffffffffffffff1916149050919050565b600033905090565b81518351146107ca576040517f08c379a00000000000000000000000000000000000000000000000000000000081526004016107c190611b1c565b60405180910390fd5b600073ffffffffffffffffffffffffffffffffffffffff168473ffffffffffffffffffffffffffffffffffffffff1603610839576040517f08c379a000000000000000000000000000000000000000000000000000000000815260040161083090611b80565b60405180910390fd5b600061084361077e565b9050610853818787878787610eb4565b60005b8451811015610a0757600085828151811061087457610873611a81565b5b60200260200101519050600085838151811061089357610892611a81565b5b6020026020010151905060006065600084815260200190815260200160002060008b73ffffffffffffffffffffffffffffffffffffffff1673ffffffffffffffffffffffffffffffffffffffff16815260200190815260200160002054905081811015610935576040517f08c379a000000000000000000000000000000000000000000000000000000000815260040161092c90611be4565b60405180910390fd5b8181036065600085815260200190815260200160002060008c73ffffffffffffffffffffffffffffffffffffffff1673ffffffffffffffffffffffffffffffffffffffff16815260200190815260200160002081905550816065600085815260200190815260200160002060008b73ffffffffffffffffffffffffffffffffffffffff1673ffffffffffffffffffffffffffffffffffffffff16815260200190815260200160002060008282546109ec9190611c48565b9250508190555050505080610a0090611adf565b9050610856565b508473ffffffffffffffffffffffffffffffffffffffff168673ffffffffffffffffffffffffffffffffffffffff168273ffffffffffffffffffffffffffffffffffffffff167f4a39dc06d4c0dbc64b70af90fd698a233a518aa5d07e595d983b8c0526c8f7fb8787604051610a7e929190611c67565b60405180910390a4610a94818787878787610ebc565b610aa2818787878787610ec4565b505050505050565b8173ffffffffffffffffffffffffffffffffffffffff168373ffffffffffffffffffffffffffffffffffffffff1603610b18576040517f08c379a0000000000000000000000000000000000000000000000000000000008152600401610b0f90611c96565b60405180910390fd5b80606660008573ffffffffffffffffffffffffffffffffffffffff1673ffffffffffffffffffffffffffffffffffffffff16815260200190815260200160002060008473ffffffffffffffffffffffffffffffffffffffff1673ffffffffffffffffffffffffffffffffffffffff16815260200190815260200160002060006101000a81548160ff0219169083151502179055508173ffffffffffffffffffffffffffffffffffffffff168373ffffffffffffffffffffffffffffffffffffffff167f17307eab39ab6107e8899845ad3d59bd9653f200f220920489ca2b5937696c3183604051610c0991906113d1565b60405180910390a3505050565b600073ffffffffffffffffffffffffffffffffffffffff168473ffffffffffffffffffffffffffffffffffffffff1603610c85576040517f08c379a0000000000000000000000000000000000000000000000000000000008152600401610c7c90611b80565b60405180910390fd5b6000610c8f61077e565b90506000610c9c8561109b565b90506000610ca98561109b565b9050610cb9838989858589610eb4565b60006065600088815260200190815260200160002060008a73ffffffffffffffffffffffffffffffffffffffff1673ffffffffffffffffffffffffffffffffffffffff16815260200190815260200160002054905085811015610d51576040517f08c379a0000000000000000000000000000000000000000000000000000000008152600401610d4890611be4565b60405180910390fd5b8581036065600089815260200190815260200160002060008b73ffffffffffffffffffffffffffffffffffffffff1673ffffffffffffffffffffffffffffffffffffffff16815260200190815260200160002081905550856065600089815260200190815260200160002060008a73ffffffffffffffffffffffffffffffffffffffff1673ffffffffffffffffffffffffffffffffffffffff1681526020019081526020016000206000828254610e089190611c48565b925050819055508773ffffffffffffffffffffffffffffffffffffffff168973ffffffffffffffffffffffffffffffffffffffff168573ffffffffffffffffffffffffffffffffffffffff167fc3d58168c5ae7397731d063d5bbf3d657854427343f4c083240f7aacaa2d0f628a8a604051610e85929190611cfa565b60405180910390a4610e9b848a8a86868a610ebc565b610ea9848a8a8a8a8a611115565b505050505050505050565b505050505050565b505050505050565b610ee38473ffffffffffffffffffffffffffffffffffffffff166112ec565b15611093578373ffffffffffffffffffffffffffffffffffffffff1663bc197c8187878686866040518663ffffffff1660e01b8152600401610f29959493929190611d12565b6020604051808303816000875af1925050508015610f6557506040513d601f19601f82011682018060405250810190610f629190611d7e565b60015b61100a57610f71611da5565b806308c379a003610fcd5750610f85611dc2565b80610f905750610fcf565b806040517f08c379a0000000000000000000000000000000000000000000000000000000008152600401610fc49190611473565b60405180910390fd5b505b6040517f08c379a000000000000000000000000000000000000000000000000000000000815260040161100190611e6e565b60405180910390fd5b63bc197c8160e01b7bffffffffffffffffffffffffffffffffffffffffffffffffffffffff1916817bffffffffffffffffffffffffffffffffffffffffffffffffffffffff191614611091576040517f08c379a000000000000000000000000000000000000000000000000000000000815260040161108890611ed2565b60405180910390fd5b505b505050505050565b60606000600167ffffffffffffffff8111156110ba576110b961148e565b5b6040519080825280602002602001820160405280156110e85781602001602082028036833780820191505090505b5090508281600081518110611100576110ff611a81565b5b60200260200101818152505080915050919050565b6111348473ffffffffffffffffffffffffffffffffffffffff166112ec565b156112e4578373ffffffffffffffffffffffffffffffffffffffff1663f23a6e6187878686866040518663ffffffff1660e01b815260040161117a959493929190611f36565b6020604051808303816000875af19250505080156111b657506040513d601f19601f820116820180604052508101906111b39190611d7e565b60015b61125b576111c2611da5565b806308c379a00361121e57506111d6611dc2565b806111e15750611220565b806040517f08c379a00000000000000000000000000000000000000000000000000000000081526004016112159190611473565b60405180910390fd5b505b6040517f08c379a000000000000000000000000000000000000000000000000000000000815260040161125290611e6e565b60405180910390fd5b63f23a6e6160e01b7bffffffffffffffffffffffffffffffffffffffffffffffffffffffff1916817bffffffffffffffffffffffffffffffffffffffffffffffffffffffff1916146112e2576040517f08c379a00000000000000000000000000000000000000000000000000000000081526004016112d990611ed2565b60405180910390fd5b505b505050505050565b6000808273ffffffffffffffffffffffffffffffffffffffff163b119050919050565b60008135905073ffffffffffffffffffffffffffffffffffffffff8116811461133757600080fd5b919050565b6000806040838503121561134f57600080fd5b6113588361130f565b9150602083013590509250929050565b600060208201905082825292915050565b7fffffffff00000000000000000000000000000000000000000000000000000000811681146113a757600080fd5b50565b6000602082840312156113bc57600080fd5b81356113c781611379565b8091505092915050565b6000602082019050821515825292915050565b6000602082840312156113f657600080fd5b8135905092915050565b6000815180845260005b8181101561142c5760208082860101518183880101525060208101905061140a565b8181111561143e576000602083870101525b5060207fffffffffffffffffffffffffffffffffffffffffffffffffffffffffffffffe0601f83011685010191505092915050565b6020815260006114866020830184611400565b905092915050565b7f4e487b7100000000000000000000000000000000000000000000000000000000600052604160045260246000fd5b7fffffffffffffffffffffffffffffffffffffffffffffffffffffffffffffffe0601f830116810181811067ffffffffffffffff821117156115025761150161148e565b5b80604052505050565b600067ffffffffffffffff8211156115265761152561148e565b5b60208260051b019050919050565b600082601f83011261154557600080fd5b813560206115528261150b565b60405161155f82826114bd565b8091508381528281019150828460051b87010193508684111561158157600080fd5b8286015b848110156115a0578035835283830192508381019050611585565b508094505050505092915050565b600082601f8301126115bf57600080fd5b813567ffffffffffffffff8111156115da576115d961148e565b5b60405161160f60207fffffffffffffffffffffffffffffffffffffffffffffffffffffffffffffffe0601f85011601826114bd565b81815284602083860101111561162457600080fd5b81602085016020830137600060208383010152809250505092915050565b600080600080600060a0868803121561165a57600080fd5b6116638661130f565b94506116716020870161130f565b9350604086013567ffffffffffffffff8082111561168e57600080fd5b61169a89838a01611534565b945060608801359150808211156116b057600080fd5b6116bc89838a01611534565b935060808801359150808211156116d257600080fd5b506116df888289016115ae565b9150509295509295909350565b600080604083850312156116ff57600080fd5b823567ffffffffffffffff8082111561171757600080fd5b818501915085601f83011261172b57600080fd5b813560206117388261150b565b60405161174582826114bd565b8091508381528281019150828460051b87010193508984111561176757600080fd5b82860195505b8386101561178f5761177e8661130f565b82528282019150828601955061176d565b80975050508087013593505050808211156117a957600080fd5b506117b685828601611534565b9150509250929050565b600081518084526020808501945080840160005b838110156117f55781518752828701965082820191506001810190506117d4565b5050505082905092915050565b60208152600061181560208301846117c0565b905092915050565b6000806040838503121561183057600080fd5b6118398361130f565b91506020830135801515811461184e57600080fd5b809150509250929050565b6000806040838503121561186c57600080fd5b6118758361130f565b91506118836020840161130f565b90509250929050565b600080600080600060a086880312156118a457600080fd5b6118ad8661130f565b94506118bb6020870161130f565b93506040860135925060608601359150608086013567ffffffffffffffff8111156118e557600080fd5b6118f1888289016115ae565b9150509295509295909350565b60208152602a60208201527f455243313135353a2061646472657373207a65726f206973206e6f742061207660408201527f616c6964206f776e65720000000000000000000000000000000000000000000060608201526000608082019050919050565b60008160011c9050600182168061197a57607f821691505b6020821081036119b3577f4e487b7100000000000000000000000000000000000000000000000000000000600052602260045260246000fd5b50919050565b60208152602f60208201527f455243313135353a2063616c6c6572206973206e6f7420746f6b656e206f776e60408201527f6572206e6f7220617070726f766564000000000000000000000000000000000060608201526000608082019050919050565b60208152602960208201527f455243313135353a206163636f756e747320616e6420696473206c656e67746860408201527f206d69736d61746368000000000000000000000000000000000000000000000060608201526000608082019050919050565b7f4e487b7100000000000000000000000000000000000000000000000000000000600052603260045260246000fd5b7f4e487b7100000000000000000000000000000000000000000000000000000000600052601160045260246000fd5b60007fffffffffffffffffffffffffffffffffffffffffffffffffffffffffffffffff8203611b1157611b10611ab0565b5b600182019050919050565b60208152602860208201527f455243313135353a2069647320616e6420616d6f756e7473206c656e6774682060408201527f6d69736d6174636800000000000000000000000000000000000000000000000060608201526000608082019050919050565b60208152602560208201527f455243313135353a207472616e7366657220746f20746865207a65726f20616460408201527f647265737300000000000000000000000000000000000000000000000000000060608201526000608082019050919050565b60208152602a60208201527f455243313135353a20696e73756666696369656e742062616c616e636520666f60408201527f72207472616e736665720000000000000000000000000000000000000000000060608201526000608082019050919050565b60008219821115611c5c57611c5b611ab0565b5b828201905092915050565b604081526000611c7a60408301856117c0565b8281036020840152611c8c81856117c0565b9150509392505050565b60208152602960208201527f455243313135353a2073657474696e6720617070726f76616c2073746174757360408201527f20666f722073656c66000000000000000000000000000000000000000000000060608201526000608082019050919050565b60006040820190508382528260208301529392505050565b600073ffffffffffffffffffffffffffffffffffffffff808816835280871660208401525060a06040830152611d4b60a08301866117c0565b8281036060840152611d5d81866117c0565b90508281036080840152611d718185611400565b9150509695505050505050565b600060208284031215611d9057600080fd5b8151611d9b81611379565b8091505092915050565b600060033d1115611dbf5760046000803e60005160e01c90505b90565b600060443d10611e6b576040517ffffffffffffffffffffffffffffffffffffffffffffffffffffffffffffffffc803d016004833e81513d67ffffffffffffffff8160248401118184111715611e1c575050505050611e6b565b8285019150815181811115611e3657505050505050611e6b565b843d8701016020828501011115611e5257505050505050611e6b565b611e61602082860101876114bd565b5050809450505050505b90565b60208152603460208201527f455243313135353a207472616e7366657220746f206e6f6e204552433131353560408201527f526563656976657220696d706c656d656e74657200000000000000000000000060608201526000608082019050919050565b60208152602860208201527f455243313135353a204552433131353552656365697665722072656a6563746560408201527f6420746f6b656e7300000000000000000000000000000000000000000000000060608201526000608082019050919050565b600073ffffffffffffffffffffffffffffffffffffffff808816835280871660208401525084604083015283606083015260a06080830152611f7b60a0830184611400565b9050969550505050505056fea26469706673582212207847f5ce7e23908fe36c434509a37ad70affc17882cad67d225e7e03185acaeb64736f6c634300080f0033",
  "linkReferences": {},
  "deployedLinkReferences": {}
}