{
  "address": "0x9440AEdE13902E8EaD616De8e33E144728fd209e",
  "abi": [
    {
      "inputs": [],
      "stateMutability": "nonpayable",
      "type": "constructor"
    },
    {
      "anonymous": false,
      "inputs": [
        {
          "indexed": false,
          "internalType": "address",
          "name": "previousAdmin",
          "type": "address"
        },
        {
          "indexed": false,
          "internalType": "address",
          "name": "newAdmin",
          "type": "address"
        }
      ],
      "name": "AdminChanged",
      "type": "event"
    },
    {
      "anonymous": false,
      "inputs": [
        {
          "indexed": true,
          "internalType": "address",
          "name": "account",
          "type": "address"
        },
        {
          "indexed": true,
          "internalType": "address",
          "name": "operator",
          "type": "address"
        },
        {
          "indexed": false,
          "internalType": "bool",
          "name": "approved",
          "type": "bool"
        }
      ],
      "name": "ApprovalForAll",
      "type": "event"
    },
    {
      "anonymous": false,
      "inputs": [
        {
          "indexed": true,
          "internalType": "address",
          "name": "beacon",
          "type": "address"
        }
      ],
      "name": "BeaconUpgraded",
      "type": "event"
    },
    {
      "anonymous": false,
      "inputs": [
        {
          "indexed": false,
          "internalType": "uint8",
          "name": "version",
          "type": "uint8"
        }
      ],
      "name": "Initialized",
      "type": "event"
    },
    {
      "anonymous": false,
      "inputs": [
        {
          "indexed": true,
          "internalType": "address",
          "name": "previousOwner",
          "type": "address"
        },
        {
          "indexed": true,
          "internalType": "address",
          "name": "newOwner",
          "type": "address"
        }
      ],
      "name": "OwnershipTransferred",
      "type": "event"
    },
    {
      "anonymous": false,
      "inputs": [
        {
          "indexed": true,
          "internalType": "address",
          "name": "operator",
          "type": "address"
        },
        {
          "indexed": true,
          "internalType": "address",
          "name": "from",
          "type": "address"
        },
        {
          "indexed": true,
          "internalType": "address",
          "name": "to",
          "type": "address"
        },
        {
          "indexed": false,
          "internalType": "uint256[]",
          "name": "ids",
          "type": "uint256[]"
        },
        {
          "indexed": false,
          "internalType": "uint256[]",
          "name": "values",
          "type": "uint256[]"
        }
      ],
      "name": "TransferBatch",
      "type": "event"
    },
    {
      "anonymous": false,
      "inputs": [
        {
          "indexed": true,
          "internalType": "address",
          "name": "operator",
          "type": "address"
        },
        {
          "indexed": true,
          "internalType": "address",
          "name": "from",
          "type": "address"
        },
        {
          "indexed": true,
          "internalType": "address",
          "name": "to",
          "type": "address"
        },
        {
          "indexed": false,
          "internalType": "uint256",
          "name": "id",
          "type": "uint256"
        },
        {
          "indexed": false,
          "internalType": "uint256",
          "name": "value",
          "type": "uint256"
        }
      ],
      "name": "TransferSingle",
      "type": "event"
    },
    {
      "anonymous": false,
      "inputs": [
        {
          "indexed": false,
          "internalType": "string",
          "name": "value",
          "type": "string"
        },
        {
          "indexed": true,
          "internalType": "uint256",
          "name": "id",
          "type": "uint256"
        }
      ],
      "name": "URI",
      "type": "event"
    },
    {
      "anonymous": false,
      "inputs": [
        {
          "indexed": true,
          "internalType": "address",
          "name": "implementation",
          "type": "address"
        }
      ],
      "name": "Upgraded",
      "type": "event"
    },
    {
      "inputs": [
        {
          "internalType": "address",
          "name": "account",
          "type": "address"
        },
        {
          "internalType": "uint256",
          "name": "id",
          "type": "uint256"
        }
      ],
      "name": "balanceOf",
      "outputs": [
        {
          "internalType": "uint256",
          "name": "",
          "type": "uint256"
        }
      ],
      "stateMutability": "view",
      "type": "function"
    },
    {
      "inputs": [
        {
          "internalType": "address[]",
          "name": "accounts",
          "type": "address[]"
        },
        {
          "internalType": "uint256[]",
          "name": "ids",
          "type": "uint256[]"
        }
      ],
      "name": "balanceOfBatch",
      "outputs": [
        {
          "internalType": "uint256[]",
          "name": "",
          "type": "uint256[]"
        }
      ],
      "stateMutability": "view",
      "type": "function"
    },
    {
      "inputs": [
        {
          "internalType": "uint256",
          "name": "id",
          "type": "uint256"
        }
      ],
      "name": "exists",
      "outputs": [
        {
          "internalType": "bool",
          "name": "",
          "type": "bool"
        }
      ],
      "stateMutability": "view",
      "type": "function"
    },
    {
      "inputs": [
        {
          "internalType": "string",
          "name": "_baseURI",
          "type": "string"
        }
      ],
      "name": "initialize",
      "outputs": [],
      "stateMutability": "nonpayable",
      "type": "function"
    },
    {
      "inputs": [
        {
          "internalType": "address",
          "name": "account",
          "type": "address"
        },
        {
          "internalType": "address",
          "name": "operator",
          "type": "address"
        }
      ],
      "name": "isApprovedForAll",
      "outputs": [
        {
          "internalType": "bool",
          "name": "",
          "type": "bool"
        }
      ],
      "stateMutability": "view",
      "type": "function"
    },
    {
      "inputs": [
        {
          "internalType": "address[]",
          "name": "_contracts",
          "type": "address[]"
        }
      ],
      "name": "mintSeal",
      "outputs": [
        {
          "internalType": "bool",
          "name": "success",
          "type": "bool"
        }
      ],
      "stateMutability": "nonpayable",
      "type": "function"
    },
    {
      "inputs": [],
      "name": "name",
      "outputs": [
        {
          "internalType": "string",
          "name": "",
          "type": "string"
        }
      ],
      "stateMutability": "view",
      "type": "function"
    },
    {
      "inputs": [],
      "name": "owner",
      "outputs": [
        {
          "internalType": "address",
          "name": "",
          "type": "address"
        }
      ],
      "stateMutability": "view",
      "type": "function"
    },
    {
      "inputs": [],
      "name": "proxiableUUID",
      "outputs": [
        {
          "internalType": "bytes32",
          "name": "",
          "type": "bytes32"
        }
      ],
      "stateMutability": "view",
      "type": "function"
    },
    {
      "inputs": [],
      "name": "renounceOwnership",
      "outputs": [],
      "stateMutability": "nonpayable",
      "type": "function"
    },
    {
      "inputs": [
        {
          "internalType": "address",
          "name": "",
          "type": "address"
        },
        {
          "internalType": "address",
          "name": "",
          "type": "address"
        },
        {
          "internalType": "uint256[]",
          "name": "",
          "type": "uint256[]"
        },
        {
          "internalType": "uint256[]",
          "name": "",
          "type": "uint256[]"
        },
        {
          "internalType": "bytes",
          "name": "",
          "type": "bytes"
        }
      ],
      "name": "safeBatchTransferFrom",
      "outputs": [],
      "stateMutability": "nonpayable",
      "type": "function"
    },
    {
      "inputs": [
        {
          "internalType": "address",
          "name": "",
          "type": "address"
        },
        {
          "internalType": "address",
          "name": "",
          "type": "address"
        },
        {
          "internalType": "uint256",
          "name": "",
          "type": "uint256"
        },
        {
          "internalType": "uint256",
          "name": "",
          "type": "uint256"
        },
        {
          "internalType": "bytes",
          "name": "",
          "type": "bytes"
        }
      ],
      "name": "safeTransferFrom",
      "outputs": [],
      "stateMutability": "nonpayable",
      "type": "function"
    },
    {
      "inputs": [
        {
          "internalType": "address",
          "name": "operator",
          "type": "address"
        },
        {
          "internalType": "bool",
          "name": "approved",
          "type": "bool"
        }
      ],
      "name": "setApprovalForAll",
      "outputs": [],
      "stateMutability": "nonpayable",
      "type": "function"
    },
    {
      "inputs": [
        {
          "internalType": "bytes4",
          "name": "interfaceId",
          "type": "bytes4"
        }
      ],
      "name": "supportsInterface",
      "outputs": [
        {
          "internalType": "bool",
          "name": "",
          "type": "bool"
        }
      ],
      "stateMutability": "view",
      "type": "function"
    },
    {
      "inputs": [],
      "name": "symbol",
      "outputs": [
        {
          "internalType": "string",
          "name": "",
          "type": "string"
        }
      ],
      "stateMutability": "view",
      "type": "function"
    },
    {
      "inputs": [],
      "name": "totalAudits",
      "outputs": [
        {
          "internalType": "uint256",
          "name": "",
          "type": "uint256"
        }
      ],
      "stateMutability": "view",
      "type": "function"
    },
    {
      "inputs": [
        {
          "internalType": "uint256",
          "name": "id",
          "type": "uint256"
        }
      ],
      "name": "totalSupply",
      "outputs": [
        {
          "internalType": "uint256",
          "name": "",
          "type": "uint256"
        }
      ],
      "stateMutability": "view",
      "type": "function"
    },
    {
      "inputs": [
        {
          "internalType": "address",
          "name": "newOwner",
          "type": "address"
        }
      ],
      "name": "transferOwnership",
      "outputs": [],
      "stateMutability": "nonpayable",
      "type": "function"
    },
    {
      "inputs": [
        {
          "internalType": "address",
          "name": "newImplementation",
          "type": "address"
        }
      ],
      "name": "upgradeTo",
      "outputs": [],
      "stateMutability": "nonpayable",
      "type": "function"
    },
    {
      "inputs": [
        {
          "internalType": "address",
          "name": "newImplementation",
          "type": "address"
        },
        {
          "internalType": "bytes",
          "name": "data",
          "type": "bytes"
        }
      ],
      "name": "upgradeToAndCall",
      "outputs": [],
      "stateMutability": "payable",
      "type": "function"
    },
    {
      "inputs": [
        {
          "internalType": "uint256",
          "name": "_tokenId",
          "type": "uint256"
        }
      ],
      "name": "uri",
      "outputs": [
        {
          "internalType": "string",
          "name": "",
          "type": "string"
        }
      ],
      "stateMutability": "view",
      "type": "function"
    }
  ],
  "numDeployments": 1,
  "solcInputHash": "2808a32404a9a08344584770b6d63d73",
  "bytecode": "0x60a0604052306080523480156200001557600080fd5b506200002062000026565b620000e8565b600054610100900460ff1615620000935760405162461bcd60e51b815260206004820152602760248201527f496e697469616c697a61626c653a20636f6e747261637420697320696e697469604482015266616c697a696e6760c81b606482015260840160405180910390fd5b60005460ff9081161015620000e6576000805460ff191660ff9081179091556040519081527f7f26b83ff96e1f2b6a682f133852f6798a09c465da95921460cefb38474024989060200160405180910390a15b565b608051612ebd62000120600039600081816107ca0152818161086001528181610ad901528181610b6f0152610c9e0152612ebd6000f3fe6080604052600436106101695760003560e01c806352d1902d116100cb578063bd85b0391161007f578063f2fde38b11610059578063f2fde38b14610414578063f62d188814610434578063f722c17d1461045457600080fd5b8063bd85b03914610370578063e985e9c51461039e578063f242432a146103f457600080fd5b80638da5cb5b116100b05780638da5cb5b1461030657806395d89b411461033b578063a22cb4651461035057600080fd5b806352d1902d146102dc578063715018a6146102f157600080fd5b80633659cfe6116101225780634e1273f4116101075780634e1273f41461026c5780634f1ef286146102995780634f558e79146102ac57600080fd5b80633659cfe6146102355780634a07147f1461025557600080fd5b806306fdde031161015357806306fdde03146101d15780630e89341c146101f35780632eb2c2d61461021357600080fd5b8062fdd58e1461016e57806301ffc9a7146101a1575b600080fd5b34801561017a57600080fd5b5061018e61018936600461222b565b610474565b6040519081526020015b60405180910390f35b3480156101ad57600080fd5b506101c16101bc366004612284565b61053c565b6040519015158152602001610198565b3480156101dd57600080fd5b506101e661061f565b60405161019891906122cd565b3480156101ff57600080fd5b506101e661020e36600461231e565b6106ae565b34801561021f57600080fd5b5061023361022e3660046124fc565b610746565b005b34801561024157600080fd5b506102336102503660046125b6565b6107b3565b34801561026157600080fd5b5061018e6101615481565b34801561027857600080fd5b5061028c6102873660046125d2565b610984565b60405161019891906126aa565b6102336102a73660046126ed565b610ac2565b3480156102b857600080fd5b506101c16102c736600461231e565b600090815261012d6020526040902054151590565b3480156102e857600080fd5b5061018e610c84565b3480156102fd57600080fd5b50610233610d57565b34801561031257600080fd5b5060975460405173ffffffffffffffffffffffffffffffffffffffff9091168152602001610198565b34801561034757600080fd5b506101e6610d6b565b34801561035c57600080fd5b5061023361036b366004612734565b610d79565b34801561037c57600080fd5b5061018e61038b36600461231e565b600090815261012d602052604090205490565b3480156103aa57600080fd5b506101c16103b9366004612773565b73ffffffffffffffffffffffffffffffffffffffff918216600090815260fc6020908152604080832093909416825291909152205460ff1690565b34801561040057600080fd5b5061023361040f3660046127a8565b610d84565b34801561042057600080fd5b5061023361042f3660046125b6565b610dcc565b34801561044057600080fd5b5061023361044f366004612805565b610e66565b34801561046057600080fd5b506101c161046f3660046128c3565b611096565b600073ffffffffffffffffffffffffffffffffffffffff83166105045760405162461bcd60e51b815260206004820152602a60248201527f455243313135353a2061646472657373207a65726f206973206e6f742061207660448201527f616c6964206f776e65720000000000000000000000000000000000000000000060648201526084015b60405180910390fd5b50600081815260fb6020908152604080832073ffffffffffffffffffffffffffffffffffffffff861684529091529020545b92915050565b60007fffffffff0000000000000000000000000000000000000000000000000000000082167fd9b67a260000000000000000000000000000000000000000000000000000000014806105cf57507fffffffff0000000000000000000000000000000000000000000000000000000082167f0e89341c00000000000000000000000000000000000000000000000000000000145b8061053657507f01ffc9a7000000000000000000000000000000000000000000000000000000007fffffffff00000000000000000000000000000000000000000000000000000000831614610536565b61015f805461062d9061293c565b80601f01602080910402602001604051908101604052809291908181526020018280546106599061293c565b80156106a65780601f1061067b576101008083540402835291602001916106a6565b820191906000526020600020905b81548152906001019060200180831161068957829003601f168201915b505050505081565b600081815261012d602052604090205460609061070d5760405162461bcd60e51b815260206004820152601c60248201527f4859444e5365616c3a20746f6b656e206e6f74206578697374696e670000000060448201526064016104fb565b6107168261112d565b61071f836111c1565b60405160200161073092919061298f565b6040516020818303038152906040529050919050565b60405162461bcd60e51b8152602060048201526024808201527f4859444e5365616c3a207472616e73666572206261746368206e6f7420616c6c60448201527f6f7765640000000000000000000000000000000000000000000000000000000060648201526084016104fb565b73ffffffffffffffffffffffffffffffffffffffff7f000000000000000000000000000000000000000000000000000000000000000016300361085e5760405162461bcd60e51b815260206004820152602c60248201527f46756e6374696f6e206d7573742062652063616c6c6564207468726f7567682060448201527f64656c656761746563616c6c000000000000000000000000000000000000000060648201526084016104fb565b7f000000000000000000000000000000000000000000000000000000000000000073ffffffffffffffffffffffffffffffffffffffff166108d37f360894a13ba1a3210667c828492db98dca3e2076cc3735a920a3ca505d382bbc5473ffffffffffffffffffffffffffffffffffffffff1690565b73ffffffffffffffffffffffffffffffffffffffff161461095c5760405162461bcd60e51b815260206004820152602c60248201527f46756e6374696f6e206d7573742062652063616c6c6564207468726f7567682060448201527f6163746976652070726f7879000000000000000000000000000000000000000060648201526084016104fb565b610965816112fb565b6040805160008082526020820190925261098191839190611303565b50565b606081518351146109fd5760405162461bcd60e51b815260206004820152602960248201527f455243313135353a206163636f756e747320616e6420696473206c656e67746860448201527f206d69736d61746368000000000000000000000000000000000000000000000060648201526084016104fb565b6000835167ffffffffffffffff811115610a1957610a19612337565b604051908082528060200260200182016040528015610a42578160200160208202803683370190505b50905060005b8451811015610aba57610a8d858281518110610a6657610a666129be565b6020026020010151858381518110610a8057610a806129be565b6020026020010151610474565b828281518110610a9f57610a9f6129be565b6020908102919091010152610ab381612a1c565b9050610a48565b509392505050565b73ffffffffffffffffffffffffffffffffffffffff7f0000000000000000000000000000000000000000000000000000000000000000163003610b6d5760405162461bcd60e51b815260206004820152602c60248201527f46756e6374696f6e206d7573742062652063616c6c6564207468726f7567682060448201527f64656c656761746563616c6c000000000000000000000000000000000000000060648201526084016104fb565b7f000000000000000000000000000000000000000000000000000000000000000073ffffffffffffffffffffffffffffffffffffffff16610be27f360894a13ba1a3210667c828492db98dca3e2076cc3735a920a3ca505d382bbc5473ffffffffffffffffffffffffffffffffffffffff1690565b73ffffffffffffffffffffffffffffffffffffffff1614610c6b5760405162461bcd60e51b815260206004820152602c60248201527f46756e6374696f6e206d7573742062652063616c6c6564207468726f7567682060448201527f6163746976652070726f7879000000000000000000000000000000000000000060648201526084016104fb565b610c74826112fb565b610c8082826001611303565b5050565b60003073ffffffffffffffffffffffffffffffffffffffff7f00000000000000000000000000000000000000000000000000000000000000001614610d315760405162461bcd60e51b815260206004820152603860248201527f555550535570677261646561626c653a206d757374206e6f742062652063616c60448201527f6c6564207468726f7567682064656c656761746563616c6c000000000000000060648201526084016104fb565b507f360894a13ba1a3210667c828492db98dca3e2076cc3735a920a3ca505d382bbc5b90565b610d5f6114d3565b610d69600061153a565b565b610160805461062d9061293c565b610c803383836115b1565b60405162461bcd60e51b815260206004820152601e60248201527f4859444e5365616c3a207472616e73666572206e6f7420616c6c6f776564000060448201526064016104fb565b610dd46114d3565b73ffffffffffffffffffffffffffffffffffffffff8116610e5d5760405162461bcd60e51b815260206004820152602660248201527f4f776e61626c653a206e6577206f776e657220697320746865207a65726f206160448201527f646472657373000000000000000000000000000000000000000000000000000060648201526084016104fb565b6109818161153a565b600054610100900460ff1615808015610e865750600054600160ff909116105b80610ea05750303b158015610ea0575060005460ff166001145b610f125760405162461bcd60e51b815260206004820152602e60248201527f496e697469616c697a61626c653a20636f6e747261637420697320616c72656160448201527f647920696e697469616c697a656400000000000000000000000000000000000060648201526084016104fb565b600080547fffffffffffffffffffffffffffffffffffffffffffffffffffffffffffffff001660011790558015610f7057600080547fffffffffffffffffffffffffffffffffffffffffffffffffffffffffffff00ff166101001790555b610f786116ea565b610f806116ea565b610f88611767565b610f91826117ec565b610f996116ea565b610fa66298968046612a54565b6101615560408051808201909152600981527f4859444e205365616c0000000000000000000000000000000000000000000000602082015261015f90610fec9082612adf565b5060408051808201909152600381527fe29b91000000000000000000000000000000000000000000000000000000000060208201526101609061102f9082612adf565b508015610c8057600080547fffffffffffffffffffffffffffffffffffffffffffffffffffffffffffff00ff169055604051600181527f7f26b83ff96e1f2b6a682f133852f6798a09c465da95921460cefb38474024989060200160405180910390a15050565b60006110a06114d3565b600161016160008282546110b49190612bfc565b90915550506101615460005b60ff81168411156111225761111085858360ff168181106110e3576110e36129be565b90506020020160208101906110f891906125b6565b83600160405180602001604052806000815250611872565b8061111a81612c14565b9150506110c0565b506001949350505050565b606060fd805461113c9061293c565b80601f01602080910402602001604051908101604052809291908181526020018280546111689061293c565b80156111b55780601f1061118a576101008083540402835291602001916111b5565b820191906000526020600020905b81548152906001019060200180831161119857829003601f168201915b50505050509050919050565b60608161120157505060408051808201909152600181527f3000000000000000000000000000000000000000000000000000000000000000602082015290565b8160005b811561122b578061121581612a1c565b91506112249050600a83612c62565b9150611205565b60008167ffffffffffffffff81111561124657611246612337565b6040519080825280601f01601f191660200182016040528015611270576020820181803683370190505b5090505b84156112f357611285600183612c76565b9150611292600a86612c8d565b61129d906030612bfc565b60f81b8183815181106112b2576112b26129be565b60200101907effffffffffffffffffffffffffffffffffffffffffffffffffffffffffffff1916908160001a9053506112ec600a86612c62565b9450611274565b949350505050565b6109816114d3565b7f4910fdfa16fed3260ed0e7147f7cc6da11a60208b5b9406d12a635614ffd91435460ff161561133b57611336836119da565b505050565b8273ffffffffffffffffffffffffffffffffffffffff166352d1902d6040518163ffffffff1660e01b8152600401602060405180830381865afa9250505080156113c0575060408051601f3d9081017fffffffffffffffffffffffffffffffffffffffffffffffffffffffffffffffe01682019092526113bd91810190612ca1565b60015b6114325760405162461bcd60e51b815260206004820152602e60248201527f45524331393637557067726164653a206e657720696d706c656d656e7461746960448201527f6f6e206973206e6f74205555505300000000000000000000000000000000000060648201526084016104fb565b7f360894a13ba1a3210667c828492db98dca3e2076cc3735a920a3ca505d382bbc81146114c75760405162461bcd60e51b815260206004820152602960248201527f45524331393637557067726164653a20756e737570706f727465642070726f7860448201527f6961626c6555554944000000000000000000000000000000000000000000000060648201526084016104fb565b50611336838383611aca565b60975473ffffffffffffffffffffffffffffffffffffffff163314610d695760405162461bcd60e51b815260206004820181905260248201527f4f776e61626c653a2063616c6c6572206973206e6f7420746865206f776e657260448201526064016104fb565b6097805473ffffffffffffffffffffffffffffffffffffffff8381167fffffffffffffffffffffffff0000000000000000000000000000000000000000831681179093556040519116919082907f8be0079c531659141344cd1fd0a4f28419497f9722a3daafe3b4186f6b6457e090600090a35050565b8173ffffffffffffffffffffffffffffffffffffffff168373ffffffffffffffffffffffffffffffffffffffff16036116525760405162461bcd60e51b815260206004820152602960248201527f455243313135353a2073657474696e6720617070726f76616c2073746174757360448201527f20666f722073656c66000000000000000000000000000000000000000000000060648201526084016104fb565b73ffffffffffffffffffffffffffffffffffffffff838116600081815260fc602090815260408083209487168084529482529182902080547fffffffffffffffffffffffffffffffffffffffffffffffffffffffffffffff001686151590811790915591519182527f17307eab39ab6107e8899845ad3d59bd9653f200f220920489ca2b5937696c31910160405180910390a3505050565b600054610100900460ff16610d695760405162461bcd60e51b815260206004820152602b60248201527f496e697469616c697a61626c653a20636f6e7472616374206973206e6f74206960448201527f6e697469616c697a696e6700000000000000000000000000000000000000000060648201526084016104fb565b600054610100900460ff166117e45760405162461bcd60e51b815260206004820152602b60248201527f496e697469616c697a61626c653a20636f6e7472616374206973206e6f74206960448201527f6e697469616c697a696e6700000000000000000000000000000000000000000060648201526084016104fb565b610d69611af5565b600054610100900460ff166118695760405162461bcd60e51b815260206004820152602b60248201527f496e697469616c697a61626c653a20636f6e7472616374206973206e6f74206960448201527f6e697469616c697a696e6700000000000000000000000000000000000000000060648201526084016104fb565b61098181611b7b565b73ffffffffffffffffffffffffffffffffffffffff84166118fb5760405162461bcd60e51b815260206004820152602160248201527f455243313135353a206d696e7420746f20746865207a65726f2061646472657360448201527f730000000000000000000000000000000000000000000000000000000000000060648201526084016104fb565b33600061190785611c01565b9050600061191485611c01565b905061192583600089858589611c4c565b600086815260fb6020908152604080832073ffffffffffffffffffffffffffffffffffffffff8b16845290915281208054879290611964908490612bfc565b9091555050604080518781526020810187905273ffffffffffffffffffffffffffffffffffffffff808a1692600092918716917fc3d58168c5ae7397731d063d5bbf3d657854427343f4c083240f7aacaa2d0f62910160405180910390a46119d183600089898989611c62565b50505050505050565b73ffffffffffffffffffffffffffffffffffffffff81163b611a645760405162461bcd60e51b815260206004820152602d60248201527f455243313936373a206e657720696d706c656d656e746174696f6e206973206e60448201527f6f74206120636f6e74726163740000000000000000000000000000000000000060648201526084016104fb565b7f360894a13ba1a3210667c828492db98dca3e2076cc3735a920a3ca505d382bbc80547fffffffffffffffffffffffff00000000000000000000000000000000000000001673ffffffffffffffffffffffffffffffffffffffff92909216919091179055565b611ad383611e9e565b600082511180611ae05750805b1561133657611aef8383611eeb565b50505050565b600054610100900460ff16611b725760405162461bcd60e51b815260206004820152602b60248201527f496e697469616c697a61626c653a20636f6e7472616374206973206e6f74206960448201527f6e697469616c697a696e6700000000000000000000000000000000000000000060648201526084016104fb565b610d693361153a565b600054610100900460ff16611bf85760405162461bcd60e51b815260206004820152602b60248201527f496e697469616c697a61626c653a20636f6e7472616374206973206e6f74206960448201527f6e697469616c697a696e6700000000000000000000000000000000000000000060648201526084016104fb565b61098181612010565b60408051600180825281830190925260609160009190602080830190803683370190505090508281600081518110611c3b57611c3b6129be565b602090810291909101015292915050565b611c5a86868686868661201c565b505050505050565b73ffffffffffffffffffffffffffffffffffffffff84163b15611c5a576040517ff23a6e6100000000000000000000000000000000000000000000000000000000815273ffffffffffffffffffffffffffffffffffffffff85169063f23a6e6190611cd99089908990889088908890600401612cba565b6020604051808303816000875af1925050508015611d32575060408051601f3d9081017fffffffffffffffffffffffffffffffffffffffffffffffffffffffffffffffe0168201909252611d2f91810190612d53565b60015b611de757611d3e612d70565b806308c379a003611d775750611d52612d8b565b80611d5d5750611d79565b8060405162461bcd60e51b81526004016104fb91906122cd565b505b60405162461bcd60e51b815260206004820152603460248201527f455243313135353a207472616e7366657220746f206e6f6e204552433131353560448201527f526563656976657220696d706c656d656e74657200000000000000000000000060648201526084016104fb565b7fffffffff0000000000000000000000000000000000000000000000000000000081167ff23a6e6100000000000000000000000000000000000000000000000000000000146119d15760405162461bcd60e51b815260206004820152602860248201527f455243313135353a204552433131353552656365697665722072656a6563746560448201527f6420746f6b656e7300000000000000000000000000000000000000000000000060648201526084016104fb565b611ea7816119da565b60405173ffffffffffffffffffffffffffffffffffffffff8216907fbc7cd75a20ee27fd9adebab32041f755214dbc6bffa90cc0225b39da2e5c2d3b90600090a250565b606073ffffffffffffffffffffffffffffffffffffffff83163b611f775760405162461bcd60e51b815260206004820152602660248201527f416464726573733a2064656c65676174652063616c6c20746f206e6f6e2d636f60448201527f6e7472616374000000000000000000000000000000000000000000000000000060648201526084016104fb565b6000808473ffffffffffffffffffffffffffffffffffffffff1684604051611f9f9190612e44565b600060405180830381855af49150503d8060008114611fda576040519150601f19603f3d011682016040523d82523d6000602084013e611fdf565b606091505b50915091506120078282604051806060016040528060278152602001612e61602791396121c7565b95945050505050565b60fd610c808282612adf565b73ffffffffffffffffffffffffffffffffffffffff85166120b15760005b83518110156120af57828181518110612055576120556129be565b602002602001015161012d6000868481518110612074576120746129be565b6020026020010151815260200190815260200160002060008282546120999190612bfc565b909155506120a8905081612a1c565b905061203a565b505b73ffffffffffffffffffffffffffffffffffffffff8416611c5a5760005b83518110156119d15760008482815181106120ec576120ec6129be565b60200260200101519050600084838151811061210a5761210a6129be565b60200260200101519050600061012d6000848152602001908152602001600020549050818110156121a35760405162461bcd60e51b815260206004820152602860248201527f455243313135353a206275726e20616d6f756e74206578636565647320746f7460448201527f616c537570706c7900000000000000000000000000000000000000000000000060648201526084016104fb565b600092835261012d6020526040909220910390556121c081612a1c565b90506120cf565b606083156121d6575081612200565b8251156121e65782518084602001fd5b8160405162461bcd60e51b81526004016104fb91906122cd565b9392505050565b803573ffffffffffffffffffffffffffffffffffffffff8116811461053657600080fd5b6000806040838503121561223e57600080fd5b6122488484612207565b946020939093013593505050565b7fffffffff000000000000000000000000000000000000000000000000000000008116811461098157600080fd5b60006020828403121561229657600080fd5b813561220081612256565b60005b838110156122bc5781810151838201526020016122a4565b83811115611aef5750506000910152565b60208152600082518060208401526122ec8160408501602087016122a1565b601f017fffffffffffffffffffffffffffffffffffffffffffffffffffffffffffffffe0169190910160400192915050565b60006020828403121561233057600080fd5b5035919050565b7f4e487b7100000000000000000000000000000000000000000000000000000000600052604160045260246000fd5b7fffffffffffffffffffffffffffffffffffffffffffffffffffffffffffffffe0601f830116810181811067ffffffffffffffff821117156123aa576123aa612337565b6040525050565b600067ffffffffffffffff8211156123cb576123cb612337565b5060051b60200190565b600082601f8301121580156123e957600080fd5b823567ffffffffffffffff81111561240357612403612337565b8060051b6040516124176020830182612366565b91825260208186018101929081018784111561243257600080fd5b6020870192505b8383101561245b57841561244b578485fd5b8235815260209283019201612439565b509695505050505050565b600082601f83011215801561247a57600080fd5b50813567ffffffffffffffff81111561249557612495612337565b6040516124ca60207fffffffffffffffffffffffffffffffffffffffffffffffffffffffffffffffe0601f8501160182612366565b8181528460208386010111156124df57600080fd5b816020850160208301376000918101602001919091529392505050565b600080600080600060a086880312801561251557600080fd5b506125208787612207565b945061252f8760208801612207565b9350604086013567ffffffffffffffff81111561254b57600080fd5b612557888289016123d5565b935050606086013567ffffffffffffffff81111561257457600080fd5b612580888289016123d5565b925050608086013567ffffffffffffffff81111561259d57600080fd5b6125a988828901612466565b9150509295509295909350565b6000602082840312156125c857600080fd5b6122008383612207565b60008060408385031280156125e657600080fd5b50823567ffffffffffffffff8111156125fe57600080fd5b8301601f8101851361260f57600080fd5b803561261a816123b1565b6040516126278282612366565b80915082815260208101915060208360051b85010192508783111561264b57600080fd5b6020840193505b82841015612675576126648885612207565b825260209384019390910190612652565b9450505050602083013567ffffffffffffffff81111561269457600080fd5b6126a0858286016123d5565b9150509250929050565b602080825282518282018190526000918401906040840190835b818110156126e25783518352602093840193909201916001016126c4565b509095945050505050565b600080604083850312801561270157600080fd5b5061270c8484612207565b9150602083013567ffffffffffffffff81111561272857600080fd5b6126a085828601612466565b600080604083850312801561274857600080fd5b506127538484612207565b91506020830135801515811461276857600080fd5b809150509250929050565b6000806040838503121561278657600080fd5b6127908484612207565b915061279f8460208501612207565b90509250929050565b600080600080600060a08688031280156127c157600080fd5b506127cc8787612207565b94506127db8760208801612207565b93506040860135925060608601359150608086013567ffffffffffffffff81111561259d57600080fd5b6000602082840312801561281857600080fd5b50813567ffffffffffffffff81111561283057600080fd5b8201601f8101841361284157600080fd5b803567ffffffffffffffff81111561285b5761285b612337565b60405161289060207fffffffffffffffffffffffffffffffffffffffffffffffffffffffffffffffe0601f8501160182612366565b8181528560208385010111156128a557600080fd5b81602084016020830137600091810160200191909152949350505050565b60008060208385031280156128d757600080fd5b50823567ffffffffffffffff8111156128ef57600080fd5b8301601f8101851361290057600080fd5b803567ffffffffffffffff81111561291757600080fd5b8560208260051b840101111561292c57600080fd5b6020919091019590945092505050565b600181811c9082168061295057607f821691505b602082108103612989577f4e487b7100000000000000000000000000000000000000000000000000000000600052602260045260246000fd5b50919050565b600083516129a18184602088016122a1565b8351908301906129b58183602088016122a1565b01949350505050565b7f4e487b7100000000000000000000000000000000000000000000000000000000600052603260045260246000fd5b7f4e487b7100000000000000000000000000000000000000000000000000000000600052601160045260246000fd5b60007fffffffffffffffffffffffffffffffffffffffffffffffffffffffffffffffff8203612a4d57612a4d6129ed565b5060010190565b6000817fffffffffffffffffffffffffffffffffffffffffffffffffffffffffffffffff0483118215151615612a8c57612a8c6129ed565b500290565b601f82111561133657806000526020600020601f840160051c81016020851015612ab85750805b601f840160051c820191505b81811015612ad85760008155600101612ac4565b5050505050565b815167ffffffffffffffff81118015612afa57612afa612337565b50612b0f81612b09845461293c565b84612a91565b6020601f82118060018114612b625760008415612b2c5750858301515b8460011b7fffffffffffffffffffffffffffffffffffffffffffffffffffffffffffffffff8660031b1c19821617865550611c5a565b6000858152602081207fffffffffffffffffffffffffffffffffffffffffffffffffffffffffffffffe08616915b82811015612bb05788860151825560209586019560019092019101612b90565b5085821015612bec57878501517fffffffffffffffffffffffffffffffffffffffffffffffffffffffffffffffff600388901b60f8161c191681555b5050505050600190811b01905550565b60008219821115612c0f57612c0f6129ed565b500190565b600060ff821660ff8103612c2a57612c2a6129ed565b60010192915050565b7f4e487b7100000000000000000000000000000000000000000000000000000000600052601260045260246000fd5b600082612c7157612c71612c33565b500490565b600082821015612c8857612c886129ed565b500390565b600082612c9c57612c9c612c33565b500690565b600060208284031215612cb357600080fd5b5051919050565b73ffffffffffffffffffffffffffffffffffffffff8616815273ffffffffffffffffffffffffffffffffffffffff8516602082015283604082015282606082015260a06080820152600082518060a0840152612d1d8160c08501602087016122a1565b601f017fffffffffffffffffffffffffffffffffffffffffffffffffffffffffffffffe0169190910160c0019695505050505050565b600060208284031215612d6557600080fd5b815161220081612256565b600060033d1115610d545760046000803e5060005160e01c90565b600060443d1015612d995790565b6040517ffffffffffffffffffffffffffffffffffffffffffffffffffffffffffffffffc3d016004823e80513d602482011167ffffffffffffffff82111715612de157505090565b808201805167ffffffffffffffff811115612dfd575050505090565b7ffffffffffffffffffffffffffffffffffffffffffffffffffffffffffffffffc3d8501016020828401011115612e35575050505090565b610aba60208285010185612366565b60008251612e568184602087016122a1565b919091019291505056fe416464726573733a206c6f772d6c6576656c2064656c65676174652063616c6c206661696c6564a26469706673582212206c4e5f0047016fc2c94a2cbd9751d5d6a8a998a38adee2b72355d9815427e80f64736f6c634300080f0033",
  "devdoc": {
    "kind": "dev",
    "methods": {
      "balanceOf(address,uint256)": {
        "details": "See {IERC1155-balanceOf}. Requirements: - `account` cannot be the zero address."
      },
      "balanceOfBatch(address[],uint256[])": {
        "details": "See {IERC1155-balanceOfBatch}. Requirements: - `accounts` and `ids` must have the same length."
      },
      "constructor": {
        "custom:oz-upgrades-unsafe-allow": "constructor"
      },
      "exists(uint256)": {
        "details": "Indicates whether any token exist with a given id, or not."
      },
      "isApprovedForAll(address,address)": {
        "details": "See {IERC1155-isApprovedForAll}."
      },
      "owner()": {
        "details": "Returns the address of the current owner."
      },
      "proxiableUUID()": {
        "details": "Implementation of the ERC1822 {proxiableUUID} function. This returns the storage slot used by the implementation. It is used to validate that the this implementation remains valid after an upgrade. IMPORTANT: A proxy pointing at a proxiable contract should not be considered proxiable itself, because this risks bricking a proxy that upgrades to it, by delegating to itself until out of gas. Thus it is critical that this function revert if invoked through a proxy. This is guaranteed by the `notDelegated` modifier."
      },
      "renounceOwnership()": {
        "details": "Leaves the contract without owner. It will not be possible to call `onlyOwner` functions anymore. Can only be called by the current owner. NOTE: Renouncing ownership will leave the contract without an owner, thereby removing any functionality that is only available to the owner."
      },
      "setApprovalForAll(address,bool)": {
        "details": "See {IERC1155-setApprovalForAll}."
      },
      "supportsInterface(bytes4)": {
        "details": "See {IERC165-supportsInterface}."
      },
      "totalSupply(uint256)": {
        "details": "Total amount of tokens in with a given id."
      },
      "transferOwnership(address)": {
        "details": "Transfers ownership of the contract to a new account (`newOwner`). Can only be called by the current owner."
      },
      "upgradeTo(address)": {
        "details": "Upgrade the implementation of the proxy to `newImplementation`. Calls {_authorizeUpgrade}. Emits an {Upgraded} event."
      },
      "upgradeToAndCall(address,bytes)": {
        "details": "Upgrade the implementation of the proxy to `newImplementation`, and subsequently execute the function call encoded in `data`. Calls {_authorizeUpgrade}. Emits an {Upgraded} event."
      }
    },
    "version": 1
  },
  "userdoc": {
    "kind": "user",
    "methods": {},
    "version": 1
  },
  "storageLayout": {
    "storage": [
      {
        "astId": 527,
        "contract": "contracts/HYDNSeal.sol:HYDNSeal",
        "label": "_initialized",
        "offset": 0,
        "slot": "0",
        "type": "t_uint8"
      },
      {
        "astId": 530,
        "contract": "contracts/HYDNSeal.sol:HYDNSeal",
        "label": "_initializing",
        "offset": 1,
        "slot": "0",
        "type": "t_bool"
      },
      {
        "astId": 509,
        "contract": "contracts/HYDNSeal.sol:HYDNSeal",
        "label": "__gap",
        "offset": 0,
        "slot": "1",
        "type": "t_array(t_uint256)50_storage"
      },
      {
        "astId": 2691,
        "contract": "contracts/HYDNSeal.sol:HYDNSeal",
        "label": "__gap",
        "offset": 0,
        "slot": "51",
        "type": "t_array(t_uint256)50_storage"
      },
      {
        "astId": 806,
        "contract": "contracts/HYDNSeal.sol:HYDNSeal",
        "label": "__gap",
        "offset": 0,
        "slot": "101",
        "type": "t_array(t_uint256)50_storage"
      },
      {
        "astId": 10,
        "contract": "contracts/HYDNSeal.sol:HYDNSeal",
        "label": "_owner",
        "offset": 0,
        "slot": "151",
        "type": "t_address"
      },
      {
        "astId": 130,
        "contract": "contracts/HYDNSeal.sol:HYDNSeal",
        "label": "__gap",
        "offset": 0,
        "slot": "152",
        "type": "t_array(t_uint256)49_storage"
      },
      {
        "astId": 3021,
        "contract": "contracts/HYDNSeal.sol:HYDNSeal",
        "label": "__gap",
        "offset": 0,
        "slot": "201",
        "type": "t_array(t_uint256)50_storage"
      },
      {
        "astId": 836,
        "contract": "contracts/HYDNSeal.sol:HYDNSeal",
        "label": "_balances",
        "offset": 0,
        "slot": "251",
        "type": "t_mapping(t_uint256,t_mapping(t_address,t_uint256))"
      },
      {
        "astId": 842,
        "contract": "contracts/HYDNSeal.sol:HYDNSeal",
        "label": "_operatorApprovals",
        "offset": 0,
        "slot": "252",
        "type": "t_mapping(t_address,t_mapping(t_address,t_bool))"
      },
      {
        "astId": 844,
        "contract": "contracts/HYDNSeal.sol:HYDNSeal",
        "label": "_uri",
        "offset": 0,
        "slot": "253",
        "type": "t_string_storage"
      },
      {
        "astId": 2051,
        "contract": "contracts/HYDNSeal.sol:HYDNSeal",
        "label": "__gap",
        "offset": 0,
        "slot": "254",
        "type": "t_array(t_uint256)47_storage"
      },
      {
        "astId": 2240,
        "contract": "contracts/HYDNSeal.sol:HYDNSeal",
        "label": "_totalSupply",
        "offset": 0,
        "slot": "301",
        "type": "t_mapping(t_uint256,t_uint256)"
      },
      {
        "astId": 2391,
        "contract": "contracts/HYDNSeal.sol:HYDNSeal",
        "label": "__gap",
        "offset": 0,
        "slot": "302",
        "type": "t_array(t_uint256)49_storage"
      },
      {
        "astId": 3267,
        "contract": "contracts/HYDNSeal.sol:HYDNSeal",
        "label": "name",
        "offset": 0,
        "slot": "351",
        "type": "t_string_storage"
      },
      {
        "astId": 3269,
        "contract": "contracts/HYDNSeal.sol:HYDNSeal",
        "label": "symbol",
        "offset": 0,
        "slot": "352",
        "type": "t_string_storage"
      },
      {
        "astId": 3271,
        "contract": "contracts/HYDNSeal.sol:HYDNSeal",
        "label": "totalAudits",
        "offset": 0,
        "slot": "353",
        "type": "t_uint256"
      }
    ],
    "types": {
      "t_address": {
        "encoding": "inplace",
        "label": "address",
        "numberOfBytes": "20"
      },
      "t_array(t_uint256)47_storage": {
        "base": "t_uint256",
        "encoding": "inplace",
        "label": "uint256[47]",
        "numberOfBytes": "1504"
      },
      "t_array(t_uint256)49_storage": {
        "base": "t_uint256",
        "encoding": "inplace",
        "label": "uint256[49]",
        "numberOfBytes": "1568"
      },
      "t_array(t_uint256)50_storage": {
        "base": "t_uint256",
        "encoding": "inplace",
        "label": "uint256[50]",
        "numberOfBytes": "1600"
      },
      "t_bool": {
        "encoding": "inplace",
        "label": "bool",
        "numberOfBytes": "1"
      },
      "t_mapping(t_address,t_bool)": {
        "encoding": "mapping",
        "key": "t_address",
        "label": "mapping(address => bool)",
        "numberOfBytes": "32",
        "value": "t_bool"
      },
      "t_mapping(t_address,t_mapping(t_address,t_bool))": {
        "encoding": "mapping",
        "key": "t_address",
        "label": "mapping(address => mapping(address => bool))",
        "numberOfBytes": "32",
        "value": "t_mapping(t_address,t_bool)"
      },
      "t_mapping(t_address,t_uint256)": {
        "encoding": "mapping",
        "key": "t_address",
        "label": "mapping(address => uint256)",
        "numberOfBytes": "32",
        "value": "t_uint256"
      },
      "t_mapping(t_uint256,t_mapping(t_address,t_uint256))": {
        "encoding": "mapping",
        "key": "t_uint256",
        "label": "mapping(uint256 => mapping(address => uint256))",
        "numberOfBytes": "32",
        "value": "t_mapping(t_address,t_uint256)"
      },
      "t_mapping(t_uint256,t_uint256)": {
        "encoding": "mapping",
        "key": "t_uint256",
        "label": "mapping(uint256 => uint256)",
        "numberOfBytes": "32",
        "value": "t_uint256"
      },
      "t_string_storage": {
        "encoding": "bytes",
        "label": "string",
        "numberOfBytes": "32"
      },
      "t_uint256": {
        "encoding": "inplace",
        "label": "uint256",
        "numberOfBytes": "32"
      },
      "t_uint8": {
        "encoding": "inplace",
        "label": "uint8",
        "numberOfBytes": "1"
      }
    }
  }
}