{
  "address": "0x6dB176fADB917f9a0DD5173087E2502DFFa0500c",
  "abi": [
    {
      "inputs": [],
      "stateMutability": "nonpayable",
      "type": "constructor"
    },
    {
      "anonymous": false,
      "inputs": [
        {
          "indexed": false,
          "internalType": "address",
          "name": "previousAdmin",
          "type": "address"
        },
        {
          "indexed": false,
          "internalType": "address",
          "name": "newAdmin",
          "type": "address"
        }
      ],
      "name": "AdminChanged",
      "type": "event"
    },
    {
      "anonymous": false,
      "inputs": [
        {
          "indexed": true,
          "internalType": "address",
          "name": "account",
          "type": "address"
        },
        {
          "indexed": true,
          "internalType": "address",
          "name": "operator",
          "type": "address"
        },
        {
          "indexed": false,
          "internalType": "bool",
          "name": "approved",
          "type": "bool"
        }
      ],
      "name": "ApprovalForAll",
      "type": "event"
    },
    {
      "anonymous": false,
      "inputs": [
        {
          "indexed": true,
          "internalType": "address",
          "name": "beacon",
          "type": "address"
        }
      ],
      "name": "BeaconUpgraded",
      "type": "event"
    },
    {
      "anonymous": false,
      "inputs": [
        {
          "indexed": false,
          "internalType": "uint8",
          "name": "version",
          "type": "uint8"
        }
      ],
      "name": "Initialized",
      "type": "event"
    },
    {
      "anonymous": false,
      "inputs": [
        {
          "indexed": true,
          "internalType": "address",
          "name": "previousOwner",
          "type": "address"
        },
        {
          "indexed": true,
          "internalType": "address",
          "name": "newOwner",
          "type": "address"
        }
      ],
      "name": "OwnershipTransferred",
      "type": "event"
    },
    {
      "anonymous": false,
      "inputs": [
        {
          "indexed": true,
          "internalType": "address",
          "name": "operator",
          "type": "address"
        },
        {
          "indexed": true,
          "internalType": "address",
          "name": "from",
          "type": "address"
        },
        {
          "indexed": true,
          "internalType": "address",
          "name": "to",
          "type": "address"
        },
        {
          "indexed": false,
          "internalType": "uint256[]",
          "name": "ids",
          "type": "uint256[]"
        },
        {
          "indexed": false,
          "internalType": "uint256[]",
          "name": "values",
          "type": "uint256[]"
        }
      ],
      "name": "TransferBatch",
      "type": "event"
    },
    {
      "anonymous": false,
      "inputs": [
        {
          "indexed": true,
          "internalType": "address",
          "name": "operator",
          "type": "address"
        },
        {
          "indexed": true,
          "internalType": "address",
          "name": "from",
          "type": "address"
        },
        {
          "indexed": true,
          "internalType": "address",
          "name": "to",
          "type": "address"
        },
        {
          "indexed": false,
          "internalType": "uint256",
          "name": "id",
          "type": "uint256"
        },
        {
          "indexed": false,
          "internalType": "uint256",
          "name": "value",
          "type": "uint256"
        }
      ],
      "name": "TransferSingle",
      "type": "event"
    },
    {
      "anonymous": false,
      "inputs": [
        {
          "indexed": false,
          "internalType": "string",
          "name": "value",
          "type": "string"
        },
        {
          "indexed": true,
          "internalType": "uint256",
          "name": "id",
          "type": "uint256"
        }
      ],
      "name": "URI",
      "type": "event"
    },
    {
      "anonymous": false,
      "inputs": [
        {
          "indexed": true,
          "internalType": "address",
          "name": "implementation",
          "type": "address"
        }
      ],
      "name": "Upgraded",
      "type": "event"
    },
    {
      "inputs": [
        {
          "internalType": "address",
          "name": "account",
          "type": "address"
        },
        {
          "internalType": "uint256",
          "name": "id",
          "type": "uint256"
        }
      ],
      "name": "balanceOf",
      "outputs": [
        {
          "internalType": "uint256",
          "name": "",
          "type": "uint256"
        }
      ],
      "stateMutability": "view",
      "type": "function"
    },
    {
      "inputs": [
        {
          "internalType": "address[]",
          "name": "accounts",
          "type": "address[]"
        },
        {
          "internalType": "uint256[]",
          "name": "ids",
          "type": "uint256[]"
        }
      ],
      "name": "balanceOfBatch",
      "outputs": [
        {
          "internalType": "uint256[]",
          "name": "",
          "type": "uint256[]"
        }
      ],
      "stateMutability": "view",
      "type": "function"
    },
    {
      "inputs": [],
      "name": "initialize",
      "outputs": [],
      "stateMutability": "nonpayable",
      "type": "function"
    },
    {
      "inputs": [
        {
          "internalType": "address",
          "name": "account",
          "type": "address"
        },
        {
          "internalType": "address",
          "name": "operator",
          "type": "address"
        }
      ],
      "name": "isApprovedForAll",
      "outputs": [
        {
          "internalType": "bool",
          "name": "",
          "type": "bool"
        }
      ],
      "stateMutability": "view",
      "type": "function"
    },
    {
      "inputs": [],
      "name": "owner",
      "outputs": [
        {
          "internalType": "address",
          "name": "",
          "type": "address"
        }
      ],
      "stateMutability": "view",
      "type": "function"
    },
    {
      "inputs": [],
      "name": "proxiableUUID",
      "outputs": [
        {
          "internalType": "bytes32",
          "name": "",
          "type": "bytes32"
        }
      ],
      "stateMutability": "view",
      "type": "function"
    },
    {
      "inputs": [],
      "name": "renounceOwnership",
      "outputs": [],
      "stateMutability": "nonpayable",
      "type": "function"
    },
    {
      "inputs": [
        {
          "internalType": "address",
          "name": "from",
          "type": "address"
        },
        {
          "internalType": "address",
          "name": "to",
          "type": "address"
        },
        {
          "internalType": "uint256[]",
          "name": "ids",
          "type": "uint256[]"
        },
        {
          "internalType": "uint256[]",
          "name": "amounts",
          "type": "uint256[]"
        },
        {
          "internalType": "bytes",
          "name": "data",
          "type": "bytes"
        }
      ],
      "name": "safeBatchTransferFrom",
      "outputs": [],
      "stateMutability": "nonpayable",
      "type": "function"
    },
    {
      "inputs": [
        {
          "internalType": "address",
          "name": "from",
          "type": "address"
        },
        {
          "internalType": "address",
          "name": "to",
          "type": "address"
        },
        {
          "internalType": "uint256",
          "name": "id",
          "type": "uint256"
        },
        {
          "internalType": "uint256",
          "name": "amount",
          "type": "uint256"
        },
        {
          "internalType": "bytes",
          "name": "data",
          "type": "bytes"
        }
      ],
      "name": "safeTransferFrom",
      "outputs": [],
      "stateMutability": "nonpayable",
      "type": "function"
    },
    {
      "inputs": [
        {
          "internalType": "address",
          "name": "operator",
          "type": "address"
        },
        {
          "internalType": "bool",
          "name": "approved",
          "type": "bool"
        }
      ],
      "name": "setApprovalForAll",
      "outputs": [],
      "stateMutability": "nonpayable",
      "type": "function"
    },
    {
      "inputs": [
        {
          "internalType": "bytes4",
          "name": "interfaceId",
          "type": "bytes4"
        }
      ],
      "name": "supportsInterface",
      "outputs": [
        {
          "internalType": "bool",
          "name": "",
          "type": "bool"
        }
      ],
      "stateMutability": "view",
      "type": "function"
    },
    {
      "inputs": [],
      "name": "test",
      "outputs": [
        {
          "internalType": "uint256",
          "name": "",
          "type": "uint256"
        }
      ],
      "stateMutability": "view",
      "type": "function"
    },
    {
      "inputs": [
        {
          "internalType": "address",
          "name": "newOwner",
          "type": "address"
        }
      ],
      "name": "transferOwnership",
      "outputs": [],
      "stateMutability": "nonpayable",
      "type": "function"
    },
    {
      "inputs": [
        {
          "internalType": "address",
          "name": "newImplementation",
          "type": "address"
        }
      ],
      "name": "upgradeTo",
      "outputs": [],
      "stateMutability": "nonpayable",
      "type": "function"
    },
    {
      "inputs": [
        {
          "internalType": "address",
          "name": "newImplementation",
          "type": "address"
        },
        {
          "internalType": "bytes",
          "name": "data",
          "type": "bytes"
        }
      ],
      "name": "upgradeToAndCall",
      "outputs": [],
      "stateMutability": "payable",
      "type": "function"
    },
    {
      "inputs": [
        {
          "internalType": "uint256",
          "name": "tokenId",
          "type": "uint256"
        }
      ],
      "name": "uri",
      "outputs": [
        {
          "internalType": "string",
          "name": "",
          "type": "string"
        }
      ],
      "stateMutability": "view",
      "type": "function"
    }
  ],
  "numDeployments": 2,
  "solcInputHash": "eb4dcaa5caba2f9ee48c3f85a00f8072",
  "bytecode": "0x60a0604052346100db573060805260ff345460081c1661008657345460ff8082161061004c575b60405161253a90816100e18239608051818181610a6e01528181610baf0152610eef0152f35b60ff908119161734557f7f26b83ff96e1f2b6a682f133852f6798a09c465da95921460cefb3847402498602060405160ff8152a138610026565b60405162461bcd60e51b815260206004820152602760248201527f496e697469616c697a61626c653a20636f6e747261637420697320696e697469604482015266616c697a696e6760c81b6064820152608490fd5b600080fdfe6080604052600436101561001257600080fd5b60003560e01c8062fdd58e1461171557806301ffc9a7146116435780630e89341c146113565780632eb2c2d614610f735780633659cfe614610e9e5780634e1273f414610c265780634f1ef28614610b4257806352d1902d14610a46578063715018a614610a235780638129fc1c146107d95780638da5cb5b146107a5578063a22cb46514610667578063e985e9c5146105b8578063f242432a146101bd578063f2fde38b146100ef5763f8a8fd6d146100cb57600080fd5b346100ea5760006003193601126100ea57602061015f54604051908152f35b600080fd5b346100ea5760206003193601126100ea5760043573ffffffffffffffffffffffffffffffffffffffff81168082036100ea57610129611954565b1561013957610137906119d4565b005b60846040517f08c379a000000000000000000000000000000000000000000000000000000000815260206004820152602660248201527f4f776e61626c653a206e6577206f776e657220697320746865207a65726f206160448201527f64647265737300000000000000000000000000000000000000000000000000006064820152fd5b346100ea5760a06003193601126100ea5760043573ffffffffffffffffffffffffffffffffffffffff8116908181036100ea576024359173ffffffffffffffffffffffffffffffffffffffff83168084036100ea57604435916064359460843567ffffffffffffffff81116100ea5761023d61024f9136906004016118d9565b9533841490811561055f575b5061212a565b61025a8315156121b5565b610263846123e1565b5061026d866123e1565b508360005260fb60205260406000208260005260205260406000205461029587821015612240565b600085815260fb60209081526040808320868452909152808220928990039092558481522080546102c79088906122cb565b905582826040518681528860208201527fc3d58168c5ae7397731d063d5bbf3d657854427343f4c083240f7aacaa2d0f6260403392a43b61030457005b600061035d60209560405197889687957ff23a6e6100000000000000000000000000000000000000000000000000000000875233600488015260248701526044860152606485015260a0608485015260a484019061230f565b92825a940393f16000918161052f575b506104605750600161037d61234b565b6308c379a014610417575b61038e57005b6040517f08c379a000000000000000000000000000000000000000000000000000000000815260206004820152603460248201527f455243313135353a207472616e7366657220746f206e6f6e204552433131353560448201527f526563656976657220696d706c656d656e7465720000000000000000000000006064820152608490fd5b0390fd5b61041f612369565b8061042a5750610388565b610413906040519182917f08c379a000000000000000000000000000000000000000000000000000000000835260048301611792565b7fffffffff000000000000000000000000000000000000000000000000000000007ff23a6e610000000000000000000000000000000000000000000000000000000091160315610137576040517f08c379a000000000000000000000000000000000000000000000000000000000815260206004820152602860248201527f455243313135353a204552433131353552656365697665722072656a6563746560448201527f6420746f6b656e730000000000000000000000000000000000000000000000006064820152608490fd5b61055191925060203d8111610558575b61054981836117dc565b8101906122d7565b908261036d565b503d61053f565b6105b29150339073ffffffffffffffffffffffffffffffffffffffff1660005260fc60205273ffffffffffffffffffffffffffffffffffffffff6040600020911660005260205260ff6040600020541690565b88610249565b346100ea5760406003193601126100ea5760043573ffffffffffffffffffffffffffffffffffffffff811681036100ea576024359073ffffffffffffffffffffffffffffffffffffffff821682036100ea5760209161065d9173ffffffffffffffffffffffffffffffffffffffff1660005260fc60205273ffffffffffffffffffffffffffffffffffffffff6040600020911660005260205260ff6040600020541690565b6040519015158152f35b346100ea5760406003193601126100ea5760043573ffffffffffffffffffffffffffffffffffffffff81168091036100ea576024358015158091036100ea57813314610721573360005260fc602052604060002082600052602052604060002080547fffffffffffffffffffffffffffffffffffffffffffffffffffffffffffffff0060ff841691161790556040519081527f17307eab39ab6107e8899845ad3d59bd9653f200f220920489ca2b5937696c3160203392a3005b60846040517f08c379a000000000000000000000000000000000000000000000000000000000815260206004820152602960248201527f455243313135353a2073657474696e6720617070726f76616c2073746174757360448201527f20666f722073656c6600000000000000000000000000000000000000000000006064820152fd5b346100ea5760006003193601126100ea57602060975473ffffffffffffffffffffffffffffffffffffffff60405191168152f35b346100ea5760006003193601126100ea5760005460ff8160081c161590818092610a16575b80156109ff575b1561097b578160017fffffffffffffffffffffffffffffffffffffffffffffffffffffffffffffff0083161760005561094c575b5061086660ff60005460081c1661084f81612479565b61085881612479565b61086181612479565b612479565b61086f336119d4565b61088460ff60005460081c1661086181612479565b61089061012d5461240a565b601f8111610901575b50600061012d55600161015f556108ac57005b7fffffffffffffffffffffffffffffffffffffffffffffffffffffffffffff00ff600054166000557f7f26b83ff96e1f2b6a682f133852f6798a09c465da95921460cefb3847402498602060405160018152a1005b61012d600052601f0160051c7f193a3ae4da5049eb74cee39e4cf5827f7ce7b1d1d1775ef1c6311eb60558e6d5908101905b8181106109405750610899565b60008155600101610933565b7fffffffffffffffffffffffffffffffffffffffffffffffffffffffffffff0000166101011760005581610839565b60846040517f08c379a000000000000000000000000000000000000000000000000000000000815260206004820152602e60248201527f496e697469616c697a61626c653a20636f6e747261637420697320616c72656160448201527f647920696e697469616c697a65640000000000000000000000000000000000006064820152fd5b50303b1580156108055750600160ff821614610805565b50600160ff8216106107fe565b346100ea5760006003193601126100ea57610a3c611954565b61013760006119d4565b346100ea5760006003193601126100ea5773ffffffffffffffffffffffffffffffffffffffff7f0000000000000000000000000000000000000000000000000000000000000000163003610abe5760206040517f360894a13ba1a3210667c828492db98dca3e2076cc3735a920a3ca505d382bbc8152f35b60846040517f08c379a000000000000000000000000000000000000000000000000000000000815260206004820152603860248201527f555550535570677261646561626c653a206d757374206e6f742062652063616c60448201527f6c6564207468726f7567682064656c656761746563616c6c00000000000000006064820152fd5b60406003193601126100ea5760043573ffffffffffffffffffffffffffffffffffffffff811681036100ea5760243567ffffffffffffffff81116100ea5761013791610b9460019236906004016118d9565b90610c1973ffffffffffffffffffffffffffffffffffffffff7f000000000000000000000000000000000000000000000000000000000000000016610bdb81301415611a5d565b73ffffffffffffffffffffffffffffffffffffffff7f360894a13ba1a3210667c828492db98dca3e2076cc3735a920a3ca505d382bbc541614611ae8565b610c21611954565b611b73565b346100ea5760406003193601126100ea5760043567ffffffffffffffff81116100ea57366023820112156100ea5780600401359067ffffffffffffffff8211610e6f578160051b9060405192610c7f60208401856117dc565b835260246020840192820101903682116100ea57602401915b818310610e42578360243567ffffffffffffffff81116100ea57610cc0903690600401611835565b908051825103610dbe5780517fffffffffffffffffffffffffffffffffffffffffffffffffffffffffffffffe0610d0f610cf98361181d565b92610d0760405194856117dc565b80845261181d565b0136602083013760005b825181108015610da45715610d755780610d606020610d709360051b8601015173ffffffffffffffffffffffffffffffffffffffff610d588489612116565b519116611ffc565b610d6a8285612116565b526120ba565b610d19565b7f4e487b7100000000000000000000000000000000000000000000000000000000600052603260045260246000fd5b60405160208082528190610dba90820186611920565b0390f35b60846040517f08c379a000000000000000000000000000000000000000000000000000000000815260206004820152602960248201527f455243313135353a206163636f756e747320616e6420696473206c656e67746860448201527f206d69736d6174636800000000000000000000000000000000000000000000006064820152fd5b823573ffffffffffffffffffffffffffffffffffffffff811681036100ea57815260209283019201610c98565b7f4e487b7100000000000000000000000000000000000000000000000000000000600052604160045260246000fd5b346100ea5760206003193601126100ea5760043573ffffffffffffffffffffffffffffffffffffffff811681036100ea57600061013791610f1b73ffffffffffffffffffffffffffffffffffffffff7f000000000000000000000000000000000000000000000000000000000000000016610bdb81301415611a5d565b610f23611954565b610f2c8261189f565b90610f3a60405192836117dc565b8282527fffffffffffffffffffffffffffffffffffffffffffffffffffffffffffffffe0610f678461189f565b01366020840137611b73565b346100ea5760a06003193601126100ea5760043573ffffffffffffffffffffffffffffffffffffffff81168082036100ea576024359073ffffffffffffffffffffffffffffffffffffffff82168083036100ea5760443567ffffffffffffffff81116100ea57610fe7903690600401611835565b9360643567ffffffffffffffff81116100ea57611008903690600401611835565b9060843567ffffffffffffffff81116100ea5761102c61103d9136906004016118d9565b9133861490811561055f575061212a565b85518251036112d2576110518315156121b5565b60005b86518110156110ee578061106b6110e99289612116565b516110768286612116565b51908060005260fb60205260406000208860005260205260406000205461109f83821015612240565b8160005260fb6020526040600020896000526020528260406000209103905560005260fb6020526040600020866000526020526110e260406000209182546122cb565b90556120ba565b611054565b50949290938282604051604081527f4a39dc06d4c0dbc64b70af90fd698a233a518aa5d07e595d983b8c0526c8f7fb61113b61112d604084018a611920565b83810360208501528a611920565b918033930390a43b61114957005b60006111c361119f966111b1602097604051998a9889977fbc197c810000000000000000000000000000000000000000000000000000000089523360048a0152602489015260a0604489015260a4880190611920565b90600319878303016064880152611920565b9060031985830301608486015261230f565b92825a940393f1600091816112b2575b506111e35750600161037d61234b565b7fffffffff000000000000000000000000000000000000000000000000000000007fbc197c810000000000000000000000000000000000000000000000000000000091160315610137576040517f08c379a000000000000000000000000000000000000000000000000000000000815260206004820152602860248201527f455243313135353a204552433131353552656365697665722072656a6563746560448201527f6420746f6b656e730000000000000000000000000000000000000000000000006064820152608490fd5b6112cb91925060203d81116105585761054981836117dc565b90826111d3565b60846040517f08c379a000000000000000000000000000000000000000000000000000000000815260206004820152602860248201527f455243313135353a2069647320616e6420616d6f756e7473206c656e6774682060448201527f6d69736d617463680000000000000000000000000000000000000000000000006064820152fd5b346100ea5760206003193601126100ea5760043560005261012e60205260406000206040516000918181549361138b8561240a565b92838352602083019560018116908160001461160657506001146115bf575b506113b7925003826117dc565b8051600090156114d957506040519060009061012d546113d68161240a565b9060018116908115611497575060011461143c575b508161143092611403610dba9686945193849161175d565b01037fffffffffffffffffffffffffffffffffffffffffffffffffffffffffffffffe081018352826117dc565b60405191829182611792565b90915061012d6000527f193a3ae4da5049eb74cee39e4cf5827f7ce7b1d1d1775ef1c6311eb60558e6d56000905b828210611481575050820160200190610dba6113eb565b600181602092548385890101520191019061146a565b7fffffffffffffffffffffffffffffffffffffffffffffffffffffffffffffff001660208087019190915282151590920285019091019250610dba90506113eb565b915050604051908060fd54906114ee8261240a565b808552916001811690811561157a575060011461151d575b50509061151881610dba9303826117dc565b611430565b60fd81527f9346ac6dd7de6b96975fec380d4d994c4c12e6a8897544f22915316cc6cca280939250905b8082106115605750909150810160200161151882611506565b919260018160209254838588010152019101909291611547565b7fffffffffffffffffffffffffffffffffffffffffffffffffffffffffffffff001660208087019190915292151560051b850190920192506115189150839050611506565b90506000929192526020600020906000915b8183106115ea5750509060206113b792820101856113aa565b60209193508060019154838588010152019101909183926115d1565b7fffffffffffffffffffffffffffffffffffffffffffffffffffffffffffffff00168752506113b793151560051b830160200191508690506113aa565b346100ea5760206003193601126100ea576004357fffffffff0000000000000000000000000000000000000000000000000000000081168091036100ea57807fd9b67a2600000000000000000000000000000000000000000000000000000000602092149081156116eb575b81156116c1575b506040519015158152f35b7f01ffc9a700000000000000000000000000000000000000000000000000000000915014826116b6565b7f0e89341c00000000000000000000000000000000000000000000000000000000811491506116af565b346100ea5760406003193601126100ea5760043573ffffffffffffffffffffffffffffffffffffffff811681036100ea5761175560209160243590611ffc565b604051908152f35b918091926000905b82821061177d575011611776575050565b6000910152565b91508060209183015181860152018291611765565b7fffffffffffffffffffffffffffffffffffffffffffffffffffffffffffffffe0601f604093602084526117d5815180928160208801526020888801910161175d565b0116010190565b90601f7fffffffffffffffffffffffffffffffffffffffffffffffffffffffffffffffe0910116810190811067ffffffffffffffff821117610e6f57604052565b67ffffffffffffffff8111610e6f5760051b60200190565b9080601f8301121590816100ea5782359161184f8361181d565b9361185d60405195866117dc565b83855260208086019460051b8201019283116100ea57602001925b828410611886575050505090565b8161189b578335815260209384019301611878565b5080fd5b67ffffffffffffffff8111610e6f57601f017fffffffffffffffffffffffffffffffffffffffffffffffffffffffffffffffe01660200190565b81601f820112156100ea578035906118f08261189f565b926118fe60405194856117dc565b828452602083830101116100ea57816000926020809301838601378301015290565b906020808351928381520192019060005b81811061193e5750505090565b8251845260209384019390920191600101611931565b60975473ffffffffffffffffffffffffffffffffffffffff3391160361197657565b60646040517f08c379a000000000000000000000000000000000000000000000000000000000815260206004820152602060248201527f4f776e61626c653a2063616c6c6572206973206e6f7420746865206f776e65726044820152fd5b7fffffffffffffffffffffffff0000000000000000000000000000000000000000906097549073ffffffffffffffffffffffffffffffffffffffff609754911692839116176097557f8be0079c531659141344cd1fd0a4f28419497f9722a3daafe3b4186f6b6457e0600073ffffffffffffffffffffffffffffffffffffffff604051931692a3565b15611a6457565b60846040517f08c379a000000000000000000000000000000000000000000000000000000000815260206004820152602c60248201527f46756e6374696f6e206d7573742062652063616c6c6564207468726f7567682060448201527f64656c656761746563616c6c00000000000000000000000000000000000000006064820152fd5b15611aef57565b60846040517f08c379a000000000000000000000000000000000000000000000000000000000815260206004820152602c60248201527f46756e6374696f6e206d7573742062652063616c6c6564207468726f7567682060448201527f6163746976652070726f787900000000000000000000000000000000000000006064820152fd5b9060ff7f4910fdfa16fed3260ed0e7147f7cc6da11a60208b5b9406d12a635614ffd91435416600014611bad5750611bab9150611ef0565b565b604051927f52d1902d0000000000000000000000000000000000000000000000000000000084525a9360208160048173ffffffffffffffffffffffffffffffffffffffff88168099fa60009181611eba575b50611c885760846040517f08c379a000000000000000000000000000000000000000000000000000000000815260206004820152602e60248201527f45524331393637557067726164653a206e657720696d706c656d656e7461746960448201527f6f6e206973206e6f7420555550530000000000000000000000000000000000006064820152fd5b7f360894a13ba1a3210667c828492db98dca3e2076cc3735a920a3ca505d382bbc03611e3657611cb783611ef0565b604051937fbc7cd75a20ee27fd9adebab32041f755214dbc6bffa90cc0225b39da2e5c2d3b600086a281511590811591611e2e575b50611cf657505050565b600092823b15611dac57509180809284611da195519160205a920191f4903d15611da4573d611d248161189f565b90611d3260405192836117dc565b8152809160203d92013e5b60405191611d4c6060846117dc565b602783527f416464726573733a206c6f772d6c6576656c2064656c65676174652063616c6c60208401527f206661696c656400000000000000000000000000000000000000000000000000604084015261245d565b50565b506060611d3d565b807f08c379a0000000000000000000000000000000000000000000000000000000006084925260206004820152602660248201527f416464726573733a2064656c65676174652063616c6c20746f206e6f6e2d636f60448201527f6e747261637400000000000000000000000000000000000000000000000000006064820152fd5b905038611cec565b60846040517f08c379a000000000000000000000000000000000000000000000000000000000815260206004820152602960248201527f45524331393637557067726164653a20756e737570706f727465642070726f7860448201527f6961626c655555494400000000000000000000000000000000000000000000006064820152fd5b90916020823d8211611ee8575b81611ed4602093836117dc565b81010312611ee55750519038611bff565b80fd5b3d9150611ec7565b803b15611f78577fffffffffffffffffffffffff000000000000000000000000000000000000000073ffffffffffffffffffffffffffffffffffffffff7f360894a13ba1a3210667c828492db98dca3e2076cc3735a920a3ca505d382bbc5492169116177f360894a13ba1a3210667c828492db98dca3e2076cc3735a920a3ca505d382bbc55565b60846040517f08c379a000000000000000000000000000000000000000000000000000000000815260206004820152602d60248201527f455243313936373a206e657720696d706c656d656e746174696f6e206973206e60448201527f6f74206120636f6e7472616374000000000000000000000000000000000000006064820152fd5b73ffffffffffffffffffffffffffffffffffffffff169081156120365760005260fb60205260406000209060005260205260406000205490565b60846040517f08c379a000000000000000000000000000000000000000000000000000000000815260206004820152602a60248201527f455243313135353a2061646472657373207a65726f206973206e6f742061207660448201527f616c6964206f776e6572000000000000000000000000000000000000000000006064820152fd5b7fffffffffffffffffffffffffffffffffffffffffffffffffffffffffffffffff81146120e75760010190565b7f4e487b7100000000000000000000000000000000000000000000000000000000600052601160045260246000fd5b8051821015610d755760209160051b010190565b1561213157565b60846040517f08c379a000000000000000000000000000000000000000000000000000000000815260206004820152602f60248201527f455243313135353a2063616c6c6572206973206e6f7420746f6b656e206f776e60448201527f6572206e6f7220617070726f76656400000000000000000000000000000000006064820152fd5b156121bc57565b60846040517f08c379a000000000000000000000000000000000000000000000000000000000815260206004820152602560248201527f455243313135353a207472616e7366657220746f20746865207a65726f20616460448201527f64726573730000000000000000000000000000000000000000000000000000006064820152fd5b1561224757565b60846040517f08c379a000000000000000000000000000000000000000000000000000000000815260206004820152602a60248201527f455243313135353a20696e73756666696369656e742062616c616e636520666f60448201527f72207472616e73666572000000000000000000000000000000000000000000006064820152fd5b811981116120e7570190565b908160209103126100ea57517fffffffff00000000000000000000000000000000000000000000000000000000811681036100ea5790565b907fffffffffffffffffffffffffffffffffffffffffffffffffffffffffffffffe0601f6020936117d58151809281875287808801910161175d565b60009060033d1161235857565b905060046000803e60005160e01c90565b600060443d106123d0576040516003193d016004823e8051913d602484011167ffffffffffffffff8411176123db578282019283519167ffffffffffffffff83116123d3576003193d850101602084870101116123d357506123d0929101602001906117dc565b90565b949350505050565b92915050565b604051906123f06040836117dc565b6001825260203681840137612406600083612116565b5290565b90600182811c92168015612453575b602083101461242457565b7f4e487b7100000000000000000000000000000000000000000000000000000000600052602260045260246000fd5b91607f1691612419565b90919015612469575090565b81511561042a5750805190602001fd5b1561248057565b60846040517f08c379a000000000000000000000000000000000000000000000000000000000815260206004820152602b60248201527f496e697469616c697a61626c653a20636f6e7472616374206973206e6f74206960448201527f6e697469616c697a696e670000000000000000000000000000000000000000006064820152fdfea26469706673582212204cf21201f57f911135400cfc2feabbb1b1dc39ba094b833aa782637dc2fff9b564736f6c634300080f0033",
  "devdoc": {
    "kind": "dev",
    "methods": {
      "balanceOf(address,uint256)": {
        "details": "See {IERC1155-balanceOf}. Requirements: - `account` cannot be the zero address."
      },
      "balanceOfBatch(address[],uint256[])": {
        "details": "See {IERC1155-balanceOfBatch}. Requirements: - `accounts` and `ids` must have the same length."
      },
      "constructor": {
        "custom:oz-upgrades-unsafe-allow": "constructor"
      },
      "isApprovedForAll(address,address)": {
        "details": "See {IERC1155-isApprovedForAll}."
      },
      "owner()": {
        "details": "Returns the address of the current owner."
      },
      "proxiableUUID()": {
        "details": "Implementation of the ERC1822 {proxiableUUID} function. This returns the storage slot used by the implementation. It is used to validate that the this implementation remains valid after an upgrade. IMPORTANT: A proxy pointing at a proxiable contract should not be considered proxiable itself, because this risks bricking a proxy that upgrades to it, by delegating to itself until out of gas. Thus it is critical that this function revert if invoked through a proxy. This is guaranteed by the `notDelegated` modifier."
      },
      "renounceOwnership()": {
        "details": "Leaves the contract without owner. It will not be possible to call `onlyOwner` functions anymore. Can only be called by the current owner. NOTE: Renouncing ownership will leave the contract without an owner, thereby removing any functionality that is only available to the owner."
      },
      "safeBatchTransferFrom(address,address,uint256[],uint256[],bytes)": {
        "details": "See {IERC1155-safeBatchTransferFrom}."
      },
      "safeTransferFrom(address,address,uint256,uint256,bytes)": {
        "details": "See {IERC1155-safeTransferFrom}."
      },
      "setApprovalForAll(address,bool)": {
        "details": "See {IERC1155-setApprovalForAll}."
      },
      "supportsInterface(bytes4)": {
        "details": "See {IERC165-supportsInterface}."
      },
      "transferOwnership(address)": {
        "details": "Transfers ownership of the contract to a new account (`newOwner`). Can only be called by the current owner."
      },
      "upgradeTo(address)": {
        "details": "Upgrade the implementation of the proxy to `newImplementation`. Calls {_authorizeUpgrade}. Emits an {Upgraded} event."
      },
      "upgradeToAndCall(address,bytes)": {
        "details": "Upgrade the implementation of the proxy to `newImplementation`, and subsequently execute the function call encoded in `data`. Calls {_authorizeUpgrade}. Emits an {Upgraded} event."
      },
      "uri(uint256)": {
        "details": "See {IERC1155MetadataURI-uri}. This implementation returns the concatenation of the `_baseURI` and the token-specific uri if the latter is set This enables the following behaviors: - if `_tokenURIs[tokenId]` is set, then the result is the concatenation   of `_baseURI` and `_tokenURIs[tokenId]` (keep in mind that `_baseURI`   is empty per default); - if `_tokenURIs[tokenId]` is NOT set then we fallback to `super.uri()`   which in most cases will contain `ERC1155._uri`; - if `_tokenURIs[tokenId]` is NOT set, and if the parents do not have a   uri value set, then the result is empty."
      }
    },
    "version": 1
  },
  "userdoc": {
    "kind": "user",
    "methods": {},
    "version": 1
  },
  "storageLayout": {
    "storage": [
      {
        "astId": 527,
        "contract": "contracts/HYDNSeal.sol:HYDNSeal",
        "label": "_initialized",
        "offset": 0,
        "slot": "0",
        "type": "t_uint8"
      },
      {
        "astId": 530,
        "contract": "contracts/HYDNSeal.sol:HYDNSeal",
        "label": "_initializing",
        "offset": 1,
        "slot": "0",
        "type": "t_bool"
      },
      {
        "astId": 509,
        "contract": "contracts/HYDNSeal.sol:HYDNSeal",
        "label": "__gap",
        "offset": 0,
        "slot": "1",
        "type": "t_array(t_uint256)50_storage"
      },
      {
        "astId": 2628,
        "contract": "contracts/HYDNSeal.sol:HYDNSeal",
        "label": "__gap",
        "offset": 0,
        "slot": "51",
        "type": "t_array(t_uint256)50_storage"
      },
      {
        "astId": 806,
        "contract": "contracts/HYDNSeal.sol:HYDNSeal",
        "label": "__gap",
        "offset": 0,
        "slot": "101",
        "type": "t_array(t_uint256)50_storage"
      },
      {
        "astId": 10,
        "contract": "contracts/HYDNSeal.sol:HYDNSeal",
        "label": "_owner",
        "offset": 0,
        "slot": "151",
        "type": "t_address"
      },
      {
        "astId": 130,
        "contract": "contracts/HYDNSeal.sol:HYDNSeal",
        "label": "__gap",
        "offset": 0,
        "slot": "152",
        "type": "t_array(t_uint256)49_storage"
      },
      {
        "astId": 2958,
        "contract": "contracts/HYDNSeal.sol:HYDNSeal",
        "label": "__gap",
        "offset": 0,
        "slot": "201",
        "type": "t_array(t_uint256)50_storage"
      },
      {
        "astId": 836,
        "contract": "contracts/HYDNSeal.sol:HYDNSeal",
        "label": "_balances",
        "offset": 0,
        "slot": "251",
        "type": "t_mapping(t_uint256,t_mapping(t_address,t_uint256))"
      },
      {
        "astId": 842,
        "contract": "contracts/HYDNSeal.sol:HYDNSeal",
        "label": "_operatorApprovals",
        "offset": 0,
        "slot": "252",
        "type": "t_mapping(t_address,t_mapping(t_address,t_bool))"
      },
      {
        "astId": 844,
        "contract": "contracts/HYDNSeal.sol:HYDNSeal",
        "label": "_uri",
        "offset": 0,
        "slot": "253",
        "type": "t_string_storage"
      },
      {
        "astId": 2051,
        "contract": "contracts/HYDNSeal.sol:HYDNSeal",
        "label": "__gap",
        "offset": 0,
        "slot": "254",
        "type": "t_array(t_uint256)47_storage"
      },
      {
        "astId": 2249,
        "contract": "contracts/HYDNSeal.sol:HYDNSeal",
        "label": "_baseURI",
        "offset": 0,
        "slot": "301",
        "type": "t_string_storage"
      },
      {
        "astId": 2253,
        "contract": "contracts/HYDNSeal.sol:HYDNSeal",
        "label": "_tokenURIs",
        "offset": 0,
        "slot": "302",
        "type": "t_mapping(t_uint256,t_string_storage)"
      },
      {
        "astId": 2328,
        "contract": "contracts/HYDNSeal.sol:HYDNSeal",
        "label": "__gap",
        "offset": 0,
        "slot": "303",
        "type": "t_array(t_uint256)48_storage"
      },
      {
        "astId": 3104,
        "contract": "contracts/HYDNSeal.sol:HYDNSeal",
        "label": "test1",
        "offset": 0,
        "slot": "351",
        "type": "t_uint256"
      }
    ],
    "types": {
      "t_address": {
        "encoding": "inplace",
        "label": "address",
        "numberOfBytes": "20"
      },
      "t_array(t_uint256)47_storage": {
        "base": "t_uint256",
        "encoding": "inplace",
        "label": "uint256[47]",
        "numberOfBytes": "1504"
      },
      "t_array(t_uint256)48_storage": {
        "base": "t_uint256",
        "encoding": "inplace",
        "label": "uint256[48]",
        "numberOfBytes": "1536"
      },
      "t_array(t_uint256)49_storage": {
        "base": "t_uint256",
        "encoding": "inplace",
        "label": "uint256[49]",
        "numberOfBytes": "1568"
      },
      "t_array(t_uint256)50_storage": {
        "base": "t_uint256",
        "encoding": "inplace",
        "label": "uint256[50]",
        "numberOfBytes": "1600"
      },
      "t_bool": {
        "encoding": "inplace",
        "label": "bool",
        "numberOfBytes": "1"
      },
      "t_mapping(t_address,t_bool)": {
        "encoding": "mapping",
        "key": "t_address",
        "label": "mapping(address => bool)",
        "numberOfBytes": "32",
        "value": "t_bool"
      },
      "t_mapping(t_address,t_mapping(t_address,t_bool))": {
        "encoding": "mapping",
        "key": "t_address",
        "label": "mapping(address => mapping(address => bool))",
        "numberOfBytes": "32",
        "value": "t_mapping(t_address,t_bool)"
      },
      "t_mapping(t_address,t_uint256)": {
        "encoding": "mapping",
        "key": "t_address",
        "label": "mapping(address => uint256)",
        "numberOfBytes": "32",
        "value": "t_uint256"
      },
      "t_mapping(t_uint256,t_mapping(t_address,t_uint256))": {
        "encoding": "mapping",
        "key": "t_uint256",
        "label": "mapping(uint256 => mapping(address => uint256))",
        "numberOfBytes": "32",
        "value": "t_mapping(t_address,t_uint256)"
      },
      "t_mapping(t_uint256,t_string_storage)": {
        "encoding": "mapping",
        "key": "t_uint256",
        "label": "mapping(uint256 => string)",
        "numberOfBytes": "32",
        "value": "t_string_storage"
      },
      "t_string_storage": {
        "encoding": "bytes",
        "label": "string",
        "numberOfBytes": "32"
      },
      "t_uint256": {
        "encoding": "inplace",
        "label": "uint256",
        "numberOfBytes": "32"
      },
      "t_uint8": {
        "encoding": "inplace",
        "label": "uint8",
        "numberOfBytes": "1"
      }
    }
  }
}