{
  "address": "0x6f5624E32634A27d5627108BfF62390919B2ff87",
  "abi": [
    {
      "inputs": [],
      "stateMutability": "nonpayable",
      "type": "constructor"
    },
    {
      "anonymous": false,
      "inputs": [
        {
          "indexed": false,
          "internalType": "address",
          "name": "previousAdmin",
          "type": "address"
        },
        {
          "indexed": false,
          "internalType": "address",
          "name": "newAdmin",
          "type": "address"
        }
      ],
      "name": "AdminChanged",
      "type": "event"
    },
    {
      "anonymous": false,
      "inputs": [
        {
          "indexed": true,
          "internalType": "address",
          "name": "account",
          "type": "address"
        },
        {
          "indexed": true,
          "internalType": "address",
          "name": "operator",
          "type": "address"
        },
        {
          "indexed": false,
          "internalType": "bool",
          "name": "approved",
          "type": "bool"
        }
      ],
      "name": "ApprovalForAll",
      "type": "event"
    },
    {
      "anonymous": false,
      "inputs": [
        {
          "indexed": true,
          "internalType": "address",
          "name": "beacon",
          "type": "address"
        }
      ],
      "name": "BeaconUpgraded",
      "type": "event"
    },
    {
      "anonymous": false,
      "inputs": [
        {
          "indexed": false,
          "internalType": "uint8",
          "name": "version",
          "type": "uint8"
        }
      ],
      "name": "Initialized",
      "type": "event"
    },
    {
      "anonymous": false,
      "inputs": [
        {
          "indexed": true,
          "internalType": "address",
          "name": "previousOwner",
          "type": "address"
        },
        {
          "indexed": true,
          "internalType": "address",
          "name": "newOwner",
          "type": "address"
        }
      ],
      "name": "OwnershipTransferred",
      "type": "event"
    },
    {
      "anonymous": false,
      "inputs": [
        {
          "indexed": true,
          "internalType": "address",
          "name": "operator",
          "type": "address"
        },
        {
          "indexed": true,
          "internalType": "address",
          "name": "from",
          "type": "address"
        },
        {
          "indexed": true,
          "internalType": "address",
          "name": "to",
          "type": "address"
        },
        {
          "indexed": false,
          "internalType": "uint256[]",
          "name": "ids",
          "type": "uint256[]"
        },
        {
          "indexed": false,
          "internalType": "uint256[]",
          "name": "values",
          "type": "uint256[]"
        }
      ],
      "name": "TransferBatch",
      "type": "event"
    },
    {
      "anonymous": false,
      "inputs": [
        {
          "indexed": true,
          "internalType": "address",
          "name": "operator",
          "type": "address"
        },
        {
          "indexed": true,
          "internalType": "address",
          "name": "from",
          "type": "address"
        },
        {
          "indexed": true,
          "internalType": "address",
          "name": "to",
          "type": "address"
        },
        {
          "indexed": false,
          "internalType": "uint256",
          "name": "id",
          "type": "uint256"
        },
        {
          "indexed": false,
          "internalType": "uint256",
          "name": "value",
          "type": "uint256"
        }
      ],
      "name": "TransferSingle",
      "type": "event"
    },
    {
      "anonymous": false,
      "inputs": [
        {
          "indexed": false,
          "internalType": "string",
          "name": "value",
          "type": "string"
        },
        {
          "indexed": true,
          "internalType": "uint256",
          "name": "id",
          "type": "uint256"
        }
      ],
      "name": "URI",
      "type": "event"
    },
    {
      "anonymous": false,
      "inputs": [
        {
          "indexed": true,
          "internalType": "address",
          "name": "implementation",
          "type": "address"
        }
      ],
      "name": "Upgraded",
      "type": "event"
    },
    {
      "inputs": [
        {
          "internalType": "address",
          "name": "account",
          "type": "address"
        },
        {
          "internalType": "uint256",
          "name": "id",
          "type": "uint256"
        }
      ],
      "name": "balanceOf",
      "outputs": [
        {
          "internalType": "uint256",
          "name": "",
          "type": "uint256"
        }
      ],
      "stateMutability": "view",
      "type": "function"
    },
    {
      "inputs": [
        {
          "internalType": "address[]",
          "name": "accounts",
          "type": "address[]"
        },
        {
          "internalType": "uint256[]",
          "name": "ids",
          "type": "uint256[]"
        }
      ],
      "name": "balanceOfBatch",
      "outputs": [
        {
          "internalType": "uint256[]",
          "name": "",
          "type": "uint256[]"
        }
      ],
      "stateMutability": "view",
      "type": "function"
    },
    {
      "inputs": [
        {
          "internalType": "uint256",
          "name": "id",
          "type": "uint256"
        }
      ],
      "name": "exists",
      "outputs": [
        {
          "internalType": "bool",
          "name": "",
          "type": "bool"
        }
      ],
      "stateMutability": "view",
      "type": "function"
    },
    {
      "inputs": [],
      "name": "initialize",
      "outputs": [],
      "stateMutability": "nonpayable",
      "type": "function"
    },
    {
      "inputs": [
        {
          "internalType": "address",
          "name": "account",
          "type": "address"
        },
        {
          "internalType": "address",
          "name": "operator",
          "type": "address"
        }
      ],
      "name": "isApprovedForAll",
      "outputs": [
        {
          "internalType": "bool",
          "name": "",
          "type": "bool"
        }
      ],
      "stateMutability": "view",
      "type": "function"
    },
    {
      "inputs": [
        {
          "internalType": "address[]",
          "name": "_contracts",
          "type": "address[]"
        },
        {
          "internalType": "string",
          "name": "tokenURI",
          "type": "string"
        }
      ],
      "name": "mintSeal",
      "outputs": [
        {
          "internalType": "bool",
          "name": "success",
          "type": "bool"
        }
      ],
      "stateMutability": "nonpayable",
      "type": "function"
    },
    {
      "inputs": [],
      "name": "name",
      "outputs": [
        {
          "internalType": "string",
          "name": "",
          "type": "string"
        }
      ],
      "stateMutability": "view",
      "type": "function"
    },
    {
      "inputs": [],
      "name": "owner",
      "outputs": [
        {
          "internalType": "address",
          "name": "",
          "type": "address"
        }
      ],
      "stateMutability": "view",
      "type": "function"
    },
    {
      "inputs": [],
      "name": "proxiableUUID",
      "outputs": [
        {
          "internalType": "bytes32",
          "name": "",
          "type": "bytes32"
        }
      ],
      "stateMutability": "view",
      "type": "function"
    },
    {
      "inputs": [],
      "name": "renounceOwnership",
      "outputs": [],
      "stateMutability": "nonpayable",
      "type": "function"
    },
    {
      "inputs": [
        {
          "internalType": "address",
          "name": "from",
          "type": "address"
        },
        {
          "internalType": "address",
          "name": "to",
          "type": "address"
        },
        {
          "internalType": "uint256[]",
          "name": "ids",
          "type": "uint256[]"
        },
        {
          "internalType": "uint256[]",
          "name": "amounts",
          "type": "uint256[]"
        },
        {
          "internalType": "bytes",
          "name": "data",
          "type": "bytes"
        }
      ],
      "name": "safeBatchTransferFrom",
      "outputs": [],
      "stateMutability": "nonpayable",
      "type": "function"
    },
    {
      "inputs": [
        {
          "internalType": "address",
          "name": "from",
          "type": "address"
        },
        {
          "internalType": "address",
          "name": "to",
          "type": "address"
        },
        {
          "internalType": "uint256",
          "name": "id",
          "type": "uint256"
        },
        {
          "internalType": "uint256",
          "name": "amount",
          "type": "uint256"
        },
        {
          "internalType": "bytes",
          "name": "data",
          "type": "bytes"
        }
      ],
      "name": "safeTransferFrom",
      "outputs": [],
      "stateMutability": "nonpayable",
      "type": "function"
    },
    {
      "inputs": [
        {
          "internalType": "address",
          "name": "operator",
          "type": "address"
        },
        {
          "internalType": "bool",
          "name": "approved",
          "type": "bool"
        }
      ],
      "name": "setApprovalForAll",
      "outputs": [],
      "stateMutability": "nonpayable",
      "type": "function"
    },
    {
      "inputs": [
        {
          "internalType": "bytes4",
          "name": "interfaceId",
          "type": "bytes4"
        }
      ],
      "name": "supportsInterface",
      "outputs": [
        {
          "internalType": "bool",
          "name": "",
          "type": "bool"
        }
      ],
      "stateMutability": "view",
      "type": "function"
    },
    {
      "inputs": [],
      "name": "symbol",
      "outputs": [
        {
          "internalType": "string",
          "name": "",
          "type": "string"
        }
      ],
      "stateMutability": "view",
      "type": "function"
    },
    {
      "inputs": [],
      "name": "totalAudits",
      "outputs": [
        {
          "internalType": "uint256",
          "name": "_value",
          "type": "uint256"
        }
      ],
      "stateMutability": "view",
      "type": "function"
    },
    {
      "inputs": [
        {
          "internalType": "uint256",
          "name": "id",
          "type": "uint256"
        }
      ],
      "name": "totalSupply",
      "outputs": [
        {
          "internalType": "uint256",
          "name": "",
          "type": "uint256"
        }
      ],
      "stateMutability": "view",
      "type": "function"
    },
    {
      "inputs": [
        {
          "internalType": "address",
          "name": "newOwner",
          "type": "address"
        }
      ],
      "name": "transferOwnership",
      "outputs": [],
      "stateMutability": "nonpayable",
      "type": "function"
    },
    {
      "inputs": [
        {
          "internalType": "address",
          "name": "newImplementation",
          "type": "address"
        }
      ],
      "name": "upgradeTo",
      "outputs": [],
      "stateMutability": "nonpayable",
      "type": "function"
    },
    {
      "inputs": [
        {
          "internalType": "address",
          "name": "newImplementation",
          "type": "address"
        },
        {
          "internalType": "bytes",
          "name": "data",
          "type": "bytes"
        }
      ],
      "name": "upgradeToAndCall",
      "outputs": [],
      "stateMutability": "payable",
      "type": "function"
    },
    {
      "inputs": [
        {
          "internalType": "uint256",
          "name": "tokenId",
          "type": "uint256"
        }
      ],
      "name": "uri",
      "outputs": [
        {
          "internalType": "string",
          "name": "",
          "type": "string"
        }
      ],
      "stateMutability": "view",
      "type": "function"
    }
  ],
  "numDeployments": 1,
  "solcInputHash": "7d761df73ba9d854673608283385ebaf",
  "bytecode": "0x60a0604052306080523480156200001557600080fd5b506200002062000026565b620000e8565b600054610100900460ff1615620000935760405162461bcd60e51b815260206004820152602760248201527f496e697469616c697a61626c653a20636f6e747261637420697320696e697469604482015266616c697a696e6760c81b606482015260840160405180910390fd5b60005460ff9081161015620000e6576000805460ff191660ff9081179091556040519081527f7f26b83ff96e1f2b6a682f133852f6798a09c465da95921460cefb38474024989060200160405180910390a15b565b608051612e2462000120600039600081816107d70152818161086d01528181610ae601528181610b7c0152610cab0152612e246000f3fe6080604052600436106101695760003560e01c80634f558e79116100cb57806395d89b411161007f578063e985e9c511610059578063e985e9c5146103d4578063f242432a1461042a578063f2fde38b1461044a57600080fd5b806395d89b4114610371578063a22cb46514610386578063bd85b039146103a657600080fd5b8063715018a6116100b0578063715018a6146103125780638129fc1c146103275780638da5cb5b1461033c57600080fd5b80634f558e79146102cd57806352d1902d146102fd57600080fd5b80632eb2c2d6116101225780634a07147f116101075780634a07147f146102755780634e1273f41461028d5780634f1ef286146102ba57600080fd5b80632eb2c2d6146102335780633659cfe61461025557600080fd5b806306fdde031161015357806306fdde03146101d15780630e89341c146101f35780631a95b7371461021357600080fd5b8062fdd58e1461016e57806301ffc9a7146101a1575b600080fd5b34801561017a57600080fd5b5061018e6101893660046121de565b61046a565b6040519081526020015b60405180910390f35b3480156101ad57600080fd5b506101c16101bc366004612237565b610532565b6040519015158152602001610198565b3480156101dd57600080fd5b506101e6610615565b6040516101989190612280565b3480156101ff57600080fd5b506101e661020e3660046122d1565b6106a4565b34801561021f57600080fd5b506101c161022e3660046123fa565b6106af565b34801561023f57600080fd5b5061025361024e3660046125d0565b610753565b005b34801561026157600080fd5b5061025361027036600461268a565b6107c0565b34801561028157600080fd5b506101935461018e9081565b34801561029957600080fd5b506102ad6102a83660046126a6565b610991565b604051610198919061277e565b6102536102c83660046127c1565b610acf565b3480156102d957600080fd5b506101c16102e83660046122d1565b600090815261015f6020526040902054151590565b34801561030957600080fd5b5061018e610c91565b34801561031e57600080fd5b50610253610d64565b34801561033357600080fd5b50610253610d78565b34801561034857600080fd5b5060975460405173ffffffffffffffffffffffffffffffffffffffff9091168152602001610198565b34801561037d57600080fd5b506101e6610fd3565b34801561039257600080fd5b506102536103a1366004612808565b610fe1565b3480156103b257600080fd5b5061018e6103c13660046122d1565b600090815261015f602052604090205490565b3480156103e057600080fd5b506101c16103ef366004612847565b73ffffffffffffffffffffffffffffffffffffffff918216600090815260fc6020908152604080832093909416825291909152205460ff1690565b34801561043657600080fd5b5061025361044536600461287c565b610fec565b34801561045657600080fd5b5061025361046536600461268a565b611034565b600073ffffffffffffffffffffffffffffffffffffffff83166104fa5760405162461bcd60e51b815260206004820152602a60248201527f455243313135353a2061646472657373207a65726f206973206e6f742061207660448201527f616c6964206f776e65720000000000000000000000000000000000000000000060648201526084015b60405180910390fd5b50600081815260fb6020908152604080832073ffffffffffffffffffffffffffffffffffffffff861684529091529020545b92915050565b60007fffffffff0000000000000000000000000000000000000000000000000000000082167fd9b67a260000000000000000000000000000000000000000000000000000000014806105c557507fffffffff0000000000000000000000000000000000000000000000000000000082167f0e89341c00000000000000000000000000000000000000000000000000000000145b8061052c57507f01ffc9a7000000000000000000000000000000000000000000000000000000007fffffffff0000000000000000000000000000000000000000000000000000000083161461052c565b6101918054610623906128d9565b80601f016020809104026020016040519081016040528092919081815260200182805461064f906128d9565b801561069c5780601f106106715761010080835404028352916020019161069c565b820191906000526020600020905b81548152906001019060200180831161067f57829003601f168201915b505050505081565b606061052c826110ce565b60006106b96111af565b6106c861019380546001019055565b60006106d46101935490565b90506106e08184611216565b60005b60ff81168511156107455761073386868360ff168181106107065761070661292c565b905060200201602081019061071b919061268a565b83600160405180602001604052806000815250611274565b8061073d8161298a565b9150506106e3565b5060019150505b9392505050565b60405162461bcd60e51b8152602060048201526024808201527f4859444e5365616c3a207472616e73666572206261746368206e6f7420616c6c60448201527f6f7765640000000000000000000000000000000000000000000000000000000060648201526084016104f1565b73ffffffffffffffffffffffffffffffffffffffff7f000000000000000000000000000000000000000000000000000000000000000016300361086b5760405162461bcd60e51b815260206004820152602c60248201527f46756e6374696f6e206d7573742062652063616c6c6564207468726f7567682060448201527f64656c656761746563616c6c000000000000000000000000000000000000000060648201526084016104f1565b7f000000000000000000000000000000000000000000000000000000000000000073ffffffffffffffffffffffffffffffffffffffff166108e07f360894a13ba1a3210667c828492db98dca3e2076cc3735a920a3ca505d382bbc5473ffffffffffffffffffffffffffffffffffffffff1690565b73ffffffffffffffffffffffffffffffffffffffff16146109695760405162461bcd60e51b815260206004820152602c60248201527f46756e6374696f6e206d7573742062652063616c6c6564207468726f7567682060448201527f6163746976652070726f7879000000000000000000000000000000000000000060648201526084016104f1565b610972816113dc565b6040805160008082526020820190925261098e918391906113e4565b50565b60608151835114610a0a5760405162461bcd60e51b815260206004820152602960248201527f455243313135353a206163636f756e747320616e6420696473206c656e67746860448201527f206d69736d61746368000000000000000000000000000000000000000000000060648201526084016104f1565b6000835167ffffffffffffffff811115610a2657610a266122ea565b604051908082528060200260200182016040528015610a4f578160200160208202803683370190505b50905060005b8451811015610ac757610a9a858281518110610a7357610a7361292c565b6020026020010151858381518110610a8d57610a8d61292c565b602002602001015161046a565b828281518110610aac57610aac61292c565b6020908102919091010152610ac0816129a9565b9050610a55565b509392505050565b73ffffffffffffffffffffffffffffffffffffffff7f0000000000000000000000000000000000000000000000000000000000000000163003610b7a5760405162461bcd60e51b815260206004820152602c60248201527f46756e6374696f6e206d7573742062652063616c6c6564207468726f7567682060448201527f64656c656761746563616c6c000000000000000000000000000000000000000060648201526084016104f1565b7f000000000000000000000000000000000000000000000000000000000000000073ffffffffffffffffffffffffffffffffffffffff16610bef7f360894a13ba1a3210667c828492db98dca3e2076cc3735a920a3ca505d382bbc5473ffffffffffffffffffffffffffffffffffffffff1690565b73ffffffffffffffffffffffffffffffffffffffff1614610c785760405162461bcd60e51b815260206004820152602c60248201527f46756e6374696f6e206d7573742062652063616c6c6564207468726f7567682060448201527f6163746976652070726f7879000000000000000000000000000000000000000060648201526084016104f1565b610c81826113dc565b610c8d828260016113e4565b5050565b60003073ffffffffffffffffffffffffffffffffffffffff7f00000000000000000000000000000000000000000000000000000000000000001614610d3e5760405162461bcd60e51b815260206004820152603860248201527f555550535570677261646561626c653a206d757374206e6f742062652063616c60448201527f6c6564207468726f7567682064656c656761746563616c6c000000000000000060648201526084016104f1565b507f360894a13ba1a3210667c828492db98dca3e2076cc3735a920a3ca505d382bbc5b90565b610d6c6111af565b610d7660006115b4565b565b600054610100900460ff1615808015610d985750600054600160ff909116105b80610db25750303b158015610db2575060005460ff166001145b610e245760405162461bcd60e51b815260206004820152602e60248201527f496e697469616c697a61626c653a20636f6e747261637420697320616c72656160448201527f647920696e697469616c697a656400000000000000000000000000000000000060648201526084016104f1565b600080547fffffffffffffffffffffffffffffffffffffffffffffffffffffffffffffff001660011790558015610e8257600080547fffffffffffffffffffffffffffffffffffffffffffffffffffffffffffff00ff166101001790555b610e8a61162b565b610e9261162b565b610e9a6116a8565b610ea261172d565b610eaa61162b565b60408051808201909152600981527f4859444e205365616c0000000000000000000000000000000000000000000000602082015261019190610eec9082612a2f565b5060408051808201909152600881527f4859444e5345414c000000000000000000000000000000000000000000000000602082015261019290610f2f9082612a2f565b50610f6e6040518060400160405280600781526020017f697066733a2f2f000000000000000000000000000000000000000000000000008152506117b2565b801561098e57600080547fffffffffffffffffffffffffffffffffffffffffffffffffffffffffffff00ff169055604051600181527f7f26b83ff96e1f2b6a682f133852f6798a09c465da95921460cefb38474024989060200160405180910390a150565b6101928054610623906128d9565b610c8d3383836117bf565b60405162461bcd60e51b815260206004820152601e60248201527f4859444e5365616c3a207472616e73666572206e6f7420616c6c6f776564000060448201526064016104f1565b61103c6111af565b73ffffffffffffffffffffffffffffffffffffffff81166110c55760405162461bcd60e51b815260206004820152602660248201527f4f776e61626c653a206e6577206f776e657220697320746865207a65726f206160448201527f646472657373000000000000000000000000000000000000000000000000000060648201526084016104f1565b61098e816115b4565b600081815261012e60205260408120805460609291906110ed906128d9565b80601f0160208091040260200160405190810160405280929190818152602001828054611119906128d9565b80156111665780601f1061113b57610100808354040283529160200191611166565b820191906000526020600020905b81548152906001019060200180831161114957829003601f168201915b5050505050905060008151116111845761117f836118f8565b61074c565b61012d81604051602001611199929190612b4c565b6040516020818303038152906040529392505050565b60975473ffffffffffffffffffffffffffffffffffffffff163314610d765760405162461bcd60e51b815260206004820181905260248201527f4f776e61626c653a2063616c6c6572206973206e6f7420746865206f776e657260448201526064016104f1565b600082815261012e6020526040902061122f8282612a2f565b50817f6bb7ff708619ba0610cba295a58592e0451dee2622938c8755667688daf3529b61125b846106a4565b6040516112689190612280565b60405180910390a25050565b73ffffffffffffffffffffffffffffffffffffffff84166112fd5760405162461bcd60e51b815260206004820152602160248201527f455243313135353a206d696e7420746f20746865207a65726f2061646472657360448201527f730000000000000000000000000000000000000000000000000000000000000060648201526084016104f1565b3360006113098561198c565b905060006113168561198c565b9050611327836000898585896119d7565b600086815260fb6020908152604080832073ffffffffffffffffffffffffffffffffffffffff8b16845290915281208054879290611366908490612bf0565b9091555050604080518781526020810187905273ffffffffffffffffffffffffffffffffffffffff808a1692600092918716917fc3d58168c5ae7397731d063d5bbf3d657854427343f4c083240f7aacaa2d0f62910160405180910390a46113d3836000898989896119ed565b50505050505050565b61098e6111af565b7f4910fdfa16fed3260ed0e7147f7cc6da11a60208b5b9406d12a635614ffd91435460ff161561141c5761141783611c29565b505050565b8273ffffffffffffffffffffffffffffffffffffffff166352d1902d6040518163ffffffff1660e01b8152600401602060405180830381865afa9250505080156114a1575060408051601f3d9081017fffffffffffffffffffffffffffffffffffffffffffffffffffffffffffffffe016820190925261149e91810190612c08565b60015b6115135760405162461bcd60e51b815260206004820152602e60248201527f45524331393637557067726164653a206e657720696d706c656d656e7461746960448201527f6f6e206973206e6f74205555505300000000000000000000000000000000000060648201526084016104f1565b7f360894a13ba1a3210667c828492db98dca3e2076cc3735a920a3ca505d382bbc81146115a85760405162461bcd60e51b815260206004820152602960248201527f45524331393637557067726164653a20756e737570706f727465642070726f7860448201527f6961626c6555554944000000000000000000000000000000000000000000000060648201526084016104f1565b50611417838383611d19565b6097805473ffffffffffffffffffffffffffffffffffffffff8381167fffffffffffffffffffffffff0000000000000000000000000000000000000000831681179093556040519116919082907f8be0079c531659141344cd1fd0a4f28419497f9722a3daafe3b4186f6b6457e090600090a35050565b600054610100900460ff16610d765760405162461bcd60e51b815260206004820152602b60248201527f496e697469616c697a61626c653a20636f6e7472616374206973206e6f74206960448201527f6e697469616c697a696e6700000000000000000000000000000000000000000060648201526084016104f1565b600054610100900460ff166117255760405162461bcd60e51b815260206004820152602b60248201527f496e697469616c697a61626c653a20636f6e7472616374206973206e6f74206960448201527f6e697469616c697a696e6700000000000000000000000000000000000000000060648201526084016104f1565b610d76611d44565b600054610100900460ff166117aa5760405162461bcd60e51b815260206004820152602b60248201527f496e697469616c697a61626c653a20636f6e7472616374206973206e6f74206960448201527f6e697469616c697a696e6700000000000000000000000000000000000000000060648201526084016104f1565b610d76611dca565b61012d610c8d8282612a2f565b8173ffffffffffffffffffffffffffffffffffffffff168373ffffffffffffffffffffffffffffffffffffffff16036118605760405162461bcd60e51b815260206004820152602960248201527f455243313135353a2073657474696e6720617070726f76616c2073746174757360448201527f20666f722073656c66000000000000000000000000000000000000000000000060648201526084016104f1565b73ffffffffffffffffffffffffffffffffffffffff838116600081815260fc602090815260408083209487168084529482529182902080547fffffffffffffffffffffffffffffffffffffffffffffffffffffffffffffff001686151590811790915591519182527f17307eab39ab6107e8899845ad3d59bd9653f200f220920489ca2b5937696c31910160405180910390a3505050565b606060fd8054611907906128d9565b80601f0160208091040260200160405190810160405280929190818152602001828054611933906128d9565b80156119805780601f1061195557610100808354040283529160200191611980565b820191906000526020600020905b81548152906001019060200180831161196357829003601f168201915b50505050509050919050565b604080516001808252818301909252606091600091906020808301908036833701905050905082816000815181106119c6576119c661292c565b602090810291909101015292915050565b6119e5868686868686611e64565b505050505050565b73ffffffffffffffffffffffffffffffffffffffff84163b156119e5576040517ff23a6e6100000000000000000000000000000000000000000000000000000000815273ffffffffffffffffffffffffffffffffffffffff85169063f23a6e6190611a649089908990889088908890600401612c21565b6020604051808303816000875af1925050508015611abd575060408051601f3d9081017fffffffffffffffffffffffffffffffffffffffffffffffffffffffffffffffe0168201909252611aba91810190612cba565b60015b611b7257611ac9612cd7565b806308c379a003611b025750611add612cf2565b80611ae85750611b04565b8060405162461bcd60e51b81526004016104f19190612280565b505b60405162461bcd60e51b815260206004820152603460248201527f455243313135353a207472616e7366657220746f206e6f6e204552433131353560448201527f526563656976657220696d706c656d656e74657200000000000000000000000060648201526084016104f1565b7fffffffff0000000000000000000000000000000000000000000000000000000081167ff23a6e6100000000000000000000000000000000000000000000000000000000146113d35760405162461bcd60e51b815260206004820152602860248201527f455243313135353a204552433131353552656365697665722072656a6563746560448201527f6420746f6b656e7300000000000000000000000000000000000000000000000060648201526084016104f1565b73ffffffffffffffffffffffffffffffffffffffff81163b611cb35760405162461bcd60e51b815260206004820152602d60248201527f455243313936373a206e657720696d706c656d656e746174696f6e206973206e60448201527f6f74206120636f6e74726163740000000000000000000000000000000000000060648201526084016104f1565b7f360894a13ba1a3210667c828492db98dca3e2076cc3735a920a3ca505d382bbc80547fffffffffffffffffffffffff00000000000000000000000000000000000000001673ffffffffffffffffffffffffffffffffffffffff92909216919091179055565b611d228361200f565b600082511180611d2f5750805b1561141757611d3e838361205c565b50505050565b600054610100900460ff16611dc15760405162461bcd60e51b815260206004820152602b60248201527f496e697469616c697a61626c653a20636f6e7472616374206973206e6f74206960448201527f6e697469616c697a696e6700000000000000000000000000000000000000000060648201526084016104f1565b610d76336115b4565b600054610100900460ff16611e475760405162461bcd60e51b815260206004820152602b60248201527f496e697469616c697a61626c653a20636f6e7472616374206973206e6f74206960448201527f6e697469616c697a696e6700000000000000000000000000000000000000000060648201526084016104f1565b60408051602081019091526000815261012d9061098e9082612a2f565b73ffffffffffffffffffffffffffffffffffffffff8516611ef95760005b8351811015611ef757828181518110611e9d57611e9d61292c565b602002602001015161015f6000868481518110611ebc57611ebc61292c565b602002602001015181526020019081526020016000206000828254611ee19190612bf0565b90915550611ef09050816129a9565b9050611e82565b505b73ffffffffffffffffffffffffffffffffffffffff84166119e55760005b83518110156113d3576000848281518110611f3457611f3461292c565b602002602001015190506000848381518110611f5257611f5261292c565b60200260200101519050600061015f600084815260200190815260200160002054905081811015611feb5760405162461bcd60e51b815260206004820152602860248201527f455243313135353a206275726e20616d6f756e74206578636565647320746f7460448201527f616c537570706c7900000000000000000000000000000000000000000000000060648201526084016104f1565b600092835261015f602052604090922091039055612008816129a9565b9050611f17565b61201881611c29565b60405173ffffffffffffffffffffffffffffffffffffffff8216907fbc7cd75a20ee27fd9adebab32041f755214dbc6bffa90cc0225b39da2e5c2d3b90600090a250565b606073ffffffffffffffffffffffffffffffffffffffff83163b6120e85760405162461bcd60e51b815260206004820152602660248201527f416464726573733a2064656c65676174652063616c6c20746f206e6f6e2d636f60448201527f6e7472616374000000000000000000000000000000000000000000000000000060648201526084016104f1565b6000808473ffffffffffffffffffffffffffffffffffffffff16846040516121109190612dab565b600060405180830381855af49150503d806000811461214b576040519150601f19603f3d011682016040523d82523d6000602084013e612150565b606091505b50915091506121788282604051806060016040528060278152602001612dc860279139612181565b95945050505050565b6060831561219057508161074c565b8251156121a05782518084602001fd5b8160405162461bcd60e51b81526004016104f19190612280565b803573ffffffffffffffffffffffffffffffffffffffff8116811461052c57600080fd5b600080604083850312156121f157600080fd5b6121fb84846121ba565b946020939093013593505050565b7fffffffff000000000000000000000000000000000000000000000000000000008116811461098e57600080fd5b60006020828403121561224957600080fd5b813561074c81612209565b60005b8381101561226f578181015183820152602001612257565b83811115611d3e5750506000910152565b602081526000825180602084015261229f816040850160208701612254565b601f017fffffffffffffffffffffffffffffffffffffffffffffffffffffffffffffffe0169190910160400192915050565b6000602082840312156122e357600080fd5b5035919050565b7f4e487b7100000000000000000000000000000000000000000000000000000000600052604160045260246000fd5b7fffffffffffffffffffffffffffffffffffffffffffffffffffffffffffffffe0601f830116810181811067ffffffffffffffff8211171561235d5761235d6122ea565b6040525050565b600082601f83011215801561237857600080fd5b50813567ffffffffffffffff811115612393576123936122ea565b6040516123c860207fffffffffffffffffffffffffffffffffffffffffffffffffffffffffffffffe0601f8501160182612319565b8181528460208386010111156123dd57600080fd5b816020850160208301376000918101602001919091529392505050565b6000806000604084860312801561241057600080fd5b50833567ffffffffffffffff81111561242857600080fd5b8401601f8101861361243957600080fd5b803567ffffffffffffffff81111561245057600080fd5b8660208260051b840101111561246557600080fd5b60209182019450925084013567ffffffffffffffff81111561248657600080fd5b8401601f8101861361249757600080fd5b803567ffffffffffffffff8111156124b1576124b16122ea565b6040516124e660207fffffffffffffffffffffffffffffffffffffffffffffffffffffffffffffffe0601f8501160182612319565b8181528760208385010111156124fb57600080fd5b816020840160208301376000602083830101528093505050509250925092565b600067ffffffffffffffff821115612535576125356122ea565b5060051b60200190565b600082601f83011215801561255357600080fd5b823567ffffffffffffffff81111561256d5761256d6122ea565b8060051b6040516125816020830182612319565b91825260208186018101929081018784111561259c57600080fd5b6020870192505b838310156125c55784156125b5578485fd5b82358152602092830192016125a3565b509695505050505050565b600080600080600060a08688031280156125e957600080fd5b506125f487876121ba565b945061260387602088016121ba565b9350604086013567ffffffffffffffff81111561261f57600080fd5b61262b8882890161253f565b935050606086013567ffffffffffffffff81111561264857600080fd5b6126548882890161253f565b925050608086013567ffffffffffffffff81111561267157600080fd5b61267d88828901612364565b9150509295509295909350565b60006020828403121561269c57600080fd5b61074c83836121ba565b60008060408385031280156126ba57600080fd5b50823567ffffffffffffffff8111156126d257600080fd5b8301601f810185136126e357600080fd5b80356126ee8161251b565b6040516126fb8282612319565b80915082815260208101915060208360051b85010192508783111561271f57600080fd5b6020840193505b828410156127495761273888856121ba565b825260209384019390910190612726565b9450505050602083013567ffffffffffffffff81111561276857600080fd5b6127748582860161253f565b9150509250929050565b602080825282518282018190526000918401906040840190835b818110156127b6578351835260209384019390920191600101612798565b509095945050505050565b60008060408385031280156127d557600080fd5b506127e084846121ba565b9150602083013567ffffffffffffffff8111156127fc57600080fd5b61277485828601612364565b600080604083850312801561281c57600080fd5b5061282784846121ba565b91506020830135801515811461283c57600080fd5b809150509250929050565b6000806040838503121561285a57600080fd5b61286484846121ba565b915061287384602085016121ba565b90509250929050565b600080600080600060a086880312801561289557600080fd5b506128a087876121ba565b94506128af87602088016121ba565b93506040860135925060608601359150608086013567ffffffffffffffff81111561267157600080fd5b600181811c908216806128ed57607f821691505b602082108103612926577f4e487b7100000000000000000000000000000000000000000000000000000000600052602260045260246000fd5b50919050565b7f4e487b7100000000000000000000000000000000000000000000000000000000600052603260045260246000fd5b7f4e487b7100000000000000000000000000000000000000000000000000000000600052601160045260246000fd5b600060ff821660ff81036129a0576129a061295b565b60010192915050565b60007fffffffffffffffffffffffffffffffffffffffffffffffffffffffffffffffff82036129da576129da61295b565b5060010190565b601f82111561141757806000526020600020601f840160051c81016020851015612a085750805b601f840160051c820191505b81811015612a285760008155600101612a14565b5050505050565b815167ffffffffffffffff81118015612a4a57612a4a6122ea565b50612a5f81612a5984546128d9565b846129e1565b6020601f82118060018114612ab25760008415612a7c5750858301515b8460011b7fffffffffffffffffffffffffffffffffffffffffffffffffffffffffffffffff8660031b1c198216178655506119e5565b6000858152602081207fffffffffffffffffffffffffffffffffffffffffffffffffffffffffffffffe08616915b82811015612b005788860151825560209586019560019092019101612ae0565b5085821015612b3c57878501517fffffffffffffffffffffffffffffffffffffffffffffffffffffffffffffffff600388901b60f8161c191681555b5050505050600190811b01905550565b6000808454612b5a816128d9565b600182168015612b715760018114612ba457612bd4565b7fffffffffffffffffffffffffffffffffffffffffffffffffffffffffffffff0083168652811515820286019350612bd4565b87600052602060002060005b83811015612bcc57815488820152600190910190602001612bb0565b505081860193505b5050508351612be7818360208801612254565b01949350505050565b60008219821115612c0357612c0361295b565b500190565b600060208284031215612c1a57600080fd5b5051919050565b73ffffffffffffffffffffffffffffffffffffffff8616815273ffffffffffffffffffffffffffffffffffffffff8516602082015283604082015282606082015260a06080820152600082518060a0840152612c848160c0850160208701612254565b601f017fffffffffffffffffffffffffffffffffffffffffffffffffffffffffffffffe0169190910160c0019695505050505050565b600060208284031215612ccc57600080fd5b815161074c81612209565b600060033d1115610d615760046000803e5060005160e01c90565b600060443d1015612d005790565b6040517ffffffffffffffffffffffffffffffffffffffffffffffffffffffffffffffffc3d016004823e80513d602482011167ffffffffffffffff82111715612d4857505090565b808201805167ffffffffffffffff811115612d64575050505090565b7ffffffffffffffffffffffffffffffffffffffffffffffffffffffffffffffffc3d8501016020828401011115612d9c575050505090565b610ac760208285010185612319565b60008251612dbd818460208701612254565b919091019291505056fe416464726573733a206c6f772d6c6576656c2064656c65676174652063616c6c206661696c6564a2646970667358221220bdf2c30ac9abef715c7e88293b05465389d121468c5ed1185188af6096ea823864736f6c634300080f0033",
  "devdoc": {
    "kind": "dev",
    "methods": {
      "balanceOf(address,uint256)": {
        "details": "See {IERC1155-balanceOf}. Requirements: - `account` cannot be the zero address."
      },
      "balanceOfBatch(address[],uint256[])": {
        "details": "See {IERC1155-balanceOfBatch}. Requirements: - `accounts` and `ids` must have the same length."
      },
      "constructor": {
        "custom:oz-upgrades-unsafe-allow": "constructor"
      },
      "exists(uint256)": {
        "details": "Indicates whether any token exist with a given id, or not."
      },
      "isApprovedForAll(address,address)": {
        "details": "See {IERC1155-isApprovedForAll}."
      },
      "owner()": {
        "details": "Returns the address of the current owner."
      },
      "proxiableUUID()": {
        "details": "Implementation of the ERC1822 {proxiableUUID} function. This returns the storage slot used by the implementation. It is used to validate that the this implementation remains valid after an upgrade. IMPORTANT: A proxy pointing at a proxiable contract should not be considered proxiable itself, because this risks bricking a proxy that upgrades to it, by delegating to itself until out of gas. Thus it is critical that this function revert if invoked through a proxy. This is guaranteed by the `notDelegated` modifier."
      },
      "renounceOwnership()": {
        "details": "Leaves the contract without owner. It will not be possible to call `onlyOwner` functions anymore. Can only be called by the current owner. NOTE: Renouncing ownership will leave the contract without an owner, thereby removing any functionality that is only available to the owner."
      },
      "safeBatchTransferFrom(address,address,uint256[],uint256[],bytes)": {
        "details": "See {IERC1155-safeBatchTransferFrom}."
      },
      "safeTransferFrom(address,address,uint256,uint256,bytes)": {
        "details": "See {IERC1155-safeTransferFrom}."
      },
      "setApprovalForAll(address,bool)": {
        "details": "See {IERC1155-setApprovalForAll}."
      },
      "supportsInterface(bytes4)": {
        "details": "See {IERC165-supportsInterface}."
      },
      "totalSupply(uint256)": {
        "details": "Total amount of tokens in with a given id."
      },
      "transferOwnership(address)": {
        "details": "Transfers ownership of the contract to a new account (`newOwner`). Can only be called by the current owner."
      },
      "upgradeTo(address)": {
        "details": "Upgrade the implementation of the proxy to `newImplementation`. Calls {_authorizeUpgrade}. Emits an {Upgraded} event."
      },
      "upgradeToAndCall(address,bytes)": {
        "details": "Upgrade the implementation of the proxy to `newImplementation`, and subsequently execute the function call encoded in `data`. Calls {_authorizeUpgrade}. Emits an {Upgraded} event."
      }
    },
    "version": 1
  },
  "userdoc": {
    "kind": "user",
    "methods": {},
    "version": 1
  },
  "storageLayout": {
    "storage": [
      {
        "astId": 527,
        "contract": "contracts/HYDNSeal.sol:HYDNSeal",
        "label": "_initialized",
        "offset": 0,
        "slot": "0",
        "type": "t_uint8"
      },
      {
        "astId": 530,
        "contract": "contracts/HYDNSeal.sol:HYDNSeal",
        "label": "_initializing",
        "offset": 1,
        "slot": "0",
        "type": "t_bool"
      },
      {
        "astId": 509,
        "contract": "contracts/HYDNSeal.sol:HYDNSeal",
        "label": "__gap",
        "offset": 0,
        "slot": "1",
        "type": "t_array(t_uint256)50_storage"
      },
      {
        "astId": 2805,
        "contract": "contracts/HYDNSeal.sol:HYDNSeal",
        "label": "__gap",
        "offset": 0,
        "slot": "51",
        "type": "t_array(t_uint256)50_storage"
      },
      {
        "astId": 806,
        "contract": "contracts/HYDNSeal.sol:HYDNSeal",
        "label": "__gap",
        "offset": 0,
        "slot": "101",
        "type": "t_array(t_uint256)50_storage"
      },
      {
        "astId": 10,
        "contract": "contracts/HYDNSeal.sol:HYDNSeal",
        "label": "_owner",
        "offset": 0,
        "slot": "151",
        "type": "t_address"
      },
      {
        "astId": 130,
        "contract": "contracts/HYDNSeal.sol:HYDNSeal",
        "label": "__gap",
        "offset": 0,
        "slot": "152",
        "type": "t_array(t_uint256)49_storage"
      },
      {
        "astId": 3209,
        "contract": "contracts/HYDNSeal.sol:HYDNSeal",
        "label": "__gap",
        "offset": 0,
        "slot": "201",
        "type": "t_array(t_uint256)50_storage"
      },
      {
        "astId": 836,
        "contract": "contracts/HYDNSeal.sol:HYDNSeal",
        "label": "_balances",
        "offset": 0,
        "slot": "251",
        "type": "t_mapping(t_uint256,t_mapping(t_address,t_uint256))"
      },
      {
        "astId": 842,
        "contract": "contracts/HYDNSeal.sol:HYDNSeal",
        "label": "_operatorApprovals",
        "offset": 0,
        "slot": "252",
        "type": "t_mapping(t_address,t_mapping(t_address,t_bool))"
      },
      {
        "astId": 844,
        "contract": "contracts/HYDNSeal.sol:HYDNSeal",
        "label": "_uri",
        "offset": 0,
        "slot": "253",
        "type": "t_string_storage"
      },
      {
        "astId": 2051,
        "contract": "contracts/HYDNSeal.sol:HYDNSeal",
        "label": "__gap",
        "offset": 0,
        "slot": "254",
        "type": "t_array(t_uint256)47_storage"
      },
      {
        "astId": 2426,
        "contract": "contracts/HYDNSeal.sol:HYDNSeal",
        "label": "_baseURI",
        "offset": 0,
        "slot": "301",
        "type": "t_string_storage"
      },
      {
        "astId": 2430,
        "contract": "contracts/HYDNSeal.sol:HYDNSeal",
        "label": "_tokenURIs",
        "offset": 0,
        "slot": "302",
        "type": "t_mapping(t_uint256,t_string_storage)"
      },
      {
        "astId": 2505,
        "contract": "contracts/HYDNSeal.sol:HYDNSeal",
        "label": "__gap",
        "offset": 0,
        "slot": "303",
        "type": "t_array(t_uint256)48_storage"
      },
      {
        "astId": 2240,
        "contract": "contracts/HYDNSeal.sol:HYDNSeal",
        "label": "_totalSupply",
        "offset": 0,
        "slot": "351",
        "type": "t_mapping(t_uint256,t_uint256)"
      },
      {
        "astId": 2391,
        "contract": "contracts/HYDNSeal.sol:HYDNSeal",
        "label": "__gap",
        "offset": 0,
        "slot": "352",
        "type": "t_array(t_uint256)49_storage"
      },
      {
        "astId": 3452,
        "contract": "contracts/HYDNSeal.sol:HYDNSeal",
        "label": "name",
        "offset": 0,
        "slot": "401",
        "type": "t_string_storage"
      },
      {
        "astId": 3454,
        "contract": "contracts/HYDNSeal.sol:HYDNSeal",
        "label": "symbol",
        "offset": 0,
        "slot": "402",
        "type": "t_string_storage"
      },
      {
        "astId": 3457,
        "contract": "contracts/HYDNSeal.sol:HYDNSeal",
        "label": "totalAudits",
        "offset": 0,
        "slot": "403",
        "type": "t_struct(Counter)2812_storage"
      }
    ],
    "types": {
      "t_address": {
        "encoding": "inplace",
        "label": "address",
        "numberOfBytes": "20"
      },
      "t_array(t_uint256)47_storage": {
        "base": "t_uint256",
        "encoding": "inplace",
        "label": "uint256[47]",
        "numberOfBytes": "1504"
      },
      "t_array(t_uint256)48_storage": {
        "base": "t_uint256",
        "encoding": "inplace",
        "label": "uint256[48]",
        "numberOfBytes": "1536"
      },
      "t_array(t_uint256)49_storage": {
        "base": "t_uint256",
        "encoding": "inplace",
        "label": "uint256[49]",
        "numberOfBytes": "1568"
      },
      "t_array(t_uint256)50_storage": {
        "base": "t_uint256",
        "encoding": "inplace",
        "label": "uint256[50]",
        "numberOfBytes": "1600"
      },
      "t_bool": {
        "encoding": "inplace",
        "label": "bool",
        "numberOfBytes": "1"
      },
      "t_mapping(t_address,t_bool)": {
        "encoding": "mapping",
        "key": "t_address",
        "label": "mapping(address => bool)",
        "numberOfBytes": "32",
        "value": "t_bool"
      },
      "t_mapping(t_address,t_mapping(t_address,t_bool))": {
        "encoding": "mapping",
        "key": "t_address",
        "label": "mapping(address => mapping(address => bool))",
        "numberOfBytes": "32",
        "value": "t_mapping(t_address,t_bool)"
      },
      "t_mapping(t_address,t_uint256)": {
        "encoding": "mapping",
        "key": "t_address",
        "label": "mapping(address => uint256)",
        "numberOfBytes": "32",
        "value": "t_uint256"
      },
      "t_mapping(t_uint256,t_mapping(t_address,t_uint256))": {
        "encoding": "mapping",
        "key": "t_uint256",
        "label": "mapping(uint256 => mapping(address => uint256))",
        "numberOfBytes": "32",
        "value": "t_mapping(t_address,t_uint256)"
      },
      "t_mapping(t_uint256,t_string_storage)": {
        "encoding": "mapping",
        "key": "t_uint256",
        "label": "mapping(uint256 => string)",
        "numberOfBytes": "32",
        "value": "t_string_storage"
      },
      "t_mapping(t_uint256,t_uint256)": {
        "encoding": "mapping",
        "key": "t_uint256",
        "label": "mapping(uint256 => uint256)",
        "numberOfBytes": "32",
        "value": "t_uint256"
      },
      "t_string_storage": {
        "encoding": "bytes",
        "label": "string",
        "numberOfBytes": "32"
      },
      "t_struct(Counter)2812_storage": {
        "encoding": "inplace",
        "label": "struct CountersUpgradeable.Counter",
        "members": [
          {
            "astId": 2811,
            "contract": "contracts/HYDNSeal.sol:HYDNSeal",
            "label": "_value",
            "offset": 0,
            "slot": "0",
            "type": "t_uint256"
          }
        ],
        "numberOfBytes": "32"
      },
      "t_uint256": {
        "encoding": "inplace",
        "label": "uint256",
        "numberOfBytes": "32"
      },
      "t_uint8": {
        "encoding": "inplace",
        "label": "uint8",
        "numberOfBytes": "1"
      }
    }
  }
}